:020000040800F2
:1090000000800120199200083D9300084193000858
:1090100045930008499300084D93000800000000A4
:109020000000000000000000000000000D9A000891
:109030006992000800000000559A00089D9B0008F6
:109040006992000869920008699200086992000814
:109050006992000869920008699200086992000804
:1090600069920008699200086992000869920008F4
:1090700069920008699200086992000869920008E4
:1090800069920008699200086992000869920008D4
:1090900069920008699200086992000869920008C4
:1090A00069920008699200086992000869920008B4
:1090B00069920008699200086992000869920008A4
:1090C0006992000869920008699200086992000894
:1090D0006992000869920008699200086992000884
:1090E0006992000869920008699200086992000874
:1090F0006992000869920008699200086992000864
:109100006992000869920008699200086992000853
:109110006992000869920008699200086992000843
:109120006992000869920008699200086992000833
:109130006992000869920008699200086992000823
:109140006992000869920008699200086992000813
:109150006992000869920008699200086992000803
:1091600069920008699200086992000869920008F3
:1091700069920008699200086992000869920008E3
:1091800069920008699200086992000869920008D3
:1091900069920008000000006992000869920008C6
:1091A00069920008699200086992000869920008B3
:1091B00069920008699200086992000869920008A3
:1091C0006992000869920008699200086992000893
:0891D000699200086992000891
:1091D80010B5054C237833B9044B13B10448AFF3E9
:1091E80000800123237010BD14000020000000003F
:1091F800FCAF000808B5034B1BB103490348AFF3A4
:10920800008008BD0000000018000020FCAF000826
:109218000D48854600F026F80C480D490D4A0023F4
:1092280002E0D458C4500433C4188C42F9D30A4A13
:109238000A4C002301E013600432A242FBD301F080
:109248009FFE00F027F8FEE70080012000000020C4
:10925800140000203CB0000814000020D841002071
:10926800FEE70000034AD2F8883043F47003C2F8DE
:109278008830704700ED00E008B5054C20464FF4F3
:10928800005100F01FFA4FF4FA7001F0D9FAF5E72F
:109298000008004830B589B000F07CF808B172B613
:1092A800FEE7114BDA6C42F00402DA64DB6C0790DB
:1092B80003F004030446CDE9050001254FF40052EC
:1092C800029303A90948029BCDE9032500F0E8F8B9
:1092D8000749084823468022CDE9005401F09EF949
:1092E80001F0E2FA72B6FEE70010024000080048FA
:1092F80014B000088192000872B6FEE772B6FEE765
:1093080000F058B80A4B1A6E42F001021A661A6E3B
:1093180082B002F001020092009A9A6D42F08052E7
:109328009A659B6D03F080530193019B02B07047CF
:1093380000100240704700BFFEE700BFFEE700BF15
:10934800FEE700BFFEE700BF38B50F4B1B680BB93F
:10935800012038BD0D494FF47A720546B2FBF3F38C
:109368000868B0FBF3F000F081F804460028EFD15C
:109378000F2DEDD8024629464FF0FF3000F038F89F
:10938800034B20461D6038BD04000020000000206B
:109398000800002010B5032000F018F80F20FFF790
:1093A800D3FF10B10124204610BD0446FFF7AAFFE1
:1093B800204610BD034A0449136809680B4413602A
:1093C800704700BF30000020040000200749CA6829
:1093D80003024FF6FF0003F4E0630240134343F037
:1093E800BF6343F40033CB60704700BF00ED00E07B
:1093F8001C4BDB68C3F3022300B5C3F1070EBEF1B3
:10940800040F03F1040C28BF4FF0040EBCF1060F43
:109418001BD9033B4FF0FF3C0CFA03FC22EA0C0279
:109428004FF0FF3C0CFA0EFC21EA0C019940002891
:1094380041EA02010CDB00F16040090100F56140DE
:10944800C9B280F800135DF804FB00221346E7E771
:10945800054B00F00F0009010344C9B219765DF805
:1094680004FB00BF00ED00E0FCEC00E00138B0F1C7
:10947800807F10D210B44FF0E023084C58614FF0B1
:10948800F00C84F823C00022072110469A615DF889
:10949800044B196170470120704700BF00ED00E0E0
:1094A8002DE9F04F0C6885B0002C00F09780002261
:1094B800DFF80CA213464FF0010BA1460BFA03FC90
:1094C8001CEA090800F083804F6807F00304651E52
:1094D800012D40F28680032C40F0C7808D68012D55
:1094E80004FA02F407D0D0F80CC095402CEA040C1A
:1094F80045EA0C05C560E543D0F800C00CEA05054F
:109508002C4317F4403F046061D0DAF8604044F01F
:109518000104CAF86040DAF8604004F001040394DA
:10952800039C23F0030404F1804404F5803403F021
:10953800030CA5684FEA8C0C0F2606FA0CFEB0F156
:10954800904F25EA0E051AD0574EB04200F0988089
:10955800564EB04200F09980554EB04200F08980D6
:10956800544EB04200F09880534EB0420CBF4FF0BA
:10957800050E4FF0060E0EFA0CFC45EA0C05A56028
:109588004E4C4E4DA4686FEA080CFE0254BF0CEA1C
:10959800040448EA0404AC60EC68BD02474D54BFBB
:1095A8000CEA040448EA0404EC606D68434CBE030A
:1095B80054BF0CEA050548EA050565602468FD0303
:1095C8003E4D54BF0CEA040448EA04042C600133FD
:1095D80039FA03F402F102027FF470AF05B0BDE876
:1095E800F08F8568CE684FF0030E0EFA02FE25EA6A
:1095F8000E059640354385606FEA0E05D0F804E005
:109608002EEA0C0EC7F3001C0CFA03FC4CEA0E0CF5
:10961800C0F804C0D0F80CC08E680CEA050C06FA35
:1096280002FE4EEA0C0C022CC0F80CC004FA02F43C
:109638007FF462AF4FEAD30E00EB8E0E03F0070CF7
:10964800DEF8206000960E694FEA8C0C06FA0CF6DC
:1096580001960F2606FA0CFC009E26EA0C0C019EC9
:1096680046EA0C0CCEF820C046E703259540ED43AA
:10967800D0E74FF0030E0EFA0CFC45EA0C057EE726
:109688000BFA0CFC45EA0C0579E74FF0020E0EFACE
:109698000CFC45EA0C0572E74FF0040E0EFA0CFCC0
:1096A80045EA0C056BE700BF0004004800080048C5
:1096B800000C004800100048001400480004014055
:1096C80000100240436901EA030221EA030141EA6A
:1096D80002418161704700BFF8B5431E0A3342D882
:1096E80000F1080410F0070049D1614D01F02EF98E
:1096F8002B68002B00F086802346002B38DB002CDB
:1097080036D05C4F3E68A64232D35B495B480B6853
:10971800834244D3DFF870E1734540D88C4607E0B4
:109728001A6842B182429C4663D3724561D8134697
:109738005968A142F4D32A689A4219D0DCF800503B
:109748000835854222D3754520D81868CCF8000022
:10975800A14259D24FF0500383F31188BFF36F8FA2
:10976800BFF34F8FFEE7424D01F0F0F82B68FBB1D5
:1097780001F0F4F80025FFF7C1FD2846F8BDC0F157
:109788000800C343A342EED30444AEE74FF05003AE
:1097980083F31188BFF36F8FBFF34F8FFEE74FF04E
:1097A800500383F31188BFF36F8FBFF34F8FFEE72A
:1097B8001C463248460715D100F580420146064648
:1097C800083A22F007022E482B4F2A60511A0160EE
:1097D80028483E60016000207860C2E90000C6E9C0
:1097E80000218AE7C11D21F0070100F580420E46DD
:1097F800E6E74FF0500383F31188BFF36F8FBFF391
:109808004F8FFEE72346D4E7A1EB040EBEF1100FFD
:1098180011D91A19510708D04FF0500383F3118852
:10982800BFF36F8FBFF34F8FFEE7C2F804E0214606
:109838001851CCF8002012480468761AA64238BF9E
:10984800066010483E60026841F0004100241C6038
:1098580001325960026001F081F86B078DD04FF03A
:10986800500383F31188BFF36F8FBFF34F8FFEE769
:1098780034000020384000204840002038000020F4
:109888003C4000204040002037400020F8B170B52F
:10989800384DA0F10804AC4282B00FD3364EB44222
:1098A8000CD850F8043C002B12DB4FF0500383F324
:1098B8001188BFF36F8FBFF34F8FFEE74FF0500350
:1098C80083F31188BFF36F8FBFF34F8FFEE77047A5
:1098D80050F8082C42B14FF0500383F31188BFF3BE
:1098E8006F8FBFF34F8FFEE723F0004340F8043C2F
:1098F800019001F02BF80198204A50F8041C1368D5
:109908001F480B44136003461A461B689C42FBD849
:10991800824203D0AA4215D3B24213D85068151810
:10992800AC4222D06018834215D02360A24218BFEF
:109938001460144A13680133136002B0BDE8704024
:1099480001F00CB84FF0500383F31188BFF36F8F09
:10995800BFF34F8FFEE70C4800688342E5D0D3E998
:1099680000300144C4E90031E0E701445160144685
:10997800D8E700BF380000203740002038400020DA
:1099880048400020444000203400002000F1080333
:109998004FF0FF310022C0E90131C0E90333026012
:1099A800704700BF00230361704700BF30B40D68E3
:1099B8006B1C10D000F108031C465B681A68AA42A9
:1099C800FAD902684B60013299608C606160086165
:1099D80030BC0260704704696368F2E7026910B43A
:1099E800D0E9011354688B608442596008BF536002
:1099F80013685DF8044B013B0021016118461360B0
:109A0800704700BF064B19680868B0E8F04F80F34C
:109A18000988BFF36F8F4FF0000080F311887047FB
:109A28009840002008480068006880F308884FF0D4
:109A3800000080F3148862B661B6BFF34F8FBFF39E
:109A48006F8F00DF00BF000008ED00E0EFF3098032
:109A5800BFF36F8F144B1A681EF0100F08BF20ED6C
:109A6800108A20E9F04F10602DE909004FF05000EE
:109A780080F31188BFF34F8FBFF36F8F00F09EFF05
:109A88004FF0000080F3118809BC19680868B0E835
:109A9800F04F1EF0100F08BFB0EC108A80F3098851
:109AA800BFF36F8F7047000098400020DFF80C006C
:109AB800016841F4700101607047000088ED00E022
:109AC8000E4B1B6882B000220133019208D04FF080
:109AD800500383F31188BFF36F8FBFF34F8FFEE7F7
:109AE8004FF0500383F31188BFF36F8FBFF34F8F8D
:109AF800019B002BFCD002B0704700BF0C00002077
:109B080010B44FF08073074C40F8043C21F0010179
:109B18006FF0020340E9034140E909325DF8044B64
:109B280044387047C99A00084FF0500383F31188EE
:109B3800BFF36F8FBFF34F8F0B4A13680133012BAD
:109B4800136000D070474FF0E023D3F8043DDBB238
:109B5800002BF7D04FF0500383F31188BFF36F8FBA
:109B6800BFF34F8FFEE700BF0C000020084A1368C0
:109B780043B94FF0500383F31188BFF36F8FBFF3DE
:109B88004F8FFEE7013B13600BB983F311887047D1
:109B98000C00002008B54FF0500383F31188BFF381
:109BA8006F8FBFF34F8F00F0F5FE28B14FF0E02321
:109BB8004FF08052C3F8042D002383F3118808BDA9
:109BC8004FF0E023002243F67F6007211A619A6173
:109BD80058611961704700BF4FF0E023544AD3F829
:109BE800001D91421CD0D3F8001D524A91420ED05C
:109BF800D3F8083D504AD96A91421AD04FF0500321
:109C080083F31188BFF36F8FBFF34F8FFEE74FF0D9
:109C1800500383F31188BFF36F8FBFF34F8FFEE7B5
:109C28004FF0500383F31188BFF36F8FBFF34F8F4B
:109C3800FEE7424A9B6B934208D04FF0500383F3F0
:109C48001188BFF36F8FBFF34F8FFEE730B583B036
:109C58003B4B002201921A78FF21D2B28DF80220E4
:109C680019701B78374ADBB28DF803309DF8033042
:109C780003F05003137043B94FF0500383F3118876
:109C8800BFF36F8FBFF34F8FFEE79DF80330DB43C1
:109C980013F0500311D04FF0500383F31188BFF332
:109CA8006F8FBFF34F8FFEE7019A013201929DF843
:109CB80003205200D2B28DF803209DF8032012062B
:109CC800F2D4019A082A05D0019BC3F107031B02AD
:109CD80003F4E0639DF802201B48194903604FF024
:109CE800E024D2B20A70D4F8203D43F47F03C4F8CC
:109CF800203DD4F8203D002543F07F43C4F8203DA3
:109D0800C4F81C5DFFF75CFF104B1D60FFF7CEFE2B
:109D1800D4F8343F43F04043C4F8343FFFF782FEA1
:109D280000F04CFEFFF7CCFE284603B030BD00BF64
:109D380071C20F4170C20F410D9A0008559A000870
:109D480000E400E050400020544000200C000020B7
:109D580070B50546FFF7E8FE95F845305CB2002C73
:109D680014DD05F1240603E0631EDAB25CB26AB1C1
:109D78006B6A304653B100F079FE0028F4D000F049
:109D88003BFF631EDAB25CB2002AF1D1FF2385F8EB
:109D98004530FFF7EBFEFFF7C7FE95F844305CB29D
:109DA800002C14DD05F1100603E0631EDAB25CB284
:109DB8006AB12B69304653B100F058FE0028F4D040
:109DC80000F01AFF631EDAB25CB2002AF1D1FF2359
:109DD80085F84430BDE87040FFF7C8BE58B3C36B80
:109DE80070B50446F3B1056CA5FB0335D5B90E462D
:109DF800FFF79AFED4E90F232168A56303FB02F25B
:109E0800D31A0A44A2600B44FF2284F844206160FC
:109E1800E36084F8452046BB2369ABB9FFF7A6FE8B
:109E2800012070BD4FF0500383F31188BFF36F8F8B
:109E3800BFF34F8FFEE74FF0500383F31188BFF352
:109E48006F8FBFF34F8FFEE704F1100000F00EFE96
:109E58000028E3D04FF0E0234FF08052C3F8042DE0
:109E6800BFF34F8FBFF36F8FD8E704F11000FFF7F0
:109E78008DFD04F12400FFF789FDCFE730B583B0ED
:109E880040B1A0FB0123044623B901FB00F010F107
:109E9800490F08D94FF0500383F31188BFF36F8F30
:109EA800BFF34F8FFEE748300191FFF715FC0546D9
:109EB80050B1019959B100F14803C5E90F412B6030
:109EC80001212846FFF78AFF284603B030BD034624
:109ED800F3E700BF2DE9F04385B00192002800F0B8
:109EE800A0800D460446002947D000F08BFE0028CC
:109EF8004FD0FFF719FEA66B002E67D1019B002BF0
:109F080035D002A800F026FE374604F124084FF0A9
:109F1800E029FFF72BFE00F019FDFFF705FE94F886
:109F28004430FF2B08BF84F8447094F84530FF2B69
:109F380008BF84F84570FFF719FE01A902A800F0D0
:109F480015FE002831D1FFF7EFFDA36B002B52D08F
:109F5800FFF70CFE2046FFF7FBFE00F0FFFCFFF7C3
:109F6800E3FDA66B002E31D1019B002BD1D1FFF769
:109F7800FDFD002005B0BDE8F083036C002BB4D0D4
:109F88004FF0500383F31188BFF36F8FBFF34F8FE8
:109F9800FEE7019B002BACD04FF0500383F31188F0
:109FA800BFF36F8FBFF34F8FFEE72046FFF7D0FE5A
:109FB80000F0D4FCFFF7B8FDA36B002BD7D0FFF758
:109FC800D5FDFFF7B1FDA66B002ECDD0226C52B1A6
:109FD800E168A36811449942E16024BF2168E16007
:109FE800284600F0F1FF2369013EA66313BBFFF783
:109FF800BDFD0120BEE7FFF7B9FD0199404600F01D
:10A00800EBFC2046FFF7A4FE00F0A8FC0028D8D1FE
:10A018004FF08053C9F8043DBFF34F8FBFF36F8FE4
:10A02800CFE74FF0500383F31188BFF36F8FBFF36F
:10A038004F8FFEE704F1100000F018FD0028D6D07D
:10A048004FF0E0234FF08052C3F8042DBFF34F8F39
:10A05800BFF36F8FCBE700BF20B311B330B4002537
:10A06800164C2B4604EBC3024FEAC30C52688242DB
:10A0780014D035B10133082BF4D1C5E9001030BC38
:10A08800704754F83320B2B10133082B04EBC302F4
:10A098004FEAC30CF3D052689042F2D104EB0C059E
:10A0A800EBE770474FF0500383F31188BFF36F8FCE
:10A0B800BFF34F8FFEE704EB0C05DBE758400020A9
:10A0C80070B504460E461546FFF72EFD94F8443049
:10A0D800FF2B04BF002384F8443094F84530FF2B4D
:10A0E80004BF002384F84530FFF740FDA36B23B17C
:10A0F8002046BDE87040FFF72BBE04F124002A4635
:10A10800314600F083FC2046BDE87040FFF720BED2
:10A118002DE9F843244A254C254B264E2468D2F8CD
:10A128000080D3F800900546306804300F46FFF7EA
:10A1380055FC48B933682049DA6A012303FA02F268
:10A148000B6823EA02030B606B1C15D03368316877
:10A1580064195C600AD240460431FFF727FC174BAC
:10A168001A68A24288BF1C60BDE8F88348460431DB
:10A17800BDE8F843FFF71ABC002FE7D0104B306852
:10A188005A68316882609068C860316890680431A4
:10A198004160306819683468043001319060196092
:10A1A8006361BDE8F88300BF9C4000209441002013
:10A1B800A04000209840002018410020484100207D
:10A1C8006C410020234B10B50022234C1A602168F3
:10A1D8002268236812681B6B9A4204D90B6B1A68B1
:10A1E800B2F1A53F29D0216820683431FFF784F8FF
:10A1F8001A4B1B68B3FA83F3DBB2C3F11F0303EBFB
:10A208008303174A990002EB8303505840B94FF073
:10A21800500383F31188BFF36F8FBFF34F8FFEE7AF
:10A2280058680831406858600A44904204BFD868AA
:10A238005860C3682360236810BD5A68B2F1A53F0F
:10A24800D1D19A68B2F1A53FCDD1DB68B3F1A53F72
:10A25800C9D1CDE79841002098400020184100203E
:10A26800A4400020F8B50F4D2B68CBB10E4F0F4E10
:10A27800FFF75AFCFB68DC68201DFFF7AFFB33686B
:10A28800013B33602B68013B2B60FFF76FFC206BB1
:10A29800FFF7FCFA2046FFF7F9FA2B68002BE7D105
:10A2A800F8BD00BF0C41002080410020084100207B
:10A2B80008B50B4C4FF0E0264FF08055FFF7D2FF62
:10A2C8002368012BFAD9C6F8045DBFF34F8FBFF39B
:10A2D8006F8FFFF7C7FF2368012BF4D8EEE700BFA5
:10A2E800A44000202DE9F04F604B1D68013583B074
:10A2F8001D60002D00F085805D4B0193019B1B685C
:10A308009D4264D3DFF878C1DCF800301C68002C6B
:10A3180000F0A78000245748DFF870B1DFF870E13B
:10A32800AA46A04644E0D3E90227596997607A60B3
:10A338004A68AA420A6808BF4F600026013A5E616F
:10A348000A60996A69B1D3E90772BA601A6A5760F4
:10A358004F68A74208BF4A6000229A620A68013A19
:10A368000A60DA6ADEF8009002EB8207012100EB4E
:10A378008704914041EA0901CEF8001061689960AC
:10A388008E68DE6050F8276006F101098E687560F6
:10A398008D60DBF800105C6140F82790DCF8003035
:10A3A800C96A1B688A4288BF4FF00108002B4BD04E
:10A3B800DCF80030DB68DB685A68924503F1040575
:10A3C80003F11804AFD2019B44461A6003E0294800
:10A3D800DFF8B8B00024DBF80030274ADB6A1268DF
:10A3E80003EB830350F82330022B28BF0124AAB1C2
:10A3F800224B1B68002B0CBF2046012003B0BDE890
:10A40800F08F1F4B1A6812685AB14FF0500383F34C
:10A418001188BFF36F8FBFF34F8FFEE7FEF770FF12
:10A42800E6E7184A186811681960174910600A6841
:10A4380001320A601A68126862B90D4B01931A4614
:10A448004FF0FF33136059E74446019A4FF0FF334A
:10A458001360C0E71B68064ADB6801921B6813603B
:10A468004CE70448DFF824B0EFE700BF9441002030
:10A4780048410020A440002050410020984100207D
:10A488009C400020A04000204C4100209840002023
:10A49800184100202DE9F04F564F3B68013B3B60C7
:10A4A800D7F8008083B0B8F1000F40F09280524B8B
:10A4B8001B68002B00F08D80DFF858C1DCF80030F5
:10A4C800002B00F093804D4BDFF84CE14C4D01938D
:10A4D8004FF0010BC246DCF80C30DB68D3E907010A
:10A4E8009A6A81604860506803F11804A04208BF66
:10A4F80051601168C3F828A001391160D3E902211D
:10A50800586991604A604268DEF800401E1DB242F8
:10A5180008BF41600168DA6A0139016002EB820014
:10A5280005EB80080BFA02F10C43D8F80410CEF8BA
:10A5380000408C68DC60334C99602468D4F82C9017
:10A5480055F82040013400948C684A4566608E6056
:10A55800C3F81480009B45F8203084BF019BC3F8E2
:10A5680000B0DCF80030002BB5D1274B1A68126810
:10A57800002A36D01A68254BD26812681A60244D12
:10A588002C68ACB1DDF80480012606E0FFF7AAFECE
:10A5980008B1C8F80060013C09D03B68002BF5D031
:10A5A8002B6801332B60FEF7ABFE013CF5D12C6024
:10A5B800019B1B686BB14FF0E02312494FF08052AA
:10A5C8000968C3F8042DBFF34F8FBFF36F8F0120C5
:10A5D80000E000200090FFF7C9FA009803B0BDE83A
:10A5E800F08F0A4B4FF0FF321A60C8E7034B019314
:10A5F800C5E700BF10410020084100209841002015
:10A60800A4400020984000209C40002048410020A1
:10A618005041002054410020184100202DE9F04706
:10A628004FEA82090746484616460D469846FFF700
:10A6380053F868B382465420FFF74EF8044658B3DF
:10A648005422002100F0CEFC4A46C4F830A05046FF
:10A65800A52100F0C7FC226B75B105F1FF3C04F1A0
:10A6680033030F351CF8011F03F8011F09B1AC456E
:10A67800F8D1002384F84330089B042B13D94FF0FA
:10A68800500383F31188BFF36F8FBFF34F8FFEE73B
:10A698004FF0FF30BDE8F0875046FFF7F7F84FF06E
:10A6A800FF30BDE8F087089BE362251D63642846F8
:10A6B800A9F104099144FFF775F904F11800FFF7AF
:10A6C80071F9089B246129F00709C3F1050348467D
:10A6D800646242463946A361FFF712FAA9EB000902
:10A6E800B6EBA90F206008D84FF0500383F3118808
:10A6F800BFF36F8FBFF34F8FFEE7099B03B11C6059
:10A70800FFF712FA414A424E136801331360336867
:10A71800002B4CD03F4F3B68002B3FD0E36ADFF85B
:10A728001081DFF810E1DFF810C103EB830208EBBA
:10A7380082099200D9F80410A1608868E0608868EE
:10A7480045608D60DEF80010DCF80000C4F8149055
:10A758000131CEF8001058F802100125013105FA30
:10A7680003F3034348F80210CCF80030FFF7FEF972
:10A778003B6883B13268E36AD26A9A420BD24FF0DF
:10A78800E0234FF08052C3F8042DBFF34F8FBFF37F
:10A798006F8F28467EE72846BDE8F0873368DFF8E4
:10A7A8009080DA6AE36A9A4298BF3460B9E7346005
:10A7B8001368012B04D0E36ADFF87480154FB0E703
:10A7C800DFF86C80474608F1640938461437FFF70C
:10A7D800DDF8B945F9D1DFF864900F4F4846FFF727
:10A7E800D5F83846FFF7D2F80C48FFF7CFF80C48F1
:10A7F800FFF7CCF80B48FFF7C9F80B4BC3F80090EC
:10A808000A4B1F60E36A034F8BE700BF0841002033
:10A818009840002068410020304100205441002029
:10A82800804100206C4100209C400020A040002076
:10A83800A440002014410020184100201C410020A1
:10A8480010B550B94FF0E0234FF08052C3F8042DF3
:10A85800BFF34F8FBFF36F8F10BD124C23680133C6
:10A8680023602368012B08D04FF0500383F311882D
:10A87800BFF36F8FBFF34F8FFEE70021FFF748FC50
:10A88800FFF752F9236843B94FF0500383F3118857
:10A89800BFF36F8FBFF34F8FFEE7FFF7FBFD002875
:10A8A800D0D010BD1041002030B587B00023492119
:10A8B8001F4ACDE90233CDE904338DF808100DF1B4
:10A8C800090312F8014F03F8014B002CF9D1194B79
:10A8D8001948CDE900438022234602A9FFF79EFECE
:10A8E800012819D100F026FB012815D14FF050039B
:10A8F80083F31188BFF36F8FBFF34F8F0F49104A4F
:10A90800104B4FF0FF350D6010601C60FFF764F9C5
:10A918000D4B1B6807B030BD0130F9D14FF0500323
:10A9280083F31188BFF36F8FBFF34F8FFEE700BF2C
:10A938001CB0000844410020B9A20008484100208A
:10A94800684100209441002010000020024A13684A
:10A9580001331360704700BF1041002008B5FFF7AE
:10A96800E3F8084B1B6843B94FF0500383F3118891
:10A97800BFF36F8FBFF34F8FFEE7BDE80840FFF7C7
:10A9880089BD00BF10410020014B1868704700BF07
:10A998009441002008B5074B1B681BB9BDE8084067
:10A9A800FFF7A0BC044A136801331360FEF7A8FC44
:10A9B800002008BD1041002050410020044B1B68B6
:10A9C8001BB1044B01221A607047FFF7FBBB00BFA5
:10A9D800104100209841002060B110B50A4B0C4688
:10A9E80019681831FEF7E2FF20460121BDE8104042
:10A9F800FFF78EBB4FF0500383F31188BFF36F8FBF
:10AA0800BFF34F8FFEE700BF9840002018B3F0B4A3
:10AA1800154C45688C46002A11462268AE68D561F7
:10AA280022680346166226682268276802F118041D
:10AA38001A6808BF604602F1010CAA6806F11806F8
:10AA4800566018BF4FF0FF30AC60BB62F0BCC3F873
:10AA580000C0FFF75DBB4FF0500383F31188BFF3CD
:10AA68006F8FBFF34F8FFEE798400020C368DB6805
:10AA7800002B59D0D3E907019A6A2DE9F04181608A
:10AA88004860506803F11804A0422C4808BF516080
:10AA980011680068002501399D621160B8B1284924
:10AAA8004A68DA619068186290684460086894603F
:10AAB8000130DA6A99620860224B1B68DB6A9342AC
:10AAC8003DBF214B012018600020BDE8F0819A6845
:10AAD800D86859699060D8681C4D42604A68DFF8A8
:10AAE80070E01F1DBA4208BF48600868DA6ADEF8DD
:10AAF80000800138086002EB820105EB810C8900B7
:10AB0800DCF804409C60A068D8606858461C0120A6
:10AB1800904040EA0800CEF80000A0684760A760AF
:10AB2800C3F814C06E50C7E74FF0500383F3118881
:10AB3800BFF36F8FBFF34F8FFEE700BF10410020B8
:10AB4800544100209840002098410020A440002053
:10AB580018410020034A044B12681B68C0E900230F
:10AB6800704700BF4C4100209441002038B3F0B535
:10AB78000D4683B0D1B10446FEF7D6FF2B681C4AB8
:10AB8800581C116832D0DFF86CC0D4E90060DCF8DA
:10AB98000070BE421CD088421AD800232B600120C6
:10ABA8000190FEF7E3FF019803B0F0BD4FF05003AA
:10ABB80083F31188BFF36F8FBFF34F8FFEE74FF01A
:10ABC800500383F31188BFF36F8FBFF34F8FFEE7F6
:10ABD800A1EB000E7345E0D95B1ADCF8001012688F
:10ABE80003442B600020C4E90012D9E70020D7E70E
:10ABF800944100204C410020014B01221A6070470B
:10AC080098410020054B1B6833B1054B1B68002B8E
:10AC18000CBF0220002070470120704768410020C7
:10AC280010410020F8B5104CFEF77EFF25681DB1D5
:10AC3800BDE8F840FEF79ABF0C4F0D4E3846FEF7B8
:10AC4800A5FE3046FEF7A2FE0A4B1F600A4B2A46B5
:10AC58000C210A201E60FFF711F920600028E7D0B8
:10AC68000649FFF7F9F9E3E7D0410020A4410020A5
:10AC7800B84100209C410020A041002024B00008D9
:10AC880070B50446164605E0934219D8236A204653
:10AC980098472946A36924615D182CBF012000202C
:10ACA800B542A6EB01026560EED9B14201D9002890
:10ACB800ECD0074B211D1868BDE87040FEF776BE42
:10ACC800044B211D1868BDE87040FEF76FBE00BF39
:10ACD8009C410020A0410020104B1B68DB6870B528
:10ACE800DC680546201D0E46FEF778FE94F82430F1
:10ACF8005A0708D423F0010384F824302046236A35
:10AD0800BDE870401847204632462946FFF7B8FF8D
:10AD1800236A2046BDE87040184700BF9C410020C8
:10AD28002DE9F04F7F4D804FDFF804827F4E85B0CC
:10AD38004FF0E02A4FF000092B68D3F800B0BBF1C0
:10AD4800000F00F0C680DB68D3F800B0FFF7FEFD07
:10AD5800FFF71AFE3B689842044679D35845386095
:10AD680080F0D08000223068ABEB0401FFF7A8F92F
:10AD7800FFF7F4FD38B94FF08053CAF8043DBFF32C
:10AD88004F8FBFF36F8FCDE90199CDF80C903068E4
:10AD9800002201A9FFF79EF80028CDD0019B002BC7
:10ADA800F5DBDDF80CB0BBF1000FF0D0DBF81430A8
:10ADB8001BB10BF10400FEF711FEFFF7E5FD3B6840
:10ADC8009842044611D3019B3C60013B082BDED816
:10ADD800DFE803F01515644B6B1515644B00DB6851
:10ADE8004FF0FF311868FFF777FF2B681A68002AC1
:10ADF800F5D1D8F800202A60C8F80030E3E79BF8BE
:10AE08002420029BDBF81800CBF810B042F00101B7
:10AE18008BF8241019182CBF4FF0010C4FF0000CC0
:10AE2800A142CBF8041049D8E31A98422FD850070A
:10AE380063D422F001028BF82420DBF82030584636
:10AE48009847A4E7DB684FF0FF311868FFF744FF25
:10AE58002B681A68002AF5D1D8F800202A60C8F8AB
:10AE680000303C60FFF77AFD8DE79BF82420029BB9
:10AE7800CBF8183042F001028BF82420002B48D080
:10AE88002344A342CBF80430CBF810B01BD8D8F831
:10AE980000000BF10401FEF789FD78E79BF82430E8
:10AEA80023F001038BF8243071E79BF824309A07CC
:10AEB8001FD523F001038BF8243068E7A34202D999
:10AEC800BCF1000FB3D028680BF10401FEF76EFD4A
:10AED8005DE7FFF73BFDFFF757FD3B6883420446FC
:10AEE800B6D8D8F800303C601A68B2FA82F2520933
:10AEF80039E75846FEF7CAFC49E722465846FFF7A5
:10AF0800BFFE9AE7FFF72AFD21465846FFF7E4FE01
:10AF180039E74FF0500383F31188BFF36F8FBFF306
:10AF28004F8FFEE79C410020CC410020D0410020FB
:10AF3800A041002000B583B0FFF774FE0C4B1B68DE
:10AF480053B10C4A0C490D480323CDE900320023C4
:10AF58008022FFF763FB40B94FF0500383F3118859
:10AF6800BFF36F8FBFF34F8FFEE703B05DF804FBAD
:10AF7800D0410020D44100202CB0000829AD0008A1
:10AF880070B50D4D0D4C641BA4100026A64209D1C6
:10AF98000B4D0C4C00F02EF8641BA4100026A642A2
:10AFA80005D170BD55F8043B98470136EEE755F8D2
:10AFB800043B98470136F2E734B0000834B0000883
:10AFC80034B0000838B000080A44914200F1FF3359
:10AFD80000D1704710B511F8014B03F8014F9142A9
:10AFE800F9D110BD02440346934200D1704703F8DB
:10AFF800011BF9E7F8B500BFF8BC08BC9E467047CE
:0CB00800F8B500BFF8BC08BC9E467047BD
:10B01400626C696E6B00000049444C4500000000FE
:10B02400546D725100000000546D72205376630019
:04B03400FD91000882
:04B03800D9910008A2
:10B03C000024F4000100000010000000AAAAAAAA33
:04B04C0004000000FC
:040000050800921944
:00000001FF
