:020000040800F2
:1000000000000824DD0500084D1200083D1200081C
:1000100041120008451200084912000800000000C3
:100020000000000000000000000000005112000865
:100030005512000800000000591200085D12000867
:1000400031060008310600083106000831060008B4
:1000500031060008310600083106000831060008A4
:100060003106000831060008310600083106000894
:100070003106000831060008310600083106000884
:100080003106000831060008310600083106000874
:100090003106000831060008310600083106000864
:1000A0003106000831060008310600083106000854
:1000B0003106000831060008310600083106000844
:1000C0003106000831060008310600083106000834
:1000D0003106000831060008310600083106000824
:1000E0003106000831060008000000003106000853
:1000F0003106000831060008310600083106000804
:1001000031060008310600083106000831060008F3
:1001100031060008310600083106000831060008E3
:1001200031060008310600083106000831060008D3
:1001300031060008310600083106000831060008C3
:100140003106000831060008000000000000000031
:1001500031060008310600083106000831060008A3
:100160003106000831060008310600083106000893
:1001700031060008310600083106000800000000C2
:100180003106000831060008310600083106000873
:100190003106000831060008310600083106000863
:1001A0003106000831060008310600083106000853
:1001B0003106000831060008310600083106000843
:1001C0003106000831060008310600083106000833
:1001D0003106000831060008310600083106000823
:1001E0003106000831060008310600083106000813
:1001F0003106000831060008310600083106000803
:1002000031060008310600083106000831060008F2
:1002100031060008310600083106000831060008E2
:100220003106000831060008310600080000000011
:1002300031060008310600083106000831060008C2
:1002400031060008310600083106000831060008B2
:1002500031060008310600083106000831060008A2
:100260003106000831060008310600083106000892
:100270003106000831060008310600083106000882
:1002800031060008310600083106000800000000B1
:080290003106000831060008E8
:1002980010B5054C237833B9044B13B10448AFF3B8
:1002A80000800123237010BD180000240000000006
:1002B8001427000808B5034B1BB103490348AFF3E3
:1002C800008008BD000000001C000024142700085E
:1002D80053B94AB9002908BF00281CBF4FF0FF31A5
:1002E8004FF0FF3000F074B9ADF1080C6DE904CEA1
:1002F80000F006F8DDF804E0DDE9022304B07047F9
:100308002DE9F047089D04468E46002B4DD18A42C0
:10031800944669D9B2FA82F252B101FA02F3C2F1F3
:10032800200120FA01F10CFA02FC41EA030E944084
:100338004FEA1C48210CBEFBF8F61FFA8CF708FBA5
:1003480016E341EA034306FB07F199420AD91CEB7D
:10035800030306F1FF3080F01F81994240F21C81AF
:10036800023E63445B1AA4B2B3FBF8F008FB1033F7
:1003780044EA034400FB07F7A7420AD91CEB04042C
:1003880000F1FF3380F00A81A74240F207816444FC
:10039800023840EA0640E41B00261DB1D440002381
:1003A800C5E900433146BDE8F0878B4209D9002DE5
:1003B80000F0EF800026C5E9000130463146BDE86F
:1003C800F087B3FA83F6002E4AD18B4202D38242D9
:1003D80000F2F980841A61EB030301209E46002D88
:1003E800E0D0C5E9004EDDE702B9FFDEB2FA82F2DD
:1003F800002A40F09280A1EB0C014FEA1C471FFA3B
:100408008CFE0126200CB1FBF7F307FB131140EA21
:1004180001410EFB03F0884208D91CEB010103F1EE
:10042800FF3802D2884200F2CB804346091AA4B2B0
:10043800B1FBF7F007FB101144EA01440EFB00FE84
:10044800A64508D91CEB040400F1FF3102D2A645E9
:1004580000F2BB800846A4EB0E0440EA03409CE788
:10046800C6F12007B34022FA07FC4CEA030C20FA35
:1004780007F401FA06F31C43F9404FEA1C4900FA55
:1004880006F3B1FBF9F8200C1FFA8CFE09FB1811D2
:1004980040EA014108FB0EF0884202FA06F20BD945
:1004A8001CEB010108F1FF3A80F08880884240F295
:1004B8008580A8F102086144091AA4B2B1FBF9F0D9
:1004C80009FB101144EA014100FB0EFE8E4508D9D4
:1004D8001CEB010100F1FF346CD28E456AD9023859
:1004E800614440EA0840A0FB0294A1EB0E01A1423E
:1004F800C846A64656D353D05DB1B3EB080261EBAC
:100508000E0101FA07F722FA06F3F1401F43C5E985
:10051800007100263146BDE8F087C2F12003D840BB
:100528000CFA02FC21FA03F3914001434FEA1C47FD
:100538001FFA8CFEB3FBF7F007FB10360B0C43EAEF
:10054800064300FB0EF69E4204FA02F408D91CEB9F
:10055800030300F1FF382FD29E422DD9023863449D
:100568009B1B89B2B3FBF7F607FB163341EA03413D
:1005780006FB0EF38B4208D91CEB010106F1FF388C
:1005880016D28B4214D9023E6144C91A46EA004683
:1005980038E72E46284605E70646E3E61846F8E615
:1005A8004B45A9D2B9EB020864EB0C0E0138A3E75E
:1005B8004646EAE7204694E74046D1E7D0467BE73F
:1005C800023B614432E7304609E76444023842E7B7
:1005D800704700BFDFF838D000F0ACF800F026F81C
:1005E8000C480D490D4A002302E0D458C450043386
:1005F800C4188C42F9D30A4A0A4C002301E013605C
:100608000432A242FBD302F037F800F0F7FCFEE711
:1006180000000824000000241800002470280008A6
:1006280018000024A80C0024FEE70000364B3749C8
:10063800D3F8882042F4700210B4C3F888201A69ED
:1006480042F010021A610B6803F00F03062B05D85D
:100658000B6823F00F0343F007030B602C4B0024B7
:100668002C4A1968294841F0010119601C61196870
:100678000A401A600368190705D5036823F00F03B9
:1006880043F007030360224B002223492348244CEC
:100698009A61DA611A629C62D8624FF0B0401963BD
:1006A8005A639963DA6319645A64196821F48021DA
:1006B80019601A66D0F8E4201A4942F480421A4BAD
:1006C800C0F8E4200A681340B3F1005F03D2174B67
:1006D8000122C3F808210E4BD3F8D420D2040FD43A
:1006E800D3F8D42043F2D200114942F48052C3F81F
:1006F800D4200860D3F8D42022F48052C3F8D42040
:100708005DF8044B704700BF00ED00E00020005288
:10071800004402587FEDF6EA800201010000FF0163
:10072800000202020010005C0000FFFF0080005180
:1007380000400052704700002DE9F04FCDB00BADDE
:100748001BAF05902A464B78043111F8046C1B0442
:1007580011F8014C11F8020C43EA0663234343EAFB
:10076800002342F8043F9742EDD13CAC0CAAAC46BA
:10077800976B114652F8046F4FEAF743486A0D68C1
:100788004FEAB64183EA77439442284481EAF61156
:1007980083EA972381EAD60103440B44D363E7D164
:1007A800059B4BA96546D8681A685C685F699446DA
:1007B8009E690390029118699968DB698E460692D2
:1007C8000493304B0794019308912F4B09900A9793
:1007D8000B96DDE9039A09E0019A3E46A6460746CC
:1007E800644652F8043F40468C4601924FEAF02294
:1007F80000EA070B26EA000182EAB01281EA0B013F
:1008080055F804BF82EA706202EB010884EA0E011F
:100818004FEA7C32D84401EA0C0182EABC0204EABD
:100828000E0BD044B24682EABC5281EA0B01434423
:10083800114403EB0908F1461944029BAB42CBD1A2
:10084800079A069B6244099D0B4403999446089AAB
:1008580071444544224414460A9A024410460B9AAD
:100868003A441746049A32441646059AC2E9003CAF
:10087800C2E90241C2E90450C2E906764DB0BDE8BA
:10088800F08F00BF60270008982F8A42B2B30A444D
:100898002DE9F84F04464D1EC1F1010B02F1FF3A54
:1008A80000F128094FF00008154F01E0554514D014
:1008B800A36E0BEB050615F8011FE2180133402B58
:1008C80082F82810A3660AD0C6F30B06002EEDD1D5
:1008D800384601F03FFD5545EAD1BDE8F88F494655
:1008E8002046FFF729FFC4F86880D4E9083213F5D9
:1008F800007342F10002C4E90832E5E7704700BF1F
:1009080038040024F8B5856E802204460E46431943
:10091800372D83F828200BD85AD005F12900C5F1C6
:100928003702002104F12807204401F0E7FE16E011
:100938006B1C3F2B07D805F12900C5F13F020021A8
:10094800204401F0DBFE04F1280720463946FFF772
:10095800F3FE38220021384601F0D0FEA56E0820AB
:100968003946D4E90823E5FB0023226212BA636200
:1009780084F86330626623FA00F2204684F8622025
:100988001A0C1B0E84F8612084F86030FFF7D4FE3F
:10099800711E18232268DA4001F8012F6268DA40D4
:1009A8000A71A268DA400A72E268DA400A732269B8
:1009B800DA400A746269DA400A75A269DA400A768E
:1009C800E269DA40083B13F1080F0A77E2D1F8BD73
:1009D80000F128073725C2E72DE9F0474FF0000856
:1009E800D4B00C460746154641463C2229A81E4667
:1009F800CDF8A08001F082FE402C40F205813946F6
:100A0800854B864F2246DFF824C238ACDFF820E257
:100A18004FF00009CDF848814FF000082046CDE995
:100A280038737F4BCDE93AC37E4BCDE93CE37E4B2F
:100A38003E9303F17453A3F52303A3F69243CDE940
:100A480040893F93FFF722FF28A92046FFF75AFF66
:100A58000DF19F0C0DF11F010DF15F0E0DF1DF027D
:100A68001CF8010F80F03603944580F05C0001F813
:100A7800013F0EF8010FF3D1002200236B49012733
:100A88006B480DF1200ADFF8AC814FF0000952974E
:100A9800CDE94023604B614ACDE93823604BCDE96D
:100AA8003A13604BCDE93C035F4B3E9303F174531B
:100AB800A3F52303A3F692433F939DF820308DF8C6
:100AC80008310EE0402F21D0529B1AF8011F03F580
:100AD800A87201336A44402B02F8481C529306D08E
:100AE8000137012FEED1404601F034FCECE742A972
:100AF8002046FFF721FECDF84891DDE9403213F595
:100B0800007342F10002CDE94032E9E73246294656
:100B180020460125FFF7BAFE6946204618AEFFF7C2
:100B2800F1FE00220023434F4FF000085295CDE913
:100B380040233A4A384BCDE938233C4A384BCDE973
:100B48003A233B4A374BCDE93C233B4B364ACDE968
:100B58003E239DF860308DF808310EE0402D21D0FD
:100B6800529B16F8011F03F5A87201336A44402B03
:100B780002F8481C529306D00135012DEED13846B3
:100B880001F0E8FBECE742A92046FFF7D5FDCDF8D8
:100B98004881DDE9403213F5007342F10002CDE9E6
:100BA8004032E9E70DF1FF3601254FF00008214FEB
:100BB80002E0202D21D00135529B16F8011F03F5C4
:100BC800A87201336A44402B02F8481C529305D09E
:100BD800012DEED1384601F0BDFBECE742A92046D5
:100BE800FFF7AAFDCDF84881DDE9403213F500731F
:100BF80042F10002CDE94032EAE75C992046FFF76E
:100C080081FE54B0BDE8F0872246394628A838ACA2
:100C180001F066FD1CE700BF85AE67BB67E6096AA1
:100C28003AF54FA58C68059BABD9831F72F36E3CD0
:100C38007F520E513804002419CDE05BAAB100F1AF
:100C4800FF3C0139002000B50CEB020E1CF8013FF7
:100C580011F8012FF44583EA020340EA0300F5D1B5
:100C6800B0FA80F040095DF804FB0120704700BF2E
:100C78006FF0006300F178420B442DE9F0431F1830
:100C880087B07F0CB7EB524F25D3550C4FF00009B6
:100C98000126DFF84C8008E0009B013317D101F0F2
:100CA80059FB6B1CAF421D4615D020230395CDE997
:100CB8000463CDE9019601F0E9F8694601A801F05D
:100CC80051FA044601F008F94046002CE4D000200F
:100CD80007B0BDE8F083012007B0BDE8F08300BF8E
:100CE80038040024F0B51B4E04460D4617463378E9
:100CF80083B167B3E91920466A1E174C013912F807
:100D0800013F43408A42DBB254F8233083EA102083
:100D1800F5D1F0BD11499E46DFF844C001F5806069
:100D28007246082312F0010F03F1FF3314BF8CEA57
:100D38005202520813F0FF03F4D141F8042F814204
:100D48000EF1010EECD101233370002FD2D12046D1
:100D5800F0BD00BF34040024340000243000002417
:100D68002083B8EDC0437047C902FFF781BF00BFB9
:100D78002DE9F047164688B00746884601F086F800
:100D880026B36D460024DFF8B89001E0A6421DD9CD
:100D98002022FF21284601F0B1FC321B08EB040198
:100DA8002846202A28BF202201F09AFC39192A4611
:100DB800012001F00BF9C4F30B03203488BB002B8E
:100DC800E4D1484601F0C6FAA642E1D801F084F819
:100DD800BFF34F8F1EB36D4600240DF1200ADFF8D4
:100DE80060907F1B2022FF21284601F087FC321BE0
:100DF80008EB04012846202A28BF202201F070FCB5
:100E08002B46FA5853F8041B914210D15345F8D198
:100E1800C4F30B037BB120342037A642E2D801206B
:100E280002E001F059F8002008B0BDE8F087002082
:100E380008B0BDE8F087484601F08CFAEBE700BF40
:100E4800380400242DE9F04F894683B0114617462F
:100E58008046FFF70DFF88B307F2FF7A5FEADA2AC8
:100E680030D04FEACA2300266424DFF860B0354644
:100E7800019312E001F06EFA0023524620463146F3
:100E8800FFF726FA01460720C9B200F069FA643470
:100E9800019B46F10006AB4214D0294605EB080039
:100EA80005F500654FF40062AF4238BF7A1A49442D
:100EB800FFF75EFF03465846002BDBD1002003B046
:100EC800BDE8F08F012003B0BDE8F08F380400249E
:100ED80070B58446104C114E0546A6460CF1100C10
:100EE8001034BEE80F00B6454CF8100C4CF80C1C3A
:100EF8004CF8082C4CF8043CEFD1234607CB084BA0
:100F0800CCF80000CCF80410CCF808202868C01AE7
:100F1800B0FA80F0400970BD0000020830000208F5
:100F28004350415570B5214C96B00546204E0DF101
:100F38001C0C0FCCACE80F000FCCACE80F000FCCAA
:100F4800ACE80F00079B94E80700B3428CE8070061
:100F580005D13C22294607A801F0B2FB10B30123B2
:100F680000212022CDE90213CDE90433069200F0D6
:100F78008DFF01A902A801F0F5F8044600F0ACFFC6
:100F88006CB9019B01330AD10A4801F0E3F93C220C
:100F98002946064816B0BDE87040FFF7E9BE0020B4
:100FA80016B070BD012016B070BD00BF0000020869
:100FB80043504155380400240B46A2F10801072884
:100FC800B1FA81F14FEA511100D149B9022810D084
:100FD800042800D139B90D2801D1042A06D0704758
:100FE800184600F043BC184600F0D8BC184600F07C
:100FF80083BB1146184600F05DBC00BF2DE9F04FD9
:1010080085B0824D00F088FE814B03208149D3F8DA
:10101800E020686040F6FF7042F000727E4C7F4F1F
:10102800C3F8E020D3F8E030A860284603F0007346
:1010380029600193019B01F059F900F0F7F9804606
:1010480000F0A6FE064612E0B9F10B0F3CD0B9F14C
:101058000E0F3CD0524602A94846FFF7ADFF00F0FC
:1010680097FE2368C01AB0F57A7F80F0BF8000F041
:101078008FFE801BB0F5167F2CD2284601F06AF946
:10108800002001F023F90028E9D04FF060523868B9
:10109800796802AB92F8009092F801A05FFA89F99A
:1010A8005FFA8AFA03C30021084601F017F9B9F17B
:1010B800010F03D1BAF1080F00F0A380B9F1080FAE
:1010C800C2D100F061F9CAE700F0A2F9C7E700F061
:1010D80027FBC4E7B8F1000F40F09080504D012085
:1010E800504F00F02FF9DFF84891484EDFF82C8177
:1010F800304601F02FF9002001F0E8F830BB00F08D
:1011080047FE2368C01AB0F57A7F3DD22B78002BB2
:10111800EED097F800A0BAF1000FE9D100F038FE40
:10112800D9F8001042F21072401A9042E0D901201A
:1011380085F800A087F800A000F004F9304601F017
:1011480009F9002001F0C2F80028D8D04FF0605209
:10115800D8F80000D8F804100DF1080C137852786C
:101168005FFA83FA5FFA82FBACE8030000210846C5
:1011780001F0B4F8BAF1010F20D1BBF1080F1DD16D
:1011880002A800F02DFABAE700F002FE2B782060E2
:101198008BB13B787BB9244A126862B12349642039
:1011A8000968A1FB0001FFF793F801460320C9B2C3
:1011B80000F0D6F8AAE70120FF21F9E7BAF1080FF5
:1011C8000BD0BAF10B0F0BD0BAF10E0F0BD05A4659
:1011D80002A95046FFF7F0FE91E700F0D5F88EE738
:1011E80000F016F98BE700F09BFA88E700F0D0FDD5
:1011F800FF212060012000F0B3F838E700F0BAF9C9
:101208006CE702A800F0ECF968E700BF3804002496
:101218000044025800480058080000240200003822
:101228007E0C00247C0C0024840C0024500C002428
:10123800800C0024FEE700BFFEE700BFFEE700BF0A
:10124800FEE700BF704700BF704700BF704700BF90
:10125800704700BF00F090BD2DE9F0410746884671
:101268001646134D00F094FD044606E001F072F8AE
:1012780000F08EFD031B642B17D8012001F026F81F
:1012880003462846002BF1D14FF0605409484146E7
:1012980032462774C4F812306674436001F020FAAD
:1012A8000120BDE8F04101F003B8BDE8F08100BFBE
:1012B800380400241200003870B51D4E82B01D4D50
:1012C8001D4C33682A681C44B2F5006F4FEAC424E9
:1012D80006D21A48FF211044C2F5006201F00EFA46
:1012E80020464FF400621549FFF742FD044610B945
:1012F800204602B070BD336803201A0E8DF80730FF
:101308008DF804201A0C1B0A8DF8052004228DF88C
:1013180006300DEB0201FFF79FFF336800220848F3
:1013280001332A60336001F015F8204602B070BD21
:10133800480400244C0C0024400101004C04002403
:101348003804002400B583B003460122052001A912
:101358008DF80430FFF780FF03B05DF804FB00BF91
:1013680030B5054683B001200C4600F0AFFF40B908
:10137800022201A906208DF804508DF80540FFF7D8
:101388006BFF03B030BD00BF70B592B003A8FFF784
:101398009FFD90B39DF81C30DDE905100E0EC1F3DA
:1013A8000745C1F30724C0F3072EC9B25FFA80FCD2
:1013B8008DF80B3001238DF80810082201A90920A7
:1013C8008DF809E08DF80AC08DF804308DF80560B5
:1013D8008DF806508DF80740FFF73EFF0B4B0322B0
:1013E80069460A201B684FEA134CADF800308DF8A7
:1013F80002C0FFF731FF12B070BD0346844686462F
:101408000146044605460646D2E700BF2C270008D9
:1014180000B583B0002302220C2001A9ADF80430E6
:10142800FFF71AFF03B05DF804FB00BF70B5A0B06A
:1014380002A8FFF74DFD40B9474C484B2168484A80
:101448000B4493421BD920B070BD464B049A9A4274
:1014580012D1079B5A1EB2F5C02F0DD2039A022A49
:1014680035D01A463C494FF0FF30FFF73BFCFFF7F9
:1014780079FC089B83425ED0002020B070BD0146F5
:101488002C2215A84FF4C02501F038F93648354903
:1014980001232A46119013914FF0FF3021461293F1
:1014A80014931695FFF71EFCFFF75CFC18A92B4652
:1014B80022461790009120212C48FFF78DFA11A899
:1014C800FFF730FD003818BF012020B070BD07239A
:1014D800012211A905208DF84430FFF7BDFE079AB7
:1014E80023491D48FFF7AEFC0028C5D002AD11AC5A
:1014F80001260FCD0FC40FCD0FC40FCD0FC495E833
:10150800070084E8070011A81296FFF70BFD0028D2
:10151800B2D011AC0DF1080C0FCCACE80F000FCC19
:10152800ACE80F000FCCACE80F0094E80700079B6D
:101538008CE8070095E711AC079B074A20210B4868
:101548000094FFF749FA202209A92046FFF776FB05
:10155800003818BF012076E70000040800FCFFDB14
:1015680000FC0700374337484350415540270008DF
:1015780000000A082DE9F041164D174B2C68174A50
:1015880023446E68934208D814F0030705D1F30783
:1015980003D5731BB3F5C02F01D3BDE8F08100F06C
:1015A80079FF00F051FB4FF0E0231F615F619F61FD
:1015B80003F550635A6842F000725A6072B69D6033
:1015C800BFF34F8FBFF36F8F84F308883346BDE8AE
:1015D800F04118470000040800FCFFDB00FC07008E
:1015E80030B5046883B0436824BA354D35491BBA11
:1015F800621E2C600B60B2F5C02F48D2324A93426B
:1016080038D10223012201A905208DF80430FFF703
:1016180023FE04F2FF712D48C90AFFF7A5FB044613
:1016280000283ED04FF40062FF212948012401F030
:1016380065F800232749284A0B604FF0FF31274DF2
:1016480011602749274A0B7013602749274A0B6006
:1016580014702749274A0B70137000F099FB032375
:101668002860224601A905208DF80430FFF7F4FD13
:1016780003B030BD0423052002220DEB03018DF8D1
:1016880004008DF80530FFF7E7FD03B030BDFF23F8
:10169800012201A905208DF80430FFF7DDFD03B014
:1016A80030BDFF2301A9012205208DF80430FFF782
:1016B800D3FD0F4A01210D4B11701C7003B030BDD2
:1016C800840C0024540C00243743374800000A08CF
:1016D8004C040024500C00240C000024800C00242E
:1016E8007D0C00244C0C0024480400247E0C0024AB
:1016F8007C0C0024580C00240378D02B00D07047B1
:1017080043789E2BFBD18378122BF8D1C378AD2B6D
:10171800F5D1024B01221A70F1E700BF580C0024E2
:101728004F4B2DE9F04F1F7895B017B115B0BDE8B4
:10173800F08F05A8FFF7CCFB80B90023042202A98B
:101748000F208DF808308DF809308DF80A308DF8A3
:101758000B30FFF781FD15B0BDE8F08F069B012B1C
:10176800EBD1DDF82890042202A90F204FEA196373
:101778008DF80B908DF808304FEA19438DF8093031
:101788004FEA19238DF80A30FFF766FDB9F1000F0B
:10179800CCD009F2FF7A5FEADA230193C6D0B846C3
:1017A80008F5006BCB4558D9B9EB08051FD0CB46D7
:1017B8002C4B2C460026434405EB0308072C4FF01E
:1017C800080A2246A8EB040194BF5FFA84FA52463D
:1017D80003A8083CCDE9036600F082FF524603A93E
:1017E8000F20FFF739FD2B1B9D42E7D8D84600F0A4
:1017F800CFFA40F6B7361C4D044600F0C9FA034646
:1018080028461B1BB34291D800F0A4FD002000F02D
:101818005DFD4FF060530028EFD01A78142AECD100
:101828005A78042AE9D19A780021DC7808462404F9
:1018380044EA02641A795B791C4344EA022400F002
:101848004DFDA7427FF472AF0137019BBB423FF4C5
:101858006DAF08F5006BCB45A6D84FF40065A7E738
:101868007E0C0024000004083804002438B50C4B12
:101878001A789AB10B4A127882B90B4D2A78032A42
:101888000CD80346094C0068596804EBC2030132BE
:1018980003C32A7000F07CFA054B186038BD00BFFE
:1018A8007E0C00247C0C00247D0C00245C0C00249D
:1018B800800C00242DE9F04FDFF8D8A085B09AF805
:1018C8000020002A46D02D4B1A78002A42D1082938
:1018D8000D463FD82A4E8346DFF8BC903168D9F8C8
:1018E8000020914244D3002D38D00BF1FF3800245A
:1018F800244F254A02E00134A5422FD03068D9F898
:101908000010431C884228D2386818F801EF411C9F
:10191800336002F800E0B1F5006F3960EBD1FFF7F2
:10192800CBFC194A0028E6D1621C184C5946019094
:101938002068FFF7D7F9FF21012220608DF80C10ED
:10194800052003A9FFF788FC019B01228AF80030D3
:101958000A4B1A7005B0BDE8F08F25460B4C2A4695
:1019680059462068FFF7BEF9206005B0BDE8F08F42
:1019780000F00EFA064A1060B5E700BF7C0C0024A0
:10198800500C00244C0C00244C0400240C000024AF
:10199800800C00247E0C0024840C00242DE9F04FD8
:1019A800964DBBB02B7813B1954E337813B13BB03D
:1019B800BDE8F08F044600F0EBF9924B1860924BAB
:1019C8001B68002B40F0A680904B914F1A683B682B
:1019D8009A4203D18F4B1B78042B0FD0052001248A
:1019E80002222BA98DF8AC008DF8AD40FFF734FC2E
:1019F800002334702B703BB0BDE8F08F864BD4F8D1
:101A080000801868D4F804A098FA88F8B4F804900C
:101A1800B4F806B0FFF7A6F90623044601222BA95D
:101A280005208DF8AC30FFF717FCA04540F0848006
:101A38000DF11408794A20217948CDF800803B68D7
:101A4800FEF7CAFF202277494046FFF7F7F800283B
:101A580000F08C8099FA99F99BFA9BFB0DA81FFA64
:101A680089F91FFA8BFBFFF733FA18B10E9B012B8C
:101A780000F08C806C4A6D4BC446229423AC1B68E2
:101A88001E933B682193002313700223684ACDE913
:101A98001C23BCE80F000FC49CE80F0084E80F006B
:101AA8001CA8CDE91F9BFFF73DFA0446002851D03A
:101AB800072301222BA905208DF8AC30FFF7CCFBBA
:101AC8003A6856495B48FFF7BDF90446002841D0FB
:101AD8001CAC2BAF4FF001080FCC0FC70FCC0FC7B2
:101AE8000FCC0FC794E8070087E807002BA8CDF8AC
:101AF800B080FFF717FA0446002866D1FF23424654
:101B080004A905208DF81030FFF7A6FB2C7086F885
:101B180000804CE7FFF7D0FB074600287FF454AF5E
:101B2800FF2301222BA905208DF8AC30FFF794FB89
:101B380001232F7033703AE7022205202BA98DF874
:101B4800AD208DF8AC00FFF787FB002201232A7037
:101B580033702CE7FF232BA9012205208DF8AC3028
:101B6800FFF77AFB01232C70337020E703220390E0
:101B780005202BA98DF8AD2002228DF8AC00FFF7C7
:101B88006BFB0122039B32702B7010E7DDE910120A
:101B98009AFA8AFA42EA01425245234A7FF66BAF23
:101BA80092F800A0BAF1000F7FF465AF05202BA9C9
:101BB800022203938DF8AC008DF8AD00FFF74CFBC3
:101BC800039B85F800A03370F1E60423424604A97C
:101BD80005208DF81030FFF73FFB4FF4167000F02A
:101BE800DDF8BFF34F8F1449144BCA6802F4E06262
:101BF8001343CB60BFF34F8F00BFFDE77E0C00247B
:101C08007C0C0024800C00244C0C0024500C002474
:101C1800840C00247D0C00240C00002400000A0819
:101C2800402700085C0C0024580C0024540C0024A5
:101C3800435041550000040800ED00E00400FA0597
:101C4800704700BF704700BF10B5194B00241949F1
:101C580040F27120184AD9671821DC67C3F8802040
:101C6800164AC3F88040C3F884004FF49B70C3F849
:101C78008440C3F88820124AC3F88840C3F88C10FF
:101C8800C3F88C400F49C3F890200F4AC3F890401E
:101C9800C3F89400C3F89440C3F89810C3F8984068
:101CA800C3F89C20C3F89C40FFF7CCFF204610BD2A
:101CB800004402583150010023C0000AFF072803DE
:101CC800FFC3FFE83330D731AADE20000F4B1B7863
:101CD8000BB90120704710B504464FF47A700C4ACE
:101CE800B0FBF3F31068B0FBF3F000F0B9F80F2C79
:101CF80000D808B1012010BD002221464FF0FF3066
:101D080000F070F8034B00201C6010BD1000002488
:101D1800000000241400002410B50320124C00F029
:101D28004FF800F087FC114B11499A699B69C2F37F
:101D3800032203F00F038A5CCB5C02F01F020D49FB
:101D480003F01F03D04020FA03F308600F2023603C
:101D5800FFF7BCFF10B10124204610BD0446FFF771
:101D68006FFF204610BD00BF040000240044025845
:101D78003027000800000024034A044B11681B7830
:101D88000B441360704700BF880C00241000002427
:101D9800014B1868704700BF880C002438B504460A
:101DA800FFF7F6FF0546631C02D0044B1B781C4462
:101DB800FFF7EEFF431BA342FAD338BD10000024FF
:101DC80006494FF6FF0C0002054BCA6800F4E060B4
:101DD80002EA0C0210430343CB60704700ED00E0B9
:101DE8000000FA051B4BDB68C3F3022300B5C3F1FF
:101DF800070E03F1040CBEF1040F28BF4FF0040EC8
:101E0800BCF1060F1AD9033B4FF0FF3C0CFA03FC58
:101E180022EA0C024FF0FF3C00280CFA0EFC21EAE3
:101E28000C0101FA03F141EA02010ADB09010A4B3C
:101E3800C9B2034483F800135DF804FB002213467B
:101E4800E8E700F00F000901044BC9B20344197612
:101E58005DF804FB00ED00E000E100E0FCEC00E0D0
:101E6800431EB3F1807F0CD24FF0E02200200649D8
:101E78004FF0F00C5361072381F823C09061136180
:101E880070470120704700BF00ED00E00F4BDA6893
:101E9800D20706D50E490F4A59605A60DB68DB073E
:101EA80011D40A4BD3F80C0110F001000AD00849EC
:101EB800084AC3F80411C3F80421D3F80C0100F050
:101EC8000100704770470120704700BF0020005292
:101ED80023016745AB89EFCD0A4BDA6842F001026E
:101EE800DA60DA68D2070BD5D3F80C2142F0010288
:101EF800C3F80C21D3F80C01C04300F0010070476F
:101F080001207047002000522DE9F0410F46054698
:101F1800FFF73EFF294C022F294E804618BF0424A4
:101F280007E0D6F8103124EA03035B0706D4691CDE
:101F380018D1042CF5D133695A07F8D4012F26D0CB
:101F48001F4A2049D2F810310B4015D1D2F81001A0
:101F580010F4803004D04FF480311846C2F81411C0
:101F6800BDE8F081FFF714FFA0EB0800A84201D8F4
:101F7800002DDED10320F3E7134C0120A16919439A
:101F880041F00041A161C2F81431BDE8F0810C496B
:101F98000C4A0B691A4009D1086910F48030DFD067
:101FA8004FF4803310464B61BDE8F081064C38464B
:101FB800A3691343A3614A61BDE8F081040000806E
:101FC800002000520000EE178C0C0024F8B52F4EAC
:101FD800307D012850D001F1784301270D46144681
:101FE800B3F5801F377536D3A1F10163B3F5801FB0
:101FF80040D2002302214CF25030B361FFF784FF36
:1020080030BB234A0227D2F80C3143F00203C2F84E
:102018000C312246BFF36F8FBFF34F8F04F12001BD
:102028002B1B1068D05004328A42FAD1BFF36F8F4D
:10203800BFF34F8F4CF250303946FFF765FF012F41
:10204800134A1BD0D2F80C3123F00203C2F80C312A
:1020580000233375F8BD002339464CF25030B36184
:10206800FFF752FF0028F3D1094AD36843F002036F
:10207800D360CEE73846F8BD0220F8BDD36823F018
:102088000203D36000233375E4E700BF8C0C0024FF
:102098000020005201F00303032B22D0CA070BD5FE
:1020A8001C4BDA6822F03002DA60DA680243DA6040
:1020B800DA6842F08802DA608B0711D5154BD3F83D
:1020C8000C2122F03002C3F80C21D3F80C21104364
:1020D800C3F80C01D3F80C2142F08802C3F80C2194
:1020E80070470C4BDA6822F03002DA60D3F80C2122
:1020F80022F03002C3F80C21DA680243DA60D3F820
:102108000C211043C3F80C019A6942F010029A613D
:10211800704700BF0020005210B4CC070BD5104CFC
:10212800E36823F4E663E360E36843EA00231343C8
:1021380043F08403E3608B070FD50949D1F80C31CC
:1021480023F4E663C1F80C31D1F80C3143EA0020DE
:10215800024342F08402C1F80C215DF8044B704739
:10216800002000522DE9F0474E4F3B7D012B00F037
:10217800858000230126044689463E75BB61436875
:10218800DA074FD49A070BD502214CF25030FFF7EB
:10219800BBFE28B10126002330463B75BDE8F08719
:1021A8002568012D4ED04FF0FF33C9F80030D4E92F
:1021B80002532B449D425FD2DFF8EC80DFF8ECA09D
:1021C80007E0980721D40135D4E902231344AB4230
:1021D80052D9284622696168FFF79EFF6368DE07C7
:1021E800EFD501214CF25030FFF78EFED8F80C30B5
:1021F800064603EA0A03C8F80C306368990704D452
:10220800002EE0D0C9F80050C5E702214CF250304A
:10221800FFF77AFED8F80C31064603EA0A03C8F835
:102228000C31EDE731464CF25030FFF76DFE636834
:102238000028A7D09B07ADD502214CF25030FFF7FC
:1022480063FEA8E761682069FFF724FF636813F05D
:10225800010617D19B079ED502214CF25030FFF79B
:1022680053FE114A0028D2F80C3118BF012623F07A
:102278000803C2F80C318EE700268CE702263046A8
:10228800BDE8F08729464CF25030FFF73DFE064A7C
:10229800061ED36818BF012623F00803D3606368BD
:1022A800D8E700BF8C0C002400200052FBF8FFFF89
:1022B800044A2030044B52F82000C01A18BF0120ED
:1022C800704700BF0064025800030080024B53F8B7
:1022D8002000C00F704700BF00640258024B41F451
:1022E800407143F8201070470064025840B3826878
:1022F800D0E9003170B504464CF6CC40186045F280
:102308005550186059609A60FFF742FD23680546EA
:10231800DA6850070DD041F60106FFF739FD431B77
:10232800B342236802D9DA6851070BD1DA68520739
:10233800F3D11969E268914206D000201A6170BD94
:1023480001207047032070BD4AF6AA2200201A60B7
:1023580070BD00BF03464AF6AA2200201B681A6017
:10236800704700BF454B30B49A6A9C6ADD6A14F422
:102378007C7F596BC4F3051038D0C1F3CC0105F04C
:10238800010502F0030205FB01F1012A07EE901A8C
:10239800B8EEE77A02D0022A4ED04AB307EE900A86
:1023A800DFED376AF8EEE77A1B6B86EEA76A9FEDDA
:1023B800355AC3F3080306EE903AF7EE005AF8EEE2
:1023C800E66AE7EE056A76EEA56A66EE266A2B4BA4
:1023D8001B6BC3F34623013307EE903AB8EEE77A56
:1023E800C6EE877AFCEEE77A17EE900A30BC7047A3
:1023F8001A68920627D5196807EE900A224AF7EE5E
:10240800005A1B6BC1F3C101F8EEE77A9FED1D5A24
:10241800C3F30803CA4006EE903A06EE102AF8EE17
:10242800E66AB8EEC66AE7EE056A86EE277A76EEC1
:10243800A56A66EE876ACAE707EE900ADFED136AB7
:10244800F8EEE77AB0E707EE900A9FED115A1B6B9A
:10245800B7EE006AF8EEE77ADFED0A5AC3F308032D
:10246800C5EE276A07EE903AF8EEE77AE7EE257AA6
:1024780077EE867A66EEA76AA9E700BF004402589D
:102488000024744A000000390090D00320BCBE4BE1
:102498000024744C5D4AF8B5136803F00F03062B4B
:1024A8000AD8136823F00F0343F007031360136877
:1024B80003F00F03072B21D1554CFFF769FC0546A4
:1024C800236843F00103236004E0FFF761FC401B2D
:1024D800022816D823685E07F7D5636800254D489B
:1024E80043F080434C4A4D4963604D4B2561006879
:1024F8000A601A60FFF7EAFB044628B10124204667
:10250800F8BD03242046F8BDFFF742FC404E41F2D7
:102518008837054604E0FFF73BFC431BBB42F0D875
:10252800336913F0380FF6D1FFF732FC32683D4BB0
:102538000546374F1340336004E0FFF729FC401B82
:102548006428DED83B689803F7D4FFF721FC3B6882
:102558002F4E054623F080733B6004E0FFF718FC1C
:10256800401B0228CDD833689901F7D4FFF710FC37
:102578003368274F054623F08063336004E0FFF794
:1025880007FC401B0228BCD83B681A01F7D4FFF7A8
:10259800FFFB3B681E4D064623F080533B6004E07A
:1025A800FFF7F6FB801B0228ABD82B6813F000530B
:1025B800F6D11D49AB611D4AEB612B62A9621C492A
:1025C800E9624FF0FF312A636B63AA63EB632A6405
:1025D8006B642A6822F480222A602B66A966D5F8E3
:1025E800D0300A4A43F48033C5F8D03013681B074B
:1025F80085D5136823F00F0343F0070313601468AD
:1026080004F00F04073C18BF012478E700200052AB
:1026180000440258140000240090D0030000002455
:102628000400002445EDF6FF0002020280020101C9
:102638000000FF010C4A136903F03803102B04D083
:10264800182B0DD01BB1094870470948704713680B
:102658009B0607D513680748C3F3C103D8407047E2
:10266800FFF780BE034870470044025800093D0048
:1026780040787D010090D00370B50D4D0D4C641B62
:10268800A4100026A64209D10B4D0C4C00F03EF8D0
:10269800641BA4100026A64205D170BD55F8043B62
:1026A80098470136EEE755F8043B98470136F2E7BC
:1026B8006828000868280008682800086C280008AE
:1026C80010B501390244904201D1002005E0037899
:1026D80011F8014FA34201D0181B10BD0130F2E7D9
:1026E8000A44914200F1FF3300D1704710B511F848
:1026F800014B03F8014F9142F9D110BD0244034642
:10270800934200D1704703F8011BF9E7F8B500BF01
:10271800F8BC08BC9E467047F8B500BFF8BC08BCBA
:042728009E46704712
:10272C000100000000000000010203040102030488
:10273C000607080948594452412D554D432D4B422B
:10274C002D434D372D323032362D21212143484136
:10275C004E474521982F8A4291443771CFFBC0B523
:10276C00A5DBB5E95BC25639F111F159A4823F9250
:10277C00D55E1CAB98AA07D8015B8312BE853124A9
:10278C00C37D0C55745DBE72FEB1DE80A706DC9B6A
:10279C0074F19BC1C1699BE48647BEEFC69DC10F16
:1027AC00CCA10C246F2CE92DAA84744ADCA9B05C52
:1027BC00DA88F97652513E986DC631A8C82703B015
:1027CC00C77F59BFF30BE0C64791A7D55163CA0623
:1027DC0067292914850AB72738211B2EFC6D2C4D2F
:1027EC00130D385354730A65BB0A6A762EC9C2811D
:1027FC00852C7292A1E8BFA24B661AA8708B4BC2B3
:10280C00A3516CC719E892D1240699D685350EF4DC
:10281C0070A06A1016C1A419086C371E4C77482793
:10282C00B5BCB034B30C1C394AAAD84E4FCA9C5B09
:10283C00F36F2E68EE828F746F63A5781478C8845A
:10284C000802C78CFAFFBE90EB6C50A4F7A3F9BE3C
:04285C00F27871C6D7
:08286000A8DAFF7F010000006F
:04286800BD020008A5
:04286C0099020008C5
:102870000090D0030090D00318FCFFFFFFFFFFFF84
:0828800001000000100000003F
:04000005080005DD0D
:00000001FF
