:020000040810E2
:1000000000800430DD051008C11410089914100890
:10001000B5141008B9141008BD1410080000000031
:10002000000000000000000000000000C5141008DF
:10003000C914100800000000CD141008D1141008D5
:100040003106100831061008310610083106100874
:100050003106100831061008310610083106100864
:100060003106100831061008310610083106100854
:100070003106100831061008310610083106100844
:100080003106100831061008310610083106100834
:100090003106100831061008310610083106100824
:1000A0003106100831061008310610083106100814
:1000B0003106100831061008310610083106100804
:1000C00031061008310610083106100831061008F4
:1000D00031061008310610083106100831061008E4
:1000E0003106100831061008000000003106100823
:1000F00031061008310610083106100831061008C4
:1001000031061008310610083106100831061008B3
:1001100031061008310610083106100831061008A3
:100120003106100831061008310610083106100893
:100130003106100831061008310610083106100883
:100140003106100831061008000000000000000011
:100150003106100831061008310610083106100863
:100160003106100831061008310610083106100853
:100170003106100831061008310610080000000092
:100180003106100831061008310610083106100833
:100190003106100831061008310610083106100823
:1001A0003106100831061008310610083106100813
:1001B0003106100831061008310610083106100803
:1001C00031061008310610083106100831061008F3
:1001D00031061008310610083106100831061008E3
:1001E00031061008310610083106100831061008D3
:1001F00031061008310610083106100831061008C3
:1002000031061008310610083106100831061008B2
:1002100031061008310610083106100831061008A2
:1002200031061008310610083106100800000000E1
:100230003106100831061008310610083106100882
:100240003106100831061008310610083106100872
:100250003106100831061008310610083106100862
:100260003106100831061008310610083106100852
:100270003106100831061008310610083106100842
:100280003106100831061008310610080000000081
:080290003106100831061008C8
:1002980010B5054C237833B9044B13B10448AFF3B8
:1002A80000800123237010BD1800003000000000FA
:1002B800B43E100808B5034B1BB103490348AFF31C
:1002C800008008BD000000001C000030B43E10088B
:1002D80053B94AB9002908BF00281CBF4FF0FF31A5
:1002E8004FF0FF3000F074B9ADF1080C6DE904CEA1
:1002F80000F006F8DDF804E0DDE9022304B07047F9
:100308002DE9F047089D04468E46002B4DD18A42C0
:10031800944669D9B2FA82F252B101FA02F3C2F1F3
:10032800200120FA01F10CFA02FC41EA030E944084
:100338004FEA1C48210CBEFBF8F61FFA8CF708FBA5
:1003480016E341EA034306FB07F199420AD91CEB7D
:10035800030306F1FF3080F01F81994240F21C81AF
:10036800023E63445B1AA4B2B3FBF8F008FB1033F7
:1003780044EA034400FB07F7A7420AD91CEB04042C
:1003880000F1FF3380F00A81A74240F207816444FC
:10039800023840EA0640E41B00261DB1D440002381
:1003A800C5E900433146BDE8F0878B4209D9002DE5
:1003B80000F0EF800026C5E9000130463146BDE86F
:1003C800F087B3FA83F6002E4AD18B4202D38242D9
:1003D80000F2F980841A61EB030301209E46002D88
:1003E800E0D0C5E9004EDDE702B9FFDEB2FA82F2DD
:1003F800002A40F09280A1EB0C014FEA1C471FFA3B
:100408008CFE0126200CB1FBF7F307FB131140EA21
:1004180001410EFB03F0884208D91CEB010103F1EE
:10042800FF3802D2884200F2CB804346091AA4B2B0
:10043800B1FBF7F007FB101144EA01440EFB00FE84
:10044800A64508D91CEB040400F1FF3102D2A645E9
:1004580000F2BB800846A4EB0E0440EA03409CE788
:10046800C6F12007B34022FA07FC4CEA030C20FA35
:1004780007F401FA06F31C43F9404FEA1C4900FA55
:1004880006F3B1FBF9F8200C1FFA8CFE09FB1811D2
:1004980040EA014108FB0EF0884202FA06F20BD945
:1004A8001CEB010108F1FF3A80F08880884240F295
:1004B8008580A8F102086144091AA4B2B1FBF9F0D9
:1004C80009FB101144EA014100FB0EFE8E4508D9D4
:1004D8001CEB010100F1FF346CD28E456AD9023859
:1004E800614440EA0840A0FB0294A1EB0E01A1423E
:1004F800C846A64656D353D05DB1B3EB080261EBAC
:100508000E0101FA07F722FA06F3F1401F43C5E985
:10051800007100263146BDE8F087C2F12003D840BB
:100528000CFA02FC21FA03F3914001434FEA1C47FD
:100538001FFA8CFEB3FBF7F007FB10360B0C43EAEF
:10054800064300FB0EF69E4204FA02F408D91CEB9F
:10055800030300F1FF382FD29E422DD9023863449D
:100568009B1B89B2B3FBF7F607FB163341EA03413D
:1005780006FB0EF38B4208D91CEB010106F1FF388C
:1005880016D28B4214D9023E6144C91A46EA004683
:1005980038E72E46284605E70646E3E61846F8E615
:1005A8004B45A9D2B9EB020864EB0C0E0138A3E75E
:1005B8004646EAE7204694E74046D1E7D0467BE73F
:1005C800023B614432E7304609E76444023842E7B7
:1005D800704700BFDFF838D000F036F800F026F892
:1005E8000C480D490D4A002302E0D458C450043386
:1005F800C4188C42F9D30A4A0A4C002301E013605C
:100608000432A242FBD303F007FC00F0D5FCFEE75E
:1006180000800430000000301800003068401008E6
:1006280018000030580E0030FEE70000054BD3F8E4
:10063800882042F47002C3F888201A6942F0100238
:100648001A61704700ED00E0704700002DE9F04F97
:10065800CDB00BAE05901BAF32464B780D78CC78F9
:1006680088781B0443EA0563234343EA002342F8DE
:10067800043F974201F10401EFD13CAD0CAAB44606
:10068800976B134652F8040F5C6A1E684FEAF743EB
:1006980083EA77434FEAB04183EA9723344481EAF7
:1006A800F011234481EAD0010B449542D363E7D18A
:1006B800059B4BAA5F691968D8685D689C680497B0
:1006C80002929F691A69DB6903920B931A46304BB1
:1006D800019366462F4B0691DDE903C807950894F8
:1006E80009900A9782468E4609E0019951F8043F1D
:1006F800019147462C46E0467546CC4686464FEA69
:10070800FC2127EA0C090CEA080081EABC1181EAFD
:100718007C6189EA000056F8049F084481444FEA46
:100728007E3185EA040081EABE0100EA0E0005EA8E
:10073800040B4A4481EABE5180EA0B001344084482
:1007480003EB0A091844029BB3423A46A246CCD1AD
:10075800079A069B049E0A9972449646089A2A4468
:100768001546099A224414460B9A03443A440398BE
:100778001746059A484466444144C2E9003EC2E926
:100788000254C2E90406C2E906174DB0BDE8F08F6D
:10079800483F1008982F8A42B2B30A442DE9F84F0F
:1007A8001A4F04464D1E02F1FF3AC1F1010B00F148
:1007B80028094FF0000801E0554514D0A36EE2184F
:1007C80001330BEB0506402B15F8011F82F82810A2
:1007D800A3660AD0C6F30B06002EEDD1384602F008
:1007E80025FE5545EAD1BDE8F88F49462046FFF772
:1007F8002DFFD4E9083213F5007342F10002C4E971
:100808000832C4F86880E5E7704700BFD8040030B4
:10081800F8B5856E43198022372D04460E4683F8B5
:1008280028200BD85AD005F12900C5F137022044F9
:10083800002103F033FB04F1280716E06B1C3F2B63
:1008480007D805F12900C5F13F022044002103F033
:1008580025FB04F1280739462046FFF7F7FE382222
:100868000021384603F01AFBA56ED4E908230820B6
:10087800E5FB0023226212BA626623FA00F2636281
:1008880084F8633084F862201A0C1B0E394684F809
:10089800603084F861202046FFF7D8FE711E1823C7
:1008A8002268DA4001F8012F6268DA400A71A2680A
:1008B800DA400A72E268DA400A732269DA400A7496
:1008C8006269DA400A75A269DA400A76E269DA40B2
:1008D800083B13F1080F0A77E2D1F8BD00F12807A9
:1008E8003725C2E72DE9F0474FF00008D4B00C4691
:1008F8000746154641463C2229A81E46CDF8A08049
:1009080003F0CCFA402C40F205813946854B864FDE
:10091800DFF824C2DFF824E2CDF84881CDE9387346
:10092800824BCDE93AC3824BCDE93CE3814B3E9300
:1009380003F174532246A3F5230338AC2046A3F6EB
:1009480092434FF000084FF00009CDE940893F93EA
:10095800FFF722FF28A92046FFF75AFF0DF19F0C49
:100968000DF11F010DF15F0E0DF1DF021CF8010FF3
:1009780080F03603944580F05C0001F8013F0EF8E2
:10098800010FF3D100220023CDE94023654B664ACD
:1009980069496A48DFF8AC81CDE93823634BCDE972
:1009A8003A13634BCDE93C03624B3E9303F1745316
:1009B800A3F52303A3F692433F9301279DF8203024
:1009C8008DF8083152970DF1200A4FF000090EE01A
:1009D800402F21D0529B1AF8011F03F5A8726A44D0
:1009E8000133402B02F8481C529306D00137012FDF
:1009F800EED1404602F01AFDECE742A92046FFF787
:100A080025FEDDE9403213F5007342F10002CDE91D
:100A18004032CDF84891E9E7324629462046FFF7AB
:100A2800BBFE69462046FFF7F3FE3E49424B3E4A6D
:100A38003892CDE939133D4A404B3D49CDE93B2336
:100A48003C4B3F4A3F9200260027CDE93D13012544
:100A58009DF860308DF80831CDE940675295394FDF
:100A680018AE4FF000080EE0402D21D0529B16F82A
:100A7800011F03F5A8726A440133402B02F8481C91
:100A8800529306D00135012DEED1384602F0CEFC46
:100A9800ECE742A92046FFF7D9FDDDE9403213F51E
:100AA800007342F10002CDE94032CDF84881E9E710
:100AB800244F0DF1FF3601254FF0000802E0202DEC
:100AC80021D00135529B16F8011F03F5A8726A441C
:100AD8000133402B02F8481C529305D0012DEED16A
:100AE800384602F0A3FCECE742A92046FFF7AEFD2A
:100AF800DDE9403213F5007342F10002CDE94032DE
:100B0800CDF84881EAE75C992046FFF781FE54B0AA
:100B1800BDE8F0872246394628A803F0B1F938AC79
:100B28001CE700BF85AE67BB67E6096A3AF54FA5C3
:100B38008C68059BABD9831F72F36E3C7F520E51B4
:100B480019CDE05BD8040030AAB100F1FF3C00B534
:100B580001390CEB020E00201CF8013F11F8012F9F
:100B6800F44583EA020340EA0300F5D1B0FA80F0C5
:100B780040095DF804FB0120704700BF2DE9F043F0
:100B8800A1F10161013901444E0CA0F10160B6EBFD
:100B9800504F87B027D3DFF85880450C4FF0000935
:100BA800022709E0009B013319D102F03FFCAE4255
:100BB80005F1010317D01D4601222023CDE90423A6
:100BC800CDE90197039502F077F8694601A802F08C
:100BD800DFF9044602F096F84046002CE2D00020E7
:100BE80007B0BDE8F083012007B0BDE8F08300BF7F
:100BF800D8040030F0B51B4E337804460D4617462E
:100C080083B167B3E919184E6A1E0139204612F8F4
:100C1800013F4340DBB28A4256F8233083EA102072
:100C2800F5D1F0BD1149DFF848C09E4601F5806056
:100C38007246082312F0010F03F1FF3314BF8CEA48
:100C48005202520813F0FF03F4D141F8042F8142F5
:100C58000EF1010EECD101233370002FD2D12046C2
:100C6800F0BD00BF340400303400003030000030E4
:100C78002083B8EDC0437047C902FFF77FBF00BFAC
:100C88002DE9F047164688B00746884602F014F862
:100C980026B3DFF8C0906D46002401E0A6421DD9B6
:100CA8002022FF21284603F0F9F8321B202A08EBFE
:100CB800040128BF2022284603F0E2F839192A4601
:100CC800012002F099F8C4F30B032034A0BB002BD9
:100CD800E4D1484602F0AAFBA642E1D802F012F895
:100CE800BFF34F8F36B36D46DFF868907F1B4FF028
:100CF800000A08AC2022FF21284603F0CFF8A6EB13
:100D08000A02202A28BF202208EB0A01284603F0FD
:100D1800B7F82B46FA5853F8041B914212D1A34254
:100D2800F8D1CAF30B038BB10AF1200A564507F133
:100D38002007DFD8012002E001F0E4FF002008B01E
:100D4800BDE8F087002008B0BDE8F087484602F00B
:100D58006DFBE9E7D80400302DE9F04F894683B0F0
:100D6800114617468046FFF709FF80B307F2FF7A5E
:100D78005FEADA2A2FD04FEACA230026DFF860B0EC
:100D880001936424354611E002F050FB00235246DB
:100D980020463146FFF79CFAC1B2072000F010FC4C
:100DA800019B643446F10006AB4214D0294605EB9A
:100DB800080005F50065AF4234BF7A1A4FF40062A7
:100DC8004944FFF75DFF03465846002BDCD100205D
:100DD80003B0BDE8F08F012003B0BDE8F08F00BF7D
:100DE800D804003070B5124C124E05468446A6460B
:100DF800BEE80F00B6450CF1100C04F110044CF8D5
:100E0800100C4CF80C1C4CF8082C4CF8043CEED197
:100E1800234607CBCCF80000CCF80410CCF8082007
:100E28002868054BC01AB0FA80F0400970BD00BFB1
:100E380000001208300012083450415570B5214C9A
:100E4800214E05460FCC96B00DF11C0CACE80F00F6
:100E58000FCCACE80F000FCCACE80F0094E807000B
:100E6800079BB3428CE8070005D13C22294607A816
:100E780002F0F6FF18B30123022120220020CDE959
:100E88000201CDE90433069201F016FF01A902A878
:100E980002F07EF8044601F035FF6CB9019B01337E
:100EA8000AD10A4802F0C2FA06483C22294616B07E
:100EB800BDE87040FFF7E4BE002016B070BD012009
:100EC80016B070BD0000120834504155D8040030E7
:100ED80010B50278022AA0B003460C4626D0012A93
:100EE80046D08478012C08D0072C0DD1C278082A66
:100EF8005CD00024204620B010BDC278082AF8D162
:100F0800043000F0D3FCF5E7022C3DD0042C33D09C
:100F1800082C41D00B2C27D00D2C41D1C278042AA3
:100F2800E7D1043000F06EFD0024E3E740786A461C
:100F3800194601F011F8FF218022204602F0AEFF89
:100F480001AB03CB9DF800209DF80130227063703F
:100F58009DF802209DF803306060A270E370A160E4
:100F68000024204620B010BD00F086FB0024C1E715
:100F7800694601F07FF8DEE7C278082AB9D1043063
:100F880000F070FE0024B5E7C178043000F0EEFDF3
:100F98000024204620B010BD00F032FB0024A9E751
:100FA8000E2CA6D100F042FD0024A3E7043000F087
:100FB800B9FD00249EE700BF2DE9F04FDFF8089344
:100FC800B74DB84AB84EADF50B7D4FF0030B40F660
:100FD800FF734846C9E9002BC9F8083002F0F4F954
:100FE80001F02CF9D5F8E030B04843F00073C5F8AB
:100FF800E030D5F8E03003F000730493049BD5F893
:10100800E03043F00103C5F8E030D5F8E03003F0F4
:1010180001030893089BD5F8F03043F48053C5F8D2
:10102800F030D5F8F030CDF834B103F4805309939B
:10103800099B052300244FF002084E934AA9F02388
:1010480001274A934FF0080ACDE94B8402F046F88D
:1010580096486E946AA9CDE96C446B97CDF8A8A11F
:1010680002F03CF851462246904802F08BF9904A2B
:10107800326030460722C6E90144C6E90444C6E99D
:101088000844B461B462F26002F0B6FBD5F8E0201F
:10109800884842EA0A02C5F8E020D5F8E02002EACA
:1010A8000A020592059AD5F8E02042F04002C5F8F8
:1010B800E020D5F8E02002F040020692069AD5F822
:1010C800EC2042F48072C5F8EC20D5F8EC20CDF87D
:1010D800A8B002F480720792079ACDF8B48009226A
:1010E8002AA94FF0800BCDE92B842E9201F0F6FF50
:1010F8007148724DCDF828B14AA9CDE94B74CDE9B4
:101108004D4401F0EBFF224659466B4802F03AF98C
:101118000D23EB61EB6204232F826B64AB662846D8
:10112800674B2B60C5E90887C5E90C84C5E90E74CF
:10113800C5E90244C5E90577C5E91644AC74AF6250
:10114800C5F840A0C5F860A0AC642C656C6601F0D9
:10115800B1F96AA92846CDE96D74CDE96A44CDF89C
:10116800B0816F9401F0AAFB3B46224621460097C6
:10117800284601F0EBFB284601F004FC00F0A2FA37
:101188005A46214683464AA802F088FE7422FF2167
:101198000DA802F083FE8DF82C714BAB93E8030089
:1011A8000DF12C084FF0050388E803008DF82B702B
:1011B8008DF828408DF829408DF82A3001F09CF8E8
:1011C800404F3A4D82466BAC01F096F80346A3EBCC
:1011D8000A03B3F5167F484678D202F027F90122B0
:1011E8000821284602F0CEF8142300932AAA0AA957
:1011F8008023304602F042FC014674226DA8E1B912
:1012080002F04CFE9DF8A8308DF8A8319DF8A93061
:101218008DF8A9319DF8AA308DF8AA319DF8AB3028
:101228008DF8AB312BAB93E8030084E803000AA9DF
:101238006AA8FFF74DFE00284CD100220821284655
:1012480002F0A0F801F058F83B68C01AB0F57A7FB0
:101258001ED26AA800F08CF90028B5D0FF217422AC
:101268000DA802F01BFE9DF8A8318DF8283094E8EF
:1012780003009DF8A9318DF829309DF8AA318DF821
:101288002A309DF8AB318DF82B3088E803009BE7B6
:1012980001F032F8FF213860012000F091F9D8E719
:1012A80000440258004C0058E8040030000002587E
:1012B80000300140000C0258001802583804003071
:1012C80000A0004008000030D8040030BBF1000F37
:1012D80040F0C780012000F05DF9DFF8AC91DFF83D
:1012E800ACB1DFF898A1604E504602F09FF8012299
:1012F8000821304602F046F8142300935B48802307
:101308002AAA0AA902F0BAFB002844D030460022D3
:10131800082102F037F86AA800F02AF9D8B1FF21AD
:1013280074220DA802F0BAFD94E803009DF8A931D3
:101338009DF8A8519DF8AB218DF829309DF8AA3168
:101348008DF8285088E803008DF82A308DF82B2076
:101358000DB9052B59D000F0CFFF3B68C01AB0F586
:101368007A7F37D299F80030002BBDD09BF8005017
:10137800002DB9D100F0C0FF3D4B1B68C01A42F2E6
:1013880010739842B0D9012089F800508BF80050AA
:1013980000F000F9A8E7014674226DA802F07EFD6E
:1013A8009DF8A8308DF8A8319DF8A9308DF8A9319D
:1013B8009DF8AA308DF8AA319DF8AB308DF8AB3185
:1013C8002BAB93E8030084E803000AA96AA8FFF797
:1013D8007FFD9BE700F090FF99F8003038608BB1F3
:1013E8009BF8003073B9234A12685AB12249096838
:1013F8006420A1FB0001FEF76BFFC1B2032000F0DF
:10140800DFF8AFE70120FF21F9E7012AA3D19DF812
:10141800AC31042B9FD119480392642402F006F8DA
:10142800039A1148082101F0ADFF80230AA92AAACE
:1014380000940E4802F022FB2A4608210A4801F0CF
:10144800A1FF204600F05EFFBFF34F8F0C490D4B04
:10145800CA6802F4E0621343CB60BFF34F8F00BF4A
:10146800FDE700F0DBF935E700000258E80400303A
:10147800300E0030340E0030000E0030D80400303A
:1014880000ED00E00400FA052E0E00302C0E0030AE
:101498000449054B6FF0A0504FF0FF3208601A6006
:1014A800FEE700BF0000025800040258FEE700BF34
:1014B800FEE700BFFEE700BF704700BF704700BFF0
:1014C800704700BF704700BF00F00ABFF0B5224D5B
:1014D800224F28683A6800F5813000F5A070B2F50F
:1014E800006F83B04FEAC02406D21D48FF21104484
:1014F800C2F5006202F0D2FC204619494FF400629E
:10150800FFF7BEFB044610B9204603B0F0BD2E68B5
:101518008DF80760330E8DF80430330C8DF80530E4
:10152800330A8DF806300F4B80220021184602F04E
:10153800B5FC00223A600C4A034601211170019A59
:101548005A6040F2034201365A8008482E6001F082
:101558006DFF204603B0F0BD70050030F80D003077
:10156800F805003074050030F4050030D804003068
:1015780010B5064C237833B10549802202F080FC6F
:10158800002323700123184610BD00BFF405003066
:1015980074050030084B10B5802204460021184617
:1015A80002F07CFC054A0346012140F205105880F0
:1015B8001C71117010BD00BF74050030F4050030B7
:1015C80000B50D4B83B08C468DF8040080220021B5
:1015D80018468DF805C002F061FC084A0346BDF8BC
:1015E8000400988040F2062C0121A3F802C0117073
:1015F80003B05DF804FB00BF74050030F40500304B
:101608002DE9F04790B001A8FFF7ECFB38B3DDE90E
:1016180003569DF814404FEA1569C5F30748C5F30A
:101628000727C6F3072AEDB2F6B2114B8022002134
:10163800184602F033FC0F4980F805900122027128
:101648000A7040F6090280F80680C771057280F8B2
:1016580009A08672C472428010B0BDE8F0870446C3
:10166800064682460546074680468146DDE700BFB6
:1016780074050030F405003000B50F4A0F4B1168AF
:1016880083B0086C8DF80400C0F3062C802200217A
:1016980018468DF805C002F001FC094A0346BDF85A
:1016A800040098804FF4037C0121A3F802C0117054
:1016B80003B05DF804FB00BF380400307405003047
:1016C800F405003070B5A0B002A8FFF78BFB50B945
:1016D8004A4C4B4A236803F17043A3F58063934255
:1016E8001BD920B070BD474B049A9A4212D1079C6F
:1016F800631EB3F5C02F0DD2039B022B34D03F4994
:1017080022464FF0FF30FFF775FAFFF7B3FA089B50
:10171800834262D0002020B070BD0146302214A858
:1017280002F0BCFB38484FF4C0250123CDE9110372
:101738002A46344B139321464FF0FF301695FFF796
:1017480059FAFFF797FA18AE2B4622462021179030
:1017580000962E48FFF7C6F811A8FFF76FFB003870
:1017680018BF012020B070BD294B2A4D80220021CE
:10177800184602F093FB40F20511418007210171E0
:10178800012625491D482E702246FFF7E5FA002854
:10179800C0D002AD0FCD11AC0FC40FCD0FC40FCD0B
:1017A8000FC495E8070084E8070011A81296FFF710
:1017B80045FB0028AED011AC0FCC0DF1080CACE8FD
:1017C8000F000FCCACE80F000FCCACE80F0094E88A
:1017D8000700079C8CE8070091E711AC079B074AB4
:1017E8000A4800942021FFF77DF8202209A9204605
:1017F800FFF7AAF9003818BF012072E700001408A3
:10180800007C04003443374834504155283F1008C1
:1018180074050030F405003000001A082DE9F04185
:101828001E4D1F4A2C686E6804F17043A3F580634F
:10183800934230D814F003072DD1F3072BD506F1C6
:10184800774303F56C03B3F5C02F24D2132000F0BF
:10185800BBFD144801F0F2F8134802F0F7F801F064
:101868006FFE00F083FC4FF0E0231F615F619F6112
:10187800D3F8042D42F0007203F550635A6072B633
:101888009D60BFF34F8FBFF36F8F84F30888334693
:10189800BDE8F0411847BDE8F08100BF000014081A
:1018A800007C040038040030E80400302DE9F843D7
:1018B80004684368434D444924BA621E1BBAB2F512
:1018C800C02F2C600B605BD2404A934246D1404DFA
:1018D800404F80220021284602F0E0FA40F2051825
:1018E80004F2FF7102233C48A5F80280C90A2B7153
:1018F80001263E70FFF7C0F90446002851D04FF486
:101908000062FF213548DFF8F09002F0C7FA344A48
:10191800344B1670344ADFF8E4E0DFF8E4C03349AA
:101928003348002414704FF0FF321A608EF80040DC
:10193800CCF800400C70C9F80040046000F0DCFCF2
:101948002C4B214618608022284602F0A7FA032370
:10195800A5F802802B713E70BDE8F8831C4B8022ED
:101968000021184602F09AFA1A4A034640F2052462
:1019780040F2054001215C8098801170BDE8F88331
:10198800134B80220021184602F088FA114A0346B8
:1019980040F20514FF2001215C8018711170BDE828
:1019A800F88380220146284602F078FAFF230F4A7E
:1019B8002B710B4BA5F8028016701C703E70BDE8A9
:1019C800F88300BF340E0030040E0030344337482B
:1019D80074050030F405003000001A08F8050030DE
:1019E8002E0E00300C000030080E00302C0E003097
:1019F80070050030300E0030000E00302D0E003023
:101A0800F80D00300378D02B00D0704743789E2B18
:101A1800FBD18378122BF8D1C378AD2BF5D1024BCB
:101A280001221A70F1E700BF080E00302DE9F043DB
:101A3800374B1C7893B014B113B0BDE8F08303A8FA
:101A4800FFF7D0F9F0B1049B012B1ED0314F25468A
:101A58002046314B8DF80500002180221846396058
:101A68008DF804108DF806408DF8075002F016FA2C
:101A78002A4A034640F20F4401985C8001215860CD
:101A88001170D9E7234F0546E3E7254B059A9A429B
:101A9800DCD1089D1F4F6B1EB3F5C02F02D325461E
:101AA8002046D6E739688D422CD96E1A072E82BF98
:101AB8004FF0080901EB09054E46174C01F1016189
:101AC8004FF00008324601F5802101A898BF5FFA5F
:101AD80086F9CDE9018802F0D3F9414680222046F3
:101AE80002F0DCF932460F2301A9201DA37084F807
:101AF800039002F0C5F9094B3D6001221A7013B03A
:101B0800BDE8F083C5F30740C5F30724EDB2A0E7AD
:101B18002E0E0030FC0D003074050030F405003046
:101B28003443374838B50C4B1A789AB10B4A1278B7
:101B380082B90B4D2A78032A0CD80346094C5968F8
:101B4800006804EBC20303C301322A7000F0D4FB1F
:101B5800054B186038BD00BF2E0E00302C0E00302B
:101B68002D0E00300C0E0030300E00302DE9F84FED
:101B7800324B1A78002A4FD0314B1A78002A4BD1B1
:101B880008290E4648D82F4DDFF8D0902968D9F893
:101B98000020914283464BD3002E40D0DFF8C0800E
:101BA800294A0BF1FF37002402E00134A64236D05F
:101BB8002868D9F80010884200F101032ED2D8F81D
:101BC800000017F801EF02F800E0411CB1F5006FC2
:101BD800C8F800102B60E8D1FFF778FC1A4A824653
:101BE8000028E2D1194D621C59462868184CFFF7A5
:101BF80001F8802228605146204602F04FF90F4B29
:101C0800144A83F800A0012313700D4A40F205110D
:101C1800FF20207161801370BDE8F88F26460B4CB9
:101C2800324620685946FEF7E5FF2060BDE8F88F88
:101C380000F062FB084A1060AEE700BF2E0E0030CD
:101C48002C0E0030000E0030F80500300C0000307B
:101C580074050030F4050030300E0030340E0030CA
:101C6800F80D00302DE9F04FAA4C2378BDB013B120
:101C7800A94D2B7813B13DB0BDE8F08F814600F037
:101C88003BFBA64B1860A64B1B68002B40F0C88096
:101C9800A44BA54E1A6833689A4203D1A34B1B780C
:101CA800042B15D0A24B80220021184602F0F6F82A
:101CB800A049034601220A7040F2052000212A703B
:101CC80040F20512588021709A803DB0BDE8F08F2F
:101CD800994BD9F800801868D9F804300593B9F8F9
:101CE80006300493B9F804B0914FDFF84892FEF734
:101CF800C1FF802203900021384602F0CFF840F25D
:101D080005137B8006233B71039B98FA88F84FF0F4
:101D1800010A984589F800A040F09A800DF11C0846
:101D2800CDF800803368854A85482021FEF7DAFD22
:101D3800844920224046FEF707FF0146002800F0AC
:101D48009580049B9BFA9BFB93FA93FA0FA81FFAC2
:101D58008BFB1FFA8AFAFFF745F818B1109B012B85
:101D680000F0B680784A039B2493784B1B68209335
:101D780033682393764B1E93CDE921BA02234FF0A3
:101D8800000A82F800A01F93B8E80F000DF1940C28
:101D9800ACE80F0098E80F008CE80F001EA8FFF7CA
:101DA8004DF88046002800F0828080225146604825
:101DB80002F074F840F2051B326860496548A7F8DC
:101DC80002B007234FF001083B7189F80080FEF745
:101DD800C3FF064600285BD01EAE0FCE0DF1B40C33
:101DE800ACE80F000FCEACE80F000FCEACE80F0048
:101DF80096E807008CE807002DA8CDF8B880FFF713
:101E08001DF80646002843D049485146802202F072
:101E180045F80423A7F802B03B7189F800802AE747
:101E2800FFF754FB064600287FF432AF404B0146CB
:101E38008022184602F032F83E49267003460122F5
:101E480040F20510FF241C7158800A702A7012E7AE
:101E580080220021384602F021F840F205230022B2
:101E680085F800A07B80BB80227004E78022039065
:101E7800384602F013F80399217040F2052240F227
:101E8800053389F800A085F800A07A80BB80F2E6C7
:101E980027488022314602F001F8FF232670A7F870
:101EA80002B03B7189F8008085F80080E3E6802263
:101EB8001F48414601F0F2FF012389F800302B70DA
:101EC80040F20512FF2384F800807A803B71D2E645
:101ED800DDE91201059A41EA004112BA91421A4A13
:101EE8007FF641AF117800297FF43DAF8022384654
:101EF8000493039101F0D2FF049B039989F8003001
:101F08002B7040F2052240F2055321707A80BB8085
:101F1800B1E600BF2E0E00302C0E0030300E00301F
:101F2800F80D0030000E0030340E00302D0E003059
:101F380074050030F40500300C00003000001A0869
:101F4800283F10080C0E0030080E0030040E003038
:101F580034504155000014082DE9F043072899B082
:101F68000546144602D88B781F2B10D97C220021F5
:101F7800201D01F093FF0223052101222370FF2376
:101F88006570A170E270237119B0BDE8F08300F1AB
:101F98003008CA785FFA88F803EB4813082A0593D3
:101FA8004FF00003CDE90633CDE90933CDE90B3312
:101FB800CDE901330D9301F104014FEA024301A871
:101FC80028BF0822089301F05BFF28484FEA481809
:101FD80000F06CFE002842D104F104097C220021A3
:101FE800484601F05BFF022323700523A3700122FA
:101FF800FF236570E270237100F07EF91C4E1B4FC1
:10200800054600F079F903465B1BC72B3046BBD861
:1020180001F00CFA4021384600F03EFE0028F0D0CE
:1020280003AB0EAA4021384600F058FD0028E8D13D
:10203800DDE90F321343E4D10E9A4245E1D308F1AA
:1020480020039A42DDD203AB03CBA2EB0802BDF812
:102058004630E3706060A270C9F8041094E701AAE2
:1020680005A9024800F000FDB6E700BF38040030BB
:10207800D80400302DE9F04180460E4600F03CF9C6
:10208800354F054606E001F0D1F900F035F9431B5C
:10209800322B40D8002001F087F904463846002C3E
:1020A800F1D14FF0605398F802201A702B4898F835
:1020B80003205A70C3F80240446098F80320082AA5
:1020C80008F1040128BF082201F0DAFEBFF34F8FA0
:1020D800204601F05BF921468022304601F0DEFE01
:1020E80001230521FF223370B170F370327100F0C3
:1020F80003F9194D044605E001F098F9012001F0B3
:1021080053F9B0B900F0F8F803461B1BC72B284653
:10211800F2D9BDE8F08180220021304601F0BEFEF0
:1021280001230521FF223370B170F3703271BDE8CD
:10213800F0814FF060530A4A197CB170597CF170F4
:10214800D3F812305268B2607360BDE8F0410021E4
:10215800012001F031B900BFD80400300200003876
:1021680012000038704700BF704700BF38B5194BE0
:10217800194D1A4ADD670024DC671949C3F8802025
:1021880040F27120174AC3F880401825C3F884002C
:10219800C3F884404FF49B70C3F88810C3F8884094
:1021A8001149C3F88C50C3F88C40C3F890200F4AEB
:1021B800C3F89040C3F89400C3F89440C3F898104B
:1021C800C3F89840C3F89C20C3F89C40FFF7CCFFA5
:1021D800204638BD004402583150010023C0000A8F
:1021E800FF072803FFC3FFE83330D731AADE2000FA
:1021F80038B50F4B1B780BB9012038BD0D494FF48A
:102208007A720546B2FBF3F30868B0FBF3F000F00E
:10221800EFF804460028EFD10F2DEDD802462946E5
:102228004FF0FF3000F092F8034B20461D6038BD98
:1022380010000030000000301400003010B5234CAE
:10224800234AD4F8D83043F48043C4F8D830D4F8BB
:10225800D83082B003F480430193019BD2F8003454
:1022680023F47F2323F4706343F40143C2F800345A
:10227800D2F8003443F00103C2F80034032000F020
:1022880053F801F02DFAA369A2691249C3F3032395
:1022980002F00F02CB5C8A5C0F4903F01F03D840A1
:1022A80002F01F030D4A20FA03F30F200B6013609E
:1022B800FFF79EFF18B10124204602B010BD044666
:1022C800FFF750FF204602B010BD00BF004402587F
:1022D80000400240183F10080400003000000030A1
:1022E800034A044B11681B780B441360704700BF06
:1022F800380E003010000030014B1868704700BFDE
:10230800380E003038B50446FFF7F6FF631C054663
:1023180002D0044B1B781C44FFF7EEFF431BA3427B
:10232800FAD338BD100000300749CA6803024FF6D7
:10233800FF0003F4E0630240134343F0BF6343F438
:102348000033CB60704700BF00ED00E01C4BDB683A
:10235800C3F3022300B5C3F1070EBEF1040F03F166
:10236800040C28BF4FF0040EBCF1060F1BD9033B29
:102378004FF0FF3C0CFA03FC22EA0C024FF0FF3C42
:102388000CFA0EFC21EA0C019940002841EA0201EE
:102398000CDB00F16040090100F56140C9B280F82A
:1023A80000135DF804FB00221346E7E7054B00F035
:1023B8000F0009010344C9B219765DF804FB00BF98
:1023C80000ED00E0FCEC00E000280DDB43090749C4
:1023D8000122203300F01F0002FA00F041F8230028
:1023E800BFF34F8FBFF36F8F704700BF00E100E06E
:1023F8000138B0F1807F10D210B44FF0E023084CC0
:1024080058614FF0F00C84F823C0002207211046D1
:102418009A615DF8044B196170470120704700BF4D
:1024280000ED00E070B54D68002D37D18C680E695D
:1024380026430C6846EA8446D1E9064525434C699B
:102448002543846ED0F8840003FB04F40B6A45EA44
:102458000363CD6840F8246000EB840443EA054335
:102468006360124DCB68EB5CBBB10020937892F8A7
:1024780003C0167892F801E01B0443EA0C63334367
:1024880004EB000C43EA0E23CCF80830CB68EB5C75
:102498000430834202F10402E8D870BD0C690E686A
:1024A80026438C68264346F08046C5E74840100816
:1024B800704700BF2DE9F04F99B0044646494C22B9
:1024C80005A801F0DDFC002C00F0C481434A236814
:1024D800934204BF02F58072626094F8982002F07B
:1024E800FF01002A71D09A6922F010029A61FFF761
:1024F80003FF054604E0FFF7FFFE401B0A2857D8F4
:1025080023689A691107F6D49A6942F001029A6120
:10251800FFF7F2FE054604E0FFF7EEFE401B0A282F
:1025280046D823689A69D207F6D59A6942F002021A
:102538009A61227C012A9A690CBF22F0400242F07B
:1025480040029A61627C012A9A690CBF42F4804277
:1025580022F480429A61A27C012A9A690CBF22F473
:10256800805242F480529A619A69A068E16822F424
:10257800407202439A619A6922F0A4029A611A6928
:10258800012922F010021A612AD069B302299A6936
:1025980000F0878142F080029A611A69032942F0AB
:1025A80010021A6120D19A6942F020029A611BE058
:1025B800D4F89C30032243F00103C4F89C30012076
:1025C80084F8982019B0BDE8F08F84F89910204657
:1025D800FFF76EFF236886E7CC3E100800A0004096
:1025E8009A6942F004029A61D4E90612013A013963
:1025F800120242EA4162216A01390A4361690139DA
:1026080042EA0142B0F5407FDA610ED1D4E90B020B
:10261800A16A013A01381201013942EA00220A434B
:10262800616A013942EA0142DA60D4F86080B8F19F
:10263800000F05D0D3F8C020616E0A43C3F8C0204C
:10264800E06D18EB000F40F00981A26E0192D4E909
:1026580010A5BAF1000F0BD018A901EB8501D3F82A
:10266800BC2051F84C1C22F007020A43C3F8BC20D6
:10267800D4E91296B9F1000F0CD018A901EB860124
:10268800D3F8BC2051F84C1C22F0700242EA011227
:10269800C3F8BC20D4E914276AB10DF1600C0CEB27
:1026A800870CD3F8BC105CF84CCC21F4E06141EA0B
:1026B8000C21C3F8BC107D498B4200F0E98006FB71
:1026C80009FC4FF001010026C4F89C6084F89810BA
:1026D800D3F88410C4F8946007FB02F2744F029296
:1026E800626BD4F838E0394041EA8201C3F88410BB
:1026F800D3F8841021F47F0141EA0E41C3F8841015
:10270800D3F8881001EA070B02EB0E0102F18052A0
:102718004BEA810B02F52C52C3F888B09200D3F82B
:1027280088B0009202EB8E0E7246D4F83CE0039219
:102738002BF4FE0B4BEA0E4BC3F888B0D3F8A0B0CD
:1027480001EB4E010BEA070B4BEA810BC3F8A0B073
:10275800D3F8A0B02BF4FE0B05FB0AF54BEA0A4AA6
:10276800C3F8A0A0D3F8B0A029440AEA070A4AEAA5
:10277800810AC3F8B0A0D3F8B0A02AF4FE0A4AEA46
:102788000949C3F8B090D3F8AC90614409EA070945
:1027980049EA8109C3F8AC90D3F8F09002EBCE0E69
:1027A800029A09EA0709114449EA8109C3F8F09035
:1027B800D3F8F0B0D4F858902BF47C1B4BEA094BB3
:1027C800C3F8F0B0D3F8C0B001EB49010BEA070732
:1027D80047EA8107C3F8C070D3F8C01021F47C1110
:1027E80041EA0041C3F8C010D3F8C07001990EEB5C
:1027F800850505EB8C0C0CEB820A27F07C570AEB5D
:10280800C90901FB00F047EA0867C3F8C070039ADA
:10281800284B09EB800001FB08F100EB8101C4E9BA
:102828001C2E9942009AC4F88800C4E91E5CC4E9C9
:1028380020A9E266C4F890101FD88A4206D2009AEE
:1028480042F8046BD4F890309A42F9D3002019B0BA
:10285800BDE8F08F012019B0BDE8F08FA16E01919D
:1028680018AD05EB8101D3F8C82051F84C1C22F0B3
:1028780007020A43C3F8C820E9E6D4F89C300322CB
:1028880043F02003C4F89C30012084F8982099E68E
:10289800D4F804C0DCF8081021F00301CCF80810C3
:1028A8000DE742F020029A619EE600BF00A00040BA
:1028B8000300FFFFFCD30040704700BF90F898204A
:1028C800013A012A034607D9D0F89C2042F00202B7
:1028D8000120C3F89C2070470868CA6810B490B9F2
:1028E800072A28D08C684869D20642EA84720243D3
:1028F800086942EA00424968DB6E5DF8044B43F818
:1029080021200020704708691B6F072A18BF8C68B0
:1029180040EA427014BF4A698A69496803EBC10CEE
:1029280018BF42EA847243F831005DF8044BCCF8D2
:10293800042000207047C8690202086942EA004280
:102948008869024342F06052D5E700BF10B590F89D
:102958009840012C844607D0D0F89C3043F00403FB
:102968000120CCF89C3010BD9646029ADCF8004055
:1029780042EA430343EA8E0242EA0112C4F8802085
:10298800002010BD90F89820012A034607D0D0F8FF
:102998009C2042F004020120C3F89C207047006884
:1029A800022283F898208269002122F001028261C4
:1029B8000846C3F89C10704790F89830022B84465C
:1029C80029D10268936943F0010393619369D80799
:1029D80058BF33231BD5936923F010039361936980
:1029E800180748BF332302D404E0013B1BD0916988
:1029F8000907FAD49369002043F002030121936187
:102A0800CCF894008CF898107047013B0BD0916972
:102A1800C907FAD5DFE7D0F89C3043F00803012056
:102A2800CCF89C307047DCF89C30032243F001035B
:102A3800CCF89C3001208CF89820704790B110B5E4
:102A48000446FFF7B9FF2268D36D23F0030320463D
:102A5800D365FFF731FF0023C4F89C3084F8983021
:102A6800184610BD0120704770B590F89830022BB9
:102A7800044612D10668D6F8C03013F07C5F14D033
:102A8800D6F8C45015F4001517D0D0F89C3043F48C
:102A980000730120C4F89C3070BDD0F89C3043F01E
:102AA80008030120C4F89C3070BDD0F89C3043F076
:102AB80020030120C4F89C3070BDD6F8C460C6F36A
:102AC80004463346FFF7AEFC21680122B240C1F844
:102AD800D0202846C4F8942070BD00BF844690F8E2
:102AE8009800022859D14029F0B566D0412900F054
:102AF8008980DCF85000884257D9DCF85450DCF85B
:102B08007C0001FB05F500EB85050027286800F02F
:102B180080405060002840F0A2802868C0F38A40B6
:102B2800106028685B4E00F000509060286800F044
:102B380000401061A888D061E88800F00F00D060DC
:102B48006C6804F4801454616C6804F40014946193
:102B5800EC7904F07F041462345C6868C00F50623A
:102B680064B103F1FF3EE81D831F10F8014F0EF812
:102B7800014FD468345D5B1B9C42F5D8402972D064
:102B8800412900F081801F2973D8DCF80020012337
:102B98008B40C2F898300020F0BDDCF89C3043F040
:102BA80008030120CCF89C307047DCF89C3043F0D7
:102BB80020030120CCF89C30F0BDDCF80000D0F8F0
:102BC800A04014F4FE0FF0D0D0F8A44067063ED021
:102BD800D0F8A470D0F8A440E601C7F3052708D5BB
:102BE800D0F8A040002C04DAD0F8A000013707EA9A
:102BF8001047DCF84450DCF8740007FB05F500EBDF
:102C0800850583E7DCF80000D0F8B04014F4FE0F27
:102C1800CBD0D0F8B440650619D0D0F8B470D0F84D
:102C2800B440E401C7F3052708D5D0F8B040002C1C
:102C380004DAD0F8B000013707EA1047DCF84C5046
:102C4800DCF8780007FB05F500EB85055EE7DCF8A6
:102C58009C3043F480730120CCF89C30F0BD286888
:102C680020F060405CE7DCF800300020C3F8A87072
:102C7800F0BDDCF8000001F01F03012202FA03F3A3
:102C8800C0F89C300020F0BDDCF800300020C3F80C
:102C9800B870F0BD48401008036840290CBFD3F84D
:102CA800A400D3F8B40000F07F0070470368D3F89D
:102CB800C40000F03F0070470F4BDA68D20706D512
:102CC8000E490F4A59605A60DB68DB0711D40A4B7A
:102CD800D3F80C0110F001000AD00849084AC3F8DB
:102CE8000411C3F80421D3F80C0100F00100704767
:102CF80070470120704700BF00200052230167453C
:102D0800AB89EFCD0A4BDA6842F00102DA60DA6883
:102D1800D2070BD5D3F80C2142F00102C3F80C21DD
:102D2800D3F80C01C04300F0010070470120704740
:102D3800002000522DE9F0410F460546FFF7DCFA66
:102D4800022F294C294E804618BF042407E0D6F8E4
:102D5800103124EA03035B0706D4691C18D1042C3C
:102D6800F5D133695A07F8D4012F26D01F4A2049D4
:102D7800D2F810310B4015D1D2F8100110F4803080
:102D880004D04FF48031C2F814111846BDE8F08120
:102D9800FFF7B2FAA0EB0800A84201D8002DDED157
:102DA8000320F3E7134CA169194341F00041A161E5
:102DB8000120C2F81431BDE8F0810C490C4A0B69B6
:102DC8001A4009D1086910F48030DFD04FF48033FD
:102DD8004B611046BDE8F081064CA3691343A3611B
:102DE80038464A61BDE8F0810400008000200052A6
:102DF8000000EE173C0E0030F8B52F4E307D01284C
:102E080050D001F178430127B3F5801F0D461446D1
:102E1800377536D3A1F10163B3F5801F40D2002383
:102E280002214CF25030B361FFF784FF30BB234AD4
:102E3800D2F80C3143F00203C2F80C3102272246C3
:102E4800BFF36F8FBFF34F8F04F120012B1B106866
:102E5800D05004328A42FAD1BFF36F8FBFF34F8F3D
:102E68004CF250303946FFF765FF012F134A1BD04B
:102E7800D2F80C3123F00203C2F80C310023337569
:102E8800F8BD002339464CF25030B361FFF752FFCA
:102E98000028F3D1094AD36843F00203D360CEE790
:102EA8003846F8BD0220F8BDD36823F00203D3608A
:102EB80000233375E4E700BF3C0E003000200052C9
:102EC80001F00303032B22D0CA070BD51C4BDA6889
:102ED80022F03002DA60DA680243DA60DA6842F037
:102EE8008802DA608B0711D5154BD3F80C2122F034
:102EF8003002C3F80C21D3F80C211043C3F80C019D
:102F0800D3F80C2142F08802C3F80C2170470C4B0F
:102F1800DA6822F03002DA60D3F80C2122F03002AD
:102F2800C3F80C21DA680243DA60D3F80C211043A5
:102F3800C3F80C019A6942F010029A61704700BF09
:102F48000020005210B4CC070BD5104CE36823F4D2
:102F5800E663E360E36843EA0023134343F0840332
:102F6800E3608B070FD50949D1F80C3123F4E663E8
:102F7800C1F80C31D1F80C3143EA0020024342F089
:102F88008402C1F80C215DF8044B70470020005200
:102F98002DE9F0474E4F3B7D012B00F0858001263F
:102FA80000233E75BB614368DA07044689464FD45F
:102FB8009A070BD502214CF25030FFF7BBFE28B11F
:102FC800012600233B753046BDE8F0872568012DB2
:102FD8004ED04FF0FF33C9F80030D4E902532B44E8
:102FE8009D425FD2DFF8EC80DFF8ECA007E098079D
:102FF80021D4D4E9022301351344AB4252D92269C2
:1030080061682846FFF79EFF6368DE07EFD5012158
:103018004CF25030FFF78EFED8F80C3003EA0A0362
:10302800C8F80C3063689907064604D4002EE0D02F
:10303800C9F80050C5E702214CF25030FFF77AFE7C
:10304800D8F80C3103EA0A030646C8F80C31EDE754
:1030580031464CF25030FFF76DFE63680028A7D068
:103068009B07ADD502214CF25030FFF763FEA8E76D
:1030780061682069FFF724FF636813F0010617D120
:103088009B079ED502214CF25030FFF753FE114AA0
:10309800D2F80C31002823F0080318BF0126C2F823
:1030A8000C318EE700268CE702263046BDE8F08713
:1030B80029464CF25030FFF73DFE064AD36823F00C
:1030C8000803061ED360636818BF0126D8E700BF4F
:1030D8003C0E003000200052FBF8FFFF2DE9F04FB6
:1030E8000C6885B0002C00F0B5800022DFF888A2BB
:1030F80000941346009C4FF0010C0CFA03FC1CEAE8
:10310800040B00F0A0804F6807F003056E1E012E27
:1031180040F2A380032D40F0E5808E68012E05FA69
:1031280002F507D0D0F80CC096402CEA050C46EA08
:103138000C06C660EE43D0F800C00CEA060635431C
:1031480017F4403F05607ED0DAF8F450834C45F020
:103158000205CAF8F450DAF8F45005F002050395B0
:10316800039D23F0030505F1B04503F0030E4FEA74
:103178008E0E0F26D5F808C406FA0EF6A04205F5FD
:1031880080652CEA06062DD004F58064A04200F084
:10319800B480734CA04200F0B780724CA04200F09B
:1031A800A580714CA04200F0BD80704CA04200F098
:1031B800C0806F4CA04200F0AE806E4CA04200F080
:1031C800BF80DFF8B8C1604500F0C180DFF8B0C14A
:1031D80060450CBF4FF0090C4FF00A0C0CFA0EFEBC
:1031E80046EA0E06AE604FF0B0456FEA0B0C2D684C
:1031F800FE024FF0B04654BF0CEA05054BEA050540
:10320800356076684FF0B045BC0254BF0CEA06063C
:103218004BEA06066E60D5F8C460BD034FF0B045B2
:1032280054BF0CEA06064BEA0606C5F8C460D5F892
:10323800C050FC034FF0B04654BF0CEA05054BEAFA
:103248000505C6F8C050009C0133DC4002F10202BB
:103258007FF450AF05B0BDE8F08FCE68D0F808E035
:1032680006FA02F9032606FA02F82EEA080E49EAD7
:103278000E068660D0F804E02EEA0C0EC7F3001C98
:103288000CFA03FC4CEA0E0C6FEA0806C0F804C0FE
:10329800D0F80CE08C680EEA060E04FA02FC4CEA40
:1032A8000E0C022DC0F80CC005FA02F57FF443AFEE
:1032B8004FEAD30E00EB8E0E03F00708DEF820402D
:1032C80001940C694FEA880804FA08FC4FF00F09CA
:1032D800019C09FA08F824EA08094CEA090CCEF816
:1032E80020C028E703269640F643D1E74FF0030CA9
:1032F8000CFA0EFE46EA0E0674E74FF0010C0CFAC3
:103308000EFE46EA0E066DE74FF0020C0CFA0EFEB2
:1033180046EA0E0666E74FF0060C0CFA0EFE46EA81
:103328000E065FE74FF0040C0CFA0EFE46EA0E0696
:1033380058E74FF0050C0CFA0EFE46EA0E0651E768
:103348004FF0070C0CFA0EFE46EA0E064AE74FF05D
:10335800080C0CFA0EFE46EA0E0643E70000025877
:1033680000080258000C02580010025800140258B5
:1033780000180258001C0258004402580020025845
:103388000024025802B9090481617047044A054BB8
:10339800203052F82000C01A18BF0120704700BF23
:1033A8000064025800010080024B53F82000C00F4F
:1033B800704700BF00640258024B41F4807143F823
:1033C800201070470064025858B3D0E9003170B536
:1033D800826804464CF6CC40186045F25550186097
:1033E80059609A60FEF788FF2368DA680546500737
:1033F8000DD041F60106FEF77FFF431BB342236859
:1034080002D9DA6851070ED1DA685207F3D1E268B7
:10341800196991420ABF4AF6AA221A611A60002065
:1034280070BD01207047032070BD00BF03684AF6D5
:10343800AA2200201A6070473B4B30B49A6A9C6AF3
:10344800DD6A596B14F47C7FC4F3051038D0C1F3DE
:10345800CC0105F0010505FB01F107EE901A02F019
:103468000302012AF8EEE75A02D0022A4ED04AB3E4
:1034780007EE900ADFED2D6AB8EEE77AC6EE877A96
:103488001B6BC3F3080307EE103A9FED296AB8EEE9
:10349800C77AF7EE006AA5EE867A37EE267A27EE27
:1034A800877A214B1B6BC3F34623013307EE903A0F
:1034B800F8EEE77AC7EE276AFCEEE67A17EE900A8E
:1034C80030BC70471A68920627D51968194A1B6BD1
:1034D8009FED176AC1F3C101CA4007EE902A07EEB3
:1034E800100AF8EEE77AB8EEC77AC3F30803C7EE16
:1034F800876A07EE103AB8EEC77AF7EE007AA5EEBB
:10350800867A37EE277A27EE267ACAE707EE900AF8
:10351800DFED096AB8EEE77AB0E707EE900ADFED6B
:10352800076AB8EEE77AA9E7004402580024744A0B
:10353800000000390090D00320BCBE4B0024744C1E
:103548005D4AF8B5136803F00F03062B0AD8136811
:1035580023F00F0343F007031360136803F00F030E
:10356800072B21D1554CFEF7C7FE236843F0010312
:103578000546236004E0FEF7BFFE401B022816D86C
:1035880023685E07F7D563684D484E4943F080438A
:103598000022636022614C4A4C4B00680B60136048
:1035A800FEF726FE044628B101242046F8BD032470
:1035B8002046F8BDFEF7A0FE404E054641F288378A
:1035C80004E0FEF799FE431BBB42F0D8336913F0C1
:1035D800380FF6D1FEF790FE32683D4B374F134057
:1035E8000546336004E0FEF787FE401B6428DED8FA
:1035F8003B689803F7D4FEF77FFE3B682F4E23F015
:10360800807305463B6004E0FEF776FE401B022807
:10361800CDD833689901F7D4FEF76EFE3368274F8B
:1036280023F080630546336004E0FEF765FE401B27
:103638000228BCD83B681A01F7D4FEF75DFE3B6848
:103648001E4D23F0805306463B6004E0FEF754FE0F
:10365800801B0228ABD82B6813F00053F6D11D4904
:10366800AB611D4AEB612B62A9621C49E9622A63BE
:103678006B63AA63EB632A646B642A684FF0FF31BB
:1036880022F480222A602B66A966D5F8D0300A4A2F
:1036980043F48033C5F8D03013681B0785D5136809
:1036A80023F00F0343F007031360146804F00F04BA
:1036B800073C18BF012478E7002000520044025854
:1036C8001400003000000030040000300090D003E7
:1036D80045EDF6FF00020202800201010000FF0131
:1036E8000C4A136903F03803102B04D0182B0DD0A3
:1036F8001BB1094870470948704713689B0607D5EE
:1037080013680748C3F3C103D8407047FFF794BE56
:10371800034870470044025800093D0040787D0185
:103728000090D003036859699A6942F008029A61C7
:103738009A6942F010029A611A6822F001021A602E
:103748001A6922F45B7222F003021A619A6822F461
:1037580040429A6090F88120042A01D08A0631D428
:1037680090F88120032A0FD04A0609D5D0F8842082
:1037780042F00402C0F884209A6942F040029A613B
:10378800826AB2F5800F28D08A0509D5D0F884203E
:1037980042F00102C0F884209A6942F400729A61EA
:1037A800CA0509D5D0F8842042F00802C0F8842060
:1037B8009A6942F480729A610023A0F86230A0F8F6
:1037C8006A307047D0F8842042F08002C0F8842024
:1037D8009A6942F020029A61C2E70A06D4D5D0F865
:1037E800842042F00202C0F884209A6942F08002E4
:1037F8009A61C9E7704700BF002800F0C3802DE92F
:10380800F84302688D4B9A420446806A78D0A3F543
:1038180078439A4274D003F580639A4270D0E16885
:103828000F2900F28780E76B01F10803DB087D09A7
:1038380005FB0333082B7DD8B0F5800F00F09C8082
:103848004FEA014994F8813003F0FF05002B00F09E
:10385800E180022384F881301368D4F81880656801
:10386800D4F838C023F00103B8F1806F136000F07A
:10387800C68015F4800E01D0062970D8136823F489
:1038880080731360636B48EA0308636A48EA0308B5
:10389800236948EA0308636948EA0308236A48EA8F
:1038A8000308E36C48EA0308A36848EA0308E369E5
:1038B8003B4343EA0903034319439160A16C48EA77
:1038C8000103A16D0B432B4343EA0C03B0F5800FB2
:1038D800D36059D08DB3136D23F001031365BEF186
:1038E800000F05D0D368616D23F000430B43D3600C
:1038F80000200123C4F8840084F88130BDE8F883EF
:10390800E168E76B01F10803DB087D0905FB033378
:10391800102B0FD8B0F5800F92D1484B9A4225D181
:10392800D4F83090B9F1000F01D14FEA0149B1EB59
:10393800194F87D90120BDE8F88328B9936823F483
:10394800C05343F400639360936823F4C06343F463
:1039580080639360136D23F001031365C8E7136850
:10396800266D23F48073334313608BE7344B9A42FC
:10397800D6D0344B9A42D3D0D4F83090B9F5702FC2
:10398800D0D9D7E701207047236C012B13680CBFEF
:1039980043F4004323F400431360636C012B136862
:1039A8000CBF43F4804323F480431360234B9A42B3
:1039B80013D0A3F578439A420FD003F580639A4257
:1039C8000BD0B9F5702F0BD1136843F40053136073
:1039D800E36A1364002DB7D07DE7B9F5F81FF3D07B
:1039E8001368E16A23F400534FEA1946136001365D
:1039F8000123B3400B431364002DA5D06BE7B5F545
:103A0800800F16D0002D7FF434AFBCF1805F0BD04F
:103A1800AE4633E7204684F88050FFF7EBFE226875
:103A2800A06AE168E76B14E7136843F480531360F6
:103A38001FE7BCF1000FF7D0AE461DE7003001408C
:103A480000380040003C0040704700BF98B1026851
:103A5800022310B580F88130136823F0010304466F
:103A68001360FFF7F1FF0020C4F8840084F8800099
:103A780084F8810010BD0120704700BF2DE9F84F80
:103A880004461D460A9F0668D0F83CB0894692460F
:103A9800FEF732FC94F88130012B40F08A80804692
:103AA800D8B2B9F1000F00F08580BAF1000F00F02C
:103AB8008180002D7ED094F88030012B79D0226847
:103AC80084F880000023052184F88110C4F884302C
:103AD800A4F86A50A4F86250C4E91C33D368C4F847
:103AE80064A023F4C023C4F85C90A4F86850A4F838
:103AF8006050D3608D4B9A4200F08280A3F57843E2
:103B08009A427DD003F580639A420CBF4FF0100AA9
:103B18004FF0080A53681B0C1B042B4353601368AF
:103B280043F0010313606368B3F5800F03D1136892
:103B380043F400731360E3684FEA5B1909F1010964
:103B48000F2B1FFA89F940F285804FEA9A0A2E4610
:103B5800ADB9002E33D0536951695369D80757D48A
:103B6800B14501D90B0453D4FEF7C6FBA0EB0800FE
:103B7800B8425CD3781C5CD12268002DE9D0536927
:103B8800980740D505EB0A039E423CD2E16D51F8F7
:103B9800043B1362B4F86230E165013B9BB2A4F8C0
:103BA8006230B4F862505169ADB2002ED5D135B14A
:103BB8002CE00220BDE8F88F7E1C0BD122685369E7
:103BC8001D070DD4FEF798FBA0EB08039F42F3D91D
:103BD800002FF3D1D4F8843043F02003C4F88430A4
:103BE8002046FFF79FFD012384F88130D4F8840034
:103BF8000023C01A84F8803018BF0120BDE8F88F70
:103C08004FF0100A86E75169002EA6D10026B6E7C4
:103C1800106BB4F86A30616E013B9BB241F8040B3B
:103C2800A4F86A30B4F86A606166B6B290E7002F0B
:103C3800A2D12046FFF776FDD4F88430012243F460
:103C480080730021C4F8843084F8801084F88120BF
:103C58000320AFE7072B6BD94FEA5A0AAB46F5B9F1
:103C6800BBF1000FABD0536953695169C9073AD406
:103C7800D94548D9180446D5636E318E1980318EDE
:103C8800598004336366B4F86A30023B9BB2A4F8E7
:103C98006A30B4F86AB01FFA8BFB002DE0D0536984
:103CA800990719D505EB0A039B4515D2E36D33F83F
:103CB800021B3184E365B4F86230013B9BB2A4F87F
:103CC8006230B4F862505369ADB2BBF1000FCCD189
:103CD800002D3FF474AF03E05369BBF1000FC4D16A
:103CE8004FF0000BDBE7636E318E23F8021B63662F
:103CF800B4F86A30013B9BB2A4F86A30B4F86AB0F1
:103D08001FFA8BFBABE7BBF1010F01D19904EAD491
:103D1800FEF7F2FAA0EB0800B84203D37B1C88D167
:103D280022689CE7002FFBD183E700BF00300140E9
:103D38002E46002D33D1002E3FF441AF536953690D
:103D48005169C8074FD4B14555D9190453D5636E85
:103D580092F830201A70636E2268591C616692F8D6
:103D680030205A70636E2268591C616692F83020C0
:103D78005A70636E2268591C616692F830205A7036
:103D8800B4F86A30043B9BB2A4F86A30636EB4F8A6
:103D98006A6001336366B6B22268002DCBD05369DE
:103DA8009B071BD505EB0A039E4217D2E36D1B78D0
:103DB80082F82030B4F86230E16D2268013B9BB292
:103DC800A4F86230B4F8625053690131E165ADB2CC
:103DD800002EB5D1002D3FF4F2AE02E05369002E5B
:103DE800AED10026DBE7636E92F830201A70B4F883
:103DF8006A30013BC7E7032E02D813F4C04FF2D153
:103E0800FEF77AFAA0EB0800B84202D37B1CC3D0B5
:103E18000FE7002FC0D10CE770B50D4D0D4C641B9A
:103E2800A4100026A64209D10B4D0C4C00F03EF818
:103E3800641BA4100026A64205D170BD55F8043BAA
:103E480098470136EEE755F8043B98470136F2E704
:103E58006040100860401008604010086440100876
:103E680010B501390244904201D1002005E00378E1
:103E780011F8014FA34201D0181B10BD0130F2E721
:103E88000A44914200F1FF3300D1704710B511F890
:103E9800014B03F8014F9142F9D110BD024403468A
:103EA800934200D1704703F8011BF9E7F8B500BF4A
:103EB800F8BC08BC9E467047F8B500BFF8BC08BC03
:043EC8009E4670475B
:103ECC0000000000000000000000000000000000E6
:103EDC0000000000010000000200000003000000D0
:103EEC0004000000000000000500000000000000BD
:103EFC0000000000000000000600000000000000B0
:103F0C00000000000000000007000000000000009E
:103F1C00010203040102030406070809485944522C
:103F2C00412D554D432D4B422D434D342D323032C6
:103F3C00362D21212147415445574159982F8A420A
:103F4C0091443771CFFBC0B5A5DBB5E95BC25639DF
:103F5C00F111F159A4823F92D55E1CAB98AA07D8F7
:103F6C00015B8312BE853124C37D0C55745DBE721A
:103F7C00FEB1DE80A706DC9B74F19BC1C1699BE49A
:103F8C008647BEEFC69DC10FCCA10C246F2CE92D2A
:103F9C00AA84744ADCA9B05CDA88F97652513E984E
:103FAC006DC631A8C82703B0C77F59BFF30BE0C655
:103FBC004791A7D55163CA0667292914850AB727E3
:103FCC0038211B2EFC6D2C4D130D385354730A6580
:103FDC00BB0A6A762EC9C281852C7292A1E8BFA257
:103FEC004B661AA8708B4BC2A3516CC719E892D1BF
:103FFC00240699D685350EF470A06A1016C1A41942
:10400C00086C371E4C774827B5BCB034B30C1C3940
:10401C004AAAD84E4FCA9C5BF36F2E68EE828F74FF
:10402C006F63A5781478C8840802C78CFAFFBE9019
:10403C00EB6C50A4F7A3F9BEF27871C60001020331
:0C404C0004050607080C10141820304072
:08405800B0C2FF7F010000006F
:04406000BD02100885
:0440640099021008A5
:104068000090D0030090D00318FCFFFFFFFFFFFF74
:0840780001000000100000002F
:04000005081005DDFD
:00000001FF
