:020000040800F2
:10000000008001201D0500088D12000869120008FB
:100010008112000885120008891200080000000003
:100020000000000000000000000000009112000825
:100030009512000800000000991200089D120008A7
:100040006D0500086D0500086D0500086D050008C8
:100050006D0500086D0500086D0500086D050008B8
:100060006D0500086D0500086D0500086D050008A8
:100070006D0500086D0500086D0500086D05000898
:100080006D0500086D0500086D0500086D05000888
:100090006D0500086D0500086D0500086D05000878
:1000A0006D0500086D0500086D0500086D05000868
:1000B0006D0500086D0500086D0500086D05000858
:1000C0006D0500086D0500086D0500086D05000848
:1000D0006D0500086D0500086D0500086D05000838
:1000E0006D0500086D0500086D0500086D05000828
:1000F0006D0500086D0500086D0500086D05000818
:100100006D0500086D0500086D0500086D05000807
:100110006D0500086D0500086D0500086D050008F7
:100120006D0500086D0500086D0500086D050008E7
:100130006D0500086D0500086D0500086D050008D7
:100140006D0500086D0500086D0500086D050008C7
:100150006D0500086D0500086D0500086D050008B7
:100160006D0500086D0500086D0500086D050008A7
:100170006D0500086D0500086D0500086D05000897
:100180006D0500086D0500086D0500086D05000887
:100190006D050008000000006D0500086D050008F1
:1001A0006D0500086D0500086D0500086D05000867
:1001B0006D0500086D0500086D0500086D05000857
:1001C0006D0500086D0500086D0500086D05000847
:0801D0006D0500086D05000833
:1001D80010B5054C237833B9044B13B10448AFF379
:1001E80000800123237010BD3400002000000000AF
:1001F8003834000808B5034B1BB103490348AFF373
:10020800008008BD000000003800002038340008D5
:1002180053B94AB9002908BF00281CBF4FF0FF3165
:100228004FF0FF3000F074B9ADF1080C6DE904CE61
:1002380000F006F8DDF804E0DDE9022304B07047B9
:100248002DE9F047089D04468E46002B4DD18A4281
:10025800944669D9B2FA82F252B101FA02F3C2F1B4
:10026800200120FA01F10CFA02FC41EA030E944045
:100278004FEA1C48210CBEFBF8F61FFA8CF708FB66
:1002880016E341EA034306FB07F199420AD91CEB3E
:10029800030306F1FF3080F01F81994240F21C8170
:1002A800023E63445B1AA4B2B3FBF8F008FB1033B8
:1002B80044EA034400FB07F7A7420AD91CEB0404ED
:1002C80000F1FF3380F00A81A74240F207816444BD
:1002D800023840EA0640E41B00261DB1D440002342
:1002E800C5E900433146BDE8F0878B4209D9002DA6
:1002F80000F0EF800026C5E9000130463146BDE830
:10030800F087B3FA83F6002E4AD18B4202D3824299
:1003180000F2F980841A61EB030301209E46002D48
:10032800E0D0C5E9004EDDE702B9FFDEB2FA82F29D
:10033800002A40F09280A1EB0C014FEA1C471FFAFB
:100348008CFE0126200CB1FBF7F307FB131140EAE2
:1003580001410EFB03F0884208D91CEB010103F1AF
:10036800FF3802D2884200F2CB804346091AA4B271
:10037800B1FBF7F007FB101144EA01440EFB00FE45
:10038800A64508D91CEB040400F1FF3102D2A645AA
:1003980000F2BB800846A4EB0E0440EA03409CE749
:1003A800C6F12007B34022FA07FC4CEA030C20FAF6
:1003B80007F401FA06F31C43F9404FEA1C4900FA16
:1003C80006F3B1FBF9F8200C1FFA8CFE09FB181193
:1003D80040EA014108FB0EF0884202FA06F20BD906
:1003E8001CEB010108F1FF3A80F08880884240F256
:1003F8008580A8F102086144091AA4B2B1FBF9F09A
:1004080009FB101144EA014100FB0EFE8E4508D994
:100418001CEB010100F1FF346CD28E456AD9023819
:10042800614440EA0840A0FB0294A1EB0E01A142FE
:10043800C846A64656D353D05DB1B3EB080261EB6C
:100448000E0101FA07F722FA06F3F1401F43C5E946
:10045800007100263146BDE8F087C2F12003D8407C
:100468000CFA02FC21FA03F3914001434FEA1C47BE
:100478001FFA8CFEB3FBF7F007FB10360B0C43EAB0
:10048800064300FB0EF69E4204FA02F408D91CEB60
:10049800030300F1FF382FD29E422DD9023863445E
:1004A8009B1B89B2B3FBF7F607FB163341EA0341FE
:1004B80006FB0EF38B4208D91CEB010106F1FF384D
:1004C80016D28B4214D9023E6144C91A46EA004644
:1004D80038E72E46284605E70646E3E61846F8E6D6
:1004E8004B45A9D2B9EB020864EB0C0E0138A3E71F
:1004F8004646EAE7204694E74046D1E7D0467BE700
:10050800023B614432E7304609E76444023842E777
:10051800704700BF0D48854600F026F80C480D4985
:100528000D4A002302E0D458C4500433C4188C4246
:10053800F9D30A4A0A4C002301E013600432A242AC
:10054800FBD302F02BFF00F0FFFCFEE70080012048
:100558000000002034000020A435000834000020EA
:10056800100D0020FEE70000034AD2F8883043F45B
:100578007003C2F88830704700ED00E02DE9F04FB5
:10058800CDB00BAE05901BAF32464B780D78CC78CA
:1005980088781B0443EA0563234343EA002342F8AF
:1005A800043F974201F10401EFD13CAD0CAAB446D7
:1005B800976B134652F8040F5C6A1E684FEAF743BC
:1005C80083EA77434FEAB04183EA9723344481EAC8
:1005D800F011234481EAD0010B449542D363E7D15B
:1005E800059B4BAA5F691968D8685D689C68049781
:1005F80002929F691A69DB6903920B931A46304B82
:10060800019366462F4B0691DDE903C807950894C8
:1006180009900A9782468E4609E0019951F8043FED
:10062800019147462C46E0467546CC4686464FEA39
:10063800FC2127EA0C090CEA080081EABC1181EACE
:100648007C6189EA000056F8049F084481444FEA17
:100658007E3185EA040081EABE0100EA0E0005EA5F
:10066800040B4A4481EABE5180EA0B001344084453
:1006780003EB0A091844029BB3423A46A246CCD17E
:10068800079A069B049E0A9972449646089A2A4439
:100698001546099A224414460B9A03443A4403988F
:1006A8001746059A484466444144C2E9003EC2E9F7
:1006B8000254C2E90406C2E906174DB0BDE8F08F3E
:1006C80084340008982F8A42B2B30A442DE9F84FBF
:1006D8001A4F04464D1E02F1FF3AC1F1010B00F119
:1006E80028094FF0000801E0554514D0A36EE21820
:1006F80001330BEB0506402B15F8011F82F8281073
:10070800A3660AD0C6F30B06002EEDD1384602F0D8
:1007180049FA5545EAD1BDE8F88F49462046FFF722
:100728002DFFD4E9083213F5007342F10002C4E941
:100738000832C4F86880E5E7704700BFB8040020B5
:10074800F8B5856E43198022372D04460E4683F886
:1007580028200BD85AD005F12900C5F137022044CA
:10076800002102F05DFE04F1280716E06B1C3F2B08
:1007780007D805F12900C5F13F022044002102F005
:100788004FFE04F1280739462046FFF7F7FE3822C6
:100798000021384602F044FEA56ED4E9082308205B
:1007A800E5FB0023226212BA626623FA00F2636252
:1007B80084F8633084F862201A0C1B0E394684F8DA
:1007C800603084F861202046FFF7D8FE711E182398
:1007D8002268DA4001F8012F6268DA400A71A268DB
:1007E800DA400A72E268DA400A732269DA400A7467
:1007F8006269DA400A75A269DA400A76E269DA4083
:10080800083B13F1080F0A77E2D1F8BD00F1280779
:100818003725C2E72DE9F0474FF00008D4B00C4661
:100828000746154641463C2229A81E46CDF8A08019
:1008380002F0F6FD402C40F205813946854B864F83
:10084800DFF824C2DFF824E2CDF84881CDE9387317
:10085800824BCDE93AC3824BCDE93CE3814B3E93D1
:1008680003F174532246A3F5230338AC2046A3F6BC
:1008780092434FF000084FF00009CDE940893F93BB
:10088800FFF722FF28A92046FFF75AFF0DF19F0C1A
:100898000DF11F010DF15F0E0DF1DF021CF8010FC4
:1008A80080F03603944580F05C0001F8013F0EF8B3
:1008B800010FF3D100220023CDE94023654B664A9E
:1008C80069496A48DFF8AC81CDE93823634BCDE943
:1008D8003A13634BCDE93C03624B3E9303F17453E7
:1008E800A3F52303A3F692433F9301279DF82030F5
:1008F8008DF8083152970DF1200A4FF000090EE0EB
:10090800402F21D0529B1AF8011F03F5A8726A44A0
:100918000133402B02F8481C529306D00137012FAF
:10092800EED1404602F03EF9ECE742A92046FFF737
:1009380025FEDDE9403213F5007342F10002CDE9EE
:100948004032CDF84891E9E7324629462046FFF77C
:10095800BBFE69462046FFF7F3FE3E49424B3E4A3E
:100968003892CDE939133D4A404B3D49CDE93B2307
:100978003C4B3F4A3F9200260027CDE93D13012515
:100988009DF860308DF80831CDE940675295394FB0
:1009980018AE4FF000080EE0402D21D0529B16F8FB
:1009A800011F03F5A8726A440133402B02F8481C62
:1009B800529306D00135012DEED1384602F0F2F8F7
:1009C800ECE742A92046FFF7D9FDDDE9403213F5EF
:1009D800007342F10002CDE94032CDF84881E9E7E1
:1009E800244F0DF1FF3601254FF0000802E0202DBD
:1009F80021D00135529B16F8011F03F5A8726A44ED
:100A08000133402B02F8481C529305D0012DEED13A
:100A1800384602F0C7F8ECE742A92046FFF7AEFDDA
:100A2800DDE9403213F5007342F10002CDE94032AE
:100A3800CDF84881EAE75C992046FFF781FE54B07B
:100A4800BDE8F0872246394628A802F0DBFC38AC1E
:100A58001CE700BF85AE67BB67E6096A3AF54FA594
:100A68008C68059BABD9831F72F36E3C7F520E5185
:100A780019CDE05BB8040020AAB100F1FF3C00B535
:100A880001390CEB020E00201CF8013F11F8012F70
:100A9800F44583EA020340EA0300F5D1B0FA80F096
:100AA80040095DF804FB0120704700BFF0B51B4EFC
:100AB800337804460D46174683B167B3E919184ED3
:100AC8006A1E0139204612F8013F4340DBB28A42D0
:100AD80056F8233083EA1020F5D1F0BD1149DFF82C
:100AE80048C09E4601F580607246082312F0010F47
:100AF80003F1FF3314BF8CEA5202520813F0FF03CC
:100B0800F4D141F8042F81420EF1010EECD10123FA
:100B18003370002FD2D12046F0BD00BF5004002012
:100B2800500000204C0000202083B8EDC0437047DF
:100B3800002935D02DE9F04300F17840194EDFF84F
:100B4800688087B0C40A01EBD0274FF0000906E09F
:100B5800019B01331CD102F025F8A7421CD00123C8
:100B6800CDE902930494059301F02AFDB3694CF290
:100B7800FA3243F07043B36101A9326102A801F06F
:100B880049FE0546013401F02FFD4046002DDFD017
:100B9800002007B0BDE8F083012007B0BDE8F0836E
:100BA8000120704700200240B80400202DE9F04FD2
:100BB80083B0144605460E4601F002FD3A4B9A6989
:100BC80042F070429A614CF2FA321A615CB3DFF873
:100BD800DC904FF000086F464FF0FF3A4FF0FF3BB4
:100BE80001E044451FD9A4EB0802082A28BF0822BF
:100BF80006EB08013846CDE900AB02F003FCDDE95D
:100C0800002305EB0801002001F024FDC8F30903C7
:100C180008F1080800283DD1002BE2D1484601F030
:100C2800C1FF4445DFD801F0DFFCBFF34F8F6CB341
:100C3800DFF878904FF000086F464FF0FF3A4FF01A
:100C4800FF3B01E0444521D9A4EB0802082A06EB42
:100C5800080128BF08223846CDE900AB02F0D2FBD4
:100C680005EB0803D3E9002300980199994208BFCE
:100C78009042C8F3090C08F1080811D1BCF1000F23
:100C8800E0D1484601F08EFF4445DDD8012003B08D
:100C9800BDE8F08F01F0A8FC002003B0BDE8F08F9C
:100CA800002003B0BDE8F08F00200240B804002007
:100CB8002DE9F04F02F2FF7A8BB05FEADA2A02924E
:100CC800019159D04FEACA234FF00009DFF8B480E8
:100CD8000393074664244D461AE0059B013347D128
:100CE800FFF764FF03462648002B41D001F05AFF66
:100CF8003346524620464946FFF78AFAC1B20720D2
:100D080000F06EFB039B643449F10009AB4233D019
:100D1800029BAB460121002005F50065AB42CDE9F9
:100D28000601099107F1784134BFA3EB0B024FF498
:100D38000062C90A0092089101F042FCD8F8181024
:100D480041F07041C8F818104CF2FA31C8F8101088
:100D580006A805A901F05EFD064601F045FCDDE99F
:100D6800002338460BEB030107F50067002EB4D0CB
:100D780000200BB0BDE8F08F01200BB0BDE8F08F6C
:100D8800B80400200020024070B5124C124E0546EF
:100D98008446A646BEE80F00B6450CF1100C04F1D7
:100DA80010044CF8100C4CF80C1C4CF8082C4CF89F
:100DB800043CEED1234607CBCCF80000CCF8041055
:100DC800CCF808202868054BC01AB0FA80F0400912
:100DD80070BD00BF008000083080000855504155A4
:100DE80070B5264C264E05460FCC94B00DF1140C68
:100DF800ACE80F000FCCACE80F000FCCACE80F004C
:100E080094E80700059BB3428CE8070005D13C2213
:100E1800294605A802F0E6FA58B301231022002655
:100E2800CDE90323CDE9016301F0CAFB154B9A69AB
:100E38004CF2FA3042F070429A616946186101A892
:100E480001F0E8FC044601F0CFFB2CB9009B01330C
:100E580006D0204614B070BD3446204614B070BD8C
:100E68003C2229460548FFF7A1FE0446204614B057
:100E780070BD0124204614B070BD00BF008000087A
:100E8800555041550020024010B594B0002134223D
:100E980007A802F0C5FA002402214FF4807240230B
:100EA80006A8CDE9054109920A93CDE90144CDE9A7
:100EB800034401F0DDFE0F220123214601A8CDE9FC
:100EC8000123CDE90344059402F056F914B010BD8E
:100ED8001B4A1C48D16C30B541F00401D164D26C76
:100EE80087B002F0040200230225009201A907241A
:100EF800CDE90433009A02930194039501F002FDB1
:100F08000121104801F010FE294604460D4801F061
:100F18000BFEA4F10104B4FA84F4640901284FF02B
:100F28000401084808BF2C4301F0FEFD012808BF52
:100F380044F0040404F13000400107B030BD00BFA4
:100F480000100240000800482DE9F04FAE4EAF49AE
:100F5800AF4C9BB0032240F2E7333046C6E900129B
:100F6800B36001F0EDFD00F065FFFFF78DFFFFF7BF
:100F7800AFFF814600F01CFAA64BA748DA6C42F096
:100F88000202DA64DA6C02F002020392039ADA6C63
:100F980042F04002DA64DA6C02F040020492049AE9
:100FA8009A6D42F000729A659B6D03F00073059389
:100FB8004FF4407300254FF00208069306A9092351
:100FC8000127CDE90983059A0895CDF81C804FF0D3
:100FD800800A01F097FC91480F950BA9CDE90D55B2
:100FE8000C97CDF82CA001F08DFC2A4651468B4871
:100FF80001F0A0FD0D23E361E3622046884B2360E6
:10100800C4E90887C4E90C87C4E90255C4E905772F
:10101800C4E90E552782A574A76200F0F9FF10A94C
:101028002046CDE91375CDE91055CDF848801595C2
:1010380001F048F93B462A4629460097204601F028
:1010480073F9204601F090F900F044FA804600F068
:101058000DFF744D074600F009FFC01BB0F5167F61
:1010680034D2304601F09EFD4021204601F098FA26
:10107800B8B10BAB10AA4021204601F0F5F980B9B0
:10108800DDE911321343E6D1109B4B4509D3A3EB9D
:101098000903012B40F08B80BDF84E30082B00F07F
:1010A8008E8000F0E3FE2B68C01AB0F57A7FD2D3A9
:1010B80000F0DCFEFF21034601202B6000F090F9D0
:1010C80000F0D4FEC01BB0F5167FCAD3B8F1000FEC
:1010D80072D1012000F072F9534EDFF85881DFF821
:1010E80058A1494F4A4C384601F05CFD4021204642
:1010F80001F056FAA8B10BAB10AA4021204601F026
:10110800B3F970B9DDE911321343ECD1109B4B45AB
:1011180007D3A3EB0903012BBDF84E103BD10829D7
:1011280041D000F0A3FE2B68C01AB0F57A7F18D220
:101138003378002BD7D098F800B0BBF1000FD2D18C
:1011480000F094FEDAF80030C01A42F210739842A8
:10115800C9D9012086F800B088F800B000F02EF94F
:10116800C1E700F083FE337828608BB198F800302F
:1011780073B92E4A12685AB12D4909686420A1FB37
:101188000001FFF745F8C1B2032000F029F9CFE7C5
:101198000120FF21F9E7072B15D10829C1D10BA898
:1011A80000F0F4FBBDE70BA800F08AFAB9E7082BBA
:1011B80044D100F02FF974E700F034FA89E70BA85E
:1011C80000F07EFA85E7022B13D0042B05D10829FD
:1011D800A7D10BA800F07AFCA3E7082B0DD00B2BA6
:1011E8000ED00D2B35D104299BD10BA800F000FBA4
:1011F80097E70BA800F0EEFB93E700F00BF990E7F8
:1012080000F04EF98DE700BFB80400200030004020
:101218005404002000100240000400480018004850
:101228000064004004000020020D0020080D00208A
:10123800D40C0020000D0020040D00200B2B05D03D
:101248000E2B7FF42EAF00F0E7FA2AE700F028F91A
:1012580027E70E2B7FF465AF00F0DEFA61E700BFE9
:10126800044B4FF090416FF0A0504FF0FF320860F0
:101278001A60FEE700040048FEE700BFFEE700BF73
:10128800FEE700BF704700BF704700BF704700BF50
:10129800704700BF00F0DEBD2DE9F0431D4E1E4D26
:1012A8008DB0804689461746322408E001F07AFC62
:1012B800012000F0E1FD631E13F0FF0421D0304649
:1012C80001F078F903462846002BEFD038040023B4
:1012D80049463A46069001A8CDE90433CDE90733DB
:1012E800CDE90933CDE901330B93CDF80C8002F039
:1012F80089F801AA03A9074801F04EF80DB0BDE826
:10130800F083044801F056F90028DFD10DB0BDE89C
:10131800F08300BF54040020B804002070B51F4DAE
:101328001F4E2868326800F580308830B2F5006FAB
:1013380082B04FEAC02406D21A48FF211044C2F5F1
:10134800006202F06DF8204616494FF40062FFF77C
:101358002DFC044610B9204602B070BD2B688DF8EC
:1013680007301A0E8DF804201A0C8DF805200E4A45
:10137800106804220DEB02011B0A03308DF80630B9
:10138800FFF78AFF2B680948002201332B6032607F
:1013980001F008FC204602B070BD00BFC804002060
:1013A800D00C0020D0040020CC040020B804002079
:1013B800014B1860704700BFCC04002000B5074AF5
:1013C8000346106883B0012201A905308DF8043066
:1013D800FFF762FF03B05DF804FB00BFCC040020F8
:1013E80030B5054683B009480C4601F0E3F850B122
:1013F800074B8DF8045018688DF80540022201A9A2
:101408000630FFF749FF03B030BD00BF5404002089
:10141800CC04002010B592B003A8FFF7B5FCA0B328
:10142800DDE905219DF81C304FEA126EC2F3074C26
:10143800C2F30724C1F30720D2B2C9B28DF807401E
:10144800154C8DF8090020688DF808208DF80A10D1
:101458008DF80B3001A90123082209308DF805E029
:101468008DF806C08DF80430FFF716FF0B4B206887
:101478001B68ADF800301C0C032269460A308DF851
:101488000240FFF709FF12B010BD034601460246AD
:10149800044684468646D1E7CC0400205034000830
:1014A80000B50A4B0A4A1B6810681B6C83B0C3F36B
:1014B800062C022201A90C308DF804308DF805C0E5
:1014C800FFF7EAFE03B05DF804FB00BF54040020F8
:1014D800CC04002070B5A0B002A8FFF755FC50B9A5
:1014E800494C4A4A236803F16043A3F58073934249
:1014F8001BD920B070BD464B049A9A4212D1079B63
:101508005A1EB2F56C3F0DD2039A022A35D01A46FC
:101518003D494FF0FF30FFF7C9FAFFF707FB089B7B
:10152800834260D0002020B070BD01462C2215A84F
:1015380001F076FF37484FF46C350123CDE91103EC
:101548002A46214614934FF0FF30314B13931695DA
:10155800FFF7ACFAFFF7EAFA18AE2B46224620212D
:10156800179000962C48FFF755F911A8FFF738FC9B
:10157800003818BF012020B070BD284B1868012220
:1015880011A9053007238DF84430FFF785FE079A27
:1015980023491D48FFF78CFB0028C3D002AD0FCDAF
:1015A80011AC0FC40FCD0FC40FCD0FC495E80700C1
:1015B800012684E8070011A81296FFF711FC0028FD
:1015C800B0D011AC0FCC0DF1080CACE80F000FCC6B
:1015D800ACE80F000FCCACE80F0094E80700079BBD
:1015E8008CE8070093E711AC079B074A0A48009468
:1015F8002021FFF70FF9202209A92046FFF73CFA1E
:10160800003818BF012074E700900008007F01002F
:10161800313034475550415564340008CC0400201B
:10162800004004082DE9F041204D214A2C686E68DD
:1016380004F16043A3F58073934235D814F003078F
:1016480032D1F30730D506F17843A3F51043B3F54B
:101658006C3F29D2152000F071FC164800F014FEEA
:1016680001F0A6FA00F0AAFB4FF090404FF0E022FC
:101678001149124B6FF0A05CC0F800C04FF0FF306A
:1016880008601761576197615A6842F000725A60A2
:1016980072B69D60BFF34F8FBFF36F8F84F30888D6
:1016A8003346BDE8F0411847BDE8F08100900008D6
:1016B800007F0100540400200004004800ED00E011
:1016C80070B5046843683B4D3B4924BA621E1BBA97
:1016D800B2F56C3F82B02C600B604FD2374A934210
:1016E8003CD1374D286802230122053001A98DF825
:1016F8000430FFF7D1FD04F2FF713248C90AFFF741
:1017080017FA0446002845D04FF40062FF212E48FE
:1017180001F086FE2D492E4A00230B604FF0FF3161
:1017280011602C492C4A0B702C4913600B602C4912
:101738002C4A0B702C4901240B70147000F096FB96
:101748002A4B064628681E602246032301A9053055
:101758008DF80430FFF7A0FD02B070BD184B186873
:101768000524042302220DEB030120448DF80440D4
:101778008DF80530FFF790FD02B070BD104A106873
:10178800FF23012201A905308DF80430FFF784FDFD
:1017980002B070BD2868FF2301A9012205308DF829
:1017A8000430FFF779FD0E4A0E4B012111701C70B1
:1017B80002B070BD080D0020D80C0020313034472D
:1017C800CC04002000400408D0040020D40C0020E1
:1017D80008000020010D0020D00C0020C8040020C3
:1017E800000D0020020D0020DC0C0020040D00205C
:1017F8000378D02B00D0704743789E2BFBD1837899
:10180800122BF8D1C378AD2BF5D1024B01221A70F7
:10181800F1E700BFDC0C00202DE9F04F564B1C7897
:10182800A1B014B121B0BDE8F08F11A8FFF7ACFA50
:1018380090B9524A10680023042204A90F308DF889
:1018480010308DF811308DF812308DF81330FFF705
:1018580023FD21B0BDE8F08F129B012BE9D1484B45
:10186800139A9A42E5D1169B0293013BB3F56C3F5C
:10187800DFD2DFF80891029DD9F800008DF81040FA
:101888002A0A2B0C8DF812200F30042204A98DF897
:1018980011308DF813500194FFF7FEFC05F2FF7329
:1018A800DB0A0393A046029B364E374F08F5006AC1
:1018B80053455ED2B3EB080520D09A4608F100687C
:1018C80008F51048A8442C464FF0000B072C94BF8D
:1018D80022460822A8EB040107A80092CDE907BB1D
:1018E80001F090FDD9F80000009A083C0F3007A9D4
:1018F800FFF7D2FC2B1B9D42E8D8D04600F0B6FA81
:1019080040F6B735044600F0B1FA03461B1BAB425C
:10191800304687D801F046F94021384600F040FEAD
:101928000028F0D005AB07AA4021384600F09CFDFE
:101938000028E8D1DDE908321343E4D1D9F80030B2
:10194800079A14339A42DED1BDF82A30042BDAD133
:10195800059B019A1BBA9342D5D11346039A0133CA
:101968009A4201933FF45EAF029B08F5006A534523
:10197800A0D34FF40065A1E7020D0020CC0400209D
:1019880031303447B80400205404002038B50C4BDB
:101998001A789AB10B4A127882B90B4D2A78032A21
:1019A8000CD80346094C5968006804EBC20303C30A
:1019B80001322A7000F05AFA054B186038BD00BF92
:1019C800020D0020000D0020010D0020E00C002079
:1019D800040D00202DE9F04FDFF8E4A09AF800206C
:1019E80085B0002A4CD0304B1A78002A48D10829F3
:1019F8000E4645D82D4DDFF8CC902968D9F800203F
:101A0800914283464AD3002E3ED0DFF8BC80284A54
:101A18000BF1FF37002402E00134A64234D02868D5
:101A2800D9F80010884200F101032CD2D8F8000040
:101A380017F801EF02F800E0411CB1F5006FC8F893
:101A480000102B60E8D1FFF769FC194A0028E3D1A0
:101A5800621C184C019059462068FFF727F8164970
:101A680020600868FF228DF80C200530012203A9A8
:101A7800FFF712FC019B8AF800300B4B01221A7009
:101A880005B0BDE8F08F26460A4C32462068594614
:101A9800FFF70CF8206005B0BDE8F08F00F0E6F91C
:101AA800064A1060AFE700BF000D0020D40C0020EC
:101AB800D004002008000020CC040020040D0020E1
:101AC800020D0020080D0020D00C00202DE9F04F59
:101AD800A64C2378BBB013B1A54D2B7813B13BB0FE
:101AE800BDE8F08F804600F0C1F9A24B1860A24B08
:101AF8001B68002B40F0B280A04BA14E1A683368D7
:101B08009A4203D19F4B1B78042B12D09E4B186826
:101B180005230126184402222BA98DF8AC308DF834
:101B2800AD60FFF7B9FB002323702E703BB0BDE812
:101B3800F08F964BD8F800701868D8F80430B8F8C9
:101B480004B0B8F806A00293FEF7F0FFDFF8389269
:101B58008046D9F8000006233FBA053001222BA998
:101B68008DF8AC30FFF798FB474540F08B8005AF08
:101B78000097874A874833682021FEF74BFE86493D
:101B880020223846FEF778FF002800F08C809BFA68
:101B98009BFB9AFA9AFA0DA81FFA8BFB1FFA8AFA8E
:101BA800FFF7F2F818B10E9B012B00F09B807B4ADF
:101BB8007B4BCDF888801B681E9333682193794B43
:101BC8001C930023137002231D930FCF0DF18C0C6F
:101BD800ACE80F0097E80F008CE80F001CA8CDE9CF
:101BE8001FBAFFF7FDF80746D9F80000002F6DD09F
:101BF8000723053001222BA98DF8AC30FFF74CFBE9
:101C0800326863496848FFF753F80646002800F031
:101C18008A801CAE0FCE2BAF0FC70FCE0FC70FCECB
:101C28000FC796E807004FF0010887E807002BA8C0
:101C3800CDF8B080FFF7D4F80646002840F0818040
:101C4800D9F80000FF230530424604A98DF810306A
:101C5800FFF722FB267085F8008040E7FFF75EFB60
:101C6800064600287FF448AF474A1068FF2305302E
:101C780001222BA98DF8AC30FFF70EFB012326704B
:101C88002B702CE7D9F800000523022218442BA951
:101C98008DF8AC308DF8AD20FFF7FEFA0022012355
:101CA80022702B701BE702900522D9F800008DF8EE
:101CB800AC2003228DF8AD202BA902220530FFF7B6
:101CC800EBFA029B237001222A7008E7FF232BA955
:101CD800053001228DF8AC30FFF7DEFA01232770BA
:101CE8002B70FCE6DDE91001029A41EA004112BAC4
:101CF80091422A4A7FF65CAF1178029100297FF45D
:101D080057AFD9F80000039305228DF8AC208DF861
:101D1800AD202BA905300222FFF7BEFA029B2370E3
:101D2800039B2B70DBE6D9F80000FF232BA90530B5
:101D380001228DF8AC30FFF7AFFA012326702B7023
:101D4800CDE60420FFF73AFB4FF4167000F094F844
:101D5800BFF34F8F1549164BCA6802F4E06213436C
:101D6800CB60BFF34F8F00BFFDE700BF020D00201F
:101D7800000D0020040D0020D00C0020D40C002001
:101D8800080D0020010D0020CC04002008000020D0
:101D98000040040864340008E00C0020DC0C00203B
:101DA800D80C0020555041550090000800ED00E087
:101DB8000400FA05704700BF704700BF10B5094B13
:101DC80000244FF0FF329A639C631A641C649A6281
:101DD8009C62DA62DC621A631C63FFF7EDFF20463F
:101DE80010BD00BF0010024038B50F4B1B680BB97F
:101DF800012038BD0D494FF47A720546B2FBF3F362
:101E08000868B0FBF3F000F0ADF804460028EFD105
:101E18000F2DEDD8024629464FF0FF3000F050F85C
:101E2800034B20461D6038BD0C0000200000002038
:101E38001000002010B5032000F030F80F20FFF745
:101E4800D3FF10B10124204610BD0446FFF7B2FFAE
:101E5800204610BD034A0449136809680B441360FF
:101E6800704700BF0C0D00200C000020014B1868C3
:101E7800704700BF0C0D002038B50446FFF7F6FF89
:101E8800631C054602D0044B1B681C44FFF7EEFF99
:101E9800431BA342FAD338BD0C0000200749CA6887
:101EA80003024FF6FF0003F4E0630240134343F0DC
:101EB800BF6343F40033CB60704700BF00ED00E020
:101EC8001C4BDB68C3F3022300B5C3F1070EBEF158
:101ED800040F03F1040C28BF4FF0040EBCF1060FE9
:101EE8001BD9033B4FF0FF3C0CFA03FC22EA0C021F
:101EF8004FF0FF3C0CFA0EFC21EA0C019940002837
:101F080041EA02010CDB00F16040090100F5614083
:101F1800C9B280F800135DF804FB00221346E7E716
:101F2800054B00F00F0009010344C9B219765DF8AA
:101F380004FB00BF00ED00E0FCEC00E000280DDB36
:101F4800430907490122203300F01F0002FA00F07C
:101F580041F82300BFF34F8FBFF36F8F704700BF67
:101F680000E100E00138B0F1807F10D210B44FF0EA
:101F7800E023084C58614FF0F00C84F823C000228D
:101F8800072110469A615DF8044B196170470120DA
:101F9800704700BF00ED00E0026838B5936943F070
:101FA800010393610446FFF761FF054604E0FFF76C
:101FB8005DFF431B0A2B1FD823689A69D207F6D501
:101FC8009A6922F010029A61FFF750FF054604E073
:101FD800FFF74CFF401B0A280ED82268936913F0BC
:101FE8000803F5D19169012541F00201916184F856
:101FF8005C501846A36538BD236E032243F00103E5
:10200800236684F85C20012038BD00BF704700BFFC
:10201800002800F009812DE9F84390F85C30044667
:1020280003F0FF02002B73D02268936923F010039A
:102038009361FFF71BFF054604E0FFF717FF431BFB
:102048000A2B5BD823689A691207F6D49A6942F07A
:1020580001029A61FFF70AFF054604E0FFF706FF51
:10206800401B0A284AD822689369DB07F6D593698A
:10207800764943F002038A42936100F0D080237CC2
:10208800012B93690CBF23F0400343F04003936195
:10209800637C012B93690CBF43F4804323F4804392
:1020A8009361A37C012B93690CBF23F4805343F401
:1020B800805393619369A068E16823F440730343F4
:1020C8009361936923F0A40393611369012923F0B1
:1020D8001003136121D021B30229936900F0B18064
:1020E80043F0800393611369032943F010031361DC
:1020F80017D1936943F02003936112E0236E032202
:1021080043F00103236684F85C200120BDE8F883CE
:1021180080F85D20FFF77AFF86E7936943F00403B0
:102128009361D4E90613013B01391B0243EA416379
:10213800216A01390B436169013943EA0143B0F56A
:10214800407FD3610ED1D4E90B03A16A013B01386A
:102158001B01013943EA00230B43616A013943EA51
:102168000143D360D2F8C030E06B394903438A4257
:10217800C2F8C0305AD0374B374E384F384D3948EF
:1021880001F580618A4218BF9946A3F1180318BF68
:102198001E46A3F1D80318BF1F4601F57D51A3F1D0
:1021A800D80301F1100118BF9C46A3F140030CBFEE
:1021B8008C469846A1F1400103F5387304BF884660
:1021C800A94601F5387118BF1946A3F5547308BF1D
:1021D8000346D2F88000236420F4F81E606BA56BD8
:1021E8004EEA0040C2F88000D2F88000C4F844806B
:1021F80020F0706040EA0560C2F88000C4E912C7A8
:10220800C4E91469002243F8042B8B42FBD3012351
:10221800226684F85C30A2650020BDE8F883124B82
:102228006168C3F800152AE701207047DFF8489075
:102238000E4E0F4FDFF844C0DFF8448009490D4BBC
:10224800C7E743F0200393616BE700BF00640040D9
:102258000068004078A6004000AD004028AC00406F
:1022680018AD0040A0AA004000600040B0A900409E
:10227800D8A8004050A70040C8A9004000A80040C6
:10228800C0A70040704700BFD0B110B590F85C30CF
:10229800022B044611D0036E43F00803036622683C
:1022A800D36D23F003032046D365FFF7EBFF00232C
:1022B800236684F85C30184610BDFFF76DFEEEE724
:1022C8000120704790F85C20013A012A034605D99D
:1022D800026E42F0020201201A667047086830B4A4
:1022E80078B9D1E90242D20642EA84721C6C4B6981
:1022F8004D6813430A6943EA024344F8253030BC69
:102308007047586C8A684B694C6843EA8273D1E914
:10231800035200EBC40C42EA457240F83420002016
:1023280030BCCCF80430704730B590F85C40012CD4
:10233800844606D0036E43F004030120CCF86030D5
:1023480030BDDCF800509646039AD5F8804042EA42
:10235800430343EA8E0242EA011124F03F03194382
:10236800C5F88010002030BD90F85C20012A034693
:1023780005D0026E42F0040201201A667047006818
:10238800022283F85C208269002122F00102826126
:1023980008461966704700BFF0B590F85C30022B0C
:1023A80086460CD10568D5F8C43013F4001C0DD04E
:1023B800036E43F400730120CEF86030F0BD036E65
:1023C80043F008030120CEF86030F0BDD5F8C460B2
:1023D8004B68C6F30146002B3BD18B680F691F433E
:1023E8000B6847EA8347D1E906034C690343086A47
:1023F8002343CC6843EA006343EA0443DEF854000D
:1024080006EBC60440F8347000EBC400154C43607A
:10241800CB68E35CA3B19378D7781B0443EA0763DE
:1024280017783B43577843EA072300EB0C070CF176
:10243800040CBB60CB68E35C9C4502F10402EAD360
:10244800012303FA06F6C5F8CC600020CEF85860E0
:10245800F0BD0B690F681F438B681F4347F0804727
:10246800C1E700BF843500082DE9F041044690F823
:102478005C00022865D14029256870D0D5F89800FD
:10248800070765D0D5F89870D5F89800C601C7F346
:10249800012807D5D5F88000C00544BF08F1010719
:1024A80007F00308E06C08EBC80600EBC6000668F6
:1024B80006F080465660002E6BD10668C6F38A4641
:1024C8001660066806F000569660066806F0004634
:1024D80016618688D661B0F806C00CF00F0CC2F8F9
:1024E8000CC0466806F480165661466806F4001665
:1024F8009661C67906F07F061662284E476816F878
:102508000CE04FEAD77CC2F824C0BEF1000F0FD010
:1025180003F1FF3E00F1070C63461CF8015F0EF85B
:10252800015FD568063B755D1B1A9D42F4D8256886
:1025380040290CBFC5F89480C5F89C800020BDE8F0
:10254800F081236E43F0080301202366BDE8F08183
:10255800236E43F4807301202366BDE8F081D5F82B
:1025680090000707F4D0D5F89070D5F89000C60110
:10257800C7F3012807D5D5F88000800544BF08F1C6
:10258800010707F00308A06C08EBC80600EBC600BB
:102598008DE7066826F0604692E700BF843500089C
:1025A800036840290CBFD3F89000D3F8980000F0D6
:1025B8000F0070470368D3F8C40000F007007047A5
:1025C800064B5A69002A01DB002070470449054A76
:1025D80099609A605869C00F704700BF0020024098
:1025E80023016745AB89EFCD044B5A6942F000429D
:1025F8005A615869C043C00F704700BF00200240AD
:1026080070B50546FFF732FC104E044604E0FFF7AC
:102618002DFC031BAB420FD83369DB03F7D43369B6
:102628004CF2FA32134009D1306910F0010002D09F
:1026380001223261184670BD032070BD04494A6802
:102648001A434A600120336170BD00BF0020024078
:10265800140000202DE9F843324E98463378012BB8
:1026680027D0012307464FF47A700D46144633707D
:10267800FFF7C6FF814620B1002333704846BDE806
:10268800F883294A7060136813F480631FBF1368C6
:1026980023F480631360022333777FB17B1E012B01
:1026A80022D94FF47A70FFF7ABFF814600F082F829
:1026B800E2E74FF002094846BDE8F8831A4A536931
:1026C80043F0010353612C60BFF36F8F4FF47A70AE
:1026D800C5F80480FFF794FF6FF001018146124AA4
:1026E80053690B405361E1E70F494B6943F4802379
:1026F80022464B61EFF3108472B6A91A02F5807076
:102708001368535004328242FAD184F31088022F9E
:102718004FF47A70C7D1FFF773FF6FF480218146B9
:10272800DDE700BF14000020002002400E4B1A6AAB
:10273800510212D5C20703D55A6942F004025A6100
:10274800830704D5084A536943F400435361064A92
:10275800536943F48033536170475A6942F4004225
:1027680042F004025A61F2E700200240104B1A6A54
:1027780012F4800F5A6901D0C90714D522F40062F7
:102788005A610B4B5A69C00022F47E7200F4FF6054
:10279800104358615A6942F002025A615A6942F478
:1027A80080325A61704742F400625A61E9E700BF1B
:1027B8000020024015490B7F03F0FD02012ADBB21D
:1027C80010D1134A106820F400701060106840F4AB
:1027D80000601060106820F400601060106840F419
:1027E80000701060023B012B0CD8094B1A6842F4A8
:1027F80080521A601A6822F480521A601A6842F4E9
:1028080080621A6000230B77704700BF1400002015
:10281800002002402DE9F047374F3B78012B4AD082
:10282800044601254FF47A7088463D70FFF7E8FEAC
:10283800064620B100233B703046BDE8F0872F4B99
:1028480078601A6812F4007F1A6838D1520541D5A9
:102858001A6822F480621A6002233B772368012BEE
:102868003AD04FF0FF33C8F80030D4E902532B4474
:102878009D421DD2DFF884A0DFF8849005E0D4E9FA
:10288800023201351344AB4212D961682846FFF77A
:102898006DFF4FF47A70FFF7B3FEDAF8143003EAED
:1028A8000903CAF814300028E9D0C8F800500646D1
:1028B800FFF780FFBEE702263046BDE8F0875105E6
:1028C80006D51A6822F480621A6003233B77C5E7AD
:1028D8003D77C3E73877C1E76068FFF727FF4FF414
:1028E8007A70FFF78DFE054A536923F4004323F0FD
:1028F800040306465361DBE7140000200020024071
:1029080005FCFFFF2DE9F04F0C6885B0002C00F0A6
:1029180097800022DFF80CA213464FF0010BA14666
:102928000BFA03FC1CEA090800F083804F6807F0E3
:102938000304651E012D40F28680032C40F0C780F9
:102948008D68012D04FA02F407D0D0F80CC0954028
:102958002CEA040C45EA0C05C560E543D0F800C034
:102968000CEA05052C4317F4403F046061D0DAF8FF
:10297800604044F00104CAF86040DAF8604004F0AE
:1029880001040394039C23F0030404F1804404F538
:10299800803403F0030CA5684FEA8C0C0F2606FA66
:1029A8000CFEB0F1904F25EA0E051AD0574EB042F2
:1029B80000F09880564EB04200F09980554EB042D3
:1029C80000F08980544EB04200F09880534EB042D7
:1029D8000CBF4FF0050E4FF0060E0EFA0CFC45EA40
:1029E8000C05A5604E4C4E4DA4686FEA080CFE021B
:1029F80054BF0CEA040448EA0404AC60EC68BD0265
:102A0800474D54BF0CEA040448EA0404EC606D68BE
:102A1800434CBE0354BF0CEA050548EA050565604A
:102A28002468FD033E4D54BF0CEA040448EA04043C
:102A38002C60013339FA03F402F102027FF470AF1B
:102A480005B0BDE8F08F8568CE684FF0030E0EFA2A
:102A580002FE25EA0E059640354385606FEA0E05AD
:102A6800D0F804E02EEA0C0EC7F3001C0CFA03FCA5
:102A78004CEA0E0CC0F804C0D0F80CC08E680CEA02
:102A8800050C06FA02FE4EEA0C0C022CC0F80CC02B
:102A980004FA02F47FF462AF4FEAD30E00EB8E0E15
:102AA80003F0070CDEF8206000960E694FEA8C0CE4
:102AB80006FA0CF601960F2606FA0CFC009E26EA8A
:102AC8000C0C019E46EA0C0CCEF820C046E7032504
:102AD8009540ED43D0E74FF0030E0EFA0CFC45EAA3
:102AE8000C057EE70BFA0CFC45EA0C0579E74FF07C
:102AF800020E0EFA0CFC45EA0C0572E74FF0040EC4
:102B08000EFA0CFC45EA0C056BE700BF0004004810
:102B180000080048000C0048001000480014004855
:102B280000040140001002400369194214BF01204B
:102B3800002070470AB1816170478162704700BF09
:102B480058B3D0E9003170B5826804464CF6CC40E1
:102B5800186045F25550186059609A60FFF786F979
:102B68002368DA68054650070DD041F60106FFF7DD
:102B78007DF9431BB342236802D9DA6851070ED1A5
:102B8800DA685207F3D1E268196991420ABF4AF636
:102B9800AA221A611A60002070BD01207047032024
:102BA80070BD00BF03684AF6AA2200201A60704769
:102BB80070B52B4CFFF75AF9236843F48073054628
:102BC800236004E0FFF752F9401B022825D8236848
:102BD8005B05F7D56368224E43F080436360FFF7D7
:102BE80045F90123A360054641F2883404E0FFF764
:102BF8003DF9401BA04210D8B36803F00C03042B26
:102C0800F5D11849184B194A08681A60FFF7ECF80B
:102C1800044628B10124204670BD0324204670BD17
:102C28004FF4807333603360FFF720F90C4E05468C
:102C380004E0FFF71BF9431B022BEED8336813F0AF
:102C48000073F6D14FF480514FF0FF32F160B36159
:102C58003262D6F8943043F40003C6F89430DDE7C6
:102C68000010024010000020000000200024F400A2
:102C7800002800F000822DE9F0410368D90782B0EE
:102C880004462DD5AF498A68C96802F00C020C2A9F
:102C980000F00681082A00F008816368B3F5803FD8
:102CA80000F07781B3F5A02F00F0D881A54D2A68F0
:102CB80022F480322A602A6822F480222A60002BBB
:102CC80040F06C81FFF7D2F8064605E0FFF7CEF832
:102CD800801B642800F27F812B689F03F6D4236849
:102CE8009E0728D5974A9368D26803F00C030C2BEB
:102CF80000F03081042B00F03281E368914D002B05
:102D080000F05A812B6843F480732B60FFF7AEF80C
:102D1800064605E0FFF7AAF8801B022800F25B814F
:102D28002B685805F6D56B68226923F0FE4343EA01
:102D380002636B6023681A0719D56369814D002BFC
:102D480000F09980D5F8943043F00103C5F8943029
:102D5800FFF78CF8064605E0FFF788F8801B022885
:102D680000F23981D5F894309B07F5D523685E07C2
:102D780041D5744B9A6DD50000F131819A6D42F0BE
:102D880080529A659B6D03F080530193019B012546
:102D98006D4E3368D80540F15081A368012B00F0CF
:102DA8002081052B00F06981664ED6F8902022F02C
:102DB8000102C6F89020D6F8902022F00402C6F846
:102DC8009020002B40F01481FFF750F841F288382A
:102DD800074605E0FFF74AF8C01B404500F2FB80B4
:102DE800D6F890309B07F5D425B1564A936D23F059
:102DF8008053936523689D0618D5A369514D002B10
:102E080000F00781D5F8983043F00103C5F89830F1
:102E1800FFF72CF8064605E0FFF728F8801B022884
:102E280000F2D980D5F898309807F5D5E0690028E0
:102E380000F08380434DAB6803F00C030C2B00F0CB
:102E48002A812B68022823F080732B603AD0FFF781
:102E58000DF8044605E0FFF709F8001B022800F208
:102E6800BA802B6813F00073F5D1E968374A0A4035
:102E78001846EA6062E0D5F8943023F00103C5F8FB
:102E88009430FEF7F3FF064605E0FEF7EFFF801BE0
:102E9800022800F2A080D5F894309F07F5D465E7A2
:102EA80001F0030103297FF4F8AE264A1268920361
:102EB8007FF516AF6268002A7FF412AF012002B0D6
:102EC800BDE8F081FEF7D2FF064604E0FEF7CEFF2C
:102ED800801B02287FD82B689A01F7D4E9681C4B1D
:102EE800226A606A174E0B401343D4E90A1243EA78
:102EF800012343EAC263D4E90C120138490843EAC2
:102F080000130139520843EA4153013A43EA426344
:102F1800EB602B6843F080732B60EB6843F08073A1
:102F2800EB60FEF7A3FF044604E0FEF79FFF001BDB
:102F3800022850D833689B01F7D5002002B0BDE8BD
:102F4800F08100BF0010024000700040FCFFEEFE60
:102F58000C809F0102F00302022A7FF4CEAE684B78
:102F68001B685D0502D5E368002BA7D0644A206979
:102F78005368644923F0FE4343EA006353600868DA
:102F8800FEF732FF002899D123681A077FF5EFAEC4
:102F9800D3E65B4A136843F480331360FEF766FF99
:102FA800574E054604E0FEF761FF401B642812D81F
:102FB80033689B03F7D592E62B6823F480732B6064
:102FC800FEF754FF06462B685905DDD5FEF74EFF80
:102FD800801B0228F7D9032002B0BDE8F081002544
:102FE800D6E6474AD2F8903043F00103C2F8903051
:102FF800FEF73CFF424F064641F2883804E0FEF7F0
:1030080035FF801B4045E6D8D7F890309A07F6D5AB
:10301800EAE6D5F8983023F00103C5F89830FEF7B2
:1030280025FF064604E0FEF721FF801B0228D2D8C0
:10303800D5F898309907F6D4F8E6336843F48073E6
:103048003360FEF713FF07463368D9053FF5A5AE91
:10305800FEF70CFFC01B0228F6D9BCE703F180433A
:10306800A3F53C331A6842F480221A601A6842F4C5
:1030780080321A6092E701207047214BD3F89020E4
:1030880042F00402C3F89020D3F8902042F00102E5
:10309800C3F89020ACE701283FF450AFEB68226AF0
:1030A80003F0030191427FF409AF616A03F0F00273
:1030B8000139B2EB011F7FF401AFA16A03F4FE42AC
:1030C800B2EB012F7FF4FAAEE16A03F07842B2EB7B
:1030D800C16F7FF4F3AE226B520803F4C001013ACA
:1030E800B1EB425F7FF4EAAE626B520803F0C06353
:1030F800013AB3EB426F14BF012000201EE700BF66
:103108000010024010000020184B9A6802F00C02D0
:10311800042A27D09A6802F00C02082A24D09A6858
:1031280002F00C020C2A01D000207047D968D86838
:1031380001F003010329C0F3031000F10102D8686C
:103148000CBF0B4B0B4BB3FBF2F2084BDB68C3F322
:103158004163C0F30620013302FB00F05B00B0FBC3
:10316800F3F0704703487047014870470010024069
:1031780000127A000024F400002800F0EE807F4A54
:103188002DE9F843136803F00F038B420D460446FC
:103198000CD2136823F00F030B431360136803F07A
:1031A8000F038B4202D00120BDE8F8832368DF07B4
:1031B80063D56268032A00F09A80714B022A1B6863
:1031C80000F091805B05EED5FFF79EFF6D4B9842AE
:1031D80000F2C58062684FF00009694EB36823F0B9
:1031E80003031A43B260FEF741FE41F288380746EE
:1031F80004E0FEF73BFEC01B404571D8B368626827
:1032080003F00C03B3EB820FF3D123689F0736D486
:10321800B9F1800F03D1B36823F0F003B360574EC0
:10322800336803F00F03AB4246D823685A0706D524
:103238005349E0688A6822F4E06202438A601B0707
:1032480007D54F4A2169936823F4605343EAC103C1
:103258009360FFF759FF4A4A4B4C92684B49C2F3B7
:1032680003120346A25C4A4802F01F02D3400B60D7
:103278000068BDE8F843FEF7B7BD9E07CFD55807ED
:1032880004D53F498A6842F4E0628A60190706D586
:103298003B4A936823F47C5343F4E0639360384AD1
:1032A800A1689368354E23F0F0030B4393603368AD
:1032B80003F00F03AB42B8D9336823F00F032B4355
:1032C8003360FEF7D3FD41F288380746336803F0D0
:1032D8000F03AB42A9D0FEF7C9FDC01B4045F5D985
:1032E8000320BDE8F8839A033FF56EAF5BE72449F6
:1032F800086880017FF557AFCE68C868C968214F54
:1033080006F00306032EC0F303100CBF214E224E15
:103318000130B6FBF0F01A4EC1F3062100FB01F1B3
:10332800F068C0F3416001304000B1FBF0F1B942F0
:1033380020D9B16811F0F00F05D013F002093FF45D
:103348004CAFA368B3B90E498B6823F0F00343F080
:1033580080038B604FF080093FE701207047084ADF
:1033680093684FF0800923F0F00343EA0903936060
:10337800626832E74FF000092FE700BF00200240E3
:103388000010024000B4C4045434000800000020B7
:103398001000002000127A000024F40070B50D4DD2
:1033A8000D4C641BA4100026A64209D10B4D0C4CF1
:1033B80000F03EF8641BA4100026A64205D170BD9B
:1033C80055F8043B98470136EEE755F8043B984713
:1033D8000136F2E79C3500089C3500089C3500084A
:1033E800A035000810B501390244904201D10020EF
:1033F80005E0037811F8014FA34201D0181B10BD56
:103408000130F2E70A44914200F1FF3300D17047DE
:1034180010B511F8014B03F8014F9142F9D110BDD5
:1034280002440346934200D1704703F8011BF9E7B1
:10343800F8B500BFF8BC08BC9E467047F8B500BF99
:08344800F8BC08BC9E46704769
:10345000010006000000000000000000010203045B
:103460000607080948594452412D554D432D5243F2
:10347000422D323032362D4348414E47452D4D4581
:103480002D212121982F8A4291443771CFFBC0B55D
:10349000A5DBB5E95BC25639F111F159A4823F921F
:1034A000D55E1CAB98AA07D8015B8312BE85312478
:1034B000C37D0C55745DBE72FEB1DE80A706DC9B39
:1034C00074F19BC1C1699BE48647BEEFC69DC10FE5
:1034D000CCA10C246F2CE92DAA84744ADCA9B05C21
:1034E000DA88F97652513E986DC631A8C82703B0E4
:1034F000C77F59BFF30BE0C64791A7D55163CA06F2
:1035000067292914850AB72738211B2EFC6D2C4DFD
:10351000130D385354730A65BB0A6A762EC9C281EB
:10352000852C7292A1E8BFA24B661AA8708B4BC281
:10353000A3516CC719E892D1240699D685350EF4AB
:1035400070A06A1016C1A419086C371E4C77482762
:10355000B5BCB034B30C1C394AAAD84E4FCA9C5BD8
:10356000F36F2E68EE828F746F63A5781478C88429
:103570000802C78CFAFFBE90EB6C50A4F7A3F9BE0B
:10358000F27871C60001020304050607080C101446
:04359000182030408F
:08359400B4CCFF7F0100000030
:04359C00FD01000825
:0435A000D901000845
:1035A4000024F40018FCFFFFFFFFFFFF01000000F0
:1035B40010000000000000000000000000000000F7
:1035C40000000000010000000000000000000000F6
:0435D40000000000F3
:040000050800051DCD
:00000001FF
