:020000040812E0
:1000000000800430D9021208CD061208D106120869
:10001000D5061208D9061208DD06120800000000F5
:100020000000000000000000000000009120120805
:100030002D03120800000000D92012082122120806
:100040002D0312082D0312082D0312082D03120888
:100050002D0312082D0312082D0312082D03120878
:100060002D0312082D0312082D0312082D03120868
:100070002D0312082D0312082D0312082D03120858
:100080002D0312082D0312082D0312082D03120848
:100090002D0312082D0312082D0312082D03120838
:1000A0002D0312082D0312082D0312082D03120828
:1000B0002D0312082D0312082D0312082D03120818
:1000C0002D0312082D0312082D0312082D03120808
:1000D0002D0312082D0312082D0312082D031208F8
:1000E0002D0312082D031208000000002D03120832
:1000F0002D0312082D0312082D0312082D031208D8
:100100002D0312082D0312082D0312082D031208C7
:100110002D0312082D0312082D0312082D031208B7
:100120002D0312082D0312082D0312082D031208A7
:100130002D0312082D0312082D0312082D03120897
:100140002D0312082D03120800000000000000001B
:100150002D0312082D0312082D0312082D03120877
:100160002D0312082D0312082D0312082D03120867
:100170002D0312082D0312082D03120800000000A1
:100180002D0312082D0312082D0312082D03120847
:100190002D0312082D0312082D0312082D03120837
:1001A0002D0312082D0312082D0312082D03120827
:1001B0002D0312082D0312082D0312082D03120817
:1001C0002D0312082D0312082D0312082D03120807
:1001D0002D0312082D0312082D0312082D031208F7
:1001E0002D0312082D0312082D0312082D031208E7
:1001F0002D0312082D0312082D0312082D031208D7
:100200002D0312082D0312082D0312082D031208C6
:100210002D0312082D0312082D0312082D031208B6
:100220002D0312082D0312082D03120800000000F0
:100230002D0312082D0312082D0312082D03120896
:100240002D0312082D0312082D0312082D03120886
:100250002D0312082D0312082D0312082D03120876
:100260002D0312082D0312082D0312082D03120866
:100270002D0312082D0312082D0312082D03120856
:100280002D0312082D0312082D0312080000000090
:080290002D0312082D031208D2
:1002980010B5054C237833B9044B13B10448AFF3B8
:1002A80000800123237010BD1800003000000000FA
:1002B8008036120808B5034B1BB103490348AFF356
:1002C800008008BD000000001C00003080361208C5
:1002D800DFF838D000F036F800F026F80C480D4961
:1002E8000D4A002302E0D458C4500433C4188C4289
:1002F800F9D30A4A0A4C002301E013600432A242EF
:10030800FBD303F07FF900F02FF9FEE700800430FB
:100318000000003018000030343712081800003090
:100328008C820030FEE70000054BD3F8882042F4A9
:100338007002C3F888201A6942F010021A617047E7
:1003480000ED00E0704700002DE9F0418CB01C463C
:1003580006468846174600F043FA154D044402E065
:1003680000F094FE58B900F03BFA0346A3424FF060
:1003780040012846F4D300200CB0BDE8F0816B465C
:1003880002AA4021284600F0A3FD0028EBD1029BD9
:10039800B342E8D19DF81640082C28BF08246946C6
:1003A8002246404603F052F93C700120E4E700BFC2
:1003B800340000303E4B3F48D3F8E0202DE9F041AF
:1003C80042F00802C3F8E020D3F8E02098B002F029
:1003D80008020392039AD3F8E02042F04002C3F8DF
:1003E800E020D3F8E02002F040020492049AD3F807
:1003F800EC2042F48072C3F8EC20D3F8EC3003F41C
:10040800807300250227059306A9032409230126E2
:10041800CDE906470A934FF08008059B0895099790
:1004280000F03EFE0BA92448244C0D95CDE90B861F
:10043800CDE90E5500F034FE2A4641461E4800F02C
:1004480083FF0D23E361E362082323642366042307
:100458006364A36626821A4B23602046C4E90255CA
:10046800C4E90566C4E90876C4E90C75C4E90E65F3
:10047800C4E91655A574A662A5642565656600F0ED
:100488006DFA10A92046CDE91055CDE913651297EC
:10049800159500F065FC33462A4629460096204605
:1004A80000F0A6FC204600F0BFFC18B0BDE8F081C3
:1004B80000440258000C025800180258340000305A
:1004C80000A000402DE9F04140018CB000F5C26465
:1004D80017460E462022002104A89846002503F05E
:1004E800C3F80B48039401AA03A9CDE9015500F00C
:1004F800B5FC18B128460CB0BDE8F08143463A4631
:10050800314620460CB0BDE8F041FFF71DBF00BFE3
:100518003400003030B585B0FFF74CFF0024254685
:1005280032230DF1070202A920468DF80750013445
:10053800FFF7C8FF642004F0070402F0C3FCEFE7EC
:1005480008B5074D074C284600F03EFF20464FF4FB
:10055800806100F0FDFE4FF4C87002F0B3FCF2E7D2
:10056800D40000300018025800B5404940489FB0F8
:1005780040F6FF73032280E80E0000F0F3FE00F05F
:10058800D1F8482200210CA803F06EF8012440207D
:10059800CDE90E400223082104207824CDE9183043
:1005A800CDE91A31CDE91614324A0B930020029096
:1005B80014939169304B41F440419161916901F480
:1005C80040410291D96A41F00101D962DB6A03F026
:1005D80001030293029B93699B04FCD50BA800F0CE
:1005E8007DFF08B172B6FEE73F2203214023059044
:1005F8000392049108224FF48065022103A8CDE9F3
:100608000733CDE90953069201F080FA044608B190
:1006180072B6FEE7194BD3F8E02042F04002C3F867
:10062800E020D3F8E0300D9003F0400301260BA939
:1006380003931348039BCDE90B56CDE90E4400F014
:100648002FFD2346CDE900640E490F48802202F0B1
:1006580027FB0E49019423464FF4807200960C48FC
:1006680002F01EFB02F062FC72B6FEE7004C005876
:10067800D4000030004802580004005800440258D2
:1006880000180258F436120849051208FC361208F8
:100698001D05120872B6FEE772B6FEE700F094B8C0
:1006A800074BD3F8F42042F00202C3F8F420D3F841
:1006B800F43082B003F002030193019B02B070474B
:1006C80000440258704700BFFEE700BFFEE700BFC6
:1006D800FEE700BFFEE700BF38B50F4B1B780BB92C
:1006E800012038BD0D494FF47A720546B2FBF3F389
:1006F8000868B0FBF3F000F0CFF804460028EFD10B
:100708000F2DEDD8024629464FF0FF3000F086F84D
:10071800034B20461D6038BD080000300000003043
:100728000C00003010B5234C234AD4F8D83043F4D9
:100738008043C4F8D830D4F8D83082B003F480436A
:100748000193019BD2F8003423F47F2323F47063D0
:1007580043F40143C2F80034D2F8003443F00103F3
:10076800C2F80034032000F047F801F0ADF9A3699E
:10077800A2691249C3F3032302F00F02CB5C8A5C1F
:100788000F4903F01F03D84002F01F030D4A20FA57
:1007980003F30F200B601360FFF79EFF18B10124CD
:1007A800204602B010BD0446FFF77AFF204602B08B
:1007B80010BD00BF0044025800400240E436120851
:1007C8000400003000000030034A044B11681B7815
:1007D8000B441360704700BFE4000030080000308D
:1007E800014B1868704700BFE4000030014B1868DF
:1007F800000C70470010005C0749CA6803024FF6F6
:10080800FF0003F4E0630240134343F0BF6343F483
:100818000033CB60704700BF00ED00E01C4BDB6885
:10082800C3F3022300B5C3F1070EBEF1040F03F1B1
:10083800040C28BF4FF0040EBCF1060F1BD9033B74
:100848004FF0FF3C0CFA03FC22EA0C024FF0FF3C8D
:100858000CFA0EFC21EA0C019940002841EA020139
:100868000CDB00F16040090100F56140C9B280F875
:1008780000135DF804FB00221346E7E7054B00F080
:100888000F0009010344C9B219765DF804FB00BFE3
:1008980000ED00E0FCEC00E00138B0F1807F10D200
:1008A80010B44FF0E023084C58614FF0F00C84F876
:1008B80023C00022072110469A615DF8044B196194
:1008C80070470120704700BF00ED00E070B54D682B
:1008D800002D37D18C680E6926430C6846EA844699
:1008E800D1E9064525434C692543846ED0F8840038
:1008F80003FB04F40B6A45EA0363CD6840F82460FF
:1009080000EB840443EA05436360124DCB68EB5C5B
:10091800BBB10020937892F803C0167892F801E0F2
:100928001B0443EA0C63334304EB000C43EA0E2335
:10093800CCF80830CB68EB5C0430834202F1040247
:10094800E8D870BD0C690E6826438C68264346F0CB
:100958008046C5E704371208704700BF2DE9F04FFD
:1009680099B0044646494C2205A802F06FFE002CB7
:1009780000F0C481434A2368934204BF02F58072A1
:10098800626094F8982002F0FF01002A71D09A69F9
:1009980022F010029A61FFF723FF054604E0FFF7F3
:1009A8001FFF401B0A2857D823689A691107F6D4F5
:1009B8009A6942F001029A61FFF712FF054604E0C6
:1009C800FFF70EFF401B0A2846D823689A69D2070A
:1009D800F6D59A6942F002029A61227C012A9A6944
:1009E8000CBF22F0400242F040029A61627C012A68
:1009F8009A690CBF42F4804222F480429A61A27C38
:100A0800012A9A690CBF22F4805242F480529A61FA
:100A18009A69A068E16822F4407202439A619A696F
:100A280022F0A4029A611A69012922F010021A61BF
:100A38002AD069B302299A6900F0878142F08002BE
:100A48009A611A69032942F010021A6120D19A6941
:100A580042F020029A611BE0D4F89C30032243F054
:100A68000103C4F89C30012084F8982019B0BDE82F
:100A7800F08F84F899102046FFF76EFF236886E709
:100A88009836120800A000409A6942F004029A6160
:100A9800D4E90612013A0139120242EA4162216A96
:100AA80001390A436169013942EA0142B0F5407FE0
:100AB800DA610ED1D4E90B02A16A013A01381201B8
:100AC800013942EA00220A43616A013942EA0142D5
:100AD800DA60D4F86080B8F1000F05D0D3F8C020F0
:100AE800616E0A43C3F8C020E06D18EB000F40F0B8
:100AF8000981A26E0192D4E910A5BAF1000F0BD0BA
:100B080018A901EB8501D3F8BC2051F84C1C22F040
:100B180007020A43C3F8BC20D4E91296B9F1000FC2
:100B28000CD018A901EB8601D3F8BC2051F84C1C55
:100B380022F0700242EA0112C3F8BC20D4E914275B
:100B48006AB10DF1600C0CEB870CD3F8BC105CF8A3
:100B58004CCC21F4E06141EA0C21C3F8BC107D497A
:100B68008B4200F0E98006FB09FC4FF001010026EA
:100B7800C4F89C6084F89810D3F88410C4F8946082
:100B880007FB02F2744F0292626BD4F838E03940E6
:100B980041EA8201C3F88410D3F8841021F47F015C
:100BA80041EA0E41C3F88410D3F8881001EA070B14
:100BB80002EB0E0102F180524BEA810B02F52C5236
:100BC800C3F888B09200D3F888B0009202EB8E0E7A
:100BD8007246D4F83CE003922BF4FE0B4BEA0E4B22
:100BE800C3F888B0D3F8A0B001EB4E010BEA070BAD
:100BF8004BEA810BC3F8A0B0D3F8A0B02BF4FE0BDE
:100C080005FB0AF54BEA0A4AC3F8A0A0D3F8B0A03E
:100C180029440AEA070A4AEA810AC3F8B0A0D3F8C5
:100C2800B0A02AF4FE0A4AEA0949C3F8B090D3F8FA
:100C3800AC90614409EA070949EA8109C3F8AC9014
:100C4800D3F8F09002EBCE0E029A09EA0709114494
:100C580049EA8109C3F8F090D3F8F0B0D4F8589075
:100C68002BF47C1B4BEA094BC3F8F0B0D3F8C0B0A7
:100C780001EB49010BEA070747EA8107C3F8C0708F
:100C8800D3F8C01021F47C1141EA0041C3F8C01028
:100C9800D3F8C07001990EEB850505EB8C0C0CEBB5
:100CA800820A27F07C570AEBC90901FB00F047EAE2
:100CB8000867C3F8C070039A284B09EB800001FB52
:100CC80008F100EB8101C4E91C2E9942009AC4F88E
:100CD8008800C4E91E5CC4E920A9E266C4F8901043
:100CE8001FD88A4206D2009A42F8046BD4F8903092
:100CF8009A42F9D3002019B0BDE8F08F012019B04D
:100D0800BDE8F08FA16E019118AD05EB8101D3F814
:100D1800C82051F84C1C22F007020A43C3F8C82027
:100D2800E9E6D4F89C30032243F02003C4F89C3051
:100D3800012084F8982099E6D4F804C0DCF808105B
:100D480021F00301CCF808100DE742F020029A6167
:100D58009EE600BF00A000400300FFFFFCD3004058
:100D680090F89820013A012A034607D9D0F89C2028
:100D780042F002020120C3F89C2070470868CA6844
:100D880010B490B9072A28D08C684869D20642EA7C
:100D980084720243086942EA00424968DB6E5DF8E2
:100DA800044B43F821200020704708691B6F072A6D
:100DB80018BF8C6840EA427014BF4A698A6949685A
:100DC80003EBC10C18BF42EA847243F831005DF8A6
:100DD800044BCCF8042000207047C8690202086957
:100DE80042EA00428869024342F06052D5E700BFF8
:100DF80010B590F89840012C844607D0D0F89C3064
:100E080043F004030120CCF89C3010BD9646029AAA
:100E1800DCF8004042EA430343EA8E0242EA011248
:100E2800C4F88020002010BD90F89820012A0346BD
:100E380007D0D0F89C2042F004020120C3F89C207F
:100E480070470068022283F898208269002122F006
:100E5800010282610846C3F89C10704770B590F88B
:100E68009830022B044612D10668D6F8C03013F029
:100E78007C5F14D0D6F8C45015F4001517D0D0F8FC
:100E88009C3043F400730120C4F89C3070BDD0F846
:100E98009C3043F008030120C4F89C3070BDD0F8A2
:100EA8009C3043F020030120C4F89C3070BDD6F874
:100EB800C460C6F304463346FFF708FD21680122E3
:100EC800B240C1F8D0202846C4F8942070BD00BFB5
:100ED800844690F89800022859D14029F0B566D088
:100EE800412900F08980DCF85000884257D9DCF8A5
:100EF8005450DCF87C0001FB05F500EB8505002764
:100F0800286800F080405060002840F0A2802868DF
:100F1800C0F38A40106028685B4E00F00050906073
:100F2800286800F000401061A888D061E88800F0C7
:100F38000F00D0606C6804F4801454616C6804F489
:100F480000149461EC7904F07F041462345C6868DE
:100F5800C00F506264B103F1FF3EE81D831F10F813
:100F6800014F0EF8014FD468345D5B1B9C42F5D8E5
:100F7800402972D0412900F081801F2973D8DCF8FC
:100F8800002001238B40C2F898300020F0BDDCF827
:100F98009C3043F008030120CCF89C307047DCF803
:100FA8009C3043F020030120CCF89C30F0BDDCF8E5
:100FB8000000D0F8A04014F4FE0FF0D0D0F8A44000
:100FC80067063ED0D0F8A470D0F8A440E601C7F375
:100FD800052708D5D0F8A040002C04DAD0F8A000E6
:100FE800013707EA1047DCF84450DCF8740007FBC7
:100FF80005F500EB850583E7DCF80000D0F8B04084
:1010080014F4FE0FCBD0D0F8B440650619D0D0F850
:10101800B470D0F8B440E401C7F3052708D5D0F878
:10102800B040002C04DAD0F8B000013707EA1047C6
:10103800DCF84C50DCF8780007FB05F500EB85057B
:101048005EE7DCF89C3043F480730120CCF89C30D8
:10105800F0BD286820F060405CE7DCF80030002034
:10106800C3F8A870F0BDDCF8000001F01F030122EE
:1010780002FA03F3C0F89C300020F0BDDCF8003021
:101088000020C3F8B870F0BD04371208036840297F
:101098000CBFD3F8A400D3F8B40000F07F00704769
:1010A8002DE9F04F0C6885B0002C00F0B5800022C7
:1010B800DFF888A200941346009C4FF0010C0CFA4C
:1010C80003FC1CEA040B00F0A0804F6807F003053E
:1010D8006E1E012E40F2A380032D40F0E5808E683D
:1010E800012E05FA02F507D0D0F80CC096402CEA7C
:1010F800050C46EA0C06C660EE43D0F800C00CEAC0
:101108000606354317F4403F05607ED0DAF8F45000
:10111800834C45F00205CAF8F450DAF8F45005F0AB
:1011280002050395039D23F0030505F1B04503F07F
:10113800030E4FEA8E0E0F26D5F808C406FA0EF6EF
:10114800A04205F580652CEA06062DD004F58064DA
:10115800A04200F0B480734CA04200F0B780724CFB
:10116800A04200F0A580714CA04200F0BD80704CF8
:10117800A04200F0C0806F4CA04200F0AE806E4CE0
:10118800A04200F0BF80DFF8B8C1604500F0C18020
:10119800DFF8B0C160450CBF4FF0090C4FF00A0CE6
:1011A8000CFA0EFE46EA0E06AE604FF0B0456FEA46
:1011B8000B0C2D68FE024FF0B04654BF0CEA050533
:1011C8004BEA0505356076684FF0B045BC0254BF60
:1011D8000CEA06064BEA06066E60D5F8C460BD0345
:1011E8004FF0B04554BF0CEA06064BEA0606C5F8B0
:1011F800C460D5F8C050FC034FF0B04654BF0CEAA9
:1012080005054BEA0505C6F8C050009C0133DC40D3
:1012180002F102027FF450AF05B0BDE8F08FCE684E
:10122800D0F808E006FA02F9032606FA02F82EEAD0
:10123800080E49EA0E068660D0F804E02EEA0C0E85
:10124800C7F3001C0CFA03FC4CEA0E0C6FEA080604
:10125800C0F804C0D0F80CE08C680EEA060E04FA58
:1012680002FC4CEA0E0C022DC0F80CC005FA02F57F
:101278007FF443AF4FEAD30E00EB8E0E03F007085E
:10128800DEF8204001940C694FEA880804FA08FC4B
:101298004FF00F09019C09FA08F824EA08094CEAFA
:1012A800090CCEF820C028E703269640F643D1E77C
:1012B8004FF0030C0CFA0EFE46EA0E0674E74FF0E8
:1012C800010C0CFA0EFE46EA0E066DE74FF0020C12
:1012D8000CFA0EFE46EA0E0666E74FF0060C0CFA0C
:1012E8000EFE46EA0E065FE74FF0040C0CFA0EFEFF
:1012F80046EA0E0658E74FF0050C0CFA0EFE46EAD1
:101308000E0651E74FF0070C0CFA0EFE46EA0E06E1
:101318004AE74FF0080C0CFA0EFE46EA0E0643E7C1
:101328000000025800080258000C02580010025829
:101338000014025800180258001C025800440258B1
:10134800002002580024025802B90904816170473C
:10135800436901EA030221EA030141EA024181618A
:10136800704700BF58B3D0E9003170B582680446B1
:101378004CF6CC40186045F25550186059609A6098
:10138800FFF72EFA2368DA68054650070DD041F6B4
:101398000106FFF725FA431BB342236802D9DA682E
:1013A80051070ED1DA685207F3D1E2681969914200
:1013B8000ABF4AF6AA221A611A60002070BD0120ED
:1013C8007047032070BD00BF03684AF6AA220020B8
:1013D8001A6070473B4B30B49A6A9C6ADD6A596B55
:1013E80014F47C7FC4F3051038D0C1F3CC0105F0A8
:1013F800010505FB01F107EE901A02F00302012A2C
:10140800F8EEE75A02D0022A4ED04AB307EE900A05
:10141800DFED2D6AB8EEE77AC6EE877A1B6BC3F369
:10142800080307EE103A9FED296AB8EEC77AF7EE7F
:10143800006AA5EE867A37EE267A27EE877A214B60
:101448001B6BC3F34623013307EE903AF8EEE77AB5
:10145800C7EE276AFCEEE67A17EE900A30BC7047B2
:101468001A68920627D51968194A1B6B9FED176AE7
:10147800C1F3C101CA4007EE902A07EE100AF8EE40
:10148800E77AB8EEC77AC3F30803C7EE876A07EEB0
:10149800103AB8EEC77AF7EE007AA5EE867A37EEFC
:1014A800277A27EE267ACAE707EE900ADFED096A5F
:1014B800B8EEE77AB0E707EE900ADFED076AB8EE14
:1014C800E77AA9E7004402580024744A000000396A
:1014D8000090D00320BCBE4B0024744C002800F0C0
:1014E800E881F8B50368D90704462ED5A4490A69E6
:1014F800896A02F03802102A00F00781182A00F0E1
:10150800FF806368B3F5803F00F02A81002B00F06C
:101518006881B3F5A02F9A4B1A6800F08F8222F4E5
:1015280080321A601A6822F480221A60FFF758F98C
:10153800934E054605E0FFF753F9401B642800F277
:101548004E8133689B03F6D523689D0700F18A8096
:10155800D90633D58A4A1369926A03F03803082BEF
:1015680000F0E380182B00F0DB80E369844D002B4A
:1015780000F06F812B6843F080032B60FFF730F990
:10158800064605E0FFF72CF9801B022800F22781A8
:101598002B68DB05F6D5FFF729F941F203039842DA
:1015A80000F26F82226A6B68202A23F0F8430CBF8E
:1015B80043F0804343EA82636B6023681D0716D5B6
:1015C80063696F4D002B00F022816B6F43F00103BC
:1015D8006B67FFF705F9064605E0FFF701F9801B81
:1015E800022800F2FC806B6F9807F6D523689A06EC
:1015F80016D5A369624D002B00F01A812B6843F4BD
:1016080080532B60FFF7ECF8064605E0FFF7E8F893
:10161800801B022800F2E3802B689F04F6D523681C
:10162800590700F1A380606AD0B1554D2B6903F0CA
:101638003803182B00F0B2812B68022823F080733E
:101648002B6000F04281FFF7CBF8044605E0FFF776
:10165800C7F8001B022800F2C2802B689B01F6D451
:101668000020F8BD464A1369926A13F038032DD159
:10167800434BE2681B68590701D5002A4ED0404DFC
:101688002B6823F0190313432B60FFF7A9F80646CC
:1016980005E0FFF7A5F8801B022800F2A0802B6860
:1016A8005B07F6D5FFF7A2F841F20303984200F270
:1016B800F78022696B68402A23F47C330CBF43F41B
:1016C800003343EA02336B60236841E7182B00F0CC
:1016D800E3802B4DE2682B68002A00F0CC8023F0D1
:1016E800190313432B60FFF77BF8064604E0FFF766
:1016F80077F8801B022872D82B685F07F7D5D1E7E7
:1017080001F0030102297FF4FCAE1D4A126892031E
:101718007FF51BAF6268002A7FF417AF0120F8BD80
:1017280002F00302012A7FF420AF154B1B68DA058B
:1017380002D5E369802BF1D1FFF758F841F2030392
:10174800984200F2B880226A202A00F0A9810C4948
:101758004B6823F0F84343EA82634B6023682DE724
:10176800074A136843F480331360DFE6054D2B689E
:1017780043F480732B60FFF733F8064609E000BF97
:101788000044025800480258FFF72AF8801B6428D2
:1017980025D82B68DA05F7D5A368012B00F07A81E4
:1017A800002B00F05581052BA84B1A6F00F08181A2
:1017B80022F001021A671A6F22F004021A67FFF773
:1017C8000FF8A24E054641F2883704E0FFF708F803
:1017D800401BB84203D8336F9B07F7D523E7032094
:1017E800F8BD9A4D2B6823F480332B602B6823F4C3
:1017F80080232B60FEF7F4FF064604E0FEF7F0FFB7
:10180800801B6428EBD82B689F03F7D49CE66B6F8A
:1018180023F001036B67FEF7E3FF064604E0FEF7DB
:10182800DFFF801B0228DAD86B6F9907F7D4DDE653
:101838002B6823F480532B60FEF7D2FF064604E0A2
:10184800FEF7CEFF801B0228C9D82B689804F7D46E
:10185800E5E62B6823F080032B60FEF7C1FF064600
:1018680004E0FEF7BDFF801B0228B8D82B68DF050F
:10187800F7D42368A2E623F001032B60FEF7B0FF3C
:10188800064604E0FEF7ACFF801B0228A7D82B68A9
:101898005807F7D423685BE690077FF41AAFE7E6AA
:1018A8006B68226923F0FE4343EA02636B60236896
:1018B8004EE601207047654A216AD36823F07C53BD
:1018C80043EA0163D360236878E6FEF789FF06469A
:1018D80004E0FEF785FF801B022880D82B68990159
:1018E800F7D4AB6AA16AE26A584E23F47C7323F0FA
:1018F80003030B4343EA0213AB62D4E90D32216BB5
:10190800013B013A5B02120402F4FE0201399BB268
:101918001343C1F308021343E26B013A120602F0C3
:10192800FE4213432B63EB6A23F00103EB626B6BFC
:10193800A26C23F47F4323F0F80343EAC2036B63EA
:10194800EB6A226C23F00C031343EB62EB6A626CC4
:1019580023F002031343EB62EB6A43F48033EB6238
:10196800EB6A43F40033EB62EB6A43F48023EB62E7
:10197800EB6A43F00103EB622B6843F080732B6042
:10198800FEF72EFF044605E0FEF72AFF001B02289B
:101998003FF625AF33689A01F6D561E60128AA6AB1
:1019A8002E6B3FF45EAEA16A02F003038B427FF414
:1019B800B5AEE36AC2F305129A427FF4AFAE236B69
:1019C800C6F30802013B9A427FF4A8AE636BC6F3E4
:1019D8004622013B9A427FF4A1AEA36BC6F30642AE
:1019E800013B9A427FF49AAEE36BC6F30666013B6D
:1019F8009E427FF493AE6B6BA26CC3F3CC039A4206
:101A08003FF42EAE114AD36A23F00103D362FEF7E6
:101A1800E7FE0546FEF7E4FEA842FBD00B4AA16CA0
:101A2800536B23F47F4323F0F80343EAC103536362
:101A3800D36A43F001030020D362F8BD42F4802248
:101A48001A601A6842F480321A606FE5004402583E
:101A58001C4D2B6F23F001032B672B6F23F004031E
:101A68002B67FEF7BDFE41F28837064605E0FEF714
:101A7800B7FE801BB8423FF6B2AE2B6F9807F6D47C
:101A8800D1E5EB68226A23F07C5343EA0263EB60FA
:101A9800236893E50B4A136F43F0010313678EE63F
:101AA800084A536823F0F84343F08043536023689F
:101AB80084E542F004021A671A6F42F001021A67BD
:101AC8007DE600BF004402580C4A136903F038034E
:101AD800102B04D0182B0DD01BB1094870470948AA
:101AE800704713689B0607D513680748C3F3C103FB
:101AF800D8407047FFF76EBC03487047004402584F
:101B080000093D0040787D010090D003002800F0D6
:101B18000C818C4A136803F00F038B422DE9F041C6
:101B28000D4604460CD2136823F00F030B431360D1
:101B3800136803F00F038B4202D00120BDE8F08147
:101B480023685F070BD5804920698A6902F0700213
:101B5800904204D98A6922F0700202438A611E0702
:101B68000BD579496069CA6902F07002904204D9BC
:101B7800CA6922F070020243CA61D8060BD57249BD
:101B8800A069CA6902F4E062904204D9CA6922F4E1
:101B9800E0620243CA6199060BD56B49E0690A6A9B
:101BA80002F07002904204D90A6A22F070020243DD
:101BB8000A629A0740F1AB806348E168826902F0E3
:101BC8000F02914204D9826922F00F020A4382610E
:101BD800D80730D55C4AA168936923F470630B4336
:101BE800936161681368022900F0A180032900F05D
:101BF8009880012900F0A18058079ED5524E33697C
:101C080023F007030B433361FEF7EAFD41F28838FE
:101C1800074605E0FEF7E4FDC01B404500F28B8057
:101C28003369626803F03803B3EBC20FF2D123685B
:101C3800990706D5E1684448826902F00F028A4292
:101C480069D840490A6802F00F02AA420AD90A680C
:101C580022F00F022A430A600A6802F00F02AA4221
:101C68007FF46BAF5A070BD5374920698A6902F0B0
:101C78007002904204D28A6922F0700202438A619B
:101C88001F070BD530496069CA6902F0700290429B
:101C980004D2CA6922F070020243CA61DE060BD57B
:101CA8002949A069CA6902F4E062904204D2CA696B
:101CB80022F4E0620243CA619D060BD5224AE1691B
:101CC800136A03F07003994204D2136A23F0700375
:101CD8000B431362FFF7F8FE1B4A1C49936992698C
:101CE8001B4CC3F3032302F00F02CB5C8A5C194937
:101CF80003F01F03D84002F01F03174A20FA03F32A
:101D080020680B60BDE8F0411360FEF7E5BCDA0718
:101D18003FF560AF95E7826922F00F0211438161B8
:101D28008FE79F013FF56AAF07E7012070479B03E4
:101D38003FF564AF01E7032000E7DE053FF55EAF3E
:101D4800FBE600BF0020005200440258E4361208A7
:101D58000C0000300400003000000030F8B5431ECD
:101D68000A3342D800F1080410F0070049D1614D48
:101D780001F02EF92B68002B00F086802346002BFB
:101D880038DB002C36D05C4F3E68A64232D35B4924
:101D98005B480B68834244D3DFF870E1734540D851
:101DA8008C4607E01A6842B182429C4663D372456A
:101DB80061D813465968A142F4D32A689A4219D0C7
:101DC800DCF800500835854222D3754520D81868BC
:101DD800CCF80000A14259D24FF0500383F3118888
:101DE800BFF36F8FBFF34F8FFEE7424D01F0F0F85E
:101DF8002B68FBB101F0F4F80025FEF74DFC2846EE
:101E0800F8BDC0F10800C343A342EED30444AEE7D3
:101E18004FF0500383F31188BFF36F8FBFF34F8FD9
:101E2800FEE74FF0500383F31188BFF36F8FBFF3C2
:101E38004F8FFEE71C463248460715D100F5004291
:101E480001460646083A22F007022E482B4F2A6020
:101E5800511A016028483E60016000207860C2E99C
:101E68000000C6E900218AE7C11D21F0070100F53D
:101E780000420E46E6E74FF0500383F31188BFF3A4
:101E88006F8FBFF34F8FFEE72346D4E7A1EB040E15
:101E9800BEF1100F11D91A19510708D04FF050038D
:101EA80083F31188BFF36F8FBFF34F8FFEE7C2F83C
:101EB80004E021461851CCF8002012480468761A2C
:101EC800A64238BF066010483E60026841F00041F3
:101ED80000241C6001325960026001F081F86B0730
:101EE8008DD04FF0500383F31188BFF36F8FBFF38A
:101EF8004F8FFEE7E8000030EC800030FC800030B7
:101F0800EC000030F0800030F4800030EB800030CE
:101F1800F8B170B5384DA0F10804AC4282B00FD3C7
:101F2800364EB4420CD850F8043C002B12DB4FF06C
:101F3800500383F31188BFF36F8FBFF34F8FFEE712
:101F48004FF0500383F31188BFF36F8FBFF34F8FA8
:101F5800FEE7704750F8082C42B14FF0500383F366
:101F68001188BFF36F8FBFF34F8FFEE723F0004355
:101F780040F8043C019001F02BF80198204A50F8F1
:101F8800041C13681F480B44136003461A461B6859
:101F98009C42FBD8824203D0AA4215D3B24213D83E
:101FA80050681518AC4222D06018834215D02360BF
:101FB800A24218BF1460144A13680133136002B0B8
:101FC800BDE8704001F00CB84FF0500383F311885E
:101FD800BFF36F8FBFF34F8FFEE70C480068834253
:101FE800E5D0D3E900300144C4E90031E0E7014419
:101FF80051601446D8E700BFEC000030EB80003099
:10200800EC800030FC800030F8800030E8000030C0
:1020180000F108034FF0FF310022C0E90131C0E9A7
:1020280003330260704700BF00230361704700BF9D
:1020380030B40D686B1C10D000F108031C465B68B7
:102048001A68AA42FAD902684B60013299608C601A
:102058006160086130BC0260704704696368F2E738
:10206800026910B4D0E9011354688B608442596046
:1020780008BF536013685DF8044B013B0021016100
:1020880018461360704700BF064B19680868B0E827
:10209800F04F80F30988BFF36F8F4FF0000080F393
:1020A800118870474C81003008480068006880F348
:1020B80008884FF0000080F3148862B661B6BFF359
:1020C8004F8FBFF36F8F00DF00BF000008ED00E007
:1020D800EFF30980BFF36F8F144B1A681EF0100FCF
:1020E80008BF20ED108A20E9F04F10602DE90900A3
:1020F8004FF0500080F31188BFF34F8FBFF36F8FFD
:1021080000F09EFF4FF0000080F3118809BC1968A9
:102118000868B0E8F04F1EF0100F08BFB0EC108A46
:1021280080F30988BFF36F8F704700004C8100303F
:10213800DFF80C00016841F470010160704700008D
:1021480088ED00E00E4B1B6882B00022013301923B
:1021580008D04FF0500383F31188BFF36F8FBFF39C
:102168004F8FFEE74FF0500383F31188BFF36F8F53
:10217800BFF34F8F019B002BFCD002B0704700BF0C
:102188001000003010B44FF08073074C40F8043C46
:1021980021F001016FF0020340E9034140E90932EF
:1021A8005DF8044B443870474D2112084FF0500336
:1021B80083F31188BFF36F8FBFF34F8F0B4A1368F8
:1021C8000133012B136000D070474FF0E023D3F8A0
:1021D800043DDBB2002BF7D04FF0500383F3118896
:1021E800BFF36F8FBFF34F8FFEE700BF10000030C3
:1021F800084A136843B94FF0500383F31188BFF3BB
:102208006F8FBFF34F8FFEE7013B13600BB983F36A
:10221800118870471000003008B54FF0500383F361
:102228001188BFF36F8FBFF34F8F00F0F5FE28B111
:102238004FF0E0234FF08052C3F8042D002383F3BE
:10224800118808BD4FF0E023002203481A610721D6
:102258009A615861196170477FA903004FF0E02324
:10226800544AD3F8001D91421CD0D3F8001D524A9D
:1022780091420ED0D3F8083D504AD96A91421AD0FB
:102288004FF0500383F31188BFF36F8FBFF34F8F65
:10229800FEE74FF0500383F31188BFF36F8FBFF34E
:1022A8004F8FFEE74FF0500383F31188BFF36F8F12
:1022B800BFF34F8FFEE7424A9B6B934208D04FF023
:1022C800500383F31188BFF36F8FBFF34F8FFEE77F
:1022D80030B583B03B4B002201921A78FF21D2B26D
:1022E8008DF8022019701B78374ADBB28DF803305D
:1022F8009DF8033003F05003137043B94FF05003B7
:1023080083F31188BFF36F8FBFF34F8FFEE79DF8FC
:102318000330DB4313F0500311D04FF0500383F325
:102328001188BFF36F8FBFF34F8FFEE7019A013219
:1023380001929DF803205200D2B28DF803209DF837
:1023480003201206F2D4019A082A05D0019BC3F192
:1023580007031B0203F4E0639DF802201B48194998
:1023680003604FF0E024D2B20A70D4F8203D43F461
:102378007F03C4F8203DD4F8203D002543F07F4377
:10238800C4F8203DC4F81C5DFFF75CFF104B1D60CE
:10239800FFF7CEFED4F8343F43F04043C4F8343F4F
:1023A800FFF782FE00F04CFEFFF7CCFE284603B094
:1023B80030BD00BF71C20F4170C20F419120120899
:1023C800D920120800E400E00481003008810030C0
:1023D8001000003070B50546FFF7E8FE95F8453067
:1023E8005CB2002C14DD05F1240603E0631EDAB2AA
:1023F8005CB26AB16B6A304653B100F079FE0028CE
:10240800F4D000F03BFF631EDAB25CB2002AF1D1CF
:10241800FF2385F84530FFF7EBFEFFF7C7FE95F879
:1024280044305CB2002C14DD05F1100603E0631E95
:10243800DAB25CB26AB12B69304653B100F058FE8B
:102448000028F4D000F01AFF631EDAB25CB2002A4A
:10245800F1D1FF2385F84430BDE87040FFF7C8BECE
:1024680058B3C36B70B50446F3B1056CA5FB0335CF
:10247800D5B90E46FFF79AFED4E90F232168A56364
:1024880003FB02F2D31A0A44A2600B44FF2284F829
:1024980044206160E36084F8452046BB2369ABB9FA
:1024A800FFF7A6FE012070BD4FF0500383F311889B
:1024B800BFF36F8FBFF34F8FFEE74FF0500383F3E7
:1024C8001188BFF36F8FBFF34F8FFEE704F1100041
:1024D80000F00EFE0028E3D04FF0E0234FF08052CA
:1024E800C3F8042DBFF34F8FBFF36F8FD8E704F104
:1024F8001000FFF78DFD04F12400FFF789FDCFE7F9
:1025080030B583B040B1A0FB0123044623B901FBD9
:1025180000F010F1490F08D94FF0500383F31188E8
:10252800BFF36F8FBFF34F8FFEE748300191FFF77E
:1025380015FC054650B1019959B100F14803C5E9A8
:102548000F412B6001212846FFF78AFF284603B078
:1025580030BD0346F3E700BF2DE9F04385B0019293
:10256800002800F0A0800D460446002947D000F05E
:102578008BFE00284FD0FFF719FEA66B002E67D1FF
:10258800019B002B35D002A800F026FE374604F147
:1025980024084FF0E029FFF72BFE00F019FDFFF7A4
:1025A80005FE94F84430FF2B08BF84F8447094F873
:1025B8004530FF2B08BF84F84570FFF719FE01A9C5
:1025C80002A800F015FE002831D1FFF7EFFDA36B3C
:1025D800002B52D0FFF70CFE2046FFF7FBFE00F061
:1025E800FFFCFFF7E3FDA66B002E31D1019B002B0A
:1025F800D1D1FFF7FDFD002005B0BDE8F083036CE5
:10260800002BB4D04FF0500383F31188BFF36F8FC2
:10261800BFF34F8FFEE7019B002BACD04FF0500368
:1026280083F31188BFF36F8FBFF34F8FFEE7204608
:10263800FFF7D0FE00F0D4FCFFF7B8FDA36B002B2A
:10264800D7D0FFF7D5FDFFF7B1FDA66B002ECDD093
:10265800226C52B1E168A36811449942E16024BF39
:102668002168E160284600F0F1FF2369013EA66376
:1026780013BBFFF7BDFD0120BEE7FFF7B9FD0199C8
:10268800404600F0EBFC2046FFF7A4FE00F0A8FC53
:102698000028D8D14FF08053C9F8043DBFF34F8FBD
:1026A800BFF36F8FCFE74FF0500383F31188BFF369
:1026B8006F8FBFF34F8FFEE704F1100000F018FD95
:1026C8000028D6D04FF0E0234FF08052C3F8042DF5
:1026D800BFF34F8FBFF36F8FCBE700BF20B311B3AA
:1026E80030B40025164C2B4604EBC3024FEAC30C4A
:1026F8005268824214D035B10133082BF4D1C5E9B0
:10270800001030BC704754F83320B2B10133082BA5
:1027180004EBC3024FEAC30CF3D052689042F2D1E3
:1027280004EB0C05EBE770474FF0500383F3118877
:10273800BFF36F8FBFF34F8FFEE704EB0C05DBE7AA
:102748000C81003070B504460E461546FFF72EFD85
:1027580094F84430FF2B04BF002384F8443094F8E5
:102768004530FF2B04BF002384F84530FFF740FDB8
:10277800A36B23B12046BDE87040FFF72BBE04F1E0
:1027880024002A46314600F083FC2046BDE870400C
:10279800FFF720BE2DE9F843244A254C254B264E49
:1027A8002468D2F80080D3F80090054630680430D9
:1027B8000F46FFF755FC48B933682049DA6A012308
:1027C80003FA02F20B6823EA02030B606B1C15D0B4
:1027D8003368316864195C600AD240460431FFF7F7
:1027E80027FC174B1A68A24288BF1C60BDE8F88313
:1027F80048460431BDE8F843FFF71ABC002FE7D07C
:10280800104B30685A68316882609068C8603168D7
:1028180090680431416030681968346804300131C7
:10282800906019606361BDE8F88300BF5081003093
:1028380048820030548100304C810030CC81003017
:10284800FC81003020820030234B10B50022234C3D
:102858001A6021682268236812681B6B9A4204D99F
:102868000B6B1A68B2F1A53F29D021682068343172
:10287800FDF710FF1A4B1B68B3FA83F3DBB2C3F101
:102888001F0303EB8303174A990002EB8303505895
:1028980040B94FF0500383F31188BFF36F8FBFF334
:1028A8004F8FFEE758680831406858600A449042E4
:1028B80004BFD8685860C3682360236810BD5A688D
:1028C800B2F1A53FD1D19A68B2F1A53FCDD1DB686D
:1028D800B3F1A53FC9D1CDE74C8200304C8100301F
:1028E800CC81003058810030F8B50F4D2B68CBB142
:1028F8000E4F0F4EFFF75AFCFB68DC68201DFFF7F0
:10290800AFFB3368013B33602B68013B2B60FFF75B
:102918006FFC206BFFF7FCFA2046FFF7F9FA2B68EB
:10292800002BE7D1F8BD00BFC081003034820030F1
:10293800BC81003008B50B4C4FF0E0264FF08055B5
:10294800FFF7D2FF2368012BFAD9C6F8045DBFF35D
:102958004F8FBFF36F8FFFF7C7FF2368012BF4D8A2
:10296800EEE700BF588100302DE9F04F604B1D683D
:10297800013583B01D60002D00F085805D4B01930B
:10298800019B1B689D4264D3DFF878C1DCF80030F6
:102998001C68002C00F0A78000245748DFF870B1AD
:1029A800DFF870E1AA46A04644E0D3E90227596956
:1029B80097607A604A68AA420A6808BF4F60002692
:1029C800013A5E610A60996A69B1D3E90772BA602F
:1029D8001A6A57604F68A74208BF4A6000229A6285
:1029E8000A68013A0A60DA6ADEF8009002EB8207A8
:1029F800012100EB8704914041EA0901CEF800105B
:102A0800616899608E68DE6050F8276006F10109F8
:102A18008E6875608D60DBF800105C6140F8279067
:102A2800DCF80030C96A1B688A4288BF4FF0010889
:102A3800002B4BD0DCF80030DB68DB685A68924525
:102A480003F1040503F11804AFD2019B44461A6050
:102A580003E02948DFF8B8B00024DBF80030274A43
:102A6800DB6A126803EB830350F82330022B28BF7C
:102A78000124AAB1224B1B68002B0CBF2046012061
:102A880003B0BDE8F08F1F4B1A6812685AB14FF0B7
:102A9800500383F31188BFF36F8FBFF34F8FFEE7A7
:102AA800FDF7FCFDE6E7184A186811681960174930
:102AB80010600A6801320A601A68126862B90D4B20
:102AC80001931A464FF0FF33136059E74446019AC1
:102AD8004FF0FF331360C0E71B68064ADB680192BA
:102AE8001B6813604CE70448DFF824B0EFE700BF29
:102AF80048820030FC810030588100300482003068
:102B08004C82003050810030548100300082003007
:102B18004C810030CC8100302DE9F04F564F3B6896
:102B2800013B3B60D7F8008083B0B8F1000F40F05C
:102B38009280524B1B68002B00F08D80DFF858C143
:102B4800DCF80030002B00F093804D4BDFF84CE1AF
:102B58004C4D01934FF0010BC246DCF80C30DB689A
:102B6800D3E907019A6A81604860506803F1180444
:102B7800A04208BF51601168C3F828A0013911604C
:102B8800D3E90221586991604A604268DEF8004042
:102B98001E1DB24208BF41600168DA6A013901604E
:102BA80002EB820005EB80080BFA02F10C43D8F81F
:102BB8000410CEF800408C68DC60334C99602468BF
:102BC800D4F82C9055F82040013400948C684A457C
:102BD80066608E60C3F81480009B45F8203084BF7F
:102BE800019BC3F800B0DCF80030002BB5D1274BAF
:102BF8001A681268002A36D01A68254BD2681268FB
:102C08001A60244D2C68ACB1DDF80480012606E07A
:102C1800FFF7AAFE08B1C8F80060013C09D03B687C
:102C2800002BF5D02B6801332B60FDF737FD013CF5
:102C3800F5D12C60019B1B686BB14FF0E023124962
:102C48004FF080520968C3F8042DBFF34F8FBFF3CC
:102C58006F8F012000E000200090FFF7C9FA00986C
:102C680003B0BDE8F08F0A4B4FF0FF321A60C8E797
:102C7800034B0193C5E700BFC4810030BC8100301D
:102C88004C820030588100304C8100305081003037
:102C9800FC8100300482003008820030CC81003092
:102CA8002DE9F0474FEA82090746484616460D4681
:102CB8009846FFF753F868B382465420FFF74EF85A
:102CC800044658B35422002100F0CEFC4A46C4F80A
:102CD80030A05046A52100F0C7FC226B75B105F164
:102CE800FF3C04F133030F351CF8011F03F8011FE3
:102CF80009B1AC45F8D1002384F84330089B042B74
:102D080013D94FF0500383F31188BFF36F8FBFF3CC
:102D18004F8FFEE74FF0FF30BDE8F0875046FFF7D2
:102D2800F7F84FF0FF30BDE8F087089BE362251DF8
:102D380063642846A9F104099144FFF775F904F181
:102D48001800FFF771F9089B246129F00709C3F1FE
:102D580005034846646242463946A361FFF712FA02
:102D6800A9EB0009B6EBA90F206008D84FF0500373
:102D780083F31188BFF36F8FBFF34F8FFEE7099B73
:102D880003B11C60FFF712FA414A424E136801333F
:102D980013603368002B4CD03F4F3B68002B3FD06B
:102DA800E36ADFF81081DFF810E1DFF810C103EB08
:102DB800830208EB82099200D9F80410A1608868A0
:102DC800E060886845608D60DEF80010DCF800007F
:102DD800C4F814900131CEF8001058F802100125FB
:102DE800013105FA03F3034348F80210CCF8003028
:102DF800FFF7FEF93B6883B13268E36AD26A9A4208
:102E08000BD24FF0E0234FF08052C3F8042DBFF3EC
:102E18004F8FBFF36F8F28467EE72846BDE8F087BF
:102E28003368DFF89080DA6AE36A9A4298BF3460C0
:102E3800B9E734601368012B04D0E36ADFF87480C3
:102E4800154FB0E7DFF86C80474608F1640938464B
:102E58001437FFF7DDF8B945F9D1DFF864900F4F63
:102E68004846FFF7D5F83846FFF7D2F80C48FFF781
:102E7800CFF80C48FFF7CCF80B48FFF7C9F80B4B15
:102E8800C3F800900A4B1F60E36A034F8BE700BF4B
:102E9800BC8100304C8100301C820030E48100305D
:102EA80008820030348200302082003050810030A7
:102EB8005481003058810030C8810030CC81003006
:102EC800D081003010B550B94FF0E0234FF0805258
:102ED800C3F8042DBFF34F8FBFF36F8F10BD124C93
:102EE8002368013323602368012B08D04FF0500377
:102EF80083F31188BFF36F8FBFF34F8FFEE7002175
:102F0800FFF748FCFFF752F9236843B94FF0500325
:102F180083F31188BFF36F8FBFF34F8FFEE7FFF77F
:102F2800FBFD0028D0D010BDC481003030B587B07B
:102F3800002349211F4ACDE90233CDE904338DF836
:102F480008100DF1090312F8014F03F8014B002C8A
:102F5800F9D1194B1948CDE900438022234602A92B
:102F6800FFF79EFE012819D100F026FB012815D194
:102F78004FF0500383F31188BFF36F8FBFF34F8F68
:102F88000F49104A104B4FF0FF350D6010601C6060
:102F9800FFF764F90D4B1B6807B030BD0130F9D15C
:102FA8004FF0500383F31188BFF36F8FBFF34F8F38
:102FB800FEE700BF14371208F88100303D291208D7
:102FC800FC8100301C820030488200301400003040
:102FD800024A136801331360704700BFC481003090
:102FE80008B5FFF7E3F8084B1B6843B94FF05003E7
:102FF80083F31188BFF36F8FBFF34F8FFEE7BDE8F0
:103008000840FFF789BD00BFC4810030014B186834
:10301800704700BF4882003008B5074B1B681BB9D2
:10302800BDE80840FFF7A0BC044A136801331360E9
:10303800FDF734FB002008BDC48100300482003055
:10304800044B1B681BB1044B01221A607047FFF741
:10305800FBBB00BFC48100304C82003060B110B5AA
:103068000A4B0C4619681831FEF7E2FF2046012189
:10307800BDE81040FFF78EBB4FF0500383F3118873
:10308800BFF36F8FBFF34F8FFEE700BF4C81003057
:1030980018B3F0B4154C45688C46002A11462268CE
:1030A800AE68D561226803461662266822682768DA
:1030B80002F118041A6808BF604602F1010CAA68F8
:1030C80006F11806566018BF4FF0FF30AC60BB62BF
:1030D800F0BCC3F800C0FFF75DBB4FF0500383F3AB
:1030E8001188BFF36F8FBFF34F8FFEE74C8100301D
:1030F800C368DB68002B59D0D3E907019A6A2DE928
:10310800F04181604860506803F11804A0422C48DF
:1031180008BF516011680068002501399D6211607F
:10312800B8B128494A68DA619068186290684460C2
:10313800086894600130DA6A99620860224B1B685B
:10314800DB6A93423DBF214B012018600020BDE897
:10315800F0819A68D86859699060D8681C4D4260B7
:103168004A68DFF870E01F1DBA4208BF4860086867
:10317800DA6ADEF800800138086002EB820105EBAC
:10318800810C8900DCF804409C60A068D86068580D
:10319800461C0120904040EA0800CEF80000A068D4
:1031A8004760A760C3F814C06E50C7E74FF05003DC
:1031B80083F31188BFF36F8FBFF34F8FFEE700BF14
:1031C800C4810030088200304C8100304C820030CD
:1031D80058810030CC810030034A044B12681B68C8
:1031E800C0E90023704700BF0082003048820030E9
:1031F80038B3F0B50D4683B0D1B10446FEF7D6FF1B
:103208002B681C4A581C116832D0DFF86CC0D4E90E
:103218000060DCF80070BE421CD088421AD8002337
:103228002B6001200190FEF7E3FF019803B0F0BD89
:103238004FF0500383F31188BFF36F8FBFF34F8FA5
:10324800FEE74FF0500383F31188BFF36F8FBFF38E
:103258004F8FFEE7A1EB000E7345E0D95B1ADCF84F
:103268000010126803442B600020C4E90012D9E75B
:103278000020D7E74882003000820030014B01224D
:103288001A6070474C820030054B1B6833B1054B00
:103298001B68002B0CBF02200020704701207047DC
:1032A8001C820030C4810030F8B5104CFEF77EFF58
:1032B80025681DB1BDE8F840FEF79ABF0C4F0D4ECA
:1032C8003846FEF7A5FE3046FEF7A2FE0A4B1F6001
:1032D8000A4B2A460C210A201E60FFF711F92060CC
:1032E8000028E7D00649FFF7F9F9E3E784820030C0
:1032F800588200306C820030508200305482003096
:103308001C37120870B50446164605E0934219D8D2
:10331800236A204698472946A36924615D182CBF73
:1033280001200020B542A6EB01026560EED9B1424A
:1033380001D90028ECD0074B211D1868BDE8704062
:10334800FEF776BE044B211D1868BDE87040FEF7F5
:103358006FBE00BF5082003054820030104B1B6893
:10336800DB6870B5DC680546201D0E46FEF778FE62
:1033780094F824305A0708D423F0010384F8243041
:103388002046236ABDE87040184720463246294641
:10339800FFF7B8FF236A2046BDE87040184700BF12
:1033A800508200302DE9F04F7F4D804FDFF80482C6
:1033B8007F4E85B04FF0E02A4FF000092B68D3F814
:1033C80000B0BBF1000F00F0C680DB68D3F800B096
:1033D800FFF7FEFDFFF71AFE3B689842044679D3D3
:1033E8005845386080F0D08000223068ABEB04018B
:1033F800FFF7A8F9FFF7F4FD38B94FF08053CAF882
:10340800043DBFF34F8FBFF36F8FCDE90199CDF81E
:103418000C903068002201A9FFF79EF80028CDD053
:10342800019B002BF5DBDDF80CB0BBF1000FF0D0F1
:10343800DBF814301BB10BF10400FEF711FEFFF7A7
:10344800E5FD3B689842044611D3019B3C60013B73
:10345800082BDED8DFE803F01515644B6B151564EF
:103468004B00DB684FF0FF311868FFF777FF2B68D8
:103478001A68002AF5D1D8F800202A60C8F8003068
:10348800E3E79BF82420029BDBF81800CBF810B088
:1034980042F001018BF8241019182CBF4FF0010CD1
:1034A8004FF0000CA142CBF8041049D8E31A984217
:1034B8002FD8500763D422F001028BF82420DBF8C0
:1034C800203058469847A4E7DB684FF0FF3118686A
:1034D800FFF744FF2B681A68002AF5D1D8F80020B6
:1034E8002A60C8F800303C60FFF77AFD8DE79BF84A
:1034F8002420029BCBF8183042F001028BF82420DC
:10350800002B48D02344A342CBF80430CBF810B0AA
:103518001BD8D8F800000BF10401FEF789FD78E705
:103528009BF8243023F001038BF8243071E79BF8D3
:1035380024309A071FD523F001038BF8243068E75D
:10354800A34202D9BCF1000FB3D028680BF10401E3
:10355800FEF76EFD5DE7FFF73BFDFFF757FD3B68A4
:1035680083420446B6D8D8F800303C601A68B2FAEC
:1035780082F2520939E75846FEF7CAFC49E7224663
:103588005846FFF7BFFE9AE7FFF72AFD214658463F
:10359800FFF7E4FE39E74FF0500383F31188BFF3D8
:1035A8006F8FBFF34F8FFEE750820030808200306C
:1035B800848200305482003000B583B0FFF774FE77
:1035C8000C4B1B6853B10C4A0C490D480323CDE939
:1035D800003200238022FFF763FB40B94FF050030D
:1035E80083F31188BFF36F8FBFF34F8FFEE703B0EC
:1035F8005DF804FB8482003088820030243712088A
:10360800AD33120870B50D4D0D4C641BA410002687
:10361800A64209D10B4D0C4C00F02EF8641BA410E7
:103628000026A64205D170BD55F8043B98470136DF
:10363800EEE755F8043B98470136F2E72C371208B5
:103648002C3712082C371208303712080A449142D6
:1036580000F1FF3300D1704710B511F8014B03F8A2
:10366800014F9142F9D110BD02440346934200D163
:10367800704703F8011BF9E7F8B500BFF8BC08BCB0
:103688009E467047F8B500BFF8BC08BC9E46704718
:103698000000000000000000000000000000000022
:1036A800000000000100000002000000030000000C
:1036B80004000000000000000500000000000000F9
:1036C80000000000000000000600000000000000EC
:1036D80000000000000000000700000000000000DB
:1036E800010203040102030406070809626C696EFB
:1036F8006B000000737461636B61000000010203DA
:1037080004050607080C10141820304049444C459D
:1037180000000000546D725100000000546D7220CA
:043728005376630071
:04372C00BD021208C0
:0437300099021208E0
:103734000090D0030090D0030100000010000000AE
:08374400AAAAAAAA04000000D1
:04000005081202D902
:00000001FF
