:020000040812E0
:100000000080043049051208990612089D0612085E
:10001000A1061208A5061208A90612080000000091
:1000200000000000000000000000000001101208A5
:100030009D051208000000004910120891111208D5
:100040009D0512089D0512089D0512089D051208C0
:100050009D0512089D0512089D0512089D051208B0
:100060009D0512089D0512089D0512089D051208A0
:100070009D0512089D0512089D0512089D05120890
:100080009D0512089D0512089D0512089D05120880
:100090009D0512089D0512089D0512089D05120870
:1000A0009D0512089D0512089D0512089D05120860
:1000B0009D0512089D0512089D0512089D05120850
:1000C0009D0512089D0512089D0512089D05120840
:1000D0009D0512089D0512089D0512089D05120830
:1000E0009D0512089D051208000000009D051208DC
:1000F0009D0512089D0512089D0512089D05120810
:100100009D0512089D0512089D0512089D051208FF
:100110009D0512089D0512089D0512089D051208EF
:100120009D0512089D0512089D0512089D051208DF
:100130009D0512089D0512089D0512089D051208CF
:100140009D0512089D051208000000000000000037
:100150009D0512089D0512089D0512089D051208AF
:100160009D0512089D0512089D0512089D0512089F
:100170009D0512089D0512089D051208000000004B
:100180009D0512089D0512089D0512089D0512087F
:100190009D0512089D0512089D0512089D0512086F
:1001A0009D0512089D0512089D0512089D0512085F
:1001B0009D0512089D0512089D0512089D0512084F
:1001C0009D0512089D0512089D0512089D0512083F
:1001D0009D0512089D0512089D0512089D0512082F
:1001E0009D0512089D0512089D0512089D0512081F
:1001F0009D0512089D0512089D0512089D0512080F
:100200009D0512089D0512089D0512089D051208FE
:100210009D0512089D0512089D0512089D051208EE
:100220009D0512089D0512089D051208000000009A
:100230009D0512089D0512089D0512089D051208CE
:100240009D0512089D0512089D0512089D051208BE
:100250009D0512089D0512089D0512089D051208AE
:100260009D0512089D0512089D0512089D0512089E
:100270009D0512089D0512089D0512089D0512088E
:100280009D0512089D0512089D051208000000003A
:080290009D0512089D051208EE
:100298000348044B834202D0034B03B1184770470D
:1002A8001800003018000030000000000548064B18
:1002B8001B1AD90F01EBA301491002D0034B03B15C
:1002C8001847704718000030180000300000000080
:1002D80010B5064C237843B9FFF7DAFF044B13B186
:1002E8000448AFF300800123237010BD18000030CC
:1002F800000000008025120808B5044B1BB1044912
:100308000448AFF30080BDE80840CFE700000000D4
:100318001C0000308025120870B50F4B0F4DAB4202
:10032800A3EB050607D0B610002455F8043B0134AA
:100338009847A642F9D802F01FF9094D094B5E1BF0
:10034800AB424FEAA60606D0002455F8043B013418
:100358009847A642F9D870BDD0251208D0251208B2
:10036800D0251208D4251208830730B547D0541E6B
:10037800002A3ED0CAB2034601E0013C39D303F853
:10038800012B9D07F9D1032C2CD9CDB205EB0525FE
:100398000F2C05EB054535D9A4F1100222F00F0CFE
:1003A80003F1100EE6444FEA121C1A46C2E9005542
:1003B800C2E9025510327245F8D10CF1010214F06D
:1003C8000C0F03EB021204F00F0C13D0ACF1040372
:1003D80023F003030433134442F8045B9342FBD134
:1003E8000CF003042CB1C9B21C4403F8011BA3424E
:1003F800FBD130BD64461346002CF4D1F9E703461F
:100408001446C0E71A46A446E0E700BF844641EA1E
:10041800000313F003036DD1403A41D351F8043B74
:1004280040F8043B51F8043B40F8043B51F8043BC6
:1004380040F8043B51F8043B40F8043B51F8043BB6
:1004480040F8043B51F8043B40F8043B51F8043BA6
:1004580040F8043B51F8043B40F8043B51F8043B96
:1004680040F8043B51F8043B40F8043B51F8043B86
:1004780040F8043B51F8043B40F8043B51F8043B76
:1004880040F8043B51F8043B40F8043B51F8043B66
:1004980040F8043B51F8043B40F8043B403ABDD2D5
:1004A800303211D351F8043B40F8043B51F8043B77
:1004B80040F8043B51F8043B40F8043B51F8043B36
:1004C80040F8043B103AEDD20C3205D351F8043B06
:1004D80040F8043B043AF9D2043208D0D2071CBFD2
:1004E80011F8013B00F8013B01D30B8803806046FB
:1004F800704700BF082A13D38B078DD010F0030371
:100508008AD0C3F10403D21ADB071CBF11F8013BE0
:1005180000F8013B80D331F8023B20F8023B7BE72F
:10052800043AD9D3013A11F8013B00F8013BF9D25A
:100538000B7803704B7843708B78837060467047F4
:10054800DFF838D000F036F800F026F80C480D49EE
:100558000D4A002302E0D458C4500433C4188C4216
:10056800F9D30A4A0A4C002301E013600432A2427C
:10057800FBD3FFF7D1FE00F033F8FEE7008004302C
:100588000000003018000030D8251208180000308C
:10059800F0810030FEE70000054BD3F8882042F4D4
:1005A8007002C3F888201A6942F010021A61704775
:1005B80000ED00E07047000008B5074D074C2846DD
:1005C80000F0DCFA20464FF4806100F09BFA4FF40B
:1005D800C87001F031FCF2E738000030001802580A
:1005E80000B5194919488BB0032240F6FF7380E81B
:1005F8000E0000F091FA00F07BF8154B1548D3F87F
:10060800E02042F04002C3F8E020D3F8E03003F0E5
:100618004003002403934FF4806204A90123CDE929
:100628000423CDE90744039B069400F02BF901232A
:10063800CDE90034084909482346802201F0EAFA46
:1006480001F02EFC72B6FEE7004C0058380000306E
:100658000044025800180258A8251208C1051208BB
:1006680072B6FEE772B6FEE700F092B8074BD3F811
:10067800F42042F00202C3F8F420D3F8F43082B038
:1006880003F002030193019B02B070470044025833
:10069800704700BFFEE700BFFEE700BFFEE700BFF0
:1006A800FEE700BF38B50F4B1B780BB9012038BDEA
:1006B8000D494FF47A720546B2FBF3F30868B0FBB4
:1006C800F3F000F0C5F804460028EFD10F2DEDD85F
:1006D800024629464FF0FF3000F07EF8034B2046D3
:1006E8001D6038BD08000030040000300C000030E8
:1006F80010B5224C224AD4F8D83043F48043C4F8C9
:10070800D830D4F8D83082B003F480430193019BE9
:10071800D2F800346FF3132343F40143C2F80034D2
:10072800D2F8003443F00103C2F80034032000F08B
:1007380041F800F09BFAA369A2691249124CC3F36D
:10074800032302F00F02CB5C8A5C104903F01F03FD
:1007580020FA03F302F01F02D3400F2023600B603E
:10076800FFF7A0FF18B10124204602B010BD0446CF
:10077800FFF77CFF204602B010BD00BF00440258BE
:1007880000400240982512080000003004000030A4
:10079800034A044B11681B780B441360704700BF71
:1007A8004800003008000030014B1868704700BF4F
:1007B800480000300749CA6803024FF6FF0003F4F7
:1007C800E0630240134343F0BF6343F40033CB605C
:1007D800704700BF00ED00E01B4BDB68C3F302234A
:1007E80000B5C3F1070EBEF1040F03F1040C28BFD6
:1007F8004FF0040EBCF1060F1CD9A3F1030C4FF007
:10080800FF3303FA0CF322EA03024FF0FF3303FA33
:100818000EF321EA030303FA0CF313431B01002828
:10082800DBB20ADB00F1604000F5614080F800337C
:100838005DF804FB00229446E7E7044A00F00F0045
:10084800024413765DF804FB00ED00E0FCEC00E0E8
:100858000138B0F1807F01D30120704710B44FF008
:10086800E023074C58614FF0F00C84F823C00022B5
:10087800072110469A615DF8044B1961704700BF63
:1008880000ED00E02DE9F04F0C6885B0002C00F079
:10089800B08000234FF0B0478946012202FA03F5E1
:1008A80015EA040800F0A080D9F8041001F0030E3E
:1008B800032603FA02F20EF1FF3A06FA02FCBAF135
:1008C800010FD9F808606FEA0C0C40F29580BEF170
:1008D800030F01D1012E05D0C568964005EA0C0525
:1008E8002E43C66005680EFA02F205EA0C052A4393
:1008F80011F4403F026077D0784DD5F8F42042F0EB
:100908000202C5F8F420D5F8F42002F0020203929E
:10091800039A23F0030202F1B04203F00306D2F86F
:100928000854B6004FF00F0C0CFA06FC25EA0C0E22
:100938006B4DA84202F5806232D005F58065A84269
:1009480000F09B80674DA84200F09E80DFF898C1B8
:10095800604500F08B80DFF894C1604500F0A2800C
:10096800DFF88CC1604500F0A480DFF888C16045DD
:1009780000F09180DFF880C1604500F0A180DFF8C9
:100988007CC1604500F0A380DFF874C160450CBFEE
:100998004FF0090C4FF00A0C0CFA06F64EEA060E58
:1009A800C2F808E03A686FEA0805CE0254BF2A4048
:1009B80048EA02023A607A688E0254BF2A4048EA3E
:1009C80002027A60D7F8C4208E0354BF2A4048EA4E
:1009D8000202C7F8C420D7F8C020C90354BF2A4070
:1009E80048EA0202C7F8C020013334FA03F27FF460
:1009F80054AF05B0BDE8F08F9640D0F808B0019626
:100A0800D9F80C600BEA0C0B06FA02FA4AEA0B0A50
:100A1800C0F808A0D0F804A0019E2AEA050AC1F38C
:100A280000159D4045EA0A054560C56805EA0C05BC
:100A38002E43BEF1020FC6607FF454AFD9F81050B0
:100A48004FEAD30A03F0070600EB8A0AB600B5405E
:100A5800DAF820B001950F2505FA06F6019D2BEA74
:100A6800060B45EA0B05CAF820503BE74FF0030C8C
:100A78000CFA06F64EEA060E92E74FF0010C0CFA55
:100A880006F64EEA060E8BE74FF0020C0CFA06F655
:100A98004EEA060E84E74FF0060C0CFA06F64EEA0C
:100AA800060E7DE74FF0040C0CFA06F64EEA060E29
:100AB80076E74FF0050C0CFA06F64EEA060E6FE7DD
:100AC8004FF0070C0CFA06F64EEA060E68E74FF0F0
:100AD800080C0CFA06F64EEA060E61E700440258C6
:100AE8000000025800080258000C02580010025872
:100AF8000014025800180258001C0258002002581E
:100B080000240258436901EA030221EA030141EA89
:100B180002418161704700BF40B3D0E9003170B530
:100B2800826804464CF6CC40186045F2555018606F
:100B380059609A60FFF738FE2368DA68054650075F
:100B48000DD041F60106FFF72FFE401BB042236887
:100B580002D9DA6851070BD1DA685207F3D119695B
:100B6800E268914206D01A61002070BD01207047EA
:100B7800032070BD4AF6AA221A60F5E703684AF610
:100B8800AA2200201A607047334B30B4996A9C6AD5
:100B9800DD6A5A6B14F47C7FC4F3051036D0C2F3B7
:100BA800CC0205F0010505FB02F207EE900A06EEFD
:100BB800902A01F003010129B8EEE77AFAEEE96A12
:100BC80002D0022942D019B3DFED247A1B6B87EEDD
:100BD800876AC3F3080307EE903AF8EEE77AB7EEB0
:100BE800007A77EEA67A77EE877A67EE867A1A4BDE
:100BF8001B6BC3F34623013307EE103AF8EEC76ABE
:100C080087EEA67AFCEEC77A17EE900A30BC7047DA
:100C18001A6892061DD51968114A1B6BC1F3C101E8
:100C2800CA4007EE902AB8EEE76AC3F30803C6EE97
:100C3800077A07EE103AB8EEC77AB7EE006A37EED1
:100C4800267A37EE067A67EE877AD0E7DFED057AFF
:100C5800BCE7DFED057AB9E7004402580024744A7E
:100C68000090D00320BCBE4B0024744C0C4A13697E
:100C780003F03803102B0DD0182B09D063B9136873
:100C88009B060BD513680748C3F3C103D8407047C8
:100C9800FFF77ABF04487047044870470148704717
:100CA800004402580090D00340787D0100093D00BF
:100CB800F8B5431E0A332CD810F0070300F10804D6
:100CC80033D1624D01F03EF92A682346002A4CD000
:100CD800002C23DB5E4F3E68A6421FD35D485E4969
:100CE80003688B4237D3DFF880E1734533D88446F5
:100CF8005868A04253D21A68002A50D08A4225D296
:100D08004FF0500383F31188BFF36F8FBFF34F8FFA
:100D1800FEE74E4D01F016F92B682BB301F01AF9D6
:100D2800FFF7A0FC00252846F8BDA3F10902A2425E
:100D3800EFD3464D1030C41A01F004F92A6823464F
:100D48009AB1002BEADB002CC4D1E7E77245D7D86B
:100D58009C461346CCE74FF0500383F31188BFF34A
:100D68006F8FBFF34F8FFEE71C463B493B4A3C4819
:100D7800384F4E0718BF073122F0070218BF21F07D
:100D880007010E46511A016031483E60016000209B
:100D980078602A60C2E90000C6E90021D1E72A6824
:100DA8009A42BBD0DCF8002002F108058D420FD32F
:100DB80075450DD81968CCF80010A04211D24FF033
:100DC800500383F31188BFF36F8FBFF34F8FFEE794
:100DD8004FF0500383F31188BFF36F8FBFF34F8F2A
:100DE800FEE7A0EB040EBEF1100F11D91A19500737
:100DF80008D04FF0500383F31188BFF36F8FBFF310
:100E08004F8FFEE7C2F804E020461951CCF80020C5
:100E180013490C68361AA64238BF0E6011493E6065
:100E28000A6840F0004000241C60013258600A60E3
:100E380001F090F86B073FF476AF4FF0500383F35F
:100E48001188BFF36F8FBFF34F8FFEE75C00003050
:100E580058000030600000306800003060800030CA
:100E6800540000305000003067800030F8B1F0B511
:100E78003D4DA0F10804AC4283B00FD33B4EB442C1
:100E88000CD850F8043C002B12DB4FF0500383F3CE
:100E98001188BFF36F8FBFF34F8FFEE74FF05003FA
:100EA80083F31188BFF36F8FBFF34F8FFEE770474F
:100EB80050F8082C42B14FF0500383F31188BFF368
:100EC8006F8FBFF34F8FFEE723F0004340F8043CD9
:100ED800019001F037F8264A0198136850F8041C6D
:100EE800244F0B4413603B461A461B689C42FBD8B0
:100EF800BA4203D0AA4216D3B24214D8556856193A
:100F0800B44223D06518AB4216D040F8083CA24240
:100F180018BF1460184A13680133136003B0BDE8A2
:100F2800F04001F017B84FF0500383F31188BFF376
:100F38006F8FBFF34F8FFEE7104D2D68AB42E4D0A3
:100F4800D3E900500144C4E90051E0E729445018AE
:100F580083425160DED109480068834201D01446BB
:100F6800EEE71360D6E700BF680000306780003006
:100F780058000030600000304C0000305C00003049
:100F880000F108034FF0FF310022C0E90131C0E948
:100F980003330260704700BF00230361704700BF3E
:100FA80030B40D686B1C10D000F108031C465B6858
:100FB8001A68AA42FAD902684B60013299608C60BB
:100FC8006160086130BC0260704704696368F2E7D9
:100FD800026910B4D0E9011354688B6084425960E7
:100FE80008BF536013685DF8044B013B00210161A1
:100FF80018461360704700BF064B19680868B0E8C8
:10100800F04F80F30988BFF36F8F4FF0000080F333
:1010180011887047B080003008480068006880F385
:1010280008884FF0000080F3148862B661B6BFF3F9
:101038004F8FBFF36F8F00DF00BF000008ED00E0A7
:10104800EFF30980BFF36F8F144B1A681EF0100F6F
:1010580008BF20ED108A20E9F04F10602DE9090043
:101068004FF0500080F31188BFF34F8FBFF36F8F9D
:1010780000F0A0FF4FF0000080F3118809BC196848
:101088000868B0E8F04F1EF0100F08BFB0EC108AE7
:1010980080F30988BFF36F8F70470000B08000307D
:1010A800DFF80C00016841F470010160704700002E
:1010B80088ED00E00E4B1B6882B0002201330192DC
:1010C80008D04FF0500383F31188BFF36F8FBFF33D
:1010D8004F8FFEE74FF0500383F31188BFF36F8FF4
:1010E800BFF34F8F019B002BFCD002B0704700BFAD
:1010F8001000003010B44FF08073074C40F8043CE7
:1011080021F001016FF0020340E9034140E909328F
:101118005DF8044B44387047BD1012084FF0500377
:1011280083F31188BFF36F8FBFF34F8F0B4A136898
:101138000133012B136000D070474FF0E023D3F840
:10114800043DDBB2002BF7D04FF0500383F3118836
:10115800BFF36F8FBFF34F8FFEE700BF1000003063
:10116800084A136843B94FF0500383F31188BFF35B
:101178006F8FBFF34F8FFEE7013B13600BB983F30B
:10118800118870471000003008B54FF0500383F302
:101198001188BFF36F8FBFF34F8F00F0F7FE28B1B0
:1011A8004FF0E0234FF08052C3F8042D002383F35F
:1011B800118808BD4FF0E02300224FF6FF100721E9
:1011C8001A619A6158611961704700BF4FF0E023B6
:1011D800554AD3F8001D91421CD0D3F8001D534A3C
:1011E80091420ED0D3F8083D514AD96A91421AD09B
:1011F8004FF0500383F31188BFF36F8FBFF34F8F06
:10120800FEE74FF0500383F31188BFF36F8FBFF3EE
:101218004F8FFEE74FF0500383F31188BFF36F8FB2
:10122800BFF34F8FFEE7434A9B6B934208D04FF0C2
:10123800500383F31188BFF36F8FBFF34F8FFEE71F
:1012480030B583B03C4B002201921A78FF21D2B20C
:101258008DF8022019701B78384ADBB28DF80330FC
:101268009DF8033003F05003137043B94FF0500357
:1012780083F31188BFF36F8FBFF34F8FFEE79DF89D
:101288000330DB4313F0500F11D04FF0500383F3BA
:101298001188BFF36F8FBFF34F8FFEE7019B0133B8
:1012A80001939DF803305B00DBB28DF803309DF8A5
:1012B80003301B06F2D4019B082B32D0019BC3F1EB
:1012C80007031B0203F4E0639DF802201C481A4937
:1012D80003604FF0E024D2B20A70D4F8203D43F402
:1012E8007F03C4F8203DD4F8203D002543F07F4318
:1012F800C4F8203DC4F81C5DFFF75CFF114B1D606E
:10130800FFF7CEFED4F8343F43F04043C4F8343FEF
:10131800FFF782FE00F04EFEFFF7CCFE284603B032
:1013280030BD0023D0E700BF71C20F4170C20F412A
:10133800011012084910120800E400E06C80003027
:10134800688000301000003070B50546FFF7E6FEF3
:1013580095F845305CB2002C14DD05F1240603E055
:10136800631EDAB25CB26AB16B6A304653B100F000
:1013780079FE0028F4D000F03BFF631EDAB25CB2BD
:10138800002AF1D1FF2385F84530FFF7E9FEFFF782
:10139800C5FE95F844305CB2002C14DD05F110064A
:1013A80003E0631EDAB25CB26AB12B69304653B10E
:1013B80000F058FE0028F4D000F01AFF631EDAB2DD
:1013C8005CB2002AF1D1FF2385F84430BDE87040B3
:1013D800FFF7C6BE58B3C36B70B50446F3B1056CCE
:1013E800A5FB0335D5B90E46FFF798FED4E90F23C0
:1013F8002168A56303FB02F2D31A0A44A2600B44D6
:10140800FF2284F844206160E36084F8452046BBED
:101418002369ABB9FFF7A4FE012070BD4FF050035C
:1014280083F31188BFF36F8FBFF34F8FFEE74FF041
:10143800500383F31188BFF36F8FBFF34F8FFEE71D
:1014480004F1100000F00EFE0028E3D04FF0E02376
:101458004FF08052C3F8042DBFF34F8FBFF36F8F47
:10146800D8E704F11000FFF78BFD04F12400FFF723
:1014780087FDCFE730B583B040B1A0FB0123044618
:1014880023B901FB00F010F1490F08D94FF05003C0
:1014980083F31188BFF36F8FBFF34F8FFEE7483098
:1014A8000191FFF705FC054650B1019959B100F1CA
:1014B8004803C5E90F412B6001212846FFF78AFF41
:1014C800284603B030BD0346F3E700BF2DE9F043DB
:1014D80085B00192002800F0A0800D46044600293E
:1014E80047D000F08BFE00284FD0FFF717FEA66B01
:1014F800002E67D1019B002B35D002A800F026FEF4
:10150800374604F124084FF0E029FFF729FE00F0E0
:1015180019FDFFF703FE94F84430FF2B08BF84F849
:10152800447094F84530FF2B08BF84F84570FFF7E6
:1015380017FE01A902A800F015FE002831D1FFF717
:10154800EDFDA36B002B52D0FFF70AFE2046FFF7F4
:10155800FBFE00F0FFFCFFF7E1FDA66B002E31D18A
:10156800019B002BD1D1FFF7FBFD002005B0BDE8A2
:10157800F083036C002BB4D04FF0500383F3118831
:10158800BFF36F8FBFF34F8FFEE7019B002BACD0EB
:101598004FF0500383F31188BFF36F8FBFF34F8F62
:1015A800FEE72046FFF7D0FE00F0D4FCFFF7B6FDBB
:1015B800A36B002BD7D0FFF7D3FDFFF7AFFDA66BCA
:1015C800002ECDD0226C52B1E168A3681144994233
:1015D800E16024BF2168E1602846FEF717FF236910
:1015E800013EA66313BBFFF7BBFD0120BEE7FFF773
:1015F800B7FD0199404600F0EBFC2046FFF7A4FE3A
:1016080000F0A8FC0028D8D14FF08053C9F8043D59
:10161800BFF34F8FBFF36F8FCFE74FF0500383F3C4
:101628001188BFF36F8FBFF34F8FFEE704F11000EF
:1016380000F018FD0028D6D04FF0E0234FF080527C
:10164800C3F8042DBFF34F8FBFF36F8FCBE700BFF5
:1016580020B311B330B40025164C2B4604EBC3025B
:101668004FEAC30C5268824214D035B10133082BBB
:10167800F4D1C5E9001030BC704754F83320B2B13A
:101688000133082B04EBC3024FEAC30CF3D05268B2
:101698009042F2D104EB0C05EBE770474FF0500392
:1016A80083F31188BFF36F8FBFF34F8FFEE704EB0F
:1016B8000C05DBE77080003070B504460E46154611
:1016C800FFF72CFD94F84430FF2B04BF002384F867
:1016D800443094F84530FF2B04BF002384F845308C
:1016E800FFF73EFDA36B23B12046BDE87040FFF72E
:1016F8002BBE04F124002A46314600F083FC204624
:10170800BDE87040FFF720BE2DE9F843244A254C78
:10171800254B264E2468D2F80080D3F80090054661
:10172800306804300F46FFF753FC48B93368204946
:10173800DA6A012303FA02F20B6823EA02030B6058
:101748006B1C15D03368316864195C600AD2404656
:101758000431FFF725FC174B1A68A24288BF1C60AA
:10176800BDE8F88348460431BDE8F843FFF718BCE4
:10177800002FE7D0104B30685A6831688260906853
:10178800C86031689068043141603068196834680D
:1017980004300131906019606361BDE8F88300BFCF
:1017A800B4800030AC810030B8800030B0800030A8
:1017B800308100306081003084810030234B10B5C7
:1017C8000022234C1A6021682268236812681B6B68
:1017D8009A4204D90B6B1A68B2F1A53F29D0216847
:1017E80020683431FEF73CFF1A4B1B68B3FA83F3C9
:1017F800DBB2C3F11F0303EB8303174A990002EB23
:101808008303505840B94FF0500383F31188BFF356
:101818006F8FBFF34F8FFEE75868083140685860F4
:101828000A44904204BFD8685860C368236023689C
:1018380010BD5A68B2F1A53FD1D19A68B2F1A53F5F
:10184800CDD1DB68B3F1A53FC9D1CDE7B081003078
:10185800B080003030810030BC800030F8B50F4DCA
:101868002B68CBB10E4F0F4EFFF758FCFB68DC68B6
:10187800201DFFF7ADFB3368013B33602B68013B4C
:101888002B60FFF76DFC206BFFF7F0FA2046FFF79F
:10189800EDFA2B68002BE7D1F8BD00BF248100309A
:1018A800988100302081003008B50B4C4FF0E026BD
:1018B8004FF08055FFF7D2FF2368012BFAD9C6F8FD
:1018C800045DBFF34F8FBFF36F8FFFF7C7FF236828
:1018D800012BF4D8EEE700BFBC8000302DE9F04FB3
:1018E800604B1D68013583B01D60002D00F08580B8
:1018F8005D4B0193019B1B689D4264D3DFF878C15F
:10190800DCF800301C68002C00F0A7800024574841
:10191800DFF870B1DFF870E1AA46A04644E0D3E9E9
:101928000227596997607A604A68AA420A6808BF1C
:101938004F600026013A5E610A60996A69B1D3E98D
:101948000772BA601A6A57604F68A74208BF4A60B0
:1019580000229A620A68013A0A60DA6ADEF80090A0
:1019680002EB8207012100EB8704914041EA09015B
:10197800CEF80010616899608E68DE6050F82760C4
:1019880006F101098E6875608D60DBF800105C61F6
:1019980040F82790DCF80030C96A1B688A4288BF83
:1019A8004FF00108002B4BD0DCF80030DB68DB6817
:1019B8005A68924503F1040503F11804AFD2019B5C
:1019C80044461A6003E02948DFF8B8B00024DBF881
:1019D8000030274ADB6A126803EB830350F8233090
:1019E800022B28BF0124AAB1224B1B68002B0CBF75
:1019F8002046012003B0BDE8F08F1F4B1A6812681B
:101A08005AB14FF0500383F31188BFF36F8FBFF3C0
:101A18004F8FFEE7FEF728FEE6E7184A18681168B8
:101A28001960174910600A6801320A601A6812685A
:101A380062B90D4B01931A464FF0FF33136059E713
:101A48004446019A4FF0FF331360C0E71B68064A0B
:101A5800DB6801921B6813604CE70448DFF824B088
:101A6800EFE700BFAC81003060810030BC800030FF
:101A780068810030B0810030B4800030B880003018
:101A880064810030B0800030308100302DE9F04FA3
:101A9800564F3B68013B3B60D7F8008083B0B8F1F4
:101AA800000F40F09280524B1B68002B00F08D8095
:101AB800DFF858C1DCF80030002B00F093804D4B64
:101AC800DFF84CE14C4D01934FF0010BC246DCF8B6
:101AD8000C30DB68D3E907019A6A81604860506876
:101AE80003F11804A04208BF51601168C3F828A088
:101AF80001391160D3E90221586991604A6042684E
:101B0800DEF800401E1DB24208BF41600168DA6A73
:101B18000139016002EB820005EB80080BFA02F143
:101B28000C43D8F80410CEF800408C68DC60334CC5
:101B380099602468D4F82C9055F82040013400941A
:101B48008C684A4566608E60C3F81480009B45F82F
:101B5800203084BF019BC3F800B0DCF80030002BB4
:101B6800B5D1274B1A681268002A36D01A68254B57
:101B7800D26812681A60244D2C68ACB1DDF8048074
:101B8800012606E0FFF7AAFE08B1C8F80060013C8C
:101B980009D03B68002BF5D02B6801332B60FEF78A
:101BA80063FD013CF5D12C60019B1B686BB14FF0C4
:101BB800E02312494FF080520968C3F8042DBFF39F
:101BC8004F8FBFF36F8F012000E000200090FFF7D8
:101BD800C7FA009803B0BDE8F08F0A4B4FF0FF3208
:101BE8001A60C8E7034B0193C5E700BF288100309E
:101BF80020810030B0810030BC800030B0800030DF
:101C0800B480003060810030688100306C81003021
:101C1800308100302DE9F0474FEA820907464846EF
:101C280016460D469846FFF743F868B38246542097
:101C3800FFF73EF8044658B354220021FEF794FB00
:101C48004A46C4F830A05046A521FEF78DFB226B0A
:101C580075B105F1FF3C04F133030F351CF8011F82
:101C680003F8011F09B1AC45F8D1002384F84330CB
:101C7800089B042B13D94FF0500383F31188BFF34B
:101C88006F8FBFF34F8FFEE74FF0FF30BDE8F0874F
:101C98005046FFF7EBF84FF0FF30BDE8F087089BA0
:101CA800E362251D63642846A9F104099144FFF7FE
:101CB80073F904F11800FFF76FF9089B246129F004
:101CC8000709C3F105034846646242463946A361E1
:101CD800FFF710FAA9EB0009B6EBA90F206008D8A6
:101CE8004FF0500383F31188BFF36F8FBFF34F8F0B
:101CF800FEE7099B03B11C60FFF710FA414A424E08
:101D08001368013313603368002B4CD03F4F3B6896
:101D1800002B3FD0E36ADFF81081DFF810E1DFF82D
:101D280010C103EB830208EB82099200D9F8041072
:101D3800A1608868E060886845608D60DEF8001002
:101D4800DCF80000C4F814900131CEF8001058F8FF
:101D580002100125013105FA03F3034348F8021084
:101D6800CCF80030FFF7FCF93B6883B13268E36ACE
:101D7800D26A9A420BD24FF0E0234FF08052C3F858
:101D8800042DBFF34F8FBFF36F8F28467EE7284699
:101D9800BDE8F0873368DFF89080DA6AE36A9A4230
:101DA80098BF3460B9E734601368012B04D0E36A44
:101DB800DFF87480154FB0E7DFF86C80474608F10C
:101DC800640938461437FFF7DBF8B945F9D1DFF86D
:101DD80064900F4F4846FFF7D3F83846FFF7D0F81E
:101DE8000C48FFF7CDF80C48FFF7CAF80B48FFF787
:101DF800C7F80B4BC3F800900A4B1F60E36A034F08
:101E08008BE700BF20810030B08000308081003037
:101E1800488100306C810030988100308481003026
:101E2800B4800030B8800030BC8000302C81003095
:101E3800308100303481003010B550B94FF0E023C4
:101E48004FF08052C3F8042DBFF34F8FBFF36F8F4D
:101E580010BD124C2368013323602368012B08D07E
:101E68004FF0500383F31188BFF36F8FBFF34F8F89
:101E7800FEE70021FFF748FCFFF750F9236843B954
:101E88004FF0500383F31188BFF36F8FBFF34F8F69
:101E9800FEE7FFF7FBFD0028D0D010BD28810030F9
:101EA80030B587B0002349211F4ACDE90233CDE977
:101EB80004338DF808100DF1090312F8014F03F8E7
:101EC800014B002CF9D1194B1948CDE90043802268
:101ED800234602A9FFF79EFE012819D100F026FB30
:101EE800012815D14FF0500383F31188BFF36F8F8A
:101EF800BFF34F8F0F49104A104B4FF0FF350D605D
:101F080010601C60FFF762F90D4B1B6807B030BD0D
:101F18000130F9D14FF0500383F31188BFF36F8F6D
:101F2800BFF34F8FFEE700BFB02512085C81003079
:101F3800B11812086081003080810030AC81003017
:101F480014000030024A136801331360704700BF61
:101F58002881003008B5FFF7E1F8084B1B6843B942
:101F68004FF0500383F31188BFF36F8FBFF34F8F88
:101F7800FEE7BDE80840FFF789BD00BF28810030B3
:101F8800014B1868704700BFAC81003008B5074B9B
:101F98001B681BB9BDE80840FFF7A0BC044A1368DA
:101FA80001331360FEF760FB002008BD2881003074
:101FB80068810030044B1B681BB1044B01221A6076
:101FC8007047FFF7FBBB00BF28810030B0810030AD
:101FD80060B110B50A4B0C4619681831FEF7E0FFDE
:101FE80020460121BDE81040FFF78EBB4FF050039B
:101FF80083F31188BFF36F8FBFF34F8FFEE700BFE6
:10200800B080003018B3F0B4154C45688C46002AEF
:1020180011462268AE68D5612268034616622668B2
:102028002268276802F118041A6808BF604602F19E
:10203800010CAA6806F11806566018BF4FF0FF3069
:10204800AC60BB62F0BCC3F800C0FFF75DBB4FF0EB
:10205800500383F31188BFF36F8FBFF34F8FFEE7F1
:10206800B0800030C368DB68002B59D0D3E9070182
:102078009A6A2DE9F04181604860506803F11804BC
:10208800A0422C4808BF516011680068002501393A
:102098009D621160B8B128494A68DA61906818628F
:1020A80090684460086894600130DA6A9962086050
:1020B800224B1B68DB6A93423DBF214B012018600D
:1020C8000020BDE8F0819A68D86859699060D8689E
:1020D8001C4D42604A68DFF870E01F1DBA4208BF15
:1020E80048600868DA6ADEF800800138086002EBA8
:1020F800820105EB810C8900DCF804409C60A06833
:10210800D8606858461C0120904040EA0800CEF884
:102118000000A0684760A760C3F814C06E50C7E706
:102128004FF0500383F31188BFF36F8FBFF34F8FC6
:10213800FEE700BF288100306C810030B08000309D
:10214800B0810030BC80003030810030034A044B3D
:1021580012681B68C0E90023704700BF6481003023
:10216800AC81003038B3F0B50D4683B0D1B1044628
:10217800FEF7D4FF2B681C4A581C116832D0DFF8D0
:102188006CC0D4E90060DCF80070BE421CD0884204
:102198001AD800232B6001200190FEF7E1FF019877
:1021A80003B0F0BD4FF0500383F31188BFF36F8F76
:1021B800BFF34F8FFEE74FF0500383F31188BFF34F
:1021C8006F8FBFF34F8FFEE7A1EB000E7345E0D989
:1021D8005B1ADCF80010126803442B600020C4E985
:1021E8000012D9E70020D7E7AC81003064810030C5
:1021F800014B01221A607047B0810030054B1B6803
:1022080033B1054B1B68002B0CBF02200020704720
:10221800012070478081003028810030F8B5104CCB
:10222800FEF77CFF25681DB1BDE8F840FEF798BFB2
:102238000C4F0D4E3846FEF7A3FE3046FEF7A0FEC3
:102248000A4B1F600A4B2A460C210A201E60FFF722
:1022580011F920600028E7D00649FFF7F9F9E3E70C
:10226800E8810030BC810030D0810030B48100307A
:10227800B8810030B825120870B50446164605E046
:10228800934219D8236A204698472946A3692461AE
:102298005D182CBF01200020B542A6EB0102656045
:1022A800EED9B14201D90028ECD0074B211D18689E
:1022B800BDE87040FEF774BE044B211D1868BDE8E8
:1022C8007040FEF76DBE00BFB4810030B8810030A9
:1022D800104B1B68DB6870B5DC680546201D0E4690
:1022E800FEF776FE94F824305A0708D423F0010349
:1022F80084F824302046236ABDE8704018472046F9
:1023080032462946FFF7B8FF236A2046BDE87040E9
:10231800184700BFB48100302DE9F04F7F4D804F42
:10232800DFF804827F4E85B04FF0E02A4FF00009B5
:102338002B68D3F800B0BBF1000F00F0C680DB6853
:10234800D3F800B0FFF7FEFDFFF71AFE3B6898428E
:10235800044679D35845386080F0D0800022306830
:10236800ABEB0401FFF7A8F9FFF7F4FD38B94FF01C
:102378008053CAF8043DBFF34F8FBFF36F8FCDE989
:102388000199CDF80C903068002201A9FFF79EF85A
:102398000028CDD0019B002BF5DBDDF80CB0BBF19C
:1023A800000FF0D0DBF814301BB10BF10400FEF77E
:1023B8000FFEFFF7E5FD3B689842044611D3019BE9
:1023C8003C60013B082BDED8DFE803F01515644BB1
:1023D8006B1515644B00DB684FF0FF311868FFF789
:1023E80077FF2B681A68002AF5D1D8F800202A60F0
:1023F800C8F80030E3E79BF82420029BDBF81800BC
:10240800CBF810B042F001018BF8241019182CBF3A
:102418004FF0010C4FF0000CA142CBF8041049D842
:10242800E31A98422FD8500763D422F001028BF8A0
:102438002420DBF8203058469847A4E7DB684FF0A3
:10244800FF311868FFF744FF2B681A68002AF5D196
:10245800D8F800202A60C8F800303C60FFF77AFD01
:102468008DE79BF82420029BCBF8183042F001023C
:102478008BF82420002B48D02344A342CBF8043007
:10248800CBF810B01BD8D8F800000BF10401FEF708
:1024980087FD78E79BF8243023F001038BF824307C
:1024A80071E79BF824309A071FD523F001038BF8B6
:1024B800243068E7A34202D9BCF1000FB3D02868E2
:1024C8000BF10401FEF76CFD5DE7FFF73BFDFFF73D
:1024D80057FD3B6883420446B6D8D8F800303C60C4
:1024E8001A68B2FA82F2520939E75846FEF7BEFC7A
:1024F80049E722465846FFF7BFFE9AE7FFF72AFD4D
:1025080021465846FFF7E4FE39E74FF0500383F3BE
:102518001188BFF36F8FBFF34F8FFEE7B481003090
:10252800E4810030E8810030B881003000B583B024
:10253800FFF774FE0C4B1B6853B10C4A0C490D484D
:102548000323CDE9003200238022FFF763FB40B963
:102558004FF0500383F31188BFF36F8FBFF34F8F92
:10256800FEE703B05DF804FBE8810030EC81003041
:10257800C025120821231208F8B500BFF8BC08BC12
:102588009E467047F8B500BFF8BC08BC9E46704729
:102598000000000001020304010203040607080901
:1025A800626C696E6B00000049444C4500000000F5
:1025B800546D725100000000546D72205376630010
:0825C8004CDEFF7F0100000062
:0425D00001031208E9
:0425D400D90212080E
:1025D8000090D0030090D00301000000100000001C
:0825E800AAAAAAAA040000003F
:04000005081205498F
:00000001FF
