:020000040804EE
:10000000000008244905040881070408850704083E
:10001000890704088D070408910704080000000000
:10002000000000000000000000000000D9100408DB
:100030009D0504080000000021110408891204082D
:100040009D0504089D0504089D0504089D050408F8
:100050009D0504089D0504089D0504089D050408E8
:100060009D0504089D0504089D0504089D050408D8
:100070009D0504089D0504089D0504089D050408C8
:100080009D0504089D0504089D0504089D050408B8
:100090009D0504089D0504089D0504089D050408A8
:1000A0009D0504089D0504089D0504089D05040898
:1000B0009D0504089D0504089D0504089D05040888
:1000C0009D0504089D0504089D0504089D05040878
:1000D0009D0504089D0504089D0504089D05040868
:1000E0009D0504089D050408000000009D05040806
:1000F0009D0504089D0504089D0504089D05040848
:100100009D0504089D0504089D0504089D05040837
:100110009D0504089D0504089D0504089D05040827
:100120009D0504089D0504089D0504089D05040817
:100130009D0504089D0504089D0504089D05040807
:100140009D0504089D050408000000000000000053
:100150009D0504089D0504089D0504089D050408E7
:100160009D0504089D0504089D0504089D050408D7
:100170009D0504089D0504089D0504080000000075
:100180009D0504089D0504089D0504089D050408B7
:100190009D0504089D0504089D0504089D050408A7
:1001A0009D0504089D0504089D0504089D05040897
:1001B0009D0504089D0504089D0504089D05040887
:1001C0009D0504089D0504089D0504089D05040877
:1001D0009D0504089D0504089D0504089D05040867
:1001E0009D0504089D0504089D0504089D05040857
:1001F0009D0504089D0504089D0504089D05040847
:100200009D0504089D0504089D0504089D05040836
:100210009D0504089D0504089D0504089D05040826
:100220009D0504089D0504089D05040800000000C4
:100230009D0504089D0504089D0504089D05040806
:100240009D0504089D0504089D0504089D050408F6
:100250009D0504089D0504089D0504089D050408E6
:100260009D0504089D0504089D0504089D050408D6
:100270009D0504089D0504089D0504089D050408C6
:100280009D0504089D0504089D0504080000000064
:080290009D0504089D0504080A
:100298000348044B834202D0034B03B1184770470D
:1002A8001800002418000024000000000548064B30
:1002B8001B1AD90F01EBA301491002D0034B03B15C
:1002C8001847704718000024180000240000000098
:1002D80010B5064C237843B9FFF7DAFF044B13B186
:1002E8000448AFF300800123237010BD18000024D8
:1002F80000000000E426040808B5044B1BB10449BB
:100308000448AFF30080BDE80840CFE700000000D4
:100318001C000024E426040870B50F4B0F4DAB42B7
:10032800A3EB050607D0B610002455F8043B0134AA
:100338009847A642F9D802F0D1F9094D094B5E1B3E
:10034800AB424FEAA60606D0002455F8043B013418
:100358009847A642F9D870BD342704083427040802
:100368003427040838270408830730B547D0541EBB
:10037800002A3ED0CAB2034601E0013C39D303F853
:10038800012B9D07F9D1032C2CD9CDB205EB0525FE
:100398000F2C05EB054535D9A4F1100222F00F0CFE
:1003A80003F1100EE6444FEA121C1A46C2E9005542
:1003B800C2E9025510327245F8D10CF1010214F06D
:1003C8000C0F03EB021204F00F0C13D0ACF1040372
:1003D80023F003030433134442F8045B9342FBD134
:1003E8000CF003042CB1C9B21C4403F8011BA3424E
:1003F800FBD130BD64461346002CF4D1F9E703461F
:100408001446C0E71A46A446E0E700BF844641EA1E
:10041800000313F003036DD1403A41D351F8043B74
:1004280040F8043B51F8043B40F8043B51F8043BC6
:1004380040F8043B51F8043B40F8043B51F8043BB6
:1004480040F8043B51F8043B40F8043B51F8043BA6
:1004580040F8043B51F8043B40F8043B51F8043B96
:1004680040F8043B51F8043B40F8043B51F8043B86
:1004780040F8043B51F8043B40F8043B51F8043B76
:1004880040F8043B51F8043B40F8043B51F8043B66
:1004980040F8043B51F8043B40F8043B403ABDD2D5
:1004A800303211D351F8043B40F8043B51F8043B77
:1004B80040F8043B51F8043B40F8043B51F8043B36
:1004C80040F8043B103AEDD20C3205D351F8043B06
:1004D80040F8043B043AF9D2043208D0D2071CBFD2
:1004E80011F8013B00F8013B01D30B8803806046FB
:1004F800704700BF082A13D38B078DD010F0030371
:100508008AD0C3F10403D21ADB071CBF11F8013BE0
:1005180000F8013B80D331F8023B20F8023B7BE72F
:10052800043AD9D3013A11F8013B00F8013BF9D25A
:100538000B7803704B7843708B78837060467047F4
:10054800DFF838D000F0AAF800F026F80C480D497A
:100558000D4A002302E0D458C4500433C4188C4216
:10056800F9D30A4A0A4C002301E013600432A2427C
:10057800FBD3FFF7D1FE00F0A7F8FEE70000082440
:1005880000000024180000243C2704081800002458
:10059800F0010124FEE70000364B3749D3F88820E4
:1005A80042F4700210B4C3F888201A6942F01002AD
:1005B8001A610B6803F00F03062B05D80B6823F0AC
:1005C8000F0343F007030B602C4B00242C4A1968D7
:1005D800294841F0010119601C6119680A401A6034
:1005E8000368190705D5036823F00F0343F00703D1
:1005F8000360224B002223492348244C9A61DA6184
:100608001A629C62D8624FF0B04019635A639963CA
:10061800DA6319645A64196821F4802119601A662A
:10062800D0F8E4301A4A43F48043C0F8E430136841
:100638006FF30F03B3F1005F03D2164B0122C3F827
:1006480008210E4BD3F8D420D2040FD4D3F8D420E9
:1006580043F2D200104942F48052C3F8D420086013
:10066800D3F8D42022F48052C3F8D4205DF8044B88
:10067800704700BF00ED00E000200052004402581F
:100688007FEDF6EA800201010000FF01000202028C
:100698000010005C008000510040005270470000CC
:1006A800074D084C08B5284600F0BCFA20464FF420
:1006B800007100F07BFAFA2001F03EFCF3E700BF7E
:1006C80038000024001802581949032240F6FF7325
:1006D8001848002400B58BB080E80E0000F070FACE
:1006E80000F07AF8144B4FF400700121D3F8E020A1
:1006F80042F04002C3F8E020D3F8E030069403F05B
:100708004003CDE90401039304A90C48039BCDE9F8
:10071800074400F007F90120234680220849CDE963
:100728000004084801F0EAFA01F03EFC72B6FEE760
:1007380000480058380000240044025800180258A5
:100748000C270408A906040872B6FEE772B6FEE78D
:1007580000F072B8074B82B0D3F8F42042F00202DE
:10076800C3F8F420D3F8F43003F002030193019B9B
:1007780002B0704700440258704700BFFEE700BF50
:10078800FEE700BFFEE700BFFEE700BF0F4B1B7888
:100798000BB90120704710B504464FF47A700C4A23
:1007A800B0FBF3F31068B0FBF3F000F0A5F80F2CE2
:1007B80000D808B1012010BD002221464FF0FF30BB
:1007C80000F05EF8034B00201C6010BD08000024F8
:1007D800040000240C00002410B50320124C00F083
:1007E8003DF800F099FA114B11499A699B69C2F3D7
:1007F800032203F00F038A5CCB5C02F01F020D4951
:1008080003F01F03D04020FA03F308600F20236091
:10081800FFF7BCFF10B10124204610BD0446FFF7C6
:1008280099FF204610BD00BF000000240044025874
:10083800FC26040804000024034A044B11681B78B2
:100848000B441360704700BF4800002408000024D0
:10085800014B1868704700BF4800002406494FF64E
:10086800FF0C0002054BCA6800F4E06002EA0C02C3
:1008780010430343CB60704700ED00E00000FA0529
:100888001A4BDB68C3F3022300B5C3F1070E03F16B
:10089800040CBEF1040F28BF4FF0040EBCF1060F84
:1008A8001AD9A3F1030C4FF0FF3303FA0CF322EA31
:1008B80003024FF0FF33002803FA0EF321EA030383
:1008C80003FA0CF343EA02034FEA0313DBB206DB35
:1008D800074A13545DF804FB00229446E9E700F048
:1008E8000F00044A13545DF804FB00BF00ED00E05C
:1008F80000E400E014ED00E0431EB3F1807F01D373
:10090800012070474FF0E022002005494FF0F00C1D
:100918005361072381F823C090611361704700BFBA
:1009280000ED00E02DE9F04F0C6885B0002C00F0D8
:10093800B18000234FF0B0478946012202FA03F53F
:1009480015EA040800F0A180D9F8041003FA02F2AD
:100958004FF0030CD9F8086001F0030E0CFA02FC02
:100968000EF1FF3A6FEA0C0CBAF1010F40F29580D4
:10097800BEF1030F01D1012E05D0C568964005EAE6
:100988000C052E43C66005680EFA02F211F4403FCA
:1009980005EA0C0542EA0502026076D0794D03F0BB
:1009A80003064FF00F0CD5F8F420B60042F002020F
:1009B8000CFA06FCC5F8F420D5F8F42023F003055A
:1009C80005F1B04502F0020205F580650392039A2D
:1009D800AA6822EA0C0E6C4A904232D002F5806274
:1009E800904200F09D80694A904200F0A080DFF8B4
:1009F800A0C1604500F08D80DFF898C1604500F027
:100A0800A480DFF894C1604500F0A680DFF88CC1AF
:100A1800604500F09380DFF888C1604500F0A3804E
:100A2800DFF880C1604500F0A580DFF87CC1604533
:100A38000CBF4FF0090C4FF00A0C0CFA06F64EEA00
:100A4800060EC5F808E0CE023A686FEA08054CBF02
:100A580048EA02022A408E023A607A6854BF2A4065
:100A680048EA02028E037A60D7F8842054BF2A40ED
:100A780048EA0202C903C7F88420D7F8802054BF87
:100A88002A4048EA0202C7F88020013334FA03F208
:100A98007FF453AF05B0BDE8F08F9640D0F808B0AA
:100AA800BEF1020F01960BEA0C0BD9F80C6006FA9E
:100AB80002FA019E4AEA0B0AC0F808A0C1F3001A1C
:100AC800D0F804B00AFA03FA2BEA05054AEA050544
:100AD8004560C56805EA0C0546EA0506C6607FF468
:100AE80052AF03F00706D9F810504FEAD30AB60000
:100AF80000EB8A0AB540DAF820B001950F2505FA0F
:100B080006F6019D2BEA060B45EA0B05CAF82050AC
:100B180039E74FF0030C0CFA06F64EEA060E90E79A
:100B28004FF0010C0CFA06F64EEA060E89E74FF074
:100B3800020C0CFA06F64EEA060E82E74FF0060C97
:100B48000CFA06F64EEA060E7BE74FF0040C0CFA98
:100B580006F64EEA060E74E74FF0050C0CFA06F698
:100B68004EEA060E6DE74FF0070C0CFA06F64EEA51
:100B7800060E66E74FF0080C0CFA06F64EEA060E6B
:100B88005FE700BF004402580000025800080258FE
:100B9800000C02580010025800140258001802589D
:100BA800001C02580020025800240258436901EA38
:100BB800030221EA030141EA02418161704700BF53
:100BC80040B345F25552D0E9003170B504464CF6B1
:100BD800CC4018601A60A26859609A60FFF738FE26
:100BE80023680546DA6850070DD041F60106FFF77D
:100BF8002FFE401B2368B04202D9DA6851070BD197
:100C0800DA685207F3D11969E268914206D01A618D
:100C1800002070BD01207047032070BD4AF6AA224B
:100C28001A60F5E703464AF6AA2200201B681A60F4
:100C3800704700BF334B30B4996A9C6ADD6A14F47C
:100C48007C7F5A6BC4F3051036D0C2F3CC0205F092
:100C5800010501F0030107EE900A05FB02F20129E4
:100C6800B8EEE77A06EE902AFAEEE96A02D002298F
:100C780042D019B3DFED247A87EE876A1B6BC3F382
:100C8800080307EE903AF7EE005AF8EEE77A77EEA7
:100C9800A67A77EEA57A67EE867A1A4B1B6BC3F3B2
:100CA8004623013307EE103AF8EEC76A87EEA67AB4
:100CB800FCEEC77A17EE900A30BC70471A689206A5
:100CC8001DD51968F7EE005A104A1B6BC1F3C10114
:100CD800C3F30803CA4007EE903A06EE102AF8EE6E
:100CE800E77AB8EEC66A77EEA66AC6EE077A36EEF7
:100CF800A57A67EE877AD0E7DFED057ABCE7DFED06
:100D0800057AB9E7004402580024744A0090D003D9
:100D180020BCBE4B0024744C0C4A136903F0380302
:100D2800102B0DD0182B09D063B913689B060BD56F
:100D380013680748C3F3C103D8407047FFF77ABF69
:100D480004487047044870470148704700440258F7
:100D58000090D00340787D0100093D00F8B5431E9E
:100D68000A3326D810F0070300F108042DD1694E84
:100D780001F070F923463268002A38D0002C1DDBB8
:100D8800DFF8A8E1DEF80070A74217D36249634D87
:100D98000B68AB4202D86248834241D24FF05003FD
:100DA80072B683F31188BFF36F8FBFF34F8F62B6AC
:100DB800FEE7584E01F04EF93368BBB1002601F04A
:100DC80051F9FFF7C3FC3046F8BDA3F10902A2426E
:100DD800EFD310304F4EC41A01F03CF93268234665
:100DE8002AB1002BEADB002CCAD1E7E71C464C48A5
:100DF800450743D0C11D21F007010D46494A00208F
:100E080022F00702511A3260C2E90000C5E9002148
:100E1800414AC2E90050444A1160444A1160E0E77F
:100E28008C465968A14213D21A688AB1AA4201D8DD
:100E380082420AD24FF0500372B683F31188BFF38F
:100E48006F8FBFF34F8F62B6FEE79C461346E8E705
:100E580032689A42B2D0DCF8002002F108068642D5
:100E680001D3AE420DD94FF0500372B683F3118807
:100E7800BFF36F8FBFF34F8F62B6FEE7014605469B
:100E8800BCE71868A142CCF800000AD24FF0500322
:100E980072B683F31188BFF36F8FBFF34F8F62B6BB
:100EA800FEE70D1B102D12D91A1951070AD04FF061
:100EB800500372B683F31188BFF36F8FBFF34F8F60
:100EC80062B6FEE7214655601851CCF80020164856
:100ED8007F1A41F0004104685960A7424FF00004AE
:100EE800CEF8007038BF076011481C6002680132F4
:100EF800026001F0B7F873073FF465AF4FF0500395
:100F080072B683F31188BFF36F8FBFF34F8F62B64A
:100F1800FEE700BF5C000024600000246700012495
:100F280068000024600001245400002458000024B4
:100F380050000024A0B1F0B5A0F10804404D83B0E2
:100F4800AC4202D33F4EB4420BD94FF0500372B6B5
:100F580083F31188BFF36F8FBFF34F8F62B6FEE73D
:100F6800704750F8043C002B0ADB4FF0500372B670
:100F780083F31188BFF36F8FBFF34F8F62B6FEE71D
:100F880050F8082C52B14FF0500372B683F3118811
:100F9800BFF36F8FBFF34F8F62B6FEE723F00043B6
:100FA8000190294F40F8043C01F054F8274A019871
:100FB800136850F8041C0B4413603B461A461B6820
:100FC8009C42FBD8BA420ED0AA4201D3B2420AD9F7
:100FD8004FF0500372B683F31188BFF36F8FBFF3DE
:100FE8004F8F62B6FEE755685619B44210D065189F
:100FF800AB421DD040F8083CA24218BF1460144A06
:1010080013680133136003B0BDE8F04001F02AB85B
:101018002944501851608342F1D10E480068834238
:101028000BD01446D3E900500144C4E90051E3E76A
:10103800084D2D68AB42F5D1DCE71360DFE700BF50
:101048006800002467000124600000245800002480
:101058004C0000245C00002400F108034FF0FF312D
:1010680000228160C0E90023C0E90333704700BF54
:1010780000230361704700BF30B40D686B1C10D0AB
:1010880000F108031C465B681A68AA42FAD902688C
:101098004B60013299608C6061600861026030BC0D
:1010A800704704696368F2E7026910B45468D0E9CC
:1010B800011384425DF8044B8B6059604FF00001C6
:1010C80008BF536013680161013B184613607047FD
:1010D800064B19680868B0E8F04F80F30988BFF339
:1010E8006F8F4FF0000080F311887047B000012423
:1010F80008480068006880F308884FF0000080F313
:10110800148862B661B6BFF34F8FBFF36F8F00DFED
:1011180000BF000008ED00E0EFF30980BFF36F8F18
:10112800154B1A681EF0100F08BF20ED108A20E931
:10113800F04F10602DE909004FF0500072B680F3AF
:101148001188BFF34F8FBFF36F8F62B600F0BCFFFB
:101158004FF0000080F3118809BC19680868B0E8EE
:10116800F04F1EF0100F08BFB0EC108A80F309880A
:10117800BFF36F8F70470000B0000124DFF80C0048
:10118800016841F4700101607047000088ED00E0DB
:10119800104B82B000221B68019201330AD04FF035
:1011A800500372B683F31188BFF36F8FBFF34F8F6D
:1011B80062B6FEE74FF0500372B683F31188BFF3AF
:1011C8006F8FBFF34F8F62B6019B002BFCD002B02C
:1011D800704700BF10000024034621F001010948B0
:1011E80010B44FF0807443F80C0C43F8202CA3F192
:1011F800440043E902146FF002015DF8044B43F820
:10120800241C7047991104084FF0500372B683F3F9
:101218001188BFF36F8FBFF34F8F62B60C4A136804
:101228000133012B136000D070474FF0E023D3F84F
:10123800043DDBB2002BF7D04FF0500372B683F3B6
:101248001188BFF36F8FBFF34F8F62B6FEE700BF01
:1012580010000024094A136853B94FF0500372B6BE
:1012680083F31188BFF36F8FBFF34F8F62B6FEE72A
:10127800013B13600BB983F31188704710000024F9
:1012880008B54FF0500372B683F31188BFF36F8F20
:10129800BFF34F8F62B600F003FF28B14FF0E02391
:1012A8004FF08052C3F8042D002383F3118808BD42
:1012B8004FF0E02300224FF6FF1007211A619A61D0
:1012C80058611961704700BF4FF0E0234B4AD3F8CB
:1012D800083DD96A91420AD04FF0500372B683F3A1
:1012E8001188BFF36F8FBFF34F8F62B6FEE7444A92
:1012F8009B6B93420AD04FF0500372B683F3118868
:10130800BFF36F8FBFF34F8F62B6FEE730B53D4B2B
:1013180083B00022FF203C4901921A78D2B28DF89E
:10132800022018701B78DBB28DF803309DF803306B
:1013380003F050030B70002B53D09DF80330DB43B0
:1013480013F0500F13D04FF0500372B683F3118887
:10135800BFF36F8FBFF34F8F62B6FEE7019B013378
:1013680001939DF803305B00DBB28DF803309DF8E4
:1013780003301B06F2D4019B082B3DD0019BC3F11F
:1013880007031B0203F4E0639DF802204FF0E024FA
:101398001E480025D2B21B4903600A70D4F8203DCC
:1013A80043F47F03C4F8203DD4F8203D43F07F4345
:1013B800C4F8203DC4F81C5DFFF77AFF144B1D608C
:1013C800FFF7DCFED4F8343F43F04043C4F8343F21
:1013D800FFF78EFE00F078FE2846FFF7D9FE03B02F
:1013E80030BD4FF0500372B683F31188BFF36F8F8F
:1013F800BFF34F8F62B6FEE70023C5E7D910040894
:101408002111040800E400E06C00012468000124B4
:101418001000002470B50546FFF7F6FE95F8453034
:101428005CB2002C14DD05F1240603E0631EDAB279
:101438005CB26AB16B6A304653B100F0A1FE002875
:10144800F4D000F06BFF631EDAB25CB2002AF1D16F
:10145800FF2385F84530FFF7FDFEFFF7D5FE95F829
:1014680044305CB2002C14DD05F1100603E0631E65
:10147800DAB25CB26AB12B69304653B100F080FE33
:101488000028F4D000F04AFF631EDAB25CB2002AEA
:10149800F1D1FF2385F84430BDE87040FFF7DABE8C
:1014A80068B3C36B70B50446F3B1056CA5FB03358F
:1014B800D5B90E46FFF7A8FE2268A5636260D4E995
:1014C8000F3101FB03F3591A13440A44A360FF23A5
:1014D800E26084F8443084F8453066BB2369CBB9B0
:1014E800FFF7B8FE012070BD4FF0500372B683F3CA
:1014F8001188BFF36F8FBFF34F8F62B6FEE74FF0CF
:10150800500372B683F31188BFF36F8FBFF34F8F09
:1015180062B6FEE704F1100000F032FE0028DFD0CA
:101528004FF0E0234FF08052C3F8042DBFF34F8FE4
:10153800BFF36F8FD4E704F11000FFF78DFD04F1BE
:101548002400FFF789FDCBE770B548B1A0FB012364
:1015580004460D4623B901FB00F010F1490F0AD9E2
:101568004FF0500372B683F31188BFF36F8FBFF348
:101578004F8F62B6FEE74830FFF7F0FB064648B1EA
:1015880055B100F14803012130463360F4633564F6
:10159800FFF786FF304670BD0346F4E72DE9F043B8
:1015A80085B00192002800F0A4800D460446002969
:1015B80047D000F0B9FE002851D0FFF725FEA66BF2
:1015C800002E6BD1019B002B35D0374604F124083F
:1015D8004FF0E02902A800F04BFEFFF73BFE00F0B9
:1015E80039FDFFF711FE94F84430FF2B01D184F840
:1015F800447094F84530FF2B01D184F84570FFF70B
:1016080029FE01A902A800F03FFE002835D1FFF706
:10161800FBFDA36B002B56D0FFF71CFE2046FFF7FF
:10162800F9FE00F01FFDFFF7EFFDA66B002E35D188
:10163800019B002BD1D1FFF70DFE002005B0BDE8BE
:10164800F083036C002BB4D04FF0500372B683F3D1
:101658001188BFF36F8FBFF34F8F62B6FEE7019B10
:10166800002BAAD04FF0500372B683F31188BFF352
:101678006F8FBFF34F8F62B6FEE72046FFF7CAFEB3
:1016880000F0F0FCFFF7C0FDA36B002BD3D0FFF7F1
:10169800E1FDFFF7B9FDA66B002EC9D0226C52B14F
:1016A800E168A36811449942E16001D32168E160CF
:1016B8002846FEF7ABFE013E2369A66323BBFFF76E
:1016C800C9FD0120BAE7FFF7C5FD0199404600F0C2
:1016D80009FD2046FFF79EFE00F0C4FC0028D8D183
:1016E8004FF08053C9F8043DBFF34F8FBFF36F8F9E
:1016F800CFE74FF0500372B683F31188BFF36F8FB3
:10170800BFF34F8F62B6FEE704F1100000F038FD1A
:101718000028D4D04FF0E0234FF08052C3F8042DB6
:10172800BFF34F8FBFF36F8FC9E700BF20B311B36B
:1017380030B40025174C2B4604EBC3024FEAC30C08
:101748005268824214D035B10133082BF4D1C5E96F
:10175800001030BC704754F83320C2B10133082B55
:1017680004EBC3024FEAC30CF3D052689042F2D1A3
:1017780004EB0C05EBE770474FF0500372B683F3A8
:101788001188BFF36F8FBFF34F8F62B6FEE704EB8C
:101798000C05D9E77000012470B504460E461546BD
:1017A800FFF732FD94F84430FF2B02D1002384F870
:1017B800443094F84530FF2B02D1002384F845309B
:1017C800FFF748FDA36B23B12046BDE87040FFF743
:1017D80021BE04F124002A46314600F09FFC204631
:1017E800BDE87040FFF716BE2DE9F843234C0546C7
:1017F800234A0F462668234B234CD2F80080D3F89F
:10180800009020680430FFF74FFC48B923681F494F
:10181800DA6A012303FA02F20B6823EA02030B6077
:101828006B1C15D1A7B11A4B20685A6821688260D1
:101838009068C86021689068043141602068196820
:10184800246804300131906019606361BDE8F88351
:101858002368751921685D6005D348460431BDE8E1
:10186800F843FFF709BC40460431FFF705FC094B74
:101878001A68AA42EAD91D60BDE8F883AC010124C0
:10188800B4000124B8000124B0000124300101246F
:101898008401012460010124264B002210B5264C46
:1018A8001A6021682268236812681B6B9A4204D95F
:1018B8000B6B1A68B2F1A53F29D021682068343132
:1018C800FEF742FF1D4B1B68B3FA83F3DBB21C4AD9
:1018D800C3F11F0303EB8303990002EB8303505802
:1018E80050B94FF0500372B683F31188BFF36F8F6E
:1018F800BFF34F8F62B6FEE75868083140680A4464
:101908009042586010D0C3682360236810BD5A689D
:10191800B2F1A53FD1D19A68B2F1A53FCDD1DB682C
:10192800B3F1A53FC9D1CDE7D8685860C368236033
:10193800236810BDB0010124B00001243001012446
:10194800BC000124F8B50F4D2B68CBB10E4F0F4EDC
:10195800FFF75AFCFB68DC68201DFFF7A5FB33681E
:10196800013B33602B68013B2B60FFF773FC206B56
:10197800FFF7E0FA2046FFF7DDFA2B68002BE7D1E6
:10198800F8BD00BF2401012498010124200101248D
:101998000B4C4FF0E0264FF0805508B5FFF7D2FF0B
:1019A8002368012BFAD9C6F8045DBFF34F8FBFF344
:1019B8006F8FFFF7C7FF2368012BF4D8EEE700BF4E
:1019C800BC000124614B2DE9F04F1E6883B001363D
:1019D8001E60002E00F084805D4B0193019B1B6804
:1019E8009E4263D3DFF878C1DCF800301D68002D13
:1019F80000F0A8800025574CDFF870B1B246DFF838
:101A080070E1A84644E05969D3E9022696607260FD
:101A18004A6882420A6808BF4E60013A00265E6141
:101A28000A60996A71B1D1F80490D3E90762A945AF
:101A3800B2601A6A566008BF4A6000229A620A6851
:101A4800013A0A60DA6A0121DEF8005002EB8206E8
:101A58009140294304EB8605CEF8001069688F6829
:101A68009960DF6054F8267007F101098F68786083
:101A78008860DBF800105D61DCF80030C96A44F862
:101A880026901B688A4288BF4FF00108002B4CD073
:101A9800DCF80030DB68DB685A68181D03F11805AC
:101AA8009245B0D2019B45461A6003E00025294CB7
:101AB800DFF8B8B0DBF80030274ADB6A126803EBBE
:101AC800830354F82330022B28BF0125BAB1234BD6
:101AD8001B68002B0CBF2846012003B0BDE8F08F1F
:101AE8001F4B1A6812686AB14FF0500372B683F33D
:101AF8001188BFF36F8FBFF34F8F62B6FEE7FEF713
:101B080027FEE4E7174A186811681960164910603B
:101B18000A6801320A601A68126862B90C4B1A46E0
:101B280001934FF0FF33136058E745464FF0FF33FA
:101B3800019A1360BEE71B68054ADB6801921B68BF
:101B480013604BE7034CDFF824B0EFE7AC01012446
:101B580060010124BC00012468010124B0010124B2
:101B6800B4000124B800012464010124B000012458
:101B7800300101242DE9F04F564F83B03B68013BFB
:101B88003B60D7F80080B8F1000F40F09380524BCB
:101B98001B68002B00F08E80DFF858C1DCF800309D
:101BA800002B00F094804D4B4FF0010BDFF848E11B
:101BB800C2464B4D0193DCF80C30DB689A6A03F19E
:101BC8001804D3E90701816048605068A04208BF43
:101BD80051601168C3F828A00139116058691E1DA9
:101BE800DEF80040D3E9022191604A604268B242BF
:101BF800DA6A08BF41600168013901600BFA02F135
:101C080002EB82000C43374905EB8008CEF8004010
:101C18000968D1F82C90D8F804104A458C68996066
:101C2800DC6055F8204004F1010400948C6866607B
:101C38008E60C3F81480009B45F8203002D9019BC0
:101C4800C3F800B0DCF80030002BB4D1264B1A687A
:101C58001268002A36D01A68244BD26812681A60B3
:101C6800234D2C68ACB10126DDF8048006E0FFF7AF
:101C7800A9FE08B1C8F80060013C09D03B68002BF8
:101C8800F5D02B6801332B60FEF762FD013CF5D1DE
:101C98002C60019B1B686BB14FF0E0234FF0805222
:101CA80010490968C3F8042DBFF34F8FBFF36F8F36
:101CB800012000E000200090FFF7CCFA009803B064
:101CC800BDE8F08F094B4FF0FF321A60C8E7034BAD
:101CD8000193C5E72801012420010124B001012452
:101CE800BC000124B0000124B400012460010124D7
:101CF800680101246C010124300101242DE9F04719
:101D08004FEA8209074616460D4648469846FFF7A9
:101D180025F878B382465420FFF720F8044668B3C4
:101D280054220021FEF720FB4A465046A521C4F85C
:101D380030A0FEF719FB226B75B105F1FF3C04F1E9
:101D480033030F351CF8011F03F8011F09B1AC4517
:101D5800F8D1002384F84330089B042B15D94FF0A1
:101D6800500372B683F31188BFF36F8FBFF34F8FA1
:101D780062B6FEE74FF0FF30BDE8F0875046FFF748
:101D8800D9F84FF0FF30BDE8F087089B251DA9F171
:101D98000409E362284663649144FFF769F904F192
:101DA8001800FFF765F9089B29F007094246C3F1B7
:101DB80005033946484624616462A361FFF70CFABB
:101DC800A9EB00092060B6EBA90F0AD84FF0500321
:101DD80072B683F31188BFF36F8FBFF34F8F62B66C
:101DE800FEE7099B03B11C60FFF70EFA454ADFF8CE
:101DF8003481136801331360D8F80030002B51D0B8
:101E0800DFF82491D9F80030002B41D0E36A3E4F27
:101E1800DFF818C103EB83020126DFF814E1DCF8D0
:101E2800001007EB820006FA03F392003144CCF865
:101E38000010D0F804C0DCF80810C4F808C0E1604D
:101E4800DEF800100B43DCF80810CEF80030BB5861
:101E58004D603344CCF808506061BB50FFF7FAF985
:101E6800D9F800308BB1D8F80020E36AD26A9A42D8
:101E78000BD24FF0E0234FF08052C3F8042DBFF38C
:101E88004F8FBFF36F8F304676E73046BDE8F08757
:101E9800D8F80030DA6AE36A9A4201D8C8F80040F4
:101EA800194FB5E7C8F800401368012B04D0E36A5E
:101EB800154FDFF87490ABE7134F3E4607F16409FE
:101EC80030461436FFF7C8F8B145F9D1DFF864A0F9
:101ED8000E4E5046DFF85090FFF7BEF83046FFF739
:101EE800BBF80B48FFF7B8F80A48FFF7B5F80A48F7
:101EF800FFF7B2F8094BC3F800A0094B1E60E36A6C
:101F080086E700BF20010124BC0001244801012408
:101F18006C0101249801012484010124B4000124E6
:101F2800B8000124B0000124800101242C010124FF
:101F3800300101243401012410B550B94FF0E023D9
:101F48004FF08052C3F8042DBFF34F8FBFF36F8F4C
:101F580010BD144C2368013323602368012B0AD079
:101F68004FF0500372B683F31188BFF36F8FBFF33E
:101F78004F8F62B6FEE70021FFF736FCFFF744F902
:101F8800236853B94FF0500372B683F31188BFF337
:101F98006F8FBFF34F8F62B6FEE7FFF7EBFD0028A8
:101FA800CCD010BD2801012410B586B000214920ED
:101FB800214A0DF10903CDE90211CDE904118DF88B
:101FC800080012F8014F03F8014B002CF9D11B4807
:101FD8002346802202A9CDE900401948FFF78EFE6A
:101FE80001281BD100F052FB012817D14FF05003F4
:101FF80072B683F31188BFF36F8FBFF34F8F62B64A
:10200800104B4FF0FF31104A1960104B10601C60E4
:10201800FFF75AF90E4B1B6806B010BD0130F9D115
:102028004FF0500372B683F31188BFF36F8FBFF37D
:102038004F8F62B6FEE700BF142704085C01012435
:10204800991904086001012480010124AC010124CC
:1020580014000024024A136801331360704700BF5C
:102068002801012408B5FFF7CFF8094B1B6853B9BD
:102078004FF0500372B683F31188BFF36F8FBFF32D
:102088004F8F62B6FEE7BDE80840FFF773BD00BF9B
:1020980028010124014B1868704700BFAC010124D6
:1020A80008B5074B1B681BB9BDE80840FFF78ABC99
:1020B800044A136801331360FEF74AFB002008BD89
:1020C8002801012468010124044B1B681BB1044B3F
:1020D80001221A607047FFF7DFBB00BF2801012407
:1020E800B001012460B10C4B10B50C4619681831C9
:1020F800FEF7C2FF20460121BDE81040FFF774BB80
:102108004FF0500372B683F31188BFF36F8FBFF39C
:102118004F8F62B6FEE700BFB000012410B38C46B3
:10212800002A11460346F0B4144C456808BF6046BF
:10213800226818BF4FF0FF30AE68D561226816627A
:10214800266822682768183602F118041A6802F10E
:10215800010CAA685660AC60BB62C3F800C0F0BC52
:10216800FFF742BB4FF0500372B683F31188BFF3F9
:102178006F8FBFF34F8F62B6FEE700BFB000012438
:10218800C368DB68002B5BD09A6AD3E90701F0B417
:10219800816003F11804486000255068A0422E4869
:1021A80008BF51601168006801399D621160B8B1BB
:1021B8002A494A689068C3E9072090684460946097
:1021C800DA6A9962264B08681B680130DB6A086086
:1021D800934232D20123234A18461360F0BC704759
:1021E800D3E9022059691E1D9060D8681E4D4260CF
:1021F8004A682F68B242DA6A1C4C08BF486008680F
:1022080001380860012002EB82019040384304EB5A
:10221800810789002860786885689860DD6065585E
:1022280005F1010C85686E6086605F610C4B44F8AF
:1022380001C01B68DB6A9342CCD30020F0BC704716
:102248004FF0500372B683F31188BFF36F8FBFF35B
:102258004F8F62B6FEE700BF280101246C010124FC
:10226800B0000124B001012430010124BC00012484
:10227800034A044B12681B68C0E90023704700BF7B
:1022880064010124AC01012448B3F0B50D4683B0C4
:10229800D1B10446FEF7B8FF2B681E4A581C1168D6
:1022A80036D0DFF874C02668DCF800706068BE427B
:1022B80020D088421ED8002301202B600190FEF711
:1022C800C9FF019803B0F0BD4FF0500372B683F315
:1022D8001188BFF36F8FBFF34F8F62B6FEE74FF0E1
:1022E800500372B683F31188BFF36F8FBFF34F8F1C
:1022F80062B6FEE7A1EB000E7345DCD95B1ADCF889
:1023080000101268034400202B60C4E90012D5E7CE
:102318000020D3E7AC01012464010124014B012210
:102328001A607047B0010124054B1B6833B1054B97
:102338001B68002B0CBF022000207047012070474B
:102348008001012428010124F8B5104CFEF75CFF38
:1023580025681DB1BDE8F840FEF77CBF0C4F0D4E57
:102368003846FEF779FE3046FEF776FE0A4B2A46D7
:102378000C211F600A20094B1E60FFF7E5F820605A
:102388000028E7D00649FFF7D1F9E3E7E80101247F
:10239800BC010124D0010124B4010124B8010124A5
:1023A8001C2704082DE9F0411F4F05460E463B68DF
:1023B800DB68DC6804F104084046FEF775FE94F813
:1023C80024305A070DD423F00103204684F8243022
:1023D800236ABDE8F041184762451BD81D46236AA9
:1023E8009847A269A6EB050C20462461AB182CBFC0
:1023F800012100219E426360EED2AE4201D2002943
:10240800ECD038684146FEF737FE236A2046BDE81F
:10241800F0411847054B41461868FEF72DFE236A20
:102428002046BDE8F0411847B4010124B801012451
:102438002DE9F04F914E85B0DFF848824FF0000A41
:10244800DFF844928E4F33681D68002D00F0D3806A
:10245800DB681D68FFF7FEFDFFF71CFED8F80030AB
:10246800044698426AD38542C8F8000000F2F28018
:10247800FFF7F8FD21462846FFF794FFCDF80CA09A
:10248800CDE901AA002201A93868FFF787F80028DA
:10249800D9D0019B002BF5DB039C002CF2D063699B
:1024A80013B1201DFEF700FEFFF7F4FDD8F8003049
:1024B8000546984212D3019BC8F80050013B082BEF
:1024C800E0D8DFE803F015157F698615157F6900E8
:1024D800DB684FF0FF311868FFF764FF33681A684C
:1024E800002AF5D1D9F80020C9F800303260E2E7B7
:1024F80094F82410029A41F00103D4F818C024611A
:1025080084F8243012EB0C032CBF01200020AB42CE
:10251800636067D8AA1A944500F29E80480722D4BF
:1025280021F0010184F82410236A20469847A9E77E
:10253800DB684FF0FF311868FFF734FF33681A681B
:10254800002AF5D1D9F80020C8F80040C9F80030B1
:102558003260FFF787FD91E7614575D3236A984795
:10256800D4F818C05B4613EB0C0BA5EB030120460F
:1025780024612CBF4FF0010E4FF0000E5D45C4F8EA
:1025880004B0E9D29D4202D2BEF1000FE6D0211D6F
:102598003068FEF771FDC7E794F82420029B42F0EB
:1025A8000102A36184F82420002B5BD02B44211D59
:1025B8002461AB42636094BFD9F800003068FEF72D
:1025C8005BFD5FE794F8243023F0010384F824309E
:1025D80058E794F824309A0732D523F0010384F899
:1025E80024304FE7AA4201D9002897D0211D30682E
:1025F800FEF742FD46E7FFF72DFDFFF74BFDD8F844
:1026080000300446834299D8D9F80030C8F8004011
:102618001A68B2FA82F25209291B3868FFF7BCF827
:10262800FFF720FD00287FF429AF4FF080534FF0CB
:10263800E022C2F8043DBFF34F8FBFF36F8F1DE751
:102648002046FEF777FC1DE7211DD9F80000FEF7AC
:1026580013FD69E70022DFE7211DD9F80000FEF726
:102668000BFD0FE74FF0500372B683F31188BFF3E9
:102678006F8FBFF34F8F62B6FEE700BFB40101242E
:10268800E8010124E4010124B801012410B582B055
:10269800FFF75AFE0D4B1B6853B103200C4C002367
:1026A80080220C49CDE900040B48FFF727FB50B9FD
:1026B8004FF0500372B683F31188BFF36F8FBFF3E7
:1026C8004F8F62B6FEE702B010BD00BFE8010124DB
:1026D800EC0101242427040839240408F8B500BFB4
:1026E800F8BC08BC9E467047F8B500BFF8BC08BCEB
:0426F8009E46704743
:1026FC00000000000102030401020304060708099C
:10270C00626C696E6B00000049444C45000000008F
:10271C00546D725100000000546D722053766300AA
:08272C00E8DCFF7F0100000062
:042734000103040891
:04273800D9020408B6
:10273C000090D0030090D0030100000010000000B6
:08274C00AAAAAAAA04000000D9
:04000005080405499D
:00000001FF
