:020000040812E0
:1000000000800430D9021208010412080504120805
:10001000090412080D04120811041208000000005F
:10002000000000000000000000000000250D120884
:100030002D031208000000006D0D1208B50E120805
:100040002D0312082D0312082D0312082D03120888
:100050002D0312082D0312082D0312082D03120878
:100060002D0312082D0312082D0312082D03120868
:100070002D0312082D0312082D0312082D03120858
:100080002D0312082D0312082D0312082D03120848
:100090002D0312082D0312082D0312082D03120838
:1000A0002D0312082D0312082D0312082D03120828
:1000B0002D0312082D0312082D0312082D03120818
:1000C0002D0312082D0312082D0312082D03120808
:1000D0002D0312082D0312082D0312082D031208F8
:1000E0002D0312082D031208000000002D03120832
:1000F0002D0312082D0312082D0312082D031208D8
:100100002D0312082D0312082D0312082D031208C7
:100110002D0312082D0312082D0312082D031208B7
:100120002D0312082D0312082D0312082D031208A7
:100130002D0312082D0312082D0312082D03120897
:100140002D0312082D03120800000000000000001B
:100150002D0312082D0312082D0312082D03120877
:100160002D0312082D0312082D0312082D03120867
:100170002D0312082D0312082D03120800000000A1
:100180002D0312082D0312082D0312082D03120847
:100190002D0312082D0312082D0312082D03120837
:1001A0002D0312082D0312082D0312082D03120827
:1001B0002D0312082D0312082D0312082D03120817
:1001C0002D0312082D0312082D0312082D03120807
:1001D0002D0312082D0312082D0312082D031208F7
:1001E0002D0312082D0312082D0312082D031208E7
:1001F0002D0312082D0312082D0312082D031208D7
:100200002D0312082D0312082D0312082D031208C6
:100210002D0312082D0312082D0312082D031208B6
:100220002D0312082D0312082D03120800000000F0
:100230002D0312082D0312082D0312082D03120896
:100240002D0312082D0312082D0312082D03120886
:100250002D0312082D0312082D0312082D03120876
:100260002D0312082D0312082D0312082D03120866
:100270002D0312082D0312082D0312082D03120856
:100280002D0312082D0312082D0312080000000090
:080290002D0312082D031208D2
:1002980010B5054C237833B9044B13B10448AFF3B8
:1002A80000800123237010BD1800003000000000FA
:1002B8001423120808B5034B1BB103490348AFF3D5
:1002C800008008BD000000001C0000301423120844
:1002D800DFF838D000F036F800F026F80C480D4961
:1002E8000D4A002302E0D458C4500433C4188C4289
:1002F800F9D30A4A0A4C002301E013600432A242EF
:10030800FBD301F0C9FF00F02DF8FEE700800430B0
:100318000000003018000030642312081800003074
:10032800DC810030FEE70000054BD3F8882042F45A
:100338007002C3F888201A6942F010021A617047E7
:1003480000ED00E07047000008B5054C20464FF46A
:10035800806100F09DFA4FF4C87001F0FDFBF5E7ED
:100368000018025800B589B000F076F8124B13480F
:10037800D3F8E02042F04002C3F8E020D3F8E030A0
:1003880003F0400300244FF480620293012503A97F
:10039800029B0392CDE905440794049500F024F9E3
:1003A8000749084823468022CDE9005401F0C2FAE3
:1003B80001F006FC72B6FEE7004402580018025825
:1003C8003C2312085103120872B6FEE772B6FEE724
:1003D80000F094B8074BD3F8F42042F00202C3F8B7
:1003E800F420D3F8F43082B003F002030193019BA8
:1003F80002B0704700440258704700BFFEE700BFD4
:10040800FEE700BFFEE700BFFEE700BF38B50F4BB1
:100418001B780BB9012038BD0D494FF47A72054697
:10042800B2FBF3F30868B0FBF3F000F0C3F804463E
:100438000028EFD10F2DEDD8024629464FF0FF30A6
:1004480000F07AF8034B20461D6038BD08000030E4
:10045800000000300C00003010B5234C234AD4F8BB
:10046800D83043F48043C4F8D830D4F8D83082B0B8
:1004780003F480430193019BD2F8003423F47F23D3
:1004880023F4706343F40143C2F80034D2F8003413
:1004980043F00103C2F80034032000F03BF800F0F9
:1004A80085FAA369A2691249C3F3032302F00F0274
:1004B800CB5C8A5C0F4903F01F03D84002F01F038E
:1004C8000D4A20FA03F30F200B601360FFF79EFF1D
:1004D80018B10124204602B010BD0446FFF77AFF88
:1004E800204602B010BD00BF004402580040024040
:1004F8002C2312080400003000000030034A044B8B
:1005080011681B780B441360704700BF340000303B
:10051800080000300749CA6803024FF6FF0003F4D9
:10052800E0630240134343F0BF6343F40033CB60FE
:10053800704700BF00ED00E01C4BDB68C3F30223EB
:1005480000B5C3F1070EBEF1040F03F1040C28BF78
:100558004FF0040EBCF1060F1BD9033B4FF0FF3CD4
:100568000CFA03FC22EA0C024FF0FF3C0CFA0EFCDA
:1005780021EA0C019940002841EA02010CDB00F154
:100588006040090100F56140C9B280F800135DF8C8
:1005980004FB00221346E7E7054B00F00F000901B2
:1005A8000344C9B219765DF804FB00BF00ED00E012
:1005B800FCEC00E00138B0F1807F10D210B44FF0AD
:1005C800E023084C58614FF0F00C84F823C0002257
:1005D800072110469A615DF8044B196170470120A4
:1005E800704700BF00ED00E02DE9F04F0C6885B0C2
:1005F800002C00F0B5800022DFF888A20094134692
:10060800009C4FF0010C0CFA03FC1CEA040B00F0F0
:10061800A0804F6807F003056E1E012E40F2A380EC
:10062800032D40F0E5808E68012E05FA02F507D00B
:10063800D0F80CC096402CEA050C46EA0C06C660B9
:10064800EE43D0F800C00CEA0606354317F4403FE5
:1006580005607ED0DAF8F450834C45F00205CAF8FC
:10066800F450DAF8F45005F002050395039D23F0E1
:10067800030505F1B04503F0030E4FEA8E0E0F2671
:10068800D5F808C406FA0EF6A04205F580652CEAEE
:1006980006062DD004F58064A04200F0B480734CA7
:1006A800A04200F0B780724CA04200F0A580714CC7
:1006B800A04200F0BD80704CA04200F0C0806F4C9A
:1006C800A04200F0AE806E4CA04200F0BF80DFF880
:1006D800B8C1604500F0C180DFF8B0C160450CBF0B
:1006E8004FF0090C4FF00A0C0CFA0EFE46EA0E0603
:1006F800AE604FF0B0456FEA0B0C2D68FE024FF06C
:10070800B04654BF0CEA05054BEA05053560766826
:100718004FF0B045BC0254BF0CEA06064BEA060689
:100728006E60D5F8C460BD034FF0B04554BF0CEA05
:1007380006064BEA0606C5F8C460D5F8C050FC03A7
:100748004FF0B04654BF0CEA05054BEA0505C6F85C
:10075800C050009C0133DC4002F102027FF450AF2C
:1007680005B0BDE8F08FCE68D0F808E006FA02F9C7
:10077800032606FA02F82EEA080E49EA0E068660F3
:10078800D0F804E02EEA0C0EC7F3001C0CFA03FCA8
:100798004CEA0E0C6FEA0806C0F804C0D0F80CE06A
:1007A8008C680EEA060E04FA02FC4CEA0E0C022DC6
:1007B800C0F80CC005FA02F57FF443AF4FEAD30E38
:1007C80000EB8E0E03F00708DEF8204001940C6958
:1007D8004FEA880804FA08FC4FF00F09019C09FA4F
:1007E80008F824EA08094CEA090CCEF820C028E7E2
:1007F80003269640F643D1E74FF0030C0CFA0EFEA1
:1008080046EA0E0674E74FF0010C0CFA0EFE46EAB3
:100818000E066DE74FF0020C0CFA0EFE46EA0E06C5
:1008280066E74FF0060C0CFA0EFE46EA0E065FE786
:100838004FF0040C0CFA0EFE46EA0E0658E74FF08D
:10084800050C0CFA0EFE46EA0E0651E74FF0070CAF
:100858000CFA0EFE46EA0E064AE74FF0080C0CFAB0
:100868000EFE46EA0E0643E700000258000802584A
:10087800000C0258001002580014025800180258C0
:10088800001C025800440258002002580024025854
:10089800436901EA030221EA030141EA0241816155
:1008A800704700BF3B4B30B49A6A9C6ADD6A596B4B
:1008B80014F47C7FC4F3051038D0C1F3CC0105F0E3
:1008C800010505FB01F107EE901A02F00302012A67
:1008D800F8EEE75A02D0022A4ED04AB307EE900A41
:1008E800DFED2D6AB8EEE77AC6EE877A1B6BC3F3A5
:1008F800080307EE103A9FED296AB8EEC77AF7EEBB
:10090800006AA5EE867A37EE267A27EE877A214B9B
:100918001B6BC3F34623013307EE903AF8EEE77AF0
:10092800C7EE276AFCEEE67A17EE900A30BC7047ED
:100938001A68920627D51968194A1B6B9FED176A22
:10094800C1F3C101CA4007EE902A07EE100AF8EE7B
:10095800E77AB8EEC77AC3F30803C7EE876A07EEEB
:10096800103AB8EEC77AF7EE007AA5EE867A37EE37
:10097800277A27EE267ACAE707EE900ADFED096A9A
:10098800B8EEE77AB0E707EE900ADFED076AB8EE4F
:10099800E77AA9E7004402580024744A00000039A5
:1009A8000090D00320BCBE4B0024744C0C4A136941
:1009B80003F03803102B04D0182B0DD01BB10948B5
:1009C80070470948704713689B0607D5136807489E
:1009D800C3F3C103D8407047FFF764BF03487047AB
:1009E8000044025800093D0040787D010090D00382
:1009F800F8B5431E0A3342D800F1080410F0070086
:100A080049D1614D01F02EF92B68002B00F086804A
:100A18002346002B38DB002C36D05C4F3E68A642BC
:100A280032D35B495B480B68834244D3DFF870E1FB
:100A3800734540D88C4607E01A6842B182429C460A
:100A480063D3724561D813465968A142F4D32A6822
:100A58009A4219D0DCF800500835854222D37545F2
:100A680020D81868CCF80000A14259D24FF05003A2
:100A780083F31188BFF36F8FBFF34F8FFEE7424DAB
:100A880001F0F0F82B68FBB101F0F4F80025FFF74E
:100A98009DFC2846F8BDC0F10800C343A342EED32D
:100AA8000444AEE74FF0500383F31188BFF36F8F10
:100AB800BFF34F8FFEE74FF0500383F31188BFF366
:100AC8006F8FBFF34F8FFEE71C463248460715D19C
:100AD80000F5004201460646083A22F007022E4871
:100AE8002B4F2A60511A016028483E60016000209F
:100AF8007860C2E90000C6E900218AE7C11D21F03B
:100B0800070100F500420E46E6E74FF0500383F375
:100B18001188BFF36F8FBFF34F8FFEE72346D4E7EB
:100B2800A1EB040EBEF1100F11D91A19510708D004
:100B38004FF0500383F31188BFF36F8FBFF34F8FCC
:100B4800FEE7C2F804E021461851CCF8002012480C
:100B58000468761AA64238BF066010483E600268EC
:100B680041F0004100241C6001325960026001F02C
:100B780081F86B078DD04FF0500383F31188BFF3D2
:100B88006F8FBFF34F8FFEE7380000303C80003096
:100B98004C8000303C000030408000304480003001
:100BA8003B800030F8B170B5384DA0F10804AC4274
:100BB80082B00FD3364EB4420CD850F8043C002B08
:100BC80012DB4FF0500383F31188BFF36F8FBFF32D
:100BD8004F8FFEE74FF0500383F31188BFF36F8FF9
:100BE800BFF34F8FFEE7704750F8082C42B14FF023
:100BF800500383F31188BFF36F8FBFF34F8FFEE766
:100C080023F0004340F8043C019001F02BF80198D0
:100C1800204A50F8041C13681F480B44136003460D
:100C28001A461B689C42FBD8824203D0AA4215D3BD
:100C3800B24213D850681518AC4222D060188342CB
:100C480015D02360A24218BF1460144A13680133F8
:100C5800136002B0BDE8704001F00CB84FF05003CB
:100C680083F31188BFF36F8FBFF34F8FFEE70C48F4
:100C780000688342E5D0D3E900300144C4E900317B
:100C8800E0E7014451601446D8E700BF3C0000305B
:100C98003B8000303C8000304C8000304880003081
:100CA8003800003000F108034FF0FF310022C0E99E
:100CB8000131C0E903330260704700BF00230361BC
:100CC800704700BF30B40D686B1C10D000F10803EA
:100CD8001C465B681A68AA42FAD902684B6001325E
:100CE80099608C606160086130BC0260704704697B
:100CF8006368F2E7026910B4D0E9011354688B60A5
:100D08008442596008BF536013685DF8044B013B87
:100D18000021016118461360704700BF064B19682F
:100D28000868B0E8F04F80F30988BFF36F8F4FF081
:100D3800000080F3118870479C80003008480068E4
:100D4800006880F308884FF0000080F3148862B6CA
:100D580061B6BFF34F8FBFF36F8F00DF00BF000096
:100D680008ED00E0EFF30980BFF36F8F144B1A68AA
:100D78001EF0100F08BF20ED108A20E9F04F106018
:100D88002DE909004FF0500080F31188BFF34F8F11
:100D9800BFF36F8F00F09EFF4FF0000080F31188C3
:100DA80009BC19680868B0E8F04F1EF0100F08BFBA
:100DB800B0EC108A80F30988BFF36F8F704700008A
:100DC8009C800030DFF80C00016841F4700101607C
:100DD8007047000088ED00E00E4B1B6882B00022CF
:100DE8000133019208D04FF0500383F31188BFF309
:100DF8006F8FBFF34F8FFEE74FF0500383F31188D7
:100E0800BFF36F8FBFF34F8F019B002BFCD002B055
:100E1800704700BF1000003010B44FF08073074CCB
:100E280040F8043C21F001016FF0020340E903415E
:100E380040E909325DF8044B44387047E10D120867
:100E48004FF0500383F31188BFF36F8FBFF34F8FB9
:100E58000B4A13680133012B136000D070474FF021
:100E6800E023D3F8043DDBB2002BF7D04FF050035A
:100E780083F31188BFF36F8FBFF34F8FFEE700BF77
:100E880010000030084A136843B94FF0500383F349
:100E98001188BFF36F8FBFF34F8FFEE7013B1360DD
:100EA8000BB983F3118870471000003008B54FF074
:100EB800500383F31188BFF36F8FBFF34F8F00F098
:100EC800F5FE28B14FF0E0234FF08052C3F8042D0F
:100ED800002383F3118808BD4FF0E02300224FF66A
:100EE800FF1007211A619A6158611961704700BFA4
:100EF8004FF0E023544AD3F8001D91421CD0D3F898
:100F0800001D524A91420ED0D3F8083D504AD96A82
:100F180091421AD04FF0500383F31188BFF36F8FBB
:100F2800BFF34F8FFEE74FF0500383F31188BFF3F1
:100F38006F8FBFF34F8FFEE74FF0500383F3118895
:100F4800BFF36F8FBFF34F8FFEE7424A9B6B93420D
:100F580008D04FF0500383F31188BFF36F8FBFF3AE
:100F68004F8FFEE730B583B03B4B002201921A78D1
:100F7800FF21D2B28DF8022019701B78374ADBB2F4
:100F88008DF803309DF8033003F05003137043B914
:100F98004FF0500383F31188BFF36F8FBFF34F8F68
:100FA800FEE79DF80330DB4313F0500311D04FF0F8
:100FB800500383F31188BFF36F8FBFF34F8FFEE7A2
:100FC800019A013201929DF803205200D2B28DF8A5
:100FD80003209DF803201206F2D4019A082A05D0AE
:100FE800019BC3F107031B0203F4E0639DF8022091
:100FF8001B48194903604FF0E024D2B20A70D4F8B4
:10100800203D43F47F03C4F8203DD4F8203D00255B
:1010180043F07F43C4F8203DC4F81C5DFFF75CFF34
:10102800104B1D60FFF7CEFED4F8343F43F0404329
:10103800C4F8343FFFF782FE00F04CFEFFF7CCFE09
:10104800284603B030BD00BF71C20F4170C20F41C6
:10105800250D12086D0D120800E400E054800030E0
:10106800588000301000003070B50546FFF7E8FEE4
:1010780095F845305CB2002C14DD05F1240603E038
:10108800631EDAB25CB26AB16B6A304653B100F0E3
:1010980079FE0028F4D000F03BFF631EDAB25CB2A0
:1010A800002AF1D1FF2385F84530FFF7EBFEFFF763
:1010B800C7FE95F844305CB2002C14DD05F110062B
:1010C80003E0631EDAB25CB26AB12B69304653B1F1
:1010D80000F058FE0028F4D000F01AFF631EDAB2C0
:1010E8005CB2002AF1D1FF2385F84430BDE8704096
:1010F800FFF7C8BE58B3C36B70B50446F3B1056CAF
:10110800A5FB0335D5B90E46FFF79AFED4E90F23A0
:101118002168A56303FB02F2D31A0A44A2600B44B8
:10112800FF2284F844206160E36084F8452046BBD0
:101138002369ABB9FFF7A6FE012070BD4FF050033D
:1011480083F31188BFF36F8FBFF34F8FFEE74FF024
:10115800500383F31188BFF36F8FBFF34F8FFEE700
:1011680004F1100000F00EFE0028E3D04FF0E02359
:101178004FF08052C3F8042DBFF34F8FBFF36F8F2A
:10118800D8E704F11000FFF78DFD04F12400FFF704
:1011980089FDCFE730B583B040B1A0FB01230446F9
:1011A80023B901FB00F010F1490F08D94FF05003A3
:1011B80083F31188BFF36F8FBFF34F8FFEE748307B
:1011C8000191FFF715FC054650B1019959B100F19D
:1011D8004803C5E90F412B6001212846FFF78AFF24
:1011E800284603B030BD0346F3E700BF2DE9F043BE
:1011F80085B00192002800F0A0800D460446002921
:1012080047D000F08BFE00284FD0FFF719FEA66BE1
:10121800002E67D1019B002B35D002A800F026FED6
:10122800374604F124084FF0E029FFF72BFE00F0C1
:1012380019FDFFF705FE94F84430FF2B08BF84F82A
:10124800447094F84530FF2B08BF84F84570FFF7C9
:1012580019FE01A902A800F015FE002831D1FFF7F8
:10126800EFFDA36B002B52D0FFF70CFE2046FFF7D3
:10127800FBFE00F0FFFCFFF7E3FDA66B002E31D16B
:10128800019B002BD1D1FFF7FDFD002005B0BDE883
:10129800F083036C002BB4D04FF0500383F3118814
:1012A800BFF36F8FBFF34F8FFEE7019B002BACD0CE
:1012B8004FF0500383F31188BFF36F8FBFF34F8F45
:1012C800FEE72046FFF7D0FE00F0D4FCFFF7B8FD9C
:1012D800A36B002BD7D0FFF7D5FDFFF7B1FDA66BA9
:1012E800002ECDD0226C52B1E168A3681144994216
:1012F800E16024BF2168E160284600F0F1FF23691E
:10130800013EA66313BBFFF7BDFD0120BEE7FFF753
:10131800B9FD0199404600F0EBFC2046FFF7A4FE1A
:1013280000F0A8FC0028D8D14FF08053C9F8043D3C
:10133800BFF34F8FBFF36F8FCFE74FF0500383F3A7
:101348001188BFF36F8FBFF34F8FFEE704F11000D2
:1013580000F018FD0028D6D04FF0E0234FF080525F
:10136800C3F8042DBFF34F8FBFF36F8FCBE700BFD8
:1013780020B311B330B40025164C2B4604EBC3023E
:101388004FEAC30C5268824214D035B10133082B9E
:10139800F4D1C5E9001030BC704754F83320B2B11D
:1013A8000133082B04EBC3024FEAC30CF3D0526895
:1013B8009042F2D104EB0C05EBE770474FF0500375
:1013C80083F31188BFF36F8FBFF34F8FFEE704EBF2
:1013D8000C05DBE75C80003070B504460E46154608
:1013E800FFF72EFD94F84430FF2B04BF002384F848
:1013F800443094F84530FF2B04BF002384F845306F
:10140800FFF740FDA36B23B12046BDE87040FFF70E
:101418002BBE04F124002A46314600F083FC204606
:10142800BDE87040FFF720BE2DE9F843244A254C5B
:10143800254B264E2468D2F80080D3F80090054644
:10144800306804300F46FFF755FC48B93368204927
:10145800DA6A012303FA02F20B6823EA02030B603B
:101468006B1C15D03368316864195C600AD2404639
:101478000431FFF727FC174B1A68A24288BF1C608B
:10148800BDE8F88348460431BDE8F843FFF71ABCC5
:10149800002FE7D0104B30685A6831688260906836
:1014A800C8603168906804314160306819683468F0
:1014B80004300131906019606361BDE8F88300BFB2
:1014C800A080003098810030A48000309C800030DB
:1014D8001C8100304C81003070810030234B10B5E6
:1014E8000022234C1A6021682268236812681B6B4B
:1014F8009A4204D90B6B1A68B2F1A53F29D021682A
:1015080020683431FEF760FF1A4B1B68B3FA83F387
:10151800DBB2C3F11F0303EB8303174A990002EB05
:101528008303505840B94FF0500383F31188BFF339
:101538006F8FBFF34F8FFEE75868083140685860D7
:101548000A44904204BFD8685860C368236023687F
:1015580010BD5A68B2F1A53FD1D19A68B2F1A53F42
:10156800CDD1DB68B3F1A53FC9D1CDE79C8100306F
:101578009C8000301C810030A8800030F8B50F4DE9
:101588002B68CBB10E4F0F4EFFF75AFCFB68DC6897
:10159800201DFFF7AFFB3368013B33602B68013B2D
:1015A8002B60FFF76FFC206BFFF7FCFA2046FFF774
:1015B800F9FA2B68002BE7D1F8BD00BF1081003085
:1015C800848100300C81003008B50B4C4FF0E026C8
:1015D8004FF08055FFF7D2FF2368012BFAD9C6F8E0
:1015E800045DBFF34F8FBFF36F8FFFF7C7FF23680B
:1015F800012BF4D8EEE700BFA88000302DE9F04FAA
:10160800604B1D68013583B01D60002D00F085809A
:101618005D4B0193019B1B689D4264D3DFF878C141
:10162800DCF800301C68002C00F0A7800024574824
:10163800DFF870B1DFF870E1AA46A04644E0D3E9CC
:101648000227596997607A604A68AA420A6808BFFF
:101658004F600026013A5E610A60996A69B1D3E970
:101668000772BA601A6A57604F68A74208BF4A6093
:1016780000229A620A68013A0A60DA6ADEF8009083
:1016880002EB8207012100EB8704914041EA09013E
:10169800CEF80010616899608E68DE6050F82760A7
:1016A80006F101098E6875608D60DBF800105C61D9
:1016B80040F82790DCF80030C96A1B688A4288BF66
:1016C8004FF00108002B4BD0DCF80030DB68DB68FA
:1016D8005A68924503F1040503F11804AFD2019B3F
:1016E80044461A6003E02948DFF8B8B00024DBF864
:1016F8000030274ADB6A126803EB830350F8233073
:10170800022B28BF0124AAB1224B1B68002B0CBF57
:101718002046012003B0BDE8F08F1F4B1A681268FD
:101728005AB14FF0500383F31188BFF36F8FBFF3A3
:101738004F8FFEE7FEF74CFEE6E7184A1868116877
:101748001960174910600A6801320A601A6812683D
:1017580062B90D4B01931A464FF0FF33136059E7F6
:101768004446019A4FF0FF331360C0E71B68064AEE
:10177800DB6801921B6813604CE70448DFF824B06B
:10178800EFE700BF988100304C810030A88000301E
:10179800548100309C810030A0800030A48000304B
:1017A800508100309C8000301C8100302DE9F04FC2
:1017B800564F3B68013B3B60D7F8008083B0B8F1D7
:1017C800000F40F09280524B1B68002B00F08D8078
:1017D800DFF858C1DCF80030002B00F093804D4B47
:1017E800DFF84CE14C4D01934FF0010BC246DCF899
:1017F8000C30DB68D3E907019A6A81604860506859
:1018080003F11804A04208BF51601168C3F828A06A
:1018180001391160D3E90221586991604A60426830
:10182800DEF800401E1DB24208BF41600168DA6A56
:101838000139016002EB820005EB80080BFA02F126
:101848000C43D8F80410CEF800408C68DC60334CA8
:1018580099602468D4F82C9055F8204001340094FD
:101868008C684A4566608E60C3F81480009B45F812
:10187800203084BF019BC3F800B0DCF80030002B97
:10188800B5D1274B1A681268002A36D01A68254B3A
:10189800D26812681A60244D2C68ACB1DDF8048057
:1018A800012606E0FFF7AAFE08B1C8F80060013C6F
:1018B80009D03B68002BF5D02B6801332B60FEF76D
:1018C80087FD013CF5D12C60019B1B686BB14FF083
:1018D800E02312494FF080520968C3F8042DBFF382
:1018E8004F8FBFF36F8F012000E000200090FFF7BB
:1018F800C9FA009803B0BDE8F08F0A4B4FF0FF32E9
:101908001A60C8E7034B0193C5E700BF1481003094
:101918000C8100309C810030A88000309C80003011
:10192800A08000304C810030548100305881003054
:101938001C8100302DE9F0474FEA820907464846E6
:1019480016460D469846FFF753F868B3824654206A
:10195800FFF74EF8044658B35422002100F0CEFC9D
:101968004A46C4F830A05046A52100F0C7FC226BB7
:1019780075B105F1FF3C04F133030F351CF8011F65
:1019880003F8011F09B1AC45F8D1002384F84330AE
:10199800089B042B13D94FF0500383F31188BFF32E
:1019A8006F8FBFF34F8FFEE74FF0FF30BDE8F08732
:1019B8005046FFF7F7F84FF0FF30BDE8F087089B77
:1019C800E362251D63642846A9F104099144FFF7E1
:1019D80075F904F11800FFF771F9089B246129F0E3
:1019E8000709C3F105034846646242463946A361C4
:1019F800FFF712FAA9EB0009B6EBA90F206008D887
:101A08004FF0500383F31188BFF36F8FBFF34F8FED
:101A1800FEE7099B03B11C60FFF712FA414A424EE8
:101A28001368013313603368002B4CD03F4F3B6879
:101A3800002B3FD0E36ADFF81081DFF810E1DFF810
:101A480010C103EB830208EB82099200D9F8041055
:101A5800A1608868E060886845608D60DEF80010E5
:101A6800DCF80000C4F814900131CEF8001058F8E2
:101A780002100125013105FA03F3034348F8021067
:101A8800CCF80030FFF7FEF93B6883B13268E36AAF
:101A9800D26A9A420BD24FF0E0234FF08052C3F83B
:101AA800042DBFF34F8FBFF36F8F28467EE728467C
:101AB800BDE8F0873368DFF89080DA6AE36A9A4213
:101AC80098BF3460B9E734601368012B04D0E36A27
:101AD800DFF87480154FB0E7DFF86C80474608F1EF
:101AE800640938461437FFF7DDF8B945F9D1DFF84E
:101AF80064900F4F4846FFF7D5F83846FFF7D2F8FD
:101B08000C48FFF7CFF80C48FFF7CCF80B48FFF765
:101B1800C9F80B4BC3F800900A4B1F60E36A034FE8
:101B28008BE700BF0C8100309C8000306C81003056
:101B38003481003058810030848100307081003059
:101B4800A0800030A4800030A880003018810030C8
:101B58001C8100302081003010B550B94FF0E023CF
:101B68004FF08052C3F8042DBFF34F8FBFF36F8F30
:101B780010BD124C2368013323602368012B08D061
:101B88004FF0500383F31188BFF36F8FBFF34F8F6C
:101B9800FEE70021FFF748FCFFF752F9236843B935
:101BA8004FF0500383F31188BFF36F8FBFF34F8F4C
:101BB800FEE7FFF7FBFD0028D0D010BD14810030F0
:101BC80030B587B0002349211F4ACDE90233CDE95A
:101BD80004338DF808100DF1090312F8014F03F8CA
:101BE800014B002CF9D1194B1948CDE9004380224B
:101BF800234602A9FFF79EFE012819D100F026FB13
:101C0800012815D14FF0500383F31188BFF36F8F6C
:101C1800BFF34F8F0F49104A104B4FF0FF350D603F
:101C280010601C60FFF764F90D4B1B6807B030BDEE
:101C38000130F9D14FF0500383F31188BFF36F8F50
:101C4800BFF34F8FFEE700BF4423120848810030DE
:101C5800D11512084C8100306C8100309881003019
:101C680014000030024A136801331360704700BF44
:101C78001481003008B5FFF7E3F8084B1B6843B937
:101C88004FF0500383F31188BFF36F8FBFF34F8F6B
:101C9800FEE7BDE80840FFF789BD00BF14810030AA
:101CA800014B1868704700BF9881003008B5074B92
:101CB8001B681BB9BDE80840FFF7A0BC044A1368BD
:101CC80001331360FEF784FB002008BD1481003047
:101CD80054810030044B1B681BB1044B01221A606D
:101CE8007047FFF7FBBB00BF148100309C810030B8
:101CF80060B110B50A4B0C4619681831FEF7E2FFBF
:101D080020460121BDE81040FFF78EBB4FF050037D
:101D180083F31188BFF36F8FBFF34F8FFEE700BFC8
:101D28009C80003018B3F0B4154C45688C46002AE6
:101D380011462268AE68D561226803461662266895
:101D48002268276802F118041A6808BF604602F181
:101D5800010CAA6806F11806566018BF4FF0FF304C
:101D6800AC60BB62F0BCC3F800C0FFF75DBB4FF0CE
:101D7800500383F31188BFF36F8FBFF34F8FFEE7D4
:101D88009C800030C368DB68002B59D0D3E9070179
:101D98009A6A2DE9F04181604860506803F118049F
:101DA800A0422C4808BF516011680068002501391D
:101DB8009D621160B8B128494A68DA619068186272
:101DC80090684460086894600130DA6A9962086033
:101DD800224B1B68DB6A93423DBF214B01201860F0
:101DE8000020BDE8F0819A68D86859699060D86881
:101DF8001C4D42604A68DFF870E01F1DBA4208BFF8
:101E080048600868DA6ADEF800800138086002EB8A
:101E1800820105EB810C8900DCF804409C60A06815
:101E2800D8606858461C0120904040EA0800CEF867
:101E38000000A0684760A760C3F814C06E50C7E7E9
:101E48004FF0500383F31188BFF36F8FBFF34F8FA9
:101E5800FEE700BF14810030588100309C800030BC
:101E68009C810030A88000301C810030034A044B5C
:101E780012681B68C0E90023704700BF508100301A
:101E88009881003038B3F0B50D4683B0D1B104461F
:101E9800FEF7D6FF2B681C4A581C116832D0DFF8B1
:101EA8006CC0D4E90060DCF80070BE421CD08842E7
:101EB8001AD800232B6001200190FEF7E3FF019858
:101EC80003B0F0BD4FF0500383F31188BFF36F8F59
:101ED800BFF34F8FFEE74FF0500383F31188BFF332
:101EE8006F8FBFF34F8FFEE7A1EB000E7345E0D96C
:101EF8005B1ADCF80010126803442B600020C4E968
:101F08000012D9E70020D7E79881003050810030CF
:101F1800014B01221A6070479C810030054B1B68F9
:101F280033B1054B1B68002B0CBF02200020704703
:101F3800012070476C81003014810030F8B5104CD6
:101F4800FEF77EFF25681DB1BDE8F840FEF79ABF91
:101F58000C4F0D4E3846FEF7A5FE3046FEF7A2FEA2
:101F68000A4B1F600A4B2A460C210A201E60FFF705
:101F780011F920600028E7D00649FFF7F9F9E3E7EF
:101F8800D4810030A8810030BC810030A0810030AD
:101F9800A48100304C23120870B50446164605E0AB
:101FA800934219D8236A204698472946A369246191
:101FB8005D182CBF01200020B542A6EB0102656028
:101FC800EED9B14201D90028ECD0074B211D186881
:101FD800BDE87040FEF776BE044B211D1868BDE8C9
:101FE8007040FEF76FBE00BFA0810030A4810030B2
:101FF800104B1B68DB6870B5DC680546201D0E4673
:10200800FEF778FE94F824305A0708D423F0010329
:1020180084F824302046236ABDE8704018472046DB
:1020280032462946FFF7B8FF236A2046BDE87040CC
:10203800184700BFA08100302DE9F04F7F4D804F39
:10204800DFF804827F4E85B04FF0E02A4FF0000998
:102058002B68D3F800B0BBF1000F00F0C680DB6836
:10206800D3F800B0FFF7FEFDFFF71AFE3B68984271
:10207800044679D35845386080F0D0800022306813
:10208800ABEB0401FFF7A8F9FFF7F4FD38B94FF0FF
:102098008053CAF8043DBFF34F8FBFF36F8FCDE96C
:1020A8000199CDF80C903068002201A9FFF79EF83D
:1020B8000028CDD0019B002BF5DBDDF80CB0BBF17F
:1020C800000FF0D0DBF814301BB10BF10400FEF761
:1020D80011FEFFF7E5FD3B689842044611D3019BCA
:1020E8003C60013B082BDED8DFE803F01515644B94
:1020F8006B1515644B00DB684FF0FF311868FFF76C
:1021080077FF2B681A68002AF5D1D8F800202A60D2
:10211800C8F80030E3E79BF82420029BDBF818009E
:10212800CBF810B042F001018BF8241019182CBF1D
:102138004FF0010C4FF0000CA142CBF8041049D825
:10214800E31A98422FD8500763D422F001028BF883
:102158002420DBF8203058469847A4E7DB684FF086
:10216800FF311868FFF744FF2B681A68002AF5D179
:10217800D8F800202A60C8F800303C60FFF77AFDE4
:102188008DE79BF82420029BCBF8183042F001021F
:102198008BF82420002B48D02344A342CBF80430EA
:1021A800CBF810B01BD8D8F800000BF10401FEF7EB
:1021B80089FD78E79BF8243023F001038BF824305D
:1021C80071E79BF824309A071FD523F001038BF899
:1021D800243068E7A34202D9BCF1000FB3D02868C5
:1021E8000BF10401FEF76EFD5DE7FFF73BFDFFF71E
:1021F80057FD3B6883420446B6D8D8F800303C60A7
:102208001A68B2FA82F2520939E75846FEF7CAFC50
:1022180049E722465846FFF7BFFE9AE7FFF72AFD2F
:1022280021465846FFF7E4FE39E74FF0500383F3A1
:102238001188BFF36F8FBFF34F8FFEE7A081003087
:10224800D0810030D4810030A481003000B583B043
:10225800FFF774FE0C4B1B6853B10C4A0C490D4830
:102268000323CDE9003200238022FFF763FB40B946
:102278004FF0500383F31188BFF36F8FBFF34F8F75
:10228800FEE703B05DF804FBD4810030D88100304C
:10229800542312084120120870B50D4D0D4C641BD3
:1022A800A4100026A64209D10B4D0C4C00F02EF8C4
:1022B800641BA4100026A64205D170BD55F8043B46
:1022C80098470136EEE755F8043B98470136F2E7A0
:1022D8005C2312085C2312085C231208602312088E
:1022E8000A44914200F1FF3300D1704710B511F84C
:1022F800014B03F8014F9142F9D110BD0244034646
:10230800934200D1704703F8011BF9E7F8B500BF05
:10231800F8BC08BC9E467047F8B500BFF8BC08BCBE
:042328009E46704716
:10232C00000000000102030401020304060708096F
:10233C00626C696E6B00000049444C450000000063
:10234C00546D725100000000546D7220537663007E
:04235C00BD021208A4
:0423600099021208C4
:102364000090D0030090D003010000001000000092
:08237400AAAAAAAA04000000B5
:04000005081202D902
:00000001FF
