:020000040800F2
:1000000000800120D50700085D150008391500089B
:10001000511500085515000859150008000000008A
:100020000000000000000000000000006115000852
:100030006515000800000000691500086D1500082E
:1000400025080008250800082508000825080008DC
:1000500025080008250800082508000825080008CC
:1000600025080008250800082508000825080008BC
:1000700025080008250800082508000825080008AC
:10008000250800082508000825080008250800089C
:10009000250800082508000825080008250800088C
:1000A000250800082508000825080008250800087C
:1000B000250800082508000825080008250800086C
:1000C000250800082508000825080008250800085C
:1000D000250800082508000825080008250800084C
:1000E000250800082508000825080008250800083C
:1000F000250800082508000825080008250800082C
:10010000250800082508000825080008250800081B
:10011000250800082508000825080008250800080B
:1001200025080008250800082508000825080008FB
:1001300025080008250800082508000825080008EB
:1001400025080008250800082508000825080008DB
:1001500025080008250800082508000825080008CB
:1001600025080008250800082508000825080008BB
:1001700025080008250800082508000825080008AB
:10018000250800082508000825080008250800089B
:1001900025080008000000002508000825080008C0
:1001A000250800082508000825080008250800087B
:1001B000250800082508000825080008250800086B
:1001C000250800082508000825080008250800085B
:0801D0002508000825080008BD
:1001D8000348044B834202D0034B03B118477047CE
:1001E8003400002034000020000000000548064BC1
:1001F8001B1AD90F01EBA301491002D0034B03B11D
:100208001847704734000020340000200000000028
:1002180010B5064C237843B9FFF7DAFF044B13B146
:100228000448AFF300800123237010BD3400002080
:1002380000000000C435000808B5044B1BB1044990
:100248000448AFF30080BDE80840CFE70000000095
:1002580038000020C435000853B94AB9002908BF3E
:1002680000281CBF4FF0FF314FF0FF3000F06AB993
:10027800ADF1080C6DE904CE00F006F8DDF804E0F5
:10028800DDE9022304B070472DE9F047089D0E46CA
:1002980004460F46002B4AD194468C45B2FA82F2A6
:1002A80060D942B1C2F12003974020FA03F30CFA57
:1002B80002FC1F4394404FEA1C4E1FFA8CF6B7FB12
:1002C800FEF1230C0EFB117743EA074301FB06F00E
:1002D80098420AD91CEB030301F1FF3780F015811E
:1002E800984240F21281023963441B1AA4B2B3FB4C
:1002F800FEF00EFB103344EA034400FB06F6A64268
:100308000AD91CEB040400F1FF3380F00081A642F7
:1003180040F2FD806444023840EA0140A41B0021F9
:100328001DB1D4400023C5E90043BDE8F0878B42E6
:1003380005D90DB1C5E9000100210846F5E7B3FA72
:1003480083F1002946D1B34202D3824200F2F580FC
:10035800841A66EB030201201746002DE5D0C5E993
:100368000047E2E7002A40F09380A1EB0C034FEA34
:100378001C471FFA8CFE0121B3FBF7F607FB16306A
:10038800230C43EA00430EFB06F0984208D91CEB05
:10039800030306F1FF3802D2984200F2D0804646A5
:1003A8001B1AA4B2B3FBF7F007FB103344EA03446B
:1003B8000EFB00FEA64508D91CEB040400F1FF3330
:1003C80002D2A64500F2B6801846A4EB0E0440EA15
:1003D8000640A5E7C1F120078B4022FA07FC4CEA4A
:1003E800030C06FA01FE20FA07F426FA07F344EA9A
:1003F8000E0400FA01F84FEA1C404FEA1449B3FB17
:10040800F0FE1FFA8CF600FB1E3349EA03430EFB8D
:1004180006F9994502FA01F20BD91CEB03030EF118
:10042800FF3A80F08580994540F28280AEF1020E55
:100438006344A3EB0909A4B2B9FBF0F300FB1399D9
:1004480044EA094403FB06F6A64208D91CEB040457
:1004580003F1FF3068D2A64266D9023B644443EAFE
:100468000E40A41BA0FB02E6B4427346B14652D329
:100478004FD05DB1B8EB030264EB090404FA07F747
:1004880022FA01F31F43CC40C5E9007400214CE770
:10049800C2F1200120FA01F30CFA02FC26FA01F15C
:1004A800964033434FEA1C471FFA8CFEB1FBF7F026
:1004B80007FB1016190C41EA064100FB0EF68E42A6
:1004C80004FA02F408D91CEB010100F1FF382DD21F
:1004D8008E422BD902386144891B9BB2B1FBF7F6D7
:1004E80007FB161143EA014306FB0EF1994208D9AE
:1004F8001CEB030306F1FF3814D2994212D9023ECD
:1005080063445B1A46EA004136E73946EDE6184689
:1005180002E7F045ADD2BEEB020366EB0C060138EC
:10052800B146A6E74646ECE7034698E74046D3E7D8
:10053800D6467EE76444023847E708460DE7023EA0
:1005480063442DE7704700BF70B50F4B0F4DAB42AA
:10055800A3EB050607D0B610002455F8043B013478
:100568009847A642F9D803F029F8094D094B5E1BB4
:10057800AB424FEAA60606D0002455F8043B0134E6
:100588009847A642F9D870BD2837000828370008D0
:10059800283700082C370008830730B547D0541E89
:1005A800002A3ED0CAB2034601E0013C39D303F821
:1005B800012B9D07F9D1032C2CD9CDB205EB0525CC
:1005C8000F2C05EB054535D9A4F1100222F00F0CCC
:1005D80003F1100EE6444FEA121C1A46C2E9005510
:1005E800C2E9025510327245F8D10CF1010214F03B
:1005F8000C0F03EB021204F00F0C13D0ACF1040340
:1006080023F003030433134442F8045B9342FBD101
:100618000CF003042CB1C9B21C4403F8011BA3421B
:10062800FBD130BD64461346002CF4D1F9E70346EC
:100638001446C0E71A46A446E0E700BF844641EAEC
:10064800000313F003036DD1403A41D351F8043B42
:1006580040F8043B51F8043B40F8043B51F8043B94
:1006680040F8043B51F8043B40F8043B51F8043B84
:1006780040F8043B51F8043B40F8043B51F8043B74
:1006880040F8043B51F8043B40F8043B51F8043B64
:1006980040F8043B51F8043B40F8043B51F8043B54
:1006A80040F8043B51F8043B40F8043B51F8043B44
:1006B80040F8043B51F8043B40F8043B51F8043B34
:1006C80040F8043B51F8043B40F8043B403ABDD2A3
:1006D800303211D351F8043B40F8043B51F8043B45
:1006E80040F8043B51F8043B40F8043B51F8043B04
:1006F80040F8043B103AEDD20C3205D351F8043BD4
:1007080040F8043B043AF9D2043208D0D2071CBF9F
:1007180011F8013B00F8013B01D30B8803806046C8
:10072800704700BF082A13D38B078DD010F003033E
:100738008AD0C3F10403D21ADB071CBF11F8013BAE
:1007480000F8013B80D331F8023B20F8023B7BE7FD
:10075800043AD9D3013A11F8013B00F8013BF9D228
:100768000B7803704B7843708B78837060467047C2
:10077800032A30B415D941EA0004A40784460B467D
:1007880004D0541E0FE0043A032A08D919466046DB
:1007980053F8044B5CF8045BA542F4D0F1E76046DB
:1007A8001946541E7AB1431E0139021901E09A42D2
:1007B80009D013F8010F11F801CF6045F7D0A0EB6D
:1007C8000C0030BC7047002030BC70470D4885468F
:1007D80000F026F80C480D490D4A002302E0D458D1
:1007E800C4500433C4188C42F9D30A4A0A4C002373
:1007F80001E013600432A242FBD3FFF7A5FE00F02C
:100808000FFDFEE7008001200000002034000020DA
:100818003037000834000020140D0020FEE70000E7
:10082800034AD2F8883043F47003C2F8883070471E
:1008380000ED00E02DE9F04FCDB00DF12C09834615
:100848001BAF0CA84A464B780E78CD788C781B04E1
:1008580043EA06632B4343EA042342F8043FBA42BF
:1008680001F10401EFD10CAE1A9B1B9C56F8C01B7A
:100878001F46D0F824C00D4650F8041F4FEAF7422F
:1008880082EA77424FEAB14382EA972283EAF11378
:10089800624483EAD1031A442746B04205EB0204B6
:1008A800C463E6D1DBE90012DBF80830DBF81C5042
:1008B800DBF80C400395DBF81000DBF81470DBF86C
:1008C800186005940194CDE90912314DDDF80CA0AA
:1008D80004930690079708969E4614468C46CDF8D2
:1008E8002CB005E03E46A6460746644640469C4670
:1008F80055F8042F59F8041F4FEAF02383EAB01380
:100908000A4483EA7063134426EA000800EA0702EF
:1009180088EA02084FEA7C3282EABC0282EABC52C8
:1009280002924344019ACDF804E053441A4484EAFD
:100938000E0101EA0C01904604EA0E0B029A81EAC4
:100948000B010A441344134A9542B246CAD1DDE961
:1009580009121944049B059DDDF82CB023441C465C
:10096800069B434462449C46079B03441846089BE5
:100978003B441F46039B75443344CBE90012CBE943
:100988000245CBE904C0CBE906734DB0BDE8F08F52
:10099800EC350008EC360008B2B30A442DE9F84FEC
:1009A8001A4F04464D1E02F1FF3AC1F1010B00F146
:1009B80028094FF0000801E0554514D0A36EE2184D
:1009C80001330BEB0506402B15F8011F82F82810A0
:1009D800A3660AD0C6F30B06002EEDD1384602F006
:1009E80005FA5545EAD1BDE8F88F49462046FFF794
:1009F80021FFD4E9083213F5007342F10002C4E97B
:100A08000832C4F86880E5E7704700BF5404002046
:100A1800F8B5866E82190D46372E4FF080010446D0
:100A280006F1010382F8281045D8382B07D006F1C3
:100A38002900C6F1370220440021FFF7ADFD04F17B
:100A48002807D4E908230820E6FB0023226212BA0B
:100A58001E0E6266002266F307021E0C66F30F2262
:100A68001E0A66F3174263F31F6239466362204623
:100A78002266FFF7DFFE1823691E2268DA4001F8B4
:100A8800012F6268DA400A71A268DA400A72E268E5
:100A9800DA400A732269DA400A746269DA400A7530
:100AA800A269DA400A76E269DA40083B13F1080FD6
:100AB8000A77E2D1F8BD3F2B07D806F12900C6F125
:100AC8003F0220440021FFF767FD04F1280739465B
:100AD8002046FFF7AFFE382200213846FFF75CFDBD
:100AE800AFE700BF000000002DE9F04FD7B02AADF6
:100AF8000E46074601920021402228469946FFF7F4
:100B08004BFD402E3246394640F2FA8081A7D7E99C
:100B18000067CDE93A6781A7D7E90067CDE93C6767
:100B280080A7D7E90067CDE93E6780A7D7E90067C6
:100B38000DF1E808CDE9406700234046002600276C
:100B4800CDE942675493FFF727FF29464046FFF750
:100B58005FFF1AAE29A909AA334651F8040F80F09D
:100B6800363780F05C3042F8047F43F8040BAB4220
:100B7800F3D168A1D1E90001CDE93A0167A1D1E932
:100B88000001CDE93C0167A1D1E90001CDE93E01B1
:100B980066A1D1E900010AAFCDE940010023002098
:100BA8000021CDE94201DFF868A13C469B4602E0FE
:100BB800A64214D0549B14F8010B03F5AC720DEB4C
:100BC80002010133402B01F8480C549369D0E31B10
:100BD800012BEDD1504602F009F9A642EAD14A4666
:100BE8000199DFF82CA140460DF10809FFF7D4FE62
:100BF80049464046FFF70CFF46A1D1E90001CDE97F
:100C08003A0146A1D1E90001CDE93C0145A1D1E96C
:100C18000001CDE93E0145A1D1E90001CDE940013E
:100C280000200021CDE942010024B34601E05D45E2
:100C380014D004F5AC730DEB030201341BF8011B4F
:100C480002F8481C402C54943AD0ABEB0602012A17
:100C5800EDD1504602F0CAF85D45EAD12C4E4D461A
:100C68004FF0000A02E0AF4214D0549C15F8012B53
:100C780004F5AC736B440134402C03F8482C5494AD
:100C88002FD0A5EB0903012BEDD1304602F0AEF8C9
:100C9800AF42EAD160994046FFF7BAFE57B0BDE8C7
:100CA800F08F44A94046FFF7C5FDDDE9423113F551
:100CB800007341F10001CDE94231CDF850B186E72A
:100CC80044A94046FFF7B6FDDDE9422112F500725E
:100CD8004FF0000341F10001CDE9422154931C4635
:100CE800B3E744A94046FFF7A5FDDDE9423213F515
:100CF800007342F10002CDE94232CDF850A1C0E7BD
:100D08002846FFF79BFC0DF1E80822E7AFF30080C7
:100D18005404002067E6096A85AE67BB72F36E3C2F
:100D28003AF54FA57F520E518C68059BABD9831FAE
:100D380019CDE05BA2B100B500F1FF3C0139624476
:100D480000201CF8013F11F801EF944583EA0E03D7
:100D580040EA0300F5D1B0FA80F040095DF804FBE1
:100D6800012070472DE9F0411C4D2B7806460F46AF
:100D78009046A3B1B8F1000F2DD007EB0801184C2D
:100D88007A1E0139304612F8013F4340DBB28A42ED
:100D980054F8233083EA1020F5D1BDE8F0811148DA
:100DA80011499E4600F580647246082342F3000C00
:100DB800013B0CEA010C13F0FF038CEA5202F5D157
:100DC80040F8042F84420EF1010EEDD101232B705F
:100DD800B8F1000FD1D13046BDE8F08150000020B5
:100DE80054000020500000202083B8EDC043704715
:100DF800002937D02DE9F04D00F178401A4EDFF880
:100E08006C8086B0C50A01EBD0274FF0000A4FF07E
:100E1800010B07E0019B01331CD1013501F0E6FF0E
:100E2800BD421BD00123CDE90453CDE902AB01F04B
:100E3800FDFCB3694CF2FA3243F07043B36101A987
:100E4800326102A801F01EFE044601F003FD40468F
:100E5800002CDFD0002006B0BDE8F08D012006B0E0
:100E6800BDE8F08D012070470020024054040020A6
:100E78002DE9F04F83B0154606460F4601F0D6FC23
:100E8800384B9A6942F070429A614CF2FA321A6110
:100E9800002D62D0DFF8D08000244FF0FF3A4FF0E9
:100EA800FF3B02E00834A5421BD92A1B082A28BFA9
:100EB800082239196846CDE900ABFFF7BFFBDDE929
:100EC80000230020311901F0F9FC00283FD1C4F3B8
:100ED8000903002BE6D14046083401F087FFA542FC
:100EE800E3D801F0B7FCBFF34F8FDFF87C904FF0E9
:100EF80000084FF0FF3A4FF0FF3B03E008F1080805
:100F0800454520D9A5EB0802082A28BF082207EB87
:100F180008016846CDE900ABFFF790FB06EB080334
:100F2800D3E900230098019C9C4208BF9042C8F373
:100F380009010ED10029E1D1484608F1080801F05D
:100F480055FF4545DED8012003B0BDE8F08F01F01C
:100F580081FC002003B0BDE8F08F01F07BFCBFF3FB
:100F68004F8FF0E7002002405404002000000000EA
:100F780002F2FF738C46D90A68D02DE9F04F2DEDA7
:100F8800028B8BB0CB024FF000099FED318BDFF85D
:100F9800CC8002939246074664244D460391CDF8CF
:100FA80004C01BE0059B013344D1FFF761FF002813
:100FB80040D0294801F01AFF3346039A2046494693
:100FC800FFF74AF9C1B2072000F064FB029B6434C2
:100FD80049F100099D4207F5006731D0AB46012170
:100FE80005F50065AA45099107F1784134BFAAEBD8
:100FF8000B024FF40062C90A009208918DED068B2E
:1010080001F014FCD8F818104CF2FA3041F0704195
:10101800C8F8181005A9C8F8100006A801F032FD94
:10102800064601F017FCDDE9002338460BEB030107
:10103800002EB7D000200BB0BDEC028BBDE8F08FBE
:1010480001200BB0BDEC028BBDE8F08F012070478A
:1010580000000000010000005404002000200240AD
:1010680070B5124C124E05468446A646BEE80F00DF
:10107800B6450CF1100C04F110044CF8100C4CF8A7
:101088000C1C4CF8082C4CF8043CEED1234607CB3A
:10109800CCF80000CCF80410CCF808202868054BE0
:1010A800C01AB0FA80F0400970BD00BF0080000887
:1010B800308000085550415570B5264C264E0546DF
:1010C8000FCC96B00DF11C0CACE80F000FCCACE8BF
:1010D8000F000FCCACE80F0094E80700079BB34261
:1010E8008CE8070005D13C22294607A8FFF740FBFA
:1010F80060B30121102201230020CDE90423CDE9AA
:10110800020101F093FB154B9A694CF2FA3042F058
:1011180070429A6101A9186102A801F0B3FC044663
:1011280001F098FB2CB9019B013306D0204616B07C
:1011380070BD0024204616B070BD3C2229460548E3
:10114800FFF796FE0446204616B070BD01242046DF
:1011580016B070BD0080000855504155002002406F
:1011680010B594B03422002107A8FFF715FA00241F
:1011780002214FF48072402306A8CDE90923069185
:10118800CDE90244CDE90444019401F095FE0F2213
:101198000123214601A8CDE90123CDE903440594A3
:1011A80002F008F914B010BD1B4A1C48D16C30B5C8
:1011B80041F00401D164D26C87B002F0040200232C
:1011C8000225009201A90724CDE90433009A02936D
:1011D8000194039501F0CEFC0121104801F0C8FDEF
:1011E800294604460D4801F0C3FDA4F10104B4FAF0
:1011F80084F4640901284FF00401084808BF2C430F
:1012080001F0B6FD012808BF44F0040404F13000E1
:10121800400107B030BD00BF001002400008004880
:101228002DE9F04FB04EB1499BB0032240F2E733AD
:101238003046C6E90012B36001F0A6FD00F040FF99
:10124800FFF78EFFFFF7B0FF814600F00BFAA84BBF
:10125800A848DA6C42F00202DA64DA6C02F00202A0
:101268000392039ADA6C42F04002DA64DA6C02F014
:1012780040020492049A9A6D42F000729A659B6D3E
:1012880003F0007305934FF4407300254FF00208F4
:10129800069306A909230127CDE90983059A08952C
:1012A8008024CDF81C8001F065FC93480F950BA9AC
:1012B800CDE90B47CDE90D5501F05CFC2A462146E6
:1012C8008D488E4C01F05AFD0D23E361E362204600
:1012D8008B4B2360C4E90887C4E90C87C4E902552D
:1012E800C4E90577C4E90E552782A574A76200F002
:1012F80097FF10A92046CDE91375CDE91055CDF813
:101308004880159501F0C8F83B462A4629460097BB
:10131800204601F0EDF8204601F00CF900F034FA0F
:10132800804600F0E9FE774D074600F0E5FEC01B59
:10133800B0F5167F34D2304601F058FD40212046E2
:1013480001F064FAB8B10BAB10AA4021204601F0B5
:10135800C3F980B9DDE911231343E6D1109B4B454E
:1013680009D3A3EB0903012B139A40F09F80120CB9
:10137800082A00F0AB8000F0BFFE2B68C01AB0F559
:101388007A7FD2D300F0B8FEFF21034601202B60FC
:1013980000F080F900F0B0FEC01BB0F5167FCAD38C
:1013A800B8F1000F7FD1012000F062F9564EDFF846
:1013B8006481DFF864A14C4F504C384601F016FDAB
:1013C8004021204601F022FAE8B10BAB10AA4021D7
:1013D800204601F081F9B0B9DDE911231343ECD1BE
:1013E800109B4B450FD3A3EB0903012BBDF84E10FF
:1013F80043D0072B47D0022B4BD0042B4DD0082BC2
:1014080068D100F061F900F077FE2B68C01AB0F5DA
:101418007A7F18D23378002BCFD098F800B0BBF180
:10142800000FCAD100F068FEDAF8002042F210730B
:10143800801A9842C1D9012086F800B088F800B017
:1014480000F016F9B9E700F057FE337828608BB141
:1014580098F8003073B92D4A12685AB12C490968B6
:101468006420A1FB0001FEF7F7FEC1B2032000F0E3
:1014780011F9CFE70120FF21F9E70829C3D10BA80B
:1014880000F07CFABFE70829BDD10BA800F0D0FB1B
:10149800B9E70BA800F0F0FBB5E70829B3D10BA812
:1014A80000F064FCAFE700F01BFA7CE7082B02D1E0
:1014B80000F00AF95FE70B2B05D00E2B7FF45BAF2A
:1014C80000F000FB57E700F045F954E70BA800F0DF
:1014D80055FA68E70B2B21D00D2B22D1042992D184
:1014E8000BA800F0DBFA8EE754040020003000401F
:1014F800001002400004004800180048640400205E
:101508000064004004000020D0040020080D0020E2
:10151800000D0020C9040020CC04002000F01AF9B6
:1015280071E70E2B7FF46FAF00F0CCFA6BE700BFCA
:10153800044B4FF090416FF0A0504FF0FF3208601D
:101548001A60FEE700040048FEE700BFFEE700BFA0
:10155800FEE700BF704700BF704700BF704700BF7D
:10156800704700BF00F0BCBD2DE9F0431B4D1C4E79
:101578008DB0804689461746322409E0304601F08E
:1015880035FC012000F0BEFD631E13F0FF041FD0E0
:10159800284601F045F90028F0D0380400234946D0
:1015A8003A46069001A8CDE90433CDE90733CDE9E1
:1015B8000933CDE90133CDF80C800B93FFF73EF8E2
:1015C800064801AA03A901F025F80DB0BDE8F0838B
:1015D800024801F025F90028DFD1F6E7640400206D
:1015E8005404002070B51A4D1A4E2868326800F568
:1015F80080308830B2F5006F82B04FEAC02406D23E
:101608001548FF211044C2F50062FEF7C5FF2046C9
:1016180011494FF40062FFF72BFC044610B920462D
:1016280002B070BD0D4A2B68106804220DEB020150
:101638001BBA03300193FFF797FF2B680848002275
:10164800013332602B6001F0D1FB204602B070BD3F
:10165800D4040020D8040020DC0400200C0D002055
:1016680054040020014B1860704700BF0C0D002087
:1016780000B5074A0346106883B0012201A9053066
:101688008DF80430FFF770FF03B05DF804FB00BF6E
:101698000C0D002030B5054683B009480C4601F012
:1016A800BFF850B1074B8DF8045018688DF8054005
:1016B800022201A90630FFF757FF03B030BD00BF73
:1016C800640400200C0D002010B592B003A8FFF7A9
:1016D800C7FCA0B3DDE905219DF81C304FEA126E66
:1016E800C2F3074CC2F30724C1F30720D2B2C9B230
:1016F8008DF80740154C8DF8090020688DF80820F2
:101708008DF80A108DF80B3001A901230822093041
:101718008DF805E08DF806C08DF80430FFF724FF3A
:101728000B4B20681B68ADF800301C0C032269467F
:101738000A308DF80240FFF717FF12B010BD0346BC
:1017480001460246044684468646D1E70C0D002031
:10175800DC35000800B50A4B0A4A1B6810681B6C88
:1017680083B0C3F3062C022201A90C308DF8043093
:101778008DF805C0FFF7F8FE03B05DF804FB00BF65
:10178800640400200C0D002070B5A2B003A8FFF778
:1017980067FC50B94C4C4D4A236803F16043A3F5EC
:1017A800807393421AD922B070BD494B059A9A4268
:1017B80012D1089B5A1EB2F56C3F0DD2049A022A28
:1017C80035D01A4640494FF0FF30FFF7CBFAFFF704
:1017D8000DFB099B834260D00020E4E701463022DC
:1017E80015A8FEF7D9FE36A1D1E900014FF46C35F2
:1017F800CDE91201364B14932A4621464FF0FF30AB
:101808001795FFF7AFFAFFF7F1FA19AB0646202153
:10181800009322462B462F481896FFF765F912A821
:10182800FFF74AFC003818BF012022B070BD2A4BD0
:10183800186801220723053012A98DF84830FFF7F0
:1018480093FE26492048089AFFF792FB0028C3D048
:1018580003AD0FCD12AC0FC40FCD0FC40FCD0FC405
:1018680095E80700012684E8070012A81396FFF7F9
:1018780023FC0028B0D012AC0FCC0DF10C0CACE856
:101888000F000FCCACE80F000FCCACE80F0094E8C9
:101898000700089B8CE8070093E712AC089B0A4AEC
:1018A8000C4800942021FFF71FF920220AA920469E
:1018B800FFF740FA003818BF012074E7AFF3008043
:1018C800555041550100000000900008007F0100BC
:1018D80031303447F03600080C0D00200040040871
:1018E8002DE9F041204D214A2C686E6804F16043CF
:1018F800A3F58073934235D814F0030732D1F30768
:1019080030D506F17843A3F51043B3F56C3F29D2DF
:10191800152000F057FC164800F066FE01F06CFA3E
:1019280000F092FB4FF090404FF0E0221149124B2B
:101938006FF0A05CC0F800C04FF0FF30086017617E
:10194800576197615A6842F000725A6072B69D609A
:10195800BFF34F8FBFF36F8F84F308883346BDE81A
:10196800F0411847BDE8F08100900008007F0100B1
:10197800640400200004004800ED00E070B504682D
:101988004368374A3749384D24BA18BA0860146092
:101998002868621EB2F56C3F82B000F1050046D29D
:1019A800324A934239D10223012201A98DF8043029
:1019B800FFF7DAFD04F2FF712D48C90AFFF718FA9C
:1019C800044600283CD04FF40062FF212948FEF766
:1019D800E3FD2949294A00230B604FF0FF311160CC
:1019E8002749284A0B70284913600B602749284A61
:1019F8000B70284901240B70147000F07DFB264BF6
:101A0800064628681E602246032301A905308DF882
:101A18000430FFF7A9FD02B070BD40F20543022271
:101A280001A9ADF80430FFF79FFD02B070BDFF2398
:101A3800012201A98DF80430FFF796FD02B070BDB0
:101A48002868FF2301A9012205308DF80430FFF72B
:101A58008BFD0E4A0E4B012111701C7002B070BD37
:101A6800080D0020040D00200C0D002047343031F3
:101A780000400408DC040020000D002008000020BD
:101A8800DC0C0020D8040020D4040020C904002065
:101A9800D0040020C8040020CC0400200378D02BF8
:101AA80000D0704743789E2BFBD18378122BF8D156
:101AB800C378AD2BF5D1024B01221A70F1E700BFB4
:101AC800C80400202DE9F04F544B1C78A1B014B184
:101AD80021B0BDE8F08F11A8FFF7C2FADFF84C91EA
:101AE80058B9D9F800000023042204A90F30049340
:101AF800FFF73AFD21B0BDE8F08F129BD9F800003E
:101B0800012B00F10F00ECD1454B139A9A42E8D112
:101B1800169ABDF858300292013AB2F56C3F5BBA9A
:101B2800DFD2029DADF8123004222B0C04A98DF8E7
:101B380011308DF81040FFF717FD05F2FF73DB0A2F
:101B4800029A0393A04608F500639A42354E364F31
:101B5800A24660D2B2EB0805134623D0CDE9003A7D
:101B680008F1006B00240BF5104BA046A5EB040A06
:101B7800BAF1080F28BF4FF0080A0BEB04015246D0
:101B880007A8CDE90788FEF759FDD9F800005246A5
:101B98000F3007A90834FFF7E7FCA542E6D8DDE9CE
:101BA800003A984600F0A8FA40F6B735044600F027
:101BB800A3FA03461B1BAB42304689D801F016F93D
:101BC8004021384600F022FE0028F0D005AB07AAD5
:101BD8004021384600F080FD0028E8D1DDE90823DF
:101BE8001343E4D1D9F80030079A14339A42DED16E
:101BF800BDF82A30042BDAD1059B1BBA9A45D6D1F9
:101C0800039B0AF1010A53453FF462AF029A08F5B3
:101C180000639A429ED34FF400659FE7D0040020EA
:101C28003130344754040020640400200C0D002097
:101C380038B50C4B1A789AB10B4A127882B90B4D09
:101C48002A78032A0CD80346094C5968006804EB23
:101C5800C20303C301322A7000F04EFA054B186024
:101C680038BD00BFD0040020C9040020DC0C0020CF
:101C7800E00C0020CC0400202DE9F04FDFF8E0B0A4
:101C880085B09BF800200190002A4AD02E4B1A7884
:101C9800002A46D108290E4643D82C4DDFF8C490B7
:101CA8002868D9F80010884249D3002E3DD0019BFE
:101CB800DFF8B48026495F1E002402E00134A64202
:101CC80033D02A68D9F80000824202F101032BD2EE
:101CD800D8F8002017F801AF01F802A0501CB0F5A1
:101CE800006FC8F800002B60E8D1FFF77BFC1849AB
:101CF80082460028E2D1621C164C01992068FFF741
:101D080031F8154920600868FF228DF80C2005304D
:101D1800012203A9FFF728FC0B4B8BF800A0012236
:101D28001A7005B0BDE8F08F26460A4C0199206864
:101D38003246FFF717F8206005B0BDE8F08F00F0D5
:101D4800DBF906490860B0E7C9040020000D00204F
:101D5800DC040020080000200C0D0020CC0400202A
:101D6800D0040020080D0020D80400202DE9F04FF1
:101D7800A14C2378BBB013B1A04D2B7813B13BB065
:101D8800BDE8F08F804600F0B7F99D4B18609D4B79
:101D98001B68002B40F0B1809B4B9C4E1A6833683F
:101DA8009A4203D19A4B1B78042B11D0994A106898
:101DB80040F2051302220530ADF8AC302BA9FFF72D
:101DC800D3FB0022012322702B703BB0BDE8F08FBB
:101DD800914BD8F800701868D8F80430B8F804B0F7
:101DE800B8F806A00393FFF701F8DFF828928046B9
:101DF800D9F8000006233FBA053001222BA98DF837
:101E0800AC30FFF7B1FBB84540F08B8005AF0097C9
:101E1800824A834833682021FEF766FE81492022E2
:101E28003846FEF787FF002800F085800DA8FFF7E9
:101E380017F99BFA9BFB9AFA9AFA1FFA8BF11FFA89
:101E48008AF328B1DDF838A0BAF1010F00F09080CC
:101E5800754ACDF88880CDE91F13744B1B681E9313
:101E6800734B1C93336821930023137002231D9333
:101E78000FCF0DF18C0CACE80F0097E80F008CE841
:101E88000F001CA8FFF718F90746D9F80000002F23
:101E980062D00723053001222BA98DF8AC30FFF75B
:101EA80063FB32685D496348FFF762F8064600281D
:101EB8007FD01CAE0FCE2BAF0FC70FCE0FC70FCEE4
:101EC8000FC796E807004FF0010887E807002BA81E
:101ED800CDF8B080FFF7F0F80646002877D1D9F89A
:101EE8000000FF230530424604A98DF81030FFF7A3
:101EF8003BFB267085F8008041E7FFF773FB064639
:101F080000287FF449AF434A1068FF2305300122B7
:101F18002BA98DF8AC30FFF727FB012326702B7017
:101F28002DE7D9F8000040F205232BA90530ADF8BC
:101F3800AC30022243E70390D9F8000040F20532A2
:101F4800ADF8AC202BA902220530FFF70DFB039B4F
:101F5800237001222A7012E7FF232BA905300122E2
:101F68008DF8AC30FFF700FB012327702B7006E7D4
:101F7800039A92FA82FCDDE9100242EA00426245C5
:101F8800294A7FF666AF92F800B0BBF1000F7FF4E4
:101F980060AFD9F8000040F205532BA905300222A2
:101FA800ADF8AC30FFF7E0FA84F800B085F800A08F
:101FB800E5E6D9F80000FF232BA9053001228DF8AA
:101FC800AC30FFF7D1FA012326702B70D7E6042036
:101FD800FFF74EFB4FF4167000F094F8BFF34F8FE5
:101FE8001549164BCA6802F4E0621343CB60BFF38D
:101FF8004F8F00BFFDE700BFD0040020C9040020B8
:10200800CC040020D8040020000D0020080D00207A
:10201800DC0C00200C0D0020080000200040040803
:10202800F0360008E00C0020C8040020040D002051
:10203800555041550090000800ED00E00400FA05F5
:10204800704700BF704700BF10B5094B4FF0FF3213
:1020580000249A639C631A641C649A629C62DA6224
:10206800DC621A631C63FFF7EDFF204610BD00BF5A
:102078000010024038B50F4B1B680BB9012038BD62
:102088000D494FF47A720546B2FBF3F30868B0FBCA
:10209800F3F000F0A9F804460028EFD10F2DEDD891
:1020A800024629464FF0FF3000F050F8034B204617
:1020B8001D6038BD0C00002000000020100000202A
:1020C80010B5032000F030F80F20FFF7D3FF10B150
:1020D8000124204610BD0446FFF7B2FF204610BD7C
:1020E800034A0449136809680B441360704700BF2A
:1020F800100D00200C000020014B1868704700BF2D
:10210800100D002038B50446FFF7F6FF631C05469E
:1021180002D0044B1B681C44FFF7EEFF401BA04293
:10212800FAD338BD0C0000200749CA6803024FF6ED
:10213800FF0003F4E0630240134343F0BF6343F43A
:102148000033CB60704700BF00ED00E01B4BDB683D
:10215800C3F3022300B5C3F1070EBEF1040F03F168
:10216800040C28BF4FF0040EBCF1060F1CD9A3F1D4
:10217800030C4FF0FF3303FA0CF322EA03024FF08B
:10218800FF3303FA0EF321EA030303FA0CF31343B4
:102198001B010028DBB20ADB00F1604000F561405A
:1021A80080F800335DF804FB00229446E7E7044A10
:1021B80000F00F00024413765DF804FB00ED00E028
:1021C800FCEC00E000280CDB4309064900F01F0086
:1021D80020330122824041F82320BFF34F8FBFF301
:1021E8006F8F704700E100E00138B0F1807F01D3C4
:1021F8000120704710B44FF0E023074C58614FF0AE
:10220800F00C84F823C00022072110469A615DF87B
:10221800044B1961704700BF00ED00E0704700BF34
:10222800002800F00A812DE9F04190F85C3004465E
:1022380003F0FF02002B73D02268936923F0100388
:102248009361FFF759FF054604E0FFF755FF401B70
:102258000A285BD823689A691207F6D49A6942F06B
:1022680001029A61FFF748FF054604E0FFF744FFC3
:10227800401B0A284AD822689369DB07F6D5936978
:10228800764943F002038A42936100F0D180237CAF
:10229800012B93690CBF23F0400343F04003936183
:1022A800637C012B93690CBF43F4804323F4804380
:1022B8009361A37C012B93690CBF23F4805343F4EF
:1022C800805393619369A068E16823F440730343E2
:1022D8009361936923F0A40393611369012923F09F
:1022E8001003136121D021B30229936900F0B28051
:1022F80043F0800393611369032943F010031361CA
:1023080017D1936943F02003936112E0236E0322EF
:1023180043F00103236684F85C200120BDE8F081C6
:1023280080F85D20FFF77AFF86E7936943F004039E
:102338009361D4E90613013B01391B0243EA416367
:10234800216A01390B436169013943EA0143B0F558
:10235800407FD3610ED1D4E90B03A16A013B013858
:102368001B01013943EA00230B43616A013943EA3F
:102378000143D360D2F8C030E06B394903438A4245
:10238800C2F8C0305BD03748374B384E384D394FDC
:10239800824201F58B4101F1700118BF1946A3F182
:1023A800D80318BF984600F57D50A3F1180300F133
:1023B800100018BF1E46A3F1D80314BF1F46844659
:1023C800A3F1D803A0F1400014BF9C468646A3F1B0
:1023D8004003A0F5E26014BF9E46A84603F5C66315
:1023E80018BF0346D2F88000656B236420F4F81008
:1023F80040EA0540C2F88000D2F88000A56BC4F816
:1024080044E020F0706040EA0560C2F88000C4E94A
:1024180012C7C4E91468002243F8042B8B42FBD38B
:102428000123226684F85C30A2650020BDE8F081B3
:10243800114B6168C3F8001529E7012070470F495F
:10244800DFF844800E4E0F4FDFF840C0DFF840E061
:10245800054BC7E743F0200393616AE70064004037
:1024680000680040006C004050A7004000AD0040EC
:1024780018AD004028AC004000600040A0AA004011
:10248800B0A90040D8A80040C8A9004000A8004052
:10249800C0A70040704700BF90F85C20013A012AAD
:1024A800034605D9026E42F0020201201A667047FF
:1024B80070B48A684869D1E90354D1E90061920788
:1024C80056B942EAC56202431B6C42EA0442002044
:1024D80070BC43F8212070475B6C44EA457443F8AC
:1024E800314003EBC1031043586070BC00207047B3
:1024F800844690F85C00012807D0DCF8603043F08F
:1025080004030120CCF86030704710B40198DCF85F
:10251800004040EA4303D4F8800043EA820242EADA
:10252800011120F03F030B43C4F8803000205DF810
:10253800044B704790F85C20012A034605D0026ED0
:1025480042F0040201201A6670470068022283F8EC
:102558005C208269002122F0010282610846196626
:10256800704700BF38B590F85C30022B044605D0A0
:10257800036E43F008030366012038BD02689369BF
:1025880043F001039361FFF7B7FD054604E0FFF749
:10259800B3FD431B0A2B1FD823689A69D207F6D5C7
:1025A8009A6922F010029A61FFF7A6FD054604E039
:1025B800FFF7A2FD401B0A280ED82268936913F082
:1025C8000803F5D19169012541F00201916184F870
:1025D8005C501846A36538BD236E032243F00103FF
:1025E800236684F85C20C7E788B110B50446FFF776
:1025F800B9FF2268D36D23F003032046D365FFF7A4
:1026080049FF0023236684F85C30184610BD01207A
:10261800704700BFF0B590F85C30022B86460BD1AE
:102628000568D5F8C43013F4001C0BD0036E43F4CE
:10263800007303660120F0BD036E43F008030366D0
:102648000120F0BDD5F8C4604B680F6988680C6834
:10265800C6F30146002B37D1074347EA8447D1E93F
:10266800060303434869CC680343086A43EA0063E6
:1026780043EA0443DEF8540006EBC60440F834701D
:1026880000EBC400134C4360CB68E35CA3B19378C0
:10269800D7781B0443EA076317783B43577843EA24
:1026A80007230CEB00070CF1040CBB60CB68E35C60
:1026B8009C4502F10402EAD30123B340C5F8CC30AB
:1026C8000020CEF85830F0BD2743074347F0804735
:1026D800C5E700BF103700082DE9F04190F85C40CD
:1026E800022C64D1402905686DD0D5F89840270799
:1026F80064D0D5F89870D5F89840E601C7F301285A
:1027080007D5D5F88040E40544BF08F1010707F074
:102718000308C46C08EBC80604EBC604266806F078
:1027280080465660002E68D12668C6F38A46166031
:10273800266806F000569660266806F00046166180
:10274800A688D661B4F806C00CF00F0CC2F80CC00D
:10275800666806F480165661666806F40016966187
:10276800E67906F07F061662274E676816F80CE0D1
:102778004FEAD77CC2F824C0BEF1000F10D0013B4D
:1027880004F1070EF4461EF8015F03F8015FD568EF
:10279800ACF1060C755DACEB040C6545F2D8056828
:1027A80040292ED0C5F89C800020BDE8F081036E3A
:1027B80043F0080303660120BDE8F081036E43F48B
:1027C80080730366F7E7D5F890402707F6D0D5F869
:1027D8009070D5F89040E601C7F3012807D5D5F8E1
:1027E8008040A40544BF08F1010707F00308846C82
:1027F80008EBC80604EBC60490E7266826F0604696
:1028080095E7C5F89480CFE710370008036840299A
:102818000CBFD3F89000D3F8980000F00F00704771
:102828000368D3F8C40000F007007047064B5A69E4
:10283800002A01DB002070470449054A99609A6024
:102848005869C00F704700BF002002402301674548
:10285800AB89EFCD044B5A6942F000425A6158697E
:10286800C043C00F704700BF0020024070B5054646
:10287800FFF742FC0F4E044604E0FFF73DFC001B47
:10288800A8420ED83369DA03F7D433694CF2FA3226
:10289800134008D13369DB0744BF012333610020AB
:1028A80070BD032070BD04494A681A434A6001207C
:1028B800336170BD00200240140000202DE9F84368
:1028C800344E98463378012B27D0012307464FF41E
:1028D8007A700D4614463370FFF7C8FF814620B161
:1028E800002333704846BDE8F8832B4A70601368AC
:1028F80013F480631FBF136823F4806313600223FB
:1029080033777FB17B1E012B22D94FF47A70FFF702
:10291800ADFF814600F086F8E2E74FF0020948462D
:10292800BDE8F8831C4A536943F0010353612C60E6
:10293800BFF36F8F4FF47A70C5F80480FFF796FFE6
:102948006FF001018146144A53690B405361E1E776
:1029580011494B6943F4802322464B61EFF31084FD
:1029680072B6A91A02F58070136853500432824275
:10297800FAD184F31088022F4FF47A7003D0FFF74E
:1029880075FF8146C6E7FFF771FF6FF48021814626
:10299800D9E700BF14000020002002400E4B1A6A3D
:1029A800510212D5C20703D55A6942F004025A618E
:1029B800830704D5084A536943F400435361064A20
:1029C800536943F48033536170475A6942F40042B3
:1029D80042F004025A61F2E700200240104B1A6AE2
:1029E80012F4800F5A6901D0C90714D522F4006285
:1029F8005A610B4B5A69C00022F47E7200F4FF60E2
:102A0800104358615A6942F002025A615A6942F405
:102A180080325A61704742F400625A61E9E700BFA8
:102A28000020024015490B7F03F0FD02012ADBB2AA
:102A380010D1134A106820F400701060106840F438
:102A480000601060106820F400601060106840F4A6
:102A580000701060023B012B0CD8094B1A6842F435
:102A680080521A601A6822F480521A601A6842F476
:102A780080621A6000230B77704700BF14000020A3
:102A8800002002402DE9F047374F3B78012B4AD010
:102A9800044601254FF47A7088463D70FFF7E6FE3C
:102AA800064620B100233B703046BDE8F0872F4B27
:102AB80078601A6812F4007F1A6838D1520541D537
:102AC8001A6822F480621A6002233B772368012B7C
:102AD8003AD04FF0FF33C8F80030D4E902532B4402
:102AE8009D421DD2DFF884A0DFF8849005E0D4E988
:102AF800023201351344AB4212D961682846FFF708
:102B08006DFF4FF47A70FFF7B1FEDAF8143003EA7C
:102B18000903CAF814300028E9D0C8F8005006465E
:102B2800FFF780FFBEE702263046BDE8F087510573
:102B380006D51A6822F480621A6003233B77C5E73A
:102B48003D77C3E73877C1E76068FFF727FF4FF4A1
:102B58007A70FFF78BFE054A536923F4004323F08C
:102B6800040306465361DBE71400002000200240FE
:102B780005FCFFFF2DE9F04F0C6885B0002C00F034
:102B88009080744F00238946012202FA03F515EA62
:102B9800040800F08180D9F8041001F0030E032620
:102BA80003FA02F20EF1FF3A06FA02FCBAF1010F3B
:102BB800D9F808606FEA0C0C76D9BEF1030F01D181
:102BC800012E05D0C568964005EA0C052E43C6605F
:102BD80005680EFA02F205EA0C052A4311F4403F93
:102BE800026059D05C4D2A6E42F001022A662A6EB4
:102BF80002F001020392039A23F0030202F18042D9
:102C080002F5803203F003069568B6004FF00F0C0A
:102C18000CFA06FCB0F1904F25EA0C0E1CD04F4D73
:102C2800A84200F082804E4DA84200F08580DFF86F
:102C380034C1604572D0DFF830C1604500F0838050
:102C4800DFF828C160450CBF4FF0050C4FF0060CAB
:102C58000CFA06F64EEA060EC2F808E0BA686FEA01
:102C68000805CE0254BF2A4048EA0202BA60FA6850
:102C78008E0254BF2A4048EA0202FA607A688E033C
:102C880054BF2A4048EA02027A603A68C90354BF2E
:102C98002A4048EA02023A60013334FA03F27FF428
:102CA80073AF05B0BDE8F08F9640D0F808B0019634
:102CB800D9F80C600BEA0C0B06FA02FA4AEA0B0A7E
:102CC800C0F808A0D0F804A0019E2AEA050AC1F3BA
:102CD80000159D4045EA0A054560C56805EA0C05EA
:102CE8002E43BEF1020FC6607FF472AFD9F81050C0
:102CF8004FEAD30A03F0070600EB8A0AB600B5408C
:102D0800DAF820B001950F2505FA06F6019D2BEAA1
:102D1800060B45EA0B05CAF8205059E74FF0030C9B
:102D28000CFA06F64EEA060E96E74FF0010C0CFA7E
:102D380006F64EEA060E8FE74FF0020C0CFA06F67E
:102D48004EEA060E88E74FF0040C0CFA06F64EEA37
:102D5800060E81E70004014000100240000400480C
:102D680000080048000C0048001000480014004803
:102D78000369194214BF0120002070470AB181611C
:102D880070478162704700BF40B3D0E9003170B529
:102D9800826804464CF6CC40186045F255501860DD
:102DA80059609A60FFF7A8F92368DA680546500762
:102DB8000DD041F60106FFF79FF9401BB04223688A
:102DC80002D9DA6851070BD1DA685207F3D11969C9
:102DD800E268914206D01A61002070BD0120704758
:102DE800032070BD4AF6AA221A60F5E703684AF67E
:102DF800AA2200201A60704770B52B4CFFF77CF9A7
:102E0800236843F480730546236004E0FFF774F9F0
:102E1800401B022825D823685B05F7D56368224E36
:102E280043F080436360FFF767F90123A360054619
:102E380041F2883404E0FFF75FF9401BA04210D844
:102E4800B36803F00C03042BF5D11849184B194A41
:102E580008681A60FFF70EF9044628B101242046D5
:102E680070BD0324204670BD4FF480733360336017
:102E7800FFF742F90C4D064604E0FFF73DF9831BC6
:102E8800022BEED82B6813F00073F6D14FF4805163
:102E98004FF0FF32E960AB612A62D5F8943043F411
:102EA8000003C5F89430DDE7001002401000002050
:102EB800000000200024F400002800F0BD812DE966
:102EC800F0410368D90782B0044612D5A6498A683A
:102ED800C96802F00C020C2A00F0D080082A40F0E1
:102EE800D280A14A1268920303D56268002A00F0D2
:102EF80037819A0722D59C4A9368D26803F00C035D
:102F08000C2B00F0F880042B40F0FA80964B1B68DD
:102F18005B0503D5E368002B00F02281924A206903
:102F28005368924923F0FE4343EA006353600868FC
:102F3800FFF7A0F8002840F0138123681A0719D575
:102F48006369894D002B00F0C280D5F8943043F0B6
:102F58000103C5F89430FFF7CFF8064605E0FFF700
:102F6800CBF8801B022800F21781D5F894309B0714
:102F7800F5D523685D0741D57B4B9A6DD00000F1EC
:102F88000F819A6D42F080529A659B6D03F08053D1
:102F98000193019B0125764E3368D90540F12E81B6
:102FA800A368012B00F0FE80052B00F084816E4E93
:102FB800D6F8902022F00102C6F89020D6F890208A
:102FC80022F00402C6F89020002B40F0F280FFF7B0
:102FD80093F841F28838074605E0FFF78DF8C01BE3
:102FE800404500F2D980D6F890309907F5D425B13C
:102FF8005D4A936D23F08053936523689A0618D52C
:10300800A369594D002B00F0E580D5F8983043F0BE
:103018000103C5F89830FFF76FF8064605E0FFF79B
:103028006BF8801B022800F2B780D5F898309B0710
:10303800F5D5E369F3B14C4DAA6802F00C020C2AED
:1030480000F04781022B2B6823F080732B6000F07F
:10305800F580FFF751F8044605E0FFF74DF8001B2F
:10306800022800F299802B689B01F6D4EA68414B4C
:103078001340EB60002002B0BDE8F08101F00301CD
:1030880003293FF42EAF6368B3F5803F55D0B3F5FD
:10309800A02F00F0C480344D2A6822F480322A60C0
:1030A8002A6822F480222A60002B4BD1FFF724F8EB
:1030B800064604E0FFF720F8801B64286CD82B68CC
:1030C8009903F7D423689A077FF538AF13E7D5F843
:1030D800943023F00103C5F89430FFF70DF8064645
:1030E80004E0FFF709F8801B022855D8D5F894307A
:1030F8009F07F6D43DE702F00302022A3FF406AF29
:10310800E368194D002B37D02B6843F480732B608C
:10311800FEF7F2FF064604E0FEF7EEFF801B0228EA
:103128003AD82B685F05F7D56B68226923F0FE4310
:1031380043EA02636B60236800E70B4A136843F4B1
:1031480080331360FEF7D8FF074E054604E0FEF70C
:10315800D3FF401B64281FD833689F03F7D5B1E716
:10316800012002B0BDE8F0810010024010000020EC
:1031780000700040FCFFEEFE2B6823F480732B6088
:10318800FEF7BAFF06462B6859057FF5D6AEFEF75F
:10319800B3FF801B0228F6D9032002B0BDE8F081F6
:1031A8000025F8E6654AD2F8903043F00103C2F8EA
:1031B8009030FEF7A1FF614F064641F2883804E0DF
:1031C800FEF79AFF801B4045E6D8D7F890309B075A
:1031D800F6D50CE7D5F8983023F00103C5F89830F8
:1031E800FEF78AFF064604E0FEF786FF801B0228EA
:1031F800D2D8D5F898309F07F6D41AE7336843F445
:1032080080733360FEF778FF07463368DA053FF5C9
:10321800C7AEFEF771FFC01B0228F6D9BCE703F161
:103228008043A3F53C331A6842F480221A601A6876
:1032380042F480321A6085E701207047FEF75CFF90
:10324800064604E0FEF758FF801B0228A4D82B6826
:103258009901F7D4E9683A4B226A606A0B40134334
:10326800D4E90A1243EA012343EAC263D4E90C12FF
:103278000138490843EA00130139520843EA415327
:10328800013A43EA4263EB602B6843F080732B609A
:10329800EB6843F08073EB60FEF72EFF274D044682
:1032A80005E0FEF729FF001B02283FF675AF2B68E3
:1032B8009A01F6D5DEE6214BD3F8902042F00402BD
:1032C800C3F89020D3F8902042F00102C3F8902070
:1032D8006FE7012B3FF444AFEB68226A03F0030168
:1032E80091427FF43DAF616A03F0F0020139B2EB1D
:1032F800011F7FF435AFA16A03F4FE42B2EB012F40
:103308007FF42EAFE16A03F07842B2EBC16F7FF42D
:1033180027AF226B520803F4C001013AB1EB425FB8
:103328007FF41EAF626B520803F0C063013AB3EB3F
:10333800426F14BF012000209DE600BF001002402C
:103348000C809F01184B9A6802F00C02042A26D0C0
:103358009A6802F00C02082A23D09A6802F00C023C
:103368000C2A01D000207047D968DA68D86801F0C3
:1033780003010329C2F30312C0F306200CBF0B4B51
:103388000B4B0132B3FBF2F303FB00F0064BDB6897
:10339800C3F3416301335B00B0FBF3F070470448AB
:1033A80070470248704700BF0010024000127A00C0
:1033B8000024F400002800F0EE80784A2DE9F84354
:1033C800136803F00F038B420D4604460CD21368B2
:1033D80023F00F030B431360136803F00F038B42B2
:1033E80002D00120BDE8F8832368DF0769D5676844
:1033F800032F00F0A0806A4B022F1B6800F0978013
:103408005B05EED5FFF79EFF664B984240F2C08001
:10341800634A936823F0F00343F0800393604FF00E
:1034280080095F4EB36823F003033B43B360FEF7A4
:1034380063FE41F28838074604E0FEF75DFEC01BD4
:10344800404571D8B368626803F00C03B3EB820F90
:10345800F3D123689F0736D4B9F1000F03D0B368BE
:1034680023F0F003B3604D4E336803F00F03AB4213
:1034780046D823685A0706D54949E0688A6822F47D
:10348800E06202438A601B0707D5454A21699368B1
:1034980023F4605343EAC1039360FFF753FF404AA4
:1034A800414C92684149C2F303120346A25C40486A
:1034B80002F01F02D3400B600068BDE8F843FEF736
:1034C800D9BD9E07CFD5580704D535498A6842F437
:1034D800E0628A60190706D5314A936823F47C5361
:1034E80043F4E06393602E4AA16893682B4E23F05F
:1034F800F0030B439360336803F00F03AB42B8D972
:10350800336823F00F032B433360FEF7F5FD41F2D8
:1035180088380746336803F00F03AB42A9D0FEF79B
:10352800EBFDC01B4045F5D90320BDE8F8839A039D
:103538003FF568AF55E71A4A116888017FF551AF22
:10354800D068D168D268174E00F003000328C1F391
:1035580003110CBF174818480131B0FBF1F11048AE
:10356800C2F3062201FB02F2C168C1F341610131D5
:103578004900B2FBF1F2B2420AD9826812F0F00FA8
:103588003FF446AF990703D5A368002B3FF440AF3B
:103598004FF0000945E70120704700BF00200240B6
:1035A8000010024000B4C404E03500080000002008
:1035B8001000002000127A000024F400F8B500BFC3
:1035C800F8BC08BC9E467047F8B500BFF8BC08BCFC
:0435D8009E46704754
:1035DC0000000900000000000000000001020304CC
:1035EC0006070809982F8A4291443771CFFBC0B562
:1035FC00A5DBB5E95BC25639F111F159A4823F92B2
:10360C00D55E1CAB98AA07D8015B8312BE8531240A
:10361C00C37D0C55745DBE72FEB1DE80A706DC9BCB
:10362C0074F19BC1C1699BE48647BEEFC69DC10F77
:10363C00CCA10C246F2CE92DAA84744ADCA9B05CB3
:10364C00DA88F97652513E986DC631A8C82703B076
:10365C00C77F59BFF30BE0C64791A7D55163CA0684
:10366C0067292914850AB72738211B2EFC6D2C4D90
:10367C00130D385354730A65BB0A6A762EC9C2817E
:10368C00852C7292A1E8BFA24B661AA8708B4BC214
:10369C00A3516CC719E892D1240699D685350EF43E
:1036AC0070A06A1016C1A419086C371E4C774827F5
:1036BC00B5BCB034B30C1C394AAAD84E4FCA9C5B6B
:1036CC00F36F2E68EE828F746F63A5781478C884BC
:1036DC000802C78CFAFFBE90EB6C50A4F7A3F9BE9E
:1036EC00F27871C648594452412D554D432D5243E1
:1036FC00422D323032362D4348414E47452D4D45F3
:10370C002D2121210001020304050607080C1014C9
:04371C001820304001
:0837200070CBFF7F01000000E7
:043728004102000852
:04372C001902000876
:103730000024F40018FCFFFFFFFFFFFF0100000062
:103740001000000000000000000000000000000069
:103750000000000001000000000000000000000068
:043760000000000065
:04000005080007D513
:00000001FF
