:020000040800F2
:109000000080012089940008659B0008699B000886
:109010006D9B0008719B0008759B00080000000014
:1090200000000000000000000000000009A8000887
:10903000D99400080000000051A8000899A9000870
:10904000D9940008D9940008D9940008D99400084C
:10905000D9940008D9940008D9940008D99400083C
:10906000D9940008D9940008D9940008D99400082C
:10907000D9940008D9940008D9940008D99400081C
:10908000D9940008D9940008D9940008D99400080C
:10909000D9940008D9940008D9940008D9940008FC
:1090A000D9940008D9940008D9940008D9940008EC
:1090B000D9940008D9940008D9940008D9940008DC
:1090C000D9940008D9940008D9940008D9940008CC
:1090D000D9940008D9940008D9940008D9940008BC
:1090E000D9940008D9940008D9940008D9940008AC
:1090F000D9940008D9940008D9940008D99400089C
:10910000D9940008D9940008D9940008D99400088B
:10911000D9940008D9940008D9940008D99400087B
:10912000D9940008D9940008D9940008D99400086B
:10913000D9940008D9940008D9940008D99400085B
:10914000D9940008D9940008D9940008D99400084B
:10915000D9940008D9940008D9940008D99400083B
:10916000D9940008D9940008D9940008D99400082B
:10917000D9940008D9940008D9940008D99400081B
:10918000D9940008D9940008D9940008D99400080B
:10919000D994000800000000D9940008D994000870
:1091A000D9940008D9940008D9940008D9940008EB
:1091B000D9940008D9940008D9940008D9940008DB
:1091C000D9940008D9940008D9940008D9940008CB
:0891D000D9940008D9940008AD
:1091D8000348044B834202D0034B03B1184770473E
:1091E8001400002014000020000000000548064B71
:1091F8001B1AD90F01EBA301491002D0034B03B18D
:1092080018477047140000201400002000000000D8
:1092180010B5064C237843B9FFF7DAFF044B13B1B6
:109228000448AFF300800123237010BD180000200C
:109238000000000088BD000808B5044B1BB10449B4
:109248000448AFF30080BDE80840CFE70000000005
:109258001C00002088BD000870B50F4B0F4DAB42B5
:10926800A3EB050607D0B610002455F8043B0134DB
:109278009847A642F9D802F083FD094D094B5E1BB9
:10928800AB424FEAA60606D0002455F8043B013449
:109298009847A642F9D870BD04BE000804BE00086D
:1092A80004BE000808BE0008830730B547D0541E26
:1092B800002A3ED0CAB2034601E0013C39D303F884
:1092C800012B9D07F9D1032C2CD9CDB205EB05252F
:1092D8000F2C05EB054535D9A4F1100222F00F0C2F
:1092E80003F1100EE6444FEA121C1A46C2E9005573
:1092F800C2E9025510327245F8D10CF1010214F09E
:109308000C0F03EB021204F00F0C13D0ACF10403A2
:1093180023F003030433134442F8045B9342FBD164
:109328000CF003042CB1C9B21C4403F8011BA3427E
:10933800FBD130BD64461346002CF4D1F9E703464F
:109348001446C0E71A46A446E0E700BF844641EA4F
:10935800000313F003036DD1403A41D351F8043BA5
:1093680040F8043B51F8043B40F8043B51F8043BF7
:1093780040F8043B51F8043B40F8043B51F8043BE7
:1093880040F8043B51F8043B40F8043B51F8043BD7
:1093980040F8043B51F8043B40F8043B51F8043BC7
:1093A80040F8043B51F8043B40F8043B51F8043BB7
:1093B80040F8043B51F8043B40F8043B51F8043BA7
:1093C80040F8043B51F8043B40F8043B51F8043B97
:1093D80040F8043B51F8043B40F8043B403ABDD206
:1093E800303211D351F8043B40F8043B51F8043BA8
:1093F80040F8043B51F8043B40F8043B51F8043B67
:1094080040F8043B103AEDD20C3205D351F8043B36
:1094180040F8043B043AF9D2043208D0D2071CBF02
:1094280011F8013B00F8013B01D30B88038060462B
:10943800704700BF082A13D38B078DD010F00303A1
:109448008AD0C3F10403D21ADB071CBF11F8013B11
:1094580000F8013B80D331F8023B20F8023B7BE760
:10946800043AD9D3013A11F8013B00F8013BF9D28B
:109478000B7803704B7843708B7883706046704725
:109488000D48854600F026F80C480D490D4A002382
:1094980002E0D458C4500433C4188C42F9D30A4AA1
:1094A8000A4C002301E013600432A242FBD3FFF709
:1094B800D3FE00F0E5FAFEE700800120000000205E
:1094C800140000200CBE00081800002020430020D3
:1094D800FEE70000034AD2F8883043F47003C2F86C
:1094E8008830704700ED00E0F0B50F468DB04021A0
:1094F800044616461D4600F089FE10B900200DB03E
:10950800F0BD20466B4602AA402100F0E5FD002888
:10951800F4D19DF81620029B3B60082A28BF082238
:10952800694630462A70FFF711FF01200DB0F0BDE3
:10953800F0B58DB01C460E46174605462022002180
:1095480004A8FFF7B1FE082C22460C4B039628BF4F
:10955800082253F8223006930023CDE9013334B9A9
:1095680001AA03A9284600F055FD0DB0F0BD22461A
:10957800394601A8FFF7EAFEF2E700BFA0BD0008E0
:10958800A24BA349DA6C2DE9F04742F00402DA64F1
:10959800DA6C9AB002F0040200230992A1F8603054
:1095A800072281F86230022509989A48159314A970
:1095B800CDE917331492169500F032FE0121954833
:1095C80000F02CFF29460446924800F027FFA4F13A
:1095D8000104B4FA84F401284FEA54144FF004014A
:1095E8008C4808BF2C4300F019FF012808BF44F03D
:1095F8000404894B854D8948303464011C60EB6C48
:1096080043F00203EB64EB6C03F002030693069B42
:10961800EB6C43F04003EB64EB6C03F040030793FF
:10962800079BAB6D43F00073AB65AB6D03F0007344
:1096380000244FF0020808934FF0090A4FF44073D2
:109648000AA901260A93089A0C948027CDF82C8041
:10965800CDF83480CDF838A000F0E2FD0FA97048AD
:109668001394CDE90F76CDE9114400F0D9FD3946C0
:109678006C4F6B48224600F0D7FE4FF00D096A4B3D
:109688003B603846C7E90244C7E90566C7E908866A
:10969800C7E90C86C7E90E443E82BC74BE62C7F8AF
:1096A8001C90C7F82C9000F015FB14A93846CDE99A
:1096B8001444CDE91686CDE9184400F045FC22464D
:1096C800334621460096384600F06AFC384600F0DA
:1096D80089FCEB6C514843EA0803EB64EB6C03EA42
:1096E80008030393039BEB6C43F04003EB64EB6CC0
:1096F80003F040030493049BAB6D43F00073AB6528
:10970800AB6DCDF838A003F000730593059BCDF839
:10971800348060230AA90A934FF48077CDE90B843B
:1097280000F07EFD0FA93E480F97CDE91144139430
:10973800109600F075FD39463C4F3948224600F036
:1097480073FE3B4B3B603846C7E90244C7E90566F0
:10975800C7E90886C7E90C86C7E90E443E82BC748F
:10976800C7F81C90C7F82C90BE6200F0B3FA14A991
:109778003846CDE91444CDE91764CDF858801994DA
:1097880000F0E2FB3346224621460096384600F0B8
:1097980007FC384600F026FCEB6C20483343EB64AA
:1097A800EB6C33400293029BEB6C43EA0803EB64D7
:1097B800EB6C03EA08030A930A9BEB6C43F004037F
:1097C800EB64EB6C169603F0040340F606420F9325
:1097D80014A914920F9B1594CDE9174400F020FDAD
:1097E800182314A90B48149300F01AFD042314A994
:1097F8004FF09040149300F013FD8823074814930A
:1098080014A900F00DFD1AB0BDE8F0870010024061
:109818003400002000080048980000200004004898
:109828000018004800010020006400409C0000204F
:1098380000680040F0B58BB007AD7D4803AB2A4601
:1098480005A9FFF751FED0B97A480DF1070303AA1D
:1098580002A9FFF749FE80B1774E029B3468A34204
:109868000BD304F11F02934207D81B1B102B00F0E7
:109878008E80122B35D0132B43D00BB0F0BD6F4C1C
:10988800BDF8141094F862309DF80C20072B09D904
:10989800013B84F8623094F86130013303F0070328
:1098A80084F8613094F860300C2000FB034003EB2F
:1098B80043039B00082AE152234428BF08220330AF
:1098C80029469A70FFF742FD94F86030013303F09F
:1098D800070384F8603094F86230013384F862300A
:1098E800B2E79DF80730022BC7D9BDF80C105048D5
:1098F800033B49BADBB20DF10F0289B2FFF718FE3C
:10990800BBE74E4A92F86230002BB6D0013B82F892
:10991800623092F8613003EB4301013303F007032F
:1099280002EB810182F8613007C985E807009DF8DC
:109938001E70BDF81C308DF81670052F3D4628BFE7
:1099480005255BBA0DF11F012A460DF11700ADF888
:109958001430FFF7FBFCEB1C3648DBB204F11301B3
:1099680005AAFFF7E5FD052F87D97A1F09A9D2B205
:109978000DF117008DF81670FFF7E8FC31682D48D7
:10998800BB1EDBB205AA1331FFF7D2FD75E7002332
:10999800022107932A486B6000F040FD0421B0FAC9
:1099A80080F42748640900F039FD08B944F002043E
:1099B80023484FF4806100F031FD08B944F00404F5
:1099C8001F484FF4006100F029FD08B944F008046D
:1099D8001C48102100F022FD08B944F01004194871
:1099E800082100F01BFD08B944F0200404214FF0C1
:1099F800904000F013FD8021B0FA80F710487F09ED
:109A080000F00CFD08B947F002070D48082100F0E6
:109A180005FD08B947F00407316806488DF81C4071
:109A280002232A4610318DF81D70FFF781FD24E7C7
:109A38009C00002000010020980000203400002035
:109A4800000400480008004808B5FFF7F3FE0520A9
:109A580001F0F6FDF9E700BF08B5074D074C2846A9
:109A680000F024FD20464FF4005100F0E3FC4FF4D1
:109A7800FA7001F0E5FDF2E76801002000080048EF
:109A880010B51F491F488AB0032240F2E73380E827
:109A98000E0000F0D9FC00F091F808B172B6FEE7AC
:109AA800194BDA6C42F00402DA64DB6C069003F0BE
:109AB8000403044603934FF4005204A913480123F6
:109AC800CDE90423CDE90744039B00F0A9FBFFF788
:109AD80057FD0123CDE900340D490E482346802265
:109AE80001F09CFC0223CDE900340B490B482346C6
:109AF8004FF4807201F092FC01F0D6FD72B6FEE7D9
:109B080000300040680100200010024000080048B2
:109B1800C4BD0008619A0008CCBD0008519A00082D
:109B280072B6FEE772B6FEE700F058B80A4B1A6E36
:109B380042F001021A661A6E82B002F00102009227
:109B4800009A9A6D42F080529A659B6D03F080539B
:109B58000193019B02B0704700100240704700BF9C
:109B6800FEE700BFFEE700BFFEE700BFFEE700BF5D
:109B780038B50F4B1B680BB9012038BD0D494FF4A0
:109B88007A720546B2FBF3F30868B0FBF3F000F015
:109B980085F804460028EFD10F2DEDD80246294656
:109BA8004FF0FF3000F03EF8034B20461D6038BDF3
:109BB80004000020000000200800002010B5032049
:109BC80000F01EF80F20FFF7D3FF10B10124204644
:109BD80010BD0446FFF7AAFF204610BD034A0449FA
:109BE800136809680B441360704700BF78010020B0
:109BF80004000020014B1868704700BF780100205E
:109C08000749CA6803024FF6FF0003F4E063024005
:109C1800134343F0BF6343F40033CB60704700BF86
:109C280000ED00E01B4BDB68C3F3022300B5C3F172
:109C3800070EBEF1040F03F1040C28BF4FF0040E09
:109C4800BCF1060F1CD9A3F1030C4FF0FF3303FA44
:109C58000CF322EA03024FF0FF3303FA0EF321EA72
:109C6800030303FA0CF313431B010028DBB20ADBDE
:109C780000F1604000F5614080F800335DF804FBB6
:109C880000229446E7E7044A00F00F0002441376E6
:109C98005DF804FB00ED00E0FCEC00E00138B0F1F9
:109CA800807F01D30120704710B44FF0E023074CA8
:109CB80058614FF0F00C84F823C0002207211046A9
:109CC8009A615DF8044B1961704700BF00ED00E030
:109CD800704700BF002800F00A812DE9F04190F894
:109CE8005C30044603F0FF02002B73D022689369AE
:109CF80023F010039361FFF77DFF054604E0FFF7AB
:109D080079FF401B0A285BD823689A691207F6D4A2
:109D18009A6942F001029A61FFF76CFF054604E078
:109D2800FFF768FF401B0A284AD822689369DB07B7
:109D3800F6D59369764943F002038A42936100F0AD
:109D4800D180237C012B93690CBF23F0400343F09F
:109D580040039361637C012B93690CBF43F48043F8
:109D680023F480439361A37C012B93690CBF23F4F4
:109D7800805343F4805393619369A068E16823F4A6
:109D8800407303439361936923F0A40393611369B8
:109D9800012923F01003136121D021B3022993690B
:109DA80000F0B28043F0800393611369032943F004
:109DB8001003136117D1936943F02003936112E0F4
:109DC800236E032243F00103236684F85C200120FC
:109DD800BDE8F08180F85D20FFF77AFF86E7936998
:109DE80043F004039361D4E90613013B01391B02D4
:109DF80043EA4163216A01390B436169013943EA46
:109E08000143B0F5407FD3610ED1D4E90B03A16AB9
:109E1800013B01381B01013943EA00230B43616A06
:109E2800013943EA0143D360D2F8C030E06B3949C5
:109E380003438A42C2F8C0305BD03748374B384EAC
:109E4800384D394F824201F58B4101F1700118BF3D
:109E58001946A3F1D80318BF984600F57D50A3F121
:109E6800180300F1100018BF1E46A3F1D80314BF51
:109E78001F468446A3F1D803A0F1400014BF9C46B6
:109E88008646A3F14003A0F5E26014BF9E46A846AB
:109E980003F5C66318BF0346D2F88000656B2364D8
:109EA80020F4F81040EA0540C2F88000D2F880009B
:109EB800A56BC4F844E020F0706040EA0560C2F881
:109EC8008000C4E912C7C4E91468002243F8042BCF
:109ED8008B42FBD30123226684F85C30A265002004
:109EE800BDE8F081114B6168C3F8001529E701202E
:109EF80070470F49DFF844800E4E0F4FDFF840C01F
:109F0800DFF840E0054BC7E743F0200393616AE7B9
:109F18000064004000680040006C004050A700400A
:109F280000AD004018AD004028AC00400060004083
:109F3800A0AA0040B0A90040D8A80040C8A9004085
:109F480000A80040C0A7004090F85C20013A012A10
:109F5800034605D9026E42F0020201201A667047D4
:109F680070B48A684869D1E90354D1E9006192075D
:109F780056B942EAC56202431B6C42EA0442002019
:109F880070BC43F8212070475B6C44EA457443F881
:109F9800314003EBC1031043586070BC0020704788
:109FA800844690F85C00012807D0DCF8603043F064
:109FB80004030120CCF86030704710B40198DCF835
:109FC800004040EA4303D4F8800043EA820242EAB0
:109FD800011120F03F030B43C4F8803000205DF8E6
:109FE800044B704790F85C20012A034605D0026EA6
:109FF80042F0040201201A6670470068022283F8C2
:10A008005C208269002122F00102826108461966FB
:10A01800704700BFF0B590F85C30022B86460BD134
:10A028000568D5F8C43013F4001C0BD0036E43F454
:10A03800007303660120F0BD036E43F00803036656
:10A048000120F0BDD5F8C4604B680F6988680C68BA
:10A05800C6F30146002B37D1074347EA8447D1E9C5
:10A06800060303434869CC680343086A43EA00636C
:10A0780043EA0443DEF8540006EBC60440F83470A3
:10A0880000EBC400134C4360CB68E35CA3B1937846
:10A09800D7781B0443EA076317783B43577843EAAA
:10A0A80007230CEB00070CF1040CBB60CB68E35CE6
:10A0B8009C4502F10402EAD30123B340C5F8CC3031
:10A0C8000020CEF85830F0BD2743074347F08047BB
:10A0D800C5E700BFECBD00082DE9F04190F85C40F1
:10A0E800022C64D1402905686DD0D5F8984027071F
:10A0F80064D0D5F89870D5F89840E601C7F30128E0
:10A1080007D5D5F88040E40544BF08F1010707F0FA
:10A118000308C46C08EBC80604EBC604266806F0FE
:10A1280080465660002E68D12668C6F38A461660B7
:10A13800266806F000569660266806F00046166106
:10A14800A688D661B4F806C00CF00F0CC2F80CC093
:10A15800666806F480165661666806F4001696610D
:10A16800E67906F07F061662274E676816F80CE057
:10A178004FEAD77CC2F824C0BEF1000F10D0013BD3
:10A1880004F1070EF4461EF8015F03F8015FD56875
:10A19800ACF1060C755DACEB040C6545F2D80568AE
:10A1A80040292ED0C5F89C800020BDE8F081036EC0
:10A1B80043F0080303660120BDE8F081036E43F411
:10A1C80080730366F7E7D5F890402707F6D0D5F8EF
:10A1D8009070D5F89040E601C7F3012807D5D5F867
:10A1E8008040A40544BF08F1010707F00308846C08
:10A1F80008EBC80604EBC60490E7266826F060461C
:10A2080095E7C5F89480CFE7ECBD000803684029BE
:10A218000CBFD3F89000D3F8980000F00F007047F7
:10A228002DE9F04F0C6885B0002C00F09080744F39
:10A2380000238946012202FA03F515EA040800F012
:10A248008180D9F8041001F0030E032603FA02F204
:10A258000EF1FF3A06FA02FCBAF1010FD9F80860CC
:10A268006FEA0C0C76D9BEF1030F01D1012E05D08F
:10A27800C568964005EA0C052E43C66005680EFAC7
:10A2880002F205EA0C052A4311F4403F026059D056
:10A298005C4D2A6E42F001022A662A6E02F0010223
:10A2A8000392039A23F0030202F1804202F58032FE
:10A2B80003F003069568B6004FF00F0C0CFA06FC85
:10A2C800B0F1904F25EA0C0E1CD04F4DA84200F07B
:10A2D80082804E4DA84200F08580DFF834C1604589
:10A2E80072D0DFF830C1604500F08380DFF828C104
:10A2F80060450CBF4FF0050C4FF0060C0CFA06F643
:10A308004EEA060EC2F808E0BA686FEA0805CE02FF
:10A3180054BF2A4048EA0202BA60FA688E0254BF63
:10A328002A4048EA0202FA607A688E0354BF2A403B
:10A3380048EA02027A603A68C90354BF2A4048EAE8
:10A3480002023A60013334FA03F27FF473AF05B0C6
:10A35800BDE8F08F9640D0F808B00196D9F80C60A7
:10A368000BEA0C0B06FA02FA4AEA0B0AC0F808A034
:10A37800D0F804A0019E2AEA050AC1F300159D4001
:10A3880045EA0A054560C56805EA0C052E43BEF195
:10A39800020FC6607FF472AFD9F810504FEAD30AA3
:10A3A80003F0070600EB8A0AB600B540DAF820B0D9
:10A3B80001950F2505FA06F6019D2BEA060B45EADD
:10A3C8000B05CAF8205059E74FF0030C0CFA06F6B3
:10A3D8004EEA060E96E74FF0010C0CFA06F64EEA26
:10A3E800060E8FE74FF0020C0CFA06F64EEA060E40
:10A3F80088E74FF0040C0CFA06F64EEA060E81E7E1
:10A408000004014000100240000400480008004811
:10A41800000C004800100048001400480369194265
:10A4280014BF0120002070470AB181617047816222
:10A43800704700BF436901EA030221EA030141EAC8
:10A4480002418161704700BF40B3D0E9003170B567
:10A45800826804464CF6CC40186045F255501860A6
:10A4680059609A60FFF7C6FB2368DA68054650070B
:10A478000DD041F60106FFF7BDFB401BB042236833
:10A4880002D9DA6851070BD1DA685207F3D1196992
:10A49800E268914206D01A61002070BD0120704721
:10A4A800032070BD4AF6AA221A60F5E703684AF647
:10A4B800AA2200201A607047F8B5431E0A332CD828
:10A4C80010F0070300F1080433D1624D01F03EF9A2
:10A4D8002A682346002A4CD0002C23DB5E4F3E68B6
:10A4E800A6421FD35D485E4903688B4237D3DFF825
:10A4F80080E1734533D884465868A04253D21A681D
:10A50800002A50D08A4225D24FF0500383F3118895
:10A51800BFF36F8FBFF34F8FFEE74E4D01F016F973
:10A528002B682BB301F01AF9FFF7FCFA002528462F
:10A53800F8BDA3F10902A242EFD3464D1030C41A68
:10A5480001F004F92A6823469AB1002BEADB002CB3
:10A55800C4D1E7E77245D7D89C461346CCE74FF0FD
:10A56800500383F31188BFF36F8FBFF34F8FFEE75C
:10A578001C463B493B4A3C48384F4E0718BF0731F9
:10A5880022F0070218BF21F007010E46511A016098
:10A5980031483E600160002078602A60C2E900000E
:10A5A800C6E90021D1E72A689A42BBD0DCF800202E
:10A5B80002F108058D420FD375450DD81968CCF8FE
:10A5C8000010A04211D24FF0500383F31188BFF35B
:10A5D8006F8FBFF34F8FFEE74FF0500383F311885F
:10A5E800BFF36F8FBFF34F8FFEE7A0EB040EBEF1F2
:10A5F800100F11D91A19500708D04FF0500383F3E0
:10A608001188BFF36F8FBFF34F8FFEE7C2F804E0E6
:10A6180020461951CCF8002013490C68361AA64276
:10A6280038BF0E6011493E600A6840F000400024BF
:10A638001C60013258600A6001F090F86B073FF423
:10A6480076AF4FF0500383F31188BFF36F8FBFF3DA
:10A658004F8FFEE78C010020880100209001002028
:10A6680098010020904100208401002080010020F2
:10A6780097410020F8B1F0B53D4DA0F10804AC4277
:10A6880083B00FD33B4EB4420CD850F8043C002B97
:10A6980012DB4FF0500383F31188BFF36F8FBFF3C2
:10A6A8004F8FFEE74FF0500383F31188BFF36F8F8E
:10A6B800BFF34F8FFEE7704750F8082C42B14FF0B8
:10A6C800500383F31188BFF36F8FBFF34F8FFEE7FB
:10A6D80023F0004340F8043C019001F037F8264A83
:10A6E8000198136850F8041C244F0B4413603B4630
:10A6F8001A461B689C42FBD8BA4203D0AA4216D31A
:10A70800B24214D855685619B44223D06518AB42E2
:10A7180016D040F8083CA24218BF1460184A1368C3
:10A728000133136003B0BDE8F04001F017B84FF0F3
:10A73800500383F31188BFF36F8FBFF34F8FFEE78A
:10A74800104D2D68AB42E4D0D3E900500144C4E970
:10A758000051E0E72944501883425160DED109488E
:10A768000068834201D01446EEE71360D6E700BFC5
:10A7780098010020974100208801002090010020C6
:10A788007C0100208C01002000F108034FF0FF310C
:10A798000022C0E90131C0E903330260704700BFFD
:10A7A80000230361704700BF30B40D686B1C10D0E4
:10A7B80000F108031C465B681A68AA42FAD90268C5
:10A7C8004B60013299608C606160086130BC026046
:10A7D800704704696368F2E7026910B4D0E90113AD
:10A7E80054688B608442596008BF536013685DF8F1
:10A7F800044B013B0021016118461360704700BFFC
:10A80800064B19680868B0E8F04F80F30988BFF371
:10A818006F8F4FF0000080F311887047E0410020EF
:10A8280008480068006880F308884FF0000080F34B
:10A83800148862B661B6BFF34F8FBFF36F8F00DF26
:10A8480000BF000008ED00E0EFF30980BFF36F8F51
:10A85800144B1A681EF0100F08BF20ED108A20E96B
:10A86800F04F10602DE909004FF0500080F3118877
:10A87800BFF34F8FBFF36F8F00F0A0FF4FF00000C2
:10A8880080F3118809BC19680868B0E8F04F1EF019
:10A89800100F08BFB0EC108A80F30988BFF36F8FE0
:10A8A80070470000E0410020DFF80C00016841F427
:10A8B800700101607047000088ED00E00E4B1B68D6
:10A8C80082B000220133019208D04FF0500383F385
:10A8D8001188BFF36F8FBFF34F8FFEE74FF0500320
:10A8E80083F31188BFF36F8FBFF34F8F019B002B4A
:10A8F800FCD002B0704700BF0C00002010B44FF02D
:10A908008073074C40F8043C21F001016FF002030A
:10A9180040E9034140E909325DF8044B4438704787
:10A92800C5A800084FF0500383F31188BFF36F8F59
:10A93800BFF34F8F0B4A13680133012B136000D00C
:10A9480070474FF0E023D3F8043DDBB2002BF7D07B
:10A958004FF0500383F31188BFF36F8FBFF34F8F0E
:10A96800FEE700BF0C000020084A136843B94FF007
:10A97800500383F31188BFF36F8FBFF34F8FFEE748
:10A98800013B13600BB983F3118870470C0000205A
:10A9980008B54FF0500383F31188BFF36F8FBFF3EF
:10A9A8004F8F00F0F7FE28B14FF0E0234FF08052B0
:10A9B800C3F8042D002383F3118808BD4FF0E0236A
:10A9C800002243F67F6007211A619A615861196174
:10A9D800704700BF4FF0E023554AD3F8001D91425D
:10A9E8001CD0D3F8001D534A91420ED0D3F8083D2D
:10A9F800514AD96A91421AD04FF0500383F3118813
:10AA0800BFF36F8FBFF34F8FFEE74FF0500383F311
:10AA18001188BFF36F8FBFF34F8FFEE74FF05003DE
:10AA280083F31188BFF36F8FBFF34F8FFEE7434A5D
:10AA38009B6B934208D04FF0500383F31188BFF308
:10AA48006F8FBFF34F8FFEE730B583B03C4B0022CA
:10AA580001921A78FF21D2B28DF8022019701B7862
:10AA6800384ADBB28DF803309DF8033003F0500309
:10AA7800137043B94FF0500383F31188BFF36F8FFE
:10AA8800BFF34F8FFEE79DF80330DB4313F0500F01
:10AA980011D04FF0500383F31188BFF36F8FBFF3CA
:10AAA8004F8FFEE7019B013301939DF803305B0054
:10AAB800DBB28DF803309DF803301B06F2D4019BFE
:10AAC800082B32D0019BC3F107031B0203F4E06398
:10AAD8009DF802201C481A4903604FF0E024D2B2C6
:10AAE8000A70D4F8203D43F47F03C4F8203DD4F81D
:10AAF800203D002543F07F43C4F8203DC4F81C5D89
:10AB0800FFF75CFF114B1D60FFF7CEFED4F8343F12
:10AB180043F04043C4F8343FFFF782FE00F04EFE96
:10AB2800FFF7CCFE284603B030BD0023D0E700BFB6
:10AB380071C20F4170C20F4109A8000851A800084E
:10AB480000E400E09C410020984100200C00002017
:10AB580070B50546FFF7E6FE95F845305CB2002C67
:10AB680014DD05F1240603E0631EDAB25CB26AB1B3
:10AB78006B6A304653B100F079FE0028F4D000F03B
:10AB88003BFF631EDAB25CB2002AF1D1FF2385F8DD
:10AB98004530FFF7E9FEFFF7C5FE95F844305CB293
:10ABA800002C14DD05F1100603E0631EDAB25CB276
:10ABB8006AB12B69304653B100F058FE0028F4D032
:10ABC80000F01AFF631EDAB25CB2002AF1D1FF234B
:10ABD80085F84430BDE87040FFF7C6BE58B3C36B74
:10ABE80070B50446F3B1056CA5FB0335D5B90E461F
:10ABF800FFF798FED4E90F232168A56303FB02F24F
:10AC0800D31A0A44A2600B44FF2284F844206160EE
:10AC1800E36084F8452046BB2369ABB9FFF7A4FE7F
:10AC2800012070BD4FF0500383F31188BFF36F8F7D
:10AC3800BFF34F8FFEE74FF0500383F31188BFF344
:10AC48006F8FBFF34F8FFEE704F1100000F00EFE88
:10AC58000028E3D04FF0E0234FF08052C3F8042DD2
:10AC6800BFF34F8FBFF36F8FD8E704F11000FFF7E2
:10AC78008BFD04F12400FFF787FDCFE730B583B0E3
:10AC880040B1A0FB0123044623B901FB00F010F1F9
:10AC9800490F08D94FF0500383F31188BFF36F8F22
:10ACA800BFF34F8FFEE748300191FFF705FC0546DB
:10ACB80050B1019959B100F14803C5E90F412B6022
:10ACC80001212846FFF78AFF284603B030BD034616
:10ACD800F3E700BF2DE9F04385B00192002800F0AA
:10ACE800A0800D460446002947D000F08BFE0028BE
:10ACF8004FD0FFF717FEA66B002E67D1019B002BE4
:10AD080035D002A800F026FE374604F124084FF09B
:10AD1800E029FFF729FE00F019FDFFF703FE94F87C
:10AD28004430FF2B08BF84F8447094F84530FF2B5B
:10AD380008BF84F84570FFF717FE01A902A800F0C4
:10AD480015FE002831D1FFF7EDFDA36B002B52D083
:10AD5800FFF70AFE2046FFF7FBFE00F0FFFCFFF7B7
:10AD6800E1FDA66B002E31D1019B002BD1D1FFF75D
:10AD7800FBFD002005B0BDE8F083036C002BB4D0C8
:10AD88004FF0500383F31188BFF36F8FBFF34F8FDA
:10AD9800FEE7019B002BACD04FF0500383F31188E2
:10ADA800BFF36F8FBFF34F8FFEE72046FFF7D0FE4C
:10ADB80000F0D4FCFFF7B6FDA36B002BD7D0FFF74C
:10ADC800D3FDFFF7AFFDA66B002ECDD0226C52B19C
:10ADD800E168A36811449942E16024BF2168E160F9
:10ADE8002846FEF7B3FA2369013EA66313BBFFF7B3
:10ADF800BBFD0120BEE7FFF7B7FD0199404600F013
:10AE0800EBFC2046FFF7A4FE00F0A8FC0028D8D1F0
:10AE18004FF08053C9F8043DBFF34F8FBFF36F8FD6
:10AE2800CFE74FF0500383F31188BFF36F8FBFF361
:10AE38004F8FFEE704F1100000F018FD0028D6D06F
:10AE48004FF0E0234FF08052C3F8042DBFF34F8F2B
:10AE5800BFF36F8FCBE700BF20B311B330B4002529
:10AE6800164C2B4604EBC3024FEAC30C52688242CD
:10AE780014D035B10133082BF4D1C5E9001030BC2A
:10AE8800704754F83320B2B10133082B04EBC302E6
:10AE98004FEAC30CF3D052689042F2D104EB0C0590
:10AEA800EBE770474FF0500383F31188BFF36F8FC0
:10AEB800BFF34F8FFEE704EB0C05DBE7A041002052
:10AEC80070B504460E461546FFF72CFD94F844303D
:10AED800FF2B04BF002384F8443094F84530FF2B3F
:10AEE80004BF002384F84530FFF73EFDA36B23B170
:10AEF8002046BDE87040FFF72BBE04F124002A4627
:10AF0800314600F083FC2046BDE87040FFF720BEC4
:10AF18002DE9F843244A254C254B264E2468D2F8BF
:10AF28000080D3F800900546306804300F46FFF7DC
:10AF380053FC48B933682049DA6A012303FA02F25C
:10AF48000B6823EA02030B606B1C15D03368316869
:10AF580064195C600AD240460431FFF725FC174BA0
:10AF68001A68A24288BF1C60BDE8F88348460431CD
:10AF7800BDE8F843FFF718BC002FE7D0104B306846
:10AF88005A68316882609068C86031689068043196
:10AF98004160306819683468043001319060196084
:10AFA8006361BDE8F88300BFE4410020DC42002073
:10AFB800E8410020E041002060420020904200204B
:10AFC800B4420020234B10B50022234C1A6021689C
:10AFD8002268236812681B6B9A4204D90B6B1A68A3
:10AFE800B2F1A53F29D0216820683431FEF798FDD9
:10AFF8001A4B1B68B3FA83F3DBB2C3F11F0303EBED
:10B008008303174A990002EB8303505840B94FF065
:10B01800500383F31188BFF36F8FBFF34F8FFEE7A1
:10B0280058680831406858600A44904204BFD8689C
:10B038005860C3682360236810BD5A68B2F1A53F01
:10B04800D1D19A68B2F1A53FCDD1DB68B3F1A53F64
:10B05800C9D1CDE7E0420020E04100206042002055
:10B06800EC410020F8B50F4D2B68CBB10E4F0F4EB9
:10B07800FFF758FCFB68DC68201DFFF7ADFB336861
:10B08800013B33602B68013B2B60FFF76DFC206BA5
:10B09800FFF7F0FA2046FFF7EDFA2B68002BE7D10F
:10B0A800F8BD00BF54420020C84200205042002092
:10B0B80008B50B4C4FF0E0264FF08055FFF7D2FF54
:10B0C8002368012BFAD9C6F8045DBFF34F8FBFF38D
:10B0D8006F8FFFF7C7FF2368012BF4D8EEE700BF97
:10B0E800EC4100202DE9F04F604B1D68013583B01D
:10B0F8001D60002D00F085805D4B0193019B1B684E
:10B108009D4264D3DFF878C1DCF800301C68002C5D
:10B1180000F0A78000245748DFF870B1DFF870E12D
:10B12800AA46A04644E0D3E90227596997607A60A5
:10B138004A68AA420A6808BF4F600026013A5E6161
:10B148000A60996A69B1D3E90772BA601A6A5760E6
:10B158004F68A74208BF4A6000229A620A68013A0B
:10B168000A60DA6ADEF8009002EB8207012100EB40
:10B178008704914041EA0901CEF80010616899609E
:10B188008E68DE6050F8276006F101098E687560E8
:10B198008D60DBF800105C6140F82790DCF8003027
:10B1A800C96A1B688A4288BF4FF00108002B4BD040
:10B1B800DCF80030DB68DB685A68924503F1040567
:10B1C80003F11804AFD2019B44461A6003E02948F2
:10B1D800DFF8B8B00024DBF80030274ADB6A1268D1
:10B1E80003EB830350F82330022B28BF0124AAB1B4
:10B1F800224B1B68002B0CBF2046012003B0BDE882
:10B20800F08F1F4B1A6812685AB14FF0500383F33E
:10B218001188BFF36F8FBFF34F8FFEE7FEF784FCF3
:10B22800E6E7184A186811681960174910600A6833
:10B2380001320A601A68126862B90D4B01931A4606
:10B248004FF0FF33136059E74446019A4FF0FF333C
:10B258001360C0E71B68064ADB6801921B6813602D
:10B268004CE70448DFF824B0EFE700BFDC420020D9
:10B2780090420020EC41002098420020E04200204B
:10B28800E4410020E841002094420020E0410020F1
:10B29800604200202DE9F04F564F3B68013B3B6070
:10B2A800D7F8008083B0B8F1000F40F09280524B7D
:10B2B8001B68002B00F08D80DFF858C1DCF80030E7
:10B2C800002B00F093804D4BDFF84CE14C4D01937F
:10B2D8004FF0010BC246DCF80C30DB68D3E90701FC
:10B2E8009A6A81604860506803F11804A04208BF58
:10B2F80051601168C3F828A001391160D3E902210F
:10B30800586991604A604268DEF800401E1DB242EA
:10B3180008BF41600168DA6A0139016002EB820006
:10B3280005EB80080BFA02F10C43D8F80410CEF8AC
:10B3380000408C68DC60334C99602468D4F82C9009
:10B3480055F82040013400948C684A4566608E6048
:10B35800C3F81480009B45F8203084BF019BC3F8D4
:10B3680000B0DCF80030002BB5D1274B1A68126802
:10B37800002A36D01A68254BD26812681A60244D04
:10B388002C68ACB1DDF80480012606E0FFF7AAFEC0
:10B3980008B1C8F80060013C09D03B68002BF5D023
:10B3A8002B6801332B60FEF7BFFB013CF5D12C6005
:10B3B800019B1B686BB14FF0E02312494FF080529C
:10B3C8000968C3F8042DBFF34F8FBFF36F8F0120B7
:10B3D80000E000200090FFF7C7FA009803B0BDE82E
:10B3E800F08F0A4B4FF0FF321A60C8E7034B019306
:10B3F800C5E700BF5842002050420020E04200202C
:10B40800EC410020E0410020E4410020904200206F
:10B41800984200209C420020604200202DE9F0471D
:10B428004FEA82090746484616460D469846FFF7F2
:10B4380043F868B382465420FFF73EF8044658B3F1
:10B4480054220021FDF730FF4A46C4F830A0504688
:10B45800A521FDF729FF226B75B105F1FF3C04F129
:10B4680033030F351CF8011F03F8011F09B1AC4560
:10B47800F8D1002384F84330089B042B13D94FF0EC
:10B48800500383F31188BFF36F8FBFF34F8FFEE72D
:10B498004FF0FF30BDE8F0875046FFF7EBF84FF06C
:10B4A800FF30BDE8F087089BE362251D63642846EA
:10B4B800A9F104099144FFF773F904F11800FFF7A3
:10B4C8006FF9089B246129F00709C3F10503484671
:10B4D800646242463946A361FFF710FAA9EB0009F6
:10B4E800B6EBA90F206008D84FF0500383F31188FA
:10B4F800BFF36F8FBFF34F8FFEE7099B03B11C604B
:10B50800FFF710FA414A424E13680133136033685B
:10B51800002B4CD03F4F3B68002B3FD0E36ADFF84D
:10B528001081DFF810E1DFF810C103EB830208EBAC
:10B5380082099200D9F80410A1608868E0608868E0
:10B5480045608D60DEF80010DCF80000C4F8149047
:10B558000131CEF8001058F802100125013105FA22
:10B5680003F3034348F80210CCF80030FFF7FCF966
:10B578003B6883B13268E36AD26A9A420BD24FF0D1
:10B58800E0234FF08052C3F8042DBFF34F8FBFF371
:10B598006F8F28467EE72846BDE8F0873368DFF8D6
:10B5A8009080DA6AE36A9A4298BF3460B9E73460F7
:10B5B8001368012B04D0E36ADFF87480154FB0E7F5
:10B5C800DFF86C80474608F1640938461437FFF7FE
:10B5D800DBF8B945F9D1DFF864900F4F4846FFF71B
:10B5E800D3F83846FFF7D0F80C48FFF7CDF80C48E9
:10B5F800FFF7CAF80B48FFF7C7F80B4BC3F80090E2
:10B608000A4B1F60E36A034F8BE700BF50420020DC
:10B61800E0410020B0420020784200209C420020F7
:10B62800C8420020B4420020E4410020E841002044
:10B63800EC4100205C42002060420020644200206F
:10B6480010B550B94FF0E0234FF08052C3F8042DE5
:10B65800BFF34F8FBFF36F8F10BD124C23680133B8
:10B6680023602368012B08D04FF0500383F311881F
:10B67800BFF36F8FBFF34F8FFEE70021FFF748FC42
:10B68800FFF750F9236843B94FF0500383F311884B
:10B69800BFF36F8FBFF34F8FFEE7FFF7FBFD002867
:10B6A800D0D010BD5842002030B587B000234921C2
:10B6B8001F4ACDE90233CDE904338DF808100DF1A6
:10B6C800090312F8014F03F8014B002CF9D1194B6B
:10B6D8001948CDE900438022234602A9FFF79EFEC0
:10B6E800012819D100F026FB012815D14FF050038D
:10B6F80083F31188BFF36F8FBFF34F8F0F49104A41
:10B70800104B4FF0FF350D6010601C60FFF762F9B9
:10B718000D4B1B6807B030BD0130F9D14FF0500315
:10B7280083F31188BFF36F8FBFF34F8FFEE700BF1E
:10B73800D4BD00088C420020B9B000089042002017
:10B74800B0420020DC42002010000020024A1368AA
:10B7580001331360704700BF5842002008B5FFF757
:10B76800E1F8084B1B6843B94FF0500383F3118885
:10B77800BFF36F8FBFF34F8FFEE7BDE80840FFF7B9
:10B7880089BD00BF58420020014B1868704700BFB0
:10B79800DC42002008B5074B1B681BB9BDE8084010
:10B7A800FFF7A0BC044A136801331360FEF7BCF925
:10B7B800002008BD5842002098420020044B1B6816
:10B7C8001BB1044B01221A607047FFF7FBBB00BF97
:10B7D80058420020E042002060B110B50A4B0C46E8
:10B7E80019681831FEF7E0FF20460121BDE8104036
:10B7F800FFF78EBB4FF0500383F31188BFF36F8FB1
:10B80800BFF34F8FFEE700BFE041002018B3F0B44C
:10B81800154C45688C46002A11462268AE68D561E9
:10B8280022680346166226682268276802F118040F
:10B838001A6808BF604602F1010CAA6806F11806EA
:10B84800566018BF4FF0FF30AC60BB62F0BCC3F865
:10B8580000C0FFF75DBB4FF0500383F31188BFF3BF
:10B868006F8FBFF34F8FFEE7E0410020C368DB68AE
:10B87800002B59D0D3E907019A6A2DE9F04181607C
:10B888004860506803F11804A0422C4808BF516072
:10B8980011680068002501399D621160B8B1284916
:10B8A8004A68DA6190681862906844600868946031
:10B8B8000130DA6A99620860224B1B68DB6A93429E
:10B8C8003DBF214B012018600020BDE8F0819A6837
:10B8D800D86859699060D8681C4D42604A68DFF89A
:10B8E80070E01F1DBA4208BF48600868DA6ADEF8CF
:10B8F80000800138086002EB820105EB810C8900A9
:10B90800DCF804409C60A068D8606858461C012098
:10B91800904040EA0800CEF80000A0684760A760A1
:10B92800C3F814C06E50C7E74FF0500383F3118873
:10B93800BFF36F8FBFF34F8FFEE700BF5842002061
:10B948009C420020E0410020E0420020EC41002021
:10B9580060420020034A044B12681B68C0E90023B8
:10B96800704700BF94420020DC42002038B3F0B595
:10B978000D4683B0D1B10446FEF7D4FF2B681C4AAC
:10B98800581C116832D0DFF86CC0D4E90060DCF8CC
:10B998000070BE421CD088421AD800232B600120B8
:10B9A8000190FEF7E1FF019803B0F0BD4FF050039E
:10B9B80083F31188BFF36F8FBFF34F8FFEE74FF00C
:10B9C800500383F31188BFF36F8FBFF34F8FFEE7E8
:10B9D800A1EB000E7345E0D95B1ADCF80010126881
:10B9E80003442B600020C4E90012D9E70020D7E700
:10B9F800DC42002094420020014B01221A6070476B
:10BA0800E0420020054B1B6833B1054B1B68002B37
:10BA18000CBF02200020704701207047B042002070
:10BA280058420020F8B5104CFEF77CFF25681DB180
:10BA3800BDE8F840FEF798BF0C4F0D4E3846FEF7AC
:10BA4800A3FE3046FEF7A0FE0A4B1F600A4B2A46AB
:10BA58000C210A201E60FFF711F920600028E7D0AA
:10BA68000649FFF7F9F9E3E718430020EC42002004
:10BA780000430020E4420020E8420020DCBD00082A
:10BA880070B50446164605E0934219D8236A204645
:10BA980098472946A36924615D182CBF012000201E
:10BAA800B542A6EB01026560EED9B14201D9002882
:10BAB800ECD0074B211D1868BDE87040FEF774BE36
:10BAC800044B211D1868BDE87040FEF76DBE00BF2D
:10BAD800E4420020E8420020104B1B68DB6870B588
:10BAE800DC680546201D0E46FEF776FE94F82430E5
:10BAF8005A0708D423F0010384F824302046236A27
:10BB0800BDE870401847204632462946FFF7B8FF7F
:10BB1800236A2046BDE87040184700BFE442002071
:10BB28002DE9F04F7F4D804FDFF804827F4E85B0BE
:10BB38004FF0E02A4FF000092B68D3F800B0BBF1B2
:10BB4800000F00F0C680DB68D3F800B0FFF7FEFDF9
:10BB5800FFF71AFE3B689842044679D35845386087
:10BB680080F0D08000223068ABEB0401FFF7A8F921
:10BB7800FFF7F4FD38B94FF08053CAF8043DBFF31E
:10BB88004F8FBFF36F8FCDE90199CDF80C903068D6
:10BB9800002201A9FFF79EF80028CDD0019B002BB9
:10BBA800F5DBDDF80CB0BBF1000FF0D0DBF814309A
:10BBB8001BB10BF10400FEF70FFEFFF7E5FD3B6834
:10BBC8009842044611D3019B3C60013B082BDED808
:10BBD800DFE803F01515644B6B1515644B00DB6843
:10BBE8004FF0FF311868FFF777FF2B681A68002AB3
:10BBF800F5D1D8F800202A60C8F80030E3E79BF8B0
:10BC08002420029BDBF81800CBF810B042F00101A9
:10BC18008BF8241019182CBF4FF0010C4FF0000CB2
:10BC2800A142CBF8041049D8E31A98422FD85007FC
:10BC380063D422F001028BF82420DBF82030584628
:10BC48009847A4E7DB684FF0FF311868FFF744FF17
:10BC58002B681A68002AF5D1D8F800202A60C8F89D
:10BC680000303C60FFF77AFD8DE79BF82420029BAB
:10BC7800CBF8183042F001028BF82420002B48D072
:10BC88002344A342CBF80430CBF810B01BD8D8F823
:10BC980000000BF10401FEF787FD78E79BF82430DC
:10BCA80023F001038BF8243071E79BF824309A07BE
:10BCB8001FD523F001038BF8243068E7A34202D98B
:10BCC800BCF1000FB3D028680BF10401FEF76CFD3E
:10BCD8005DE7FFF73BFDFFF757FD3B6883420446EE
:10BCE800B6D8D8F800303C601A68B2FA82F2520925
:10BCF80039E75846FEF7BEFC49E722465846FFF7A3
:10BD0800BFFE9AE7FFF72AFD21465846FFF7E4FEF3
:10BD180039E74FF0500383F31188BFF36F8FBFF3F8
:10BD28004F8FFEE7E4420020144300201843002010
:10BD3800E842002000B583B0FFF774FE0C4B1B6887
:10BD480053B10C4A0C490D480323CDE900320023B6
:10BD58008022FFF763FB40B94FF0500383F311884B
:10BD6800BFF36F8FBFF34F8FFEE703B05DF804FB9F
:10BD7800184300201C430020E4BD000829BB00082C
:10BD8800F8B500BFF8BC08BC9E467047F8B500BFC0
:08BD9800F8BC08BC9E46704790
:10BDA000000000000100000002000000030000008D
:10BDB000040000000500000006000000070000006D
:10BDC00008000000626C696E6B00000072656C61B7
:10BDD0007900000049444C4500000000546D725148
:10BDE00000000000546D72205376630000010203CE
:0CBDF00004050607080C10141820304051
:08BDFC0058D5FF7F0100000093
:04BE0400419200085F
:04BE08001992000883
:10BE0C000024F4000100000010000000AAAAAAAA55
:04BE1C00040000001E
:0400000508009489D2
:00000001FF
