:020000040810E2
:100000000080043095081008D5161008AD161008A9
:10001000C9161008CD161008D116100800000000EF
:10002000000000000000000000000000D9161008C9
:10003000DD16100800000000E1161008E516100893
:10004000E9081008E9081008E9081008E90810088C
:10005000E9081008E9081008E9081008E90810087C
:10006000E9081008E9081008E9081008E90810086C
:10007000E9081008E9081008E9081008E90810085C
:10008000E9081008E9081008E9081008E90810084C
:10009000E9081008E9081008E9081008E90810083C
:1000A000E9081008E9081008E9081008E90810082C
:1000B000E9081008E9081008E9081008E90810081C
:1000C000E9081008E9081008E9081008E90810080C
:1000D000E9081008E9081008E9081008E9081008FC
:1000E000E9081008E908100800000000E9081008F5
:1000F000E9081008E9081008E9081008E9081008DC
:10010000E9081008E9081008E9081008E9081008CB
:10011000E9081008E9081008E9081008E9081008BB
:10012000E9081008E9081008E9081008E9081008AB
:10013000E9081008E9081008E9081008E90810089B
:10014000E9081008E908100800000000000000009D
:10015000E9081008E9081008E9081008E90810087B
:10016000E9081008E9081008E9081008E90810086B
:10017000E9081008E9081008E90810080000000064
:10018000E9081008E9081008E9081008E90810084B
:10019000E9081008E9081008E9081008E90810083B
:1001A000E9081008E9081008E9081008E90810082B
:1001B000E9081008E9081008E9081008E90810081B
:1001C000E9081008E9081008E9081008E90810080B
:1001D000E9081008E9081008E9081008E9081008FB
:1001E000E9081008E9081008E9081008E9081008EB
:1001F000E9081008E9081008E9081008E9081008DB
:10020000E9081008E9081008E9081008E9081008CA
:10021000E9081008E9081008E9081008E9081008BA
:10022000E9081008E9081008E908100800000000B3
:10023000E9081008E9081008E9081008E90810089A
:10024000E9081008E9081008E9081008E90810088A
:10025000E9081008E9081008E9081008E90810087A
:10026000E9081008E9081008E9081008E90810086A
:10027000E9081008E9081008E9081008E90810085A
:10028000E9081008E9081008E90810080000000053
:08029000E9081008E908100854
:100298000348044B834202D0034B03B1184770470D
:1002A8001800003018000030000000000548064B18
:1002B8001B1AD90F01EBA301491002D0034B03B15C
:1002C8001847704718000030180000300000000080
:1002D80010B5064C237843B9FFF7DAFF044B13B186
:1002E8000448AFF300800123237010BD18000030CC
:1002F80000000000883F100808B5044B1BB10449F2
:100308000448AFF30080BDE80840CFE700000000D4
:100318001C000030883F100853B94AB9002908BFAB
:1003280000281CBF4FF0FF314FF0FF3000F06AB9D2
:10033800ADF1080C6DE904CE00F006F8DDF804E034
:10034800DDE9022304B070472DE9F047089D0E4609
:1003580004460F46002B4AD194468C45B2FA82F2E5
:1003680060D942B1C2F12003974020FA03F30CFA96
:1003780002FC1F4394404FEA1C4E1FFA8CF6B7FB51
:10038800FEF1230C0EFB117743EA074301FB06F04D
:1003980098420AD91CEB030301F1FF3780F015815D
:1003A800984240F21281023963441B1AA4B2B3FB8B
:1003B800FEF00EFB103344EA034400FB06F6A642A7
:1003C8000AD91CEB040400F1FF3380F00081A64237
:1003D80040F2FD806444023840EA0140A41B002139
:1003E8001DB1D4400023C5E90043BDE8F0878B4226
:1003F80005D90DB1C5E9000100210846F5E7B3FAB2
:1004080083F1002946D1B34202D3824200F2F5803B
:10041800841A66EB030201201746002DE5D0C5E9D2
:100428000047E2E7002A40F09380A1EB0C034FEA73
:100438001C471FFA8CFE0121B3FBF7F607FB1630A9
:10044800230C43EA00430EFB06F0984208D91CEB44
:10045800030306F1FF3802D2984200F2D0804646E4
:100468001B1AA4B2B3FBF7F007FB103344EA0344AA
:100478000EFB00FEA64508D91CEB040400F1FF336F
:1004880002D2A64500F2B6801846A4EB0E0440EA54
:100498000640A5E7C1F120078B4022FA07FC4CEA89
:1004A800030C06FA01FE20FA07F426FA07F344EAD9
:1004B8000E0400FA01F84FEA1C404FEA1449B3FB56
:1004C800F0FE1FFA8CF600FB1E3349EA03430EFBCD
:1004D80006F9994502FA01F20BD91CEB03030EF158
:1004E800FF3A80F08580994540F28280AEF1020E95
:1004F8006344A3EB0909A4B2B9FBF0F300FB139919
:1005080044EA094403FB06F6A64208D91CEB040496
:1005180003F1FF3068D2A64266D9023B644443EA3D
:100528000E40A41BA0FB02E6B4427346B14652D368
:100538004FD05DB1B8EB030264EB090404FA07F786
:1005480022FA01F31F43CC40C5E9007400214CE7AF
:10055800C2F1200120FA01F30CFA02FC26FA01F19B
:10056800964033434FEA1C471FFA8CFEB1FBF7F065
:1005780007FB1016190C41EA064100FB0EF68E42E5
:1005880004FA02F408D91CEB010100F1FF382DD25E
:100598008E422BD902386144891B9BB2B1FBF7F616
:1005A80007FB161143EA014306FB0EF1994208D9ED
:1005B8001CEB030306F1FF3814D2994212D9023E0C
:1005C80063445B1A46EA004136E73946EDE61846C9
:1005D80002E7F045ADD2BEEB020366EB0C0601382C
:1005E800B146A6E74646ECE7034698E74046D3E718
:1005F800D6467EE76444023847E708460DE7023EE0
:1006080063442DE7704700BF70B50F4B0F4DAB42E9
:10061800A3EB050607D0B610002455F8043B0134B7
:100628009847A642F9D803F0ABFC094D094B5E1B6D
:10063800AB424FEAA60606D0002455F8043B013425
:100648009847A642F9D870BD3441100834411008C3
:100658003441100838411008830730B547D0541E7C
:10066800002A3ED0CAB2034601E0013C39D303F860
:10067800012B9D07F9D1032C2CD9CDB205EB05250B
:100688000F2C05EB054535D9A4F1100222F00F0C0B
:1006980003F1100EE6444FEA121C1A46C2E900554F
:1006A800C2E9025510327245F8D10CF1010214F07A
:1006B8000C0F03EB021204F00F0C13D0ACF104037F
:1006C80023F003030433134442F8045B9342FBD141
:1006D8000CF003042CB1C9B21C4403F8011BA3425B
:1006E800FBD130BD64461346002CF4D1F9E703462C
:1006F8001446C0E71A46A446E0E700BF844641EA2C
:10070800000313F003036DD1403A41D351F8043B81
:1007180040F8043B51F8043B40F8043B51F8043BD3
:1007280040F8043B51F8043B40F8043B51F8043BC3
:1007380040F8043B51F8043B40F8043B51F8043BB3
:1007480040F8043B51F8043B40F8043B51F8043BA3
:1007580040F8043B51F8043B40F8043B51F8043B93
:1007680040F8043B51F8043B40F8043B51F8043B83
:1007780040F8043B51F8043B40F8043B51F8043B73
:1007880040F8043B51F8043B40F8043B403ABDD2E2
:10079800303211D351F8043B40F8043B51F8043B84
:1007A80040F8043B51F8043B40F8043B51F8043B43
:1007B80040F8043B103AEDD20C3205D351F8043B13
:1007C80040F8043B043AF9D2043208D0D2071CBFDF
:1007D80011F8013B00F8013B01D30B880380604608
:1007E800704700BF082A13D38B078DD010F003037E
:1007F8008AD0C3F10403D21ADB071CBF11F8013BEE
:1008080000F8013B80D331F8023B20F8023B7BE73C
:10081800043AD9D3013A11F8013B00F8013BF9D267
:100828000B7803704B7843708B7883706046704701
:10083800032A30B415D941EA0004A40784460B46BC
:1008480004D0541E0FE0043A032A08D9194660461A
:1008580053F8044B5CF8045BA542F4D0F1E760461A
:100868001946541E7AB1431E0139021901E09A4211
:1008780009D013F8010F11F801CF6045F7D0A0EBAC
:100888000C0030BC7047002030BC7047DFF838D00F
:1008980000F036F800F026F80C480D490D4A002300
:1008A80002E0D458C4500433C4188C42F9D30A4A1D
:1008B8000A4C002301E013600432A242FBD3FFF785
:1008C800A3FE00F0BBFCFEE700800430000000300F
:1008D800180000303C411008180000305C0E003051
:1008E800FEE70000054BD3F8882042F47002C3F8F5
:1008F80088201A6942F010021A61704700ED00E082
:10090800704700002DE9F04FCDB00DF12C0983465A
:100918001BAF0CA84A464B780E78CD788C781B0410
:1009280043EA06632B4343EA042342F8043FBA42EE
:1009380001F10401EFD10CAE1A9B1B9C56F8C01BA9
:100948001F46D0F824C00D4650F8041F4FEAF7425E
:1009580082EA77424FEAB14382EA972283EAF113A7
:10096800624483EAD1031A442746B04205EB0204E5
:10097800C463E6D1DBE90012DBF80830DBF81C5071
:10098800DBF80C400395DBF81000DBF81470DBF89B
:10099800186005940194CDE90912314DDDF80CA0D9
:1009A80004930690079708969E4614468C46CDF801
:1009B8002CB005E03E46A6460746644640469C469F
:1009C80055F8042F59F8041F4FEAF02383EAB013AF
:1009D8000A4483EA7063134426EA000800EA07021F
:1009E80088EA02084FEA7C3282EABC0282EABC52F8
:1009F80002924344019ACDF804E053441A4484EA2D
:100A08000E0101EA0C01904604EA0E0B029A81EAF3
:100A18000B010A441344134A9542B246CAD1DDE990
:100A280009121944049B059DDDF82CB023441C468B
:100A3800069B434462449C46079B03441846089B14
:100A48003B441F46039B75443344CBE90012CBE972
:100A58000245CBE904C0CBE906734DB0BDE8F08F81
:100A6800F83F1008F8401008B2B30A442DE9F84FCF
:100A78001A4F04464D1E02F1FF3AC1F1010B00F175
:100A880028094FF0000801E0554514D0A36EE2187C
:100A980001330BEB0506402B15F8011F82F82810CF
:100AA800A3660AD0C6F30B06002EEDD1384602F035
:100AB80055FD5545EAD1BDE8F88F49462046FFF770
:100AC80021FFD4E9083213F5007342F10002C4E9AA
:100AD8000832C4F86880E5E7704700BF3804003082
:100AE800F8B5866E82190D46372E4FF08001044600
:100AF80006F1010382F8281045D8382B07D006F1F3
:100B08002900C6F1370220440021FFF7A5FD04F1B2
:100B18002807D4E908230820E6FB0023226212BA3A
:100B28001E0E6266002266F307021E0C66F30F2291
:100B38001E0A66F3174263F31F6239466362204652
:100B48002266FFF7DFFE1823691E2268DA4001F8E3
:100B5800012F6268DA400A71A268DA400A72E26814
:100B6800DA400A732269DA400A746269DA400A755F
:100B7800A269DA400A76E269DA40083B13F1080F05
:100B88000A77E2D1F8BD3F2B07D806F12900C6F154
:100B98003F0220440021FFF75FFD04F12807394692
:100BA8002046FFF7AFFE382200213846FFF754FDF4
:100BB800AFE700BF000000002DE9F04FD7B02AAD25
:100BC8000E46074601920021402228469946FFF723
:100BD80043FD402E3246394640F2FA8081A7D7E9D4
:100BE8000067CDE93A6781A7D7E90067CDE93C6797
:100BF80080A7D7E90067CDE93E6780A7D7E90067F6
:100C08000DF1E808CDE9406700234046002600279B
:100C1800CDE942675493FFF727FF29464046FFF77F
:100C28005FFF1AAE29A909AA334651F8040F80F0CC
:100C3800363780F05C3042F8047F43F8040BAB424F
:100C4800F3D168A1D1E90001CDE93A0167A1D1E961
:100C58000001CDE93C0167A1D1E90001CDE93E01E0
:100C680066A1D1E900010AAFCDE9400100230020C7
:100C78000021CDE94201DFF868A13C469B4602E02D
:100C8800A64214D0549B14F8010B03F5AC720DEB7B
:100C980002010133402B01F8480C549369D0E31B3F
:100CA800012BEDD1504602F059FCA642EAD14A4642
:100CB8000199DFF82CA140460DF10809FFF7D4FE91
:100CC80049464046FFF70CFF46A1D1E90001CDE9AE
:100CD8003A0146A1D1E90001CDE93C0145A1D1E99C
:100CE8000001CDE93E0145A1D1E90001CDE940016E
:100CF80000200021CDE942010024B34601E05D4512
:100D080014D004F5AC730DEB030201341BF8011B7E
:100D180002F8481C402C54943AD0ABEB0602012A46
:100D2800EDD1504602F01AFC5D45EAD12C4E4D46F5
:100D38004FF0000A02E0AF4214D0549C15F8012B82
:100D480004F5AC736B440134402C03F8482C5494DC
:100D58002FD0A5EB0903012BEDD1304602F0FEFBA5
:100D6800AF42EAD160994046FFF7BAFE57B0BDE8F6
:100D7800F08F44A94046FFF7C5FDDDE9423113F580
:100D8800007341F10001CDE94231CDF850B186E759
:100D980044A94046FFF7B6FDDDE9422112F500728D
:100DA8004FF0000341F10001CDE9422154931C4664
:100DB800B3E744A94046FFF7A5FDDDE9423213F544
:100DC800007342F10002CDE94232CDF850A1C0E7EC
:100DD8002846FFF793FC0DF1E80822E7AFF30080FF
:100DE8003804003067E6096A85AE67BB72F36E3C6B
:100DF8003AF54FA57F520E518C68059BABD9831FDE
:100E080019CDE05BA2B100B500F1FF3C01396244A5
:100E180000201CF8013F11F801EF944583EA0E0306
:100E280040EA0300F5D1B0FA80F040095DF804FB10
:100E3800012070472DE9F04DA1F10161013901440C
:100E48004E0CA0F10160B6EB504F88B028D3DFF804
:100E58005880450C4FF0000A4FF0020B012709E0BB
:100E6800019B013318D102F079FBAE4205F1010371
:100E780016D01D4620230693CDE902ABCDE90457D1
:100E880001F0BAFF01A902A802F020F9044601F016
:100E9800D9FF4046002CE3D0002008B0BDE8F08D13
:100EA800012008B0BDE8F08D380400302DE9F0418C
:100EB8001C4D2B7806460F469046A3B1B8F1000F9B
:100EC8002DD007EB0801184C7A1E0139304612F86C
:100ED800013F4340DBB28A4254F8233083EA1020B2
:100EE800F5D1BDE8F081114811499E4600F58064AE
:100EF8007246082342F3000C013B0CEA010C13F084
:100F0800FF038CEA5202F5D140F8042F84420EF117
:100F1800010EEDD101232B70B8F1000FD1D130466D
:100F2800BDE8F08134000030380000303400003073
:100F38002083B8EDC0437047C902FFF77BBF00BFED
:100F48002DE9F043164689B00746884601F054FF5C
:100F5800002E57D0DFF8B8906D46002402E0203408
:100F6800A6421DD92022FF212846FFF775FB321B18
:100F7800202A28BF202208EB04012846FFF7BEFBE1
:100F88002A460120391901F0D5FF88BBC4F30B03A9
:100F9800002BE4D14846203402F0E0FAA642E1D81A
:100FA80001F050FFBFF34F8F00247F1B05F120098C
:100FB8002022FF212846FFF74FFB321B202A28BF9B
:100FC800202208EB04012846FFF798FB2B46DA5944
:100FD80053F8041B91420DD14B45F8D1C4F30B03D0
:100FE80063B12034A64207F12007E1D8012002E0CE
:100FF80001F028FF002009B0BDE8F083044802F0A2
:10100800ADFAEEE701F01EFFBFF34F8FEEE700BF2A
:10101800380400302DE9F84F8946114617468046B6
:10102800FFF708FF58B307F2FF735FEAD32A29D006
:1010380000264FEACA2B6424354611E0134802F013
:101048008DFA5246002320463146FFF765F9C1B2B2
:10105800072000F0B7FB643446F100065D4511D067
:10106800294608EB050005F50065AF4234BF7A1A3A
:101078004FF400624944FFF763FF0028DED10020E7
:10108800BDE8F88F0120BDE8F88F00BF38040030B4
:1010980070B5124C124E05468446A646BEE80F00AF
:1010A800B6450CF1100C04F110044CF8100C4CF877
:1010B8000C1C4CF8082C4CF8043CEED1234607CB0A
:1010C800CCF80000CCF80410CCF808202868054BB0
:1010D800C01AB0FA80F0400970BD00BF00001208C5
:1010E800300012083450415570B5224C224E054646
:1010F8000FCC96B00DF11C0CACE80F000FCCACE88F
:101108000F000FCCACE80F0094E80700079BB34230
:101118008CE8070005D13C22294607A8FFF788FB81
:1011280020B301220123CDE904230221202300203A
:10113800CDE90201069301F05FFE01A902A801F0C2
:10114800C5FF044601F07EFE6CB9019B01330AD14C
:101158000A4802F003FA07483C22294616B0BDE8BF
:101168007040FFF7EDBE002016B070BD012016B02C
:1011780070BD00BF000012083450415538040030DB
:1011880030B50278022AA1B003460C4624D0012AC1
:1011980040D08478012C08D0072C0DD1C278082AB9
:1011A80048D00024204621B030BDC278082AF8D1A2
:1011B800043000F06FFCF5E7022C04D1C17804304C
:1011C80000F0C4FDEDE7042C28D0082C16D00B2C19
:1011D80017D100F043FBE4E740786A46194600F06F
:1011E80089FF251DFF217C222846FFF735FA01AB30
:1011F80003CB009B23606060A160D2E700F002FB94
:10120800CFE70D2C11D1C278042ACAD1043000F0DE
:10121800EFFCC6E7694600F0F5FFE2E7C278082A66
:10122800BFD1043000F012FEBBE70E2CB9D100F09C
:10123800F3FCB6E7043000F065FDB2E72DE9F04FA6
:10124800DFF8C492A54DA64ADFF8B882ADF50B7D4C
:101258004FF0030A40F6FF734846C9E9002AC9F867
:10126800083002F049F901F0B1F8D5F8E0309D48AE
:1012780043F00073C5F8E030D5F8E03003F00073B0
:101288000493049BD5F8E03043F00103C5F8E0303F
:10129800D5F8E03003F001030893089BD5F8F03047
:1012A80043F48053C5F8F030D5F8F030CDF834A1C8
:1012B80003F4805309930227099BF0230024CDE906
:1012C8004A374AA9052301264FF0080B4E934C9440
:1012D80001F0B0FF83486E946AA9CDE96AB6CDE9FA
:1012E8006C4401F0A7FF224659467E4802F0E2F816
:1012F8007D4BC8F8003040460723C8E90144C8E9D7
:101308000444C8E90844C8F81840C8F82840C8F890
:101318000C3002F0F7FAD5F8E030744843EA0B03D2
:10132800C5F8E030D5F8E03003EA0B030593059BD8
:10133800D5F8E03043F04003C5F8E030D5F8E030A8
:1013480003F040030693069BD5F8EC3043F4807312
:10135800C5F8EC30D5F8EC30CDF8A8A003F48073CC
:10136800092207932AA9079B2E924FF0800ACDE9FC
:101378002B742D9701F05EFF5D485E4DCDF828A1D6
:101388004AA9CDE94B64CDE94D4401F053FF22460B
:101398005146574802F08EF80D23EB61EB620423A7
:1013A8006B64AB662846544B2B60C5E90876C5E9E3
:1013B8000C74C5E90E64C5E90244C5E90566C5E9CA
:1013C80016442E82AC74AE62C5F840B0C5F860B061
:1013D800AC642C656C6601F02FF96AA92846CDE942
:1013E8006D64CDE96A446C976F9401F01DFB334638
:1013F800224621460096284601F05CFB284601F06B
:1014080073FB00F051FA5246214683464AA8FFF77B
:1014180023F97422FF210DA8FFF71EF98DF82C611E
:101428004BAB93E803000BAF344B0A9387E80300F8
:1014380001F028F8324E2B4D82466BAC01F022F8B1
:101448000346A3EB0A03B3F5167F48465ED202F0C3
:1014580085F801220821284602F02CF8142300936D
:101468002AAA0AA98023404602F08AFB0146742270
:101478006DA871B9FFF7F0F82A9B6A932BAB93E834
:10148800030084E803000AA96AA8FFF779FE002888
:1014980040D100220821284602F00CF800F0F2FFA3
:1014A8003368C01AB0F57A7F10D26AA800F062F9E2
:1014B8000028C3D0FF2174220DA8FFF7CDF894E8C7
:1014C80003006A9B0A9387E80300B7E700F0DAFF96
:1014D800FF213060012000F075F9E6E7004402586A
:1014E800004C00580000025800300140000C02581F
:1014F800001802584804003000A000400000050110
:1015080008000030E804003038040030BBF1000F58
:1015180040F0B180012000F03FF9DFF88081DFF86A
:1015280080A1DFF86C91554D484602F017F801226A
:101538000821284601F0BEFF142300935048802359
:101548002AAA0AA902F01CFB00283BD02846002240
:10155800082101F0AFFF6AA800F00CF988B1FF215B
:1015680074220DA8FFF778F86A9B0A9394E80300A1
:1015780013F0FF0B87E8030003D1C3F30742052AE2
:101588004CD000F07FFF3368C01AB0F57A7F2AD2BA
:1015980098F80030002BC7D09AF800B0BBF1000FC4
:1015A800C2D100F06FFF374A126842F21073801AF6
:1015B8009842B9D9012088F800B08AF800B000F044
:1015C800EBF8B1E7014674226DA8FFF745F82A9BAE
:1015D8006A932BAB93E8030084E803000AA96AA87E
:1015E800FFF7CEFDB2E700F04DFF98F8003030600D
:1015F8008BB19AF8003073B9234A12685AB123495B
:1016080009686420A1FB0001FEF786FEC1B2032031
:1016180000F0D8F8BCE70120FF21F9E71B0E012BE9
:10162800AFD19DF8AC21042AABD1194803936424A7
:1016380001F094FF039A1148082101F03BFF802331
:101648002AAA0AA900940E4802F09AFA5A460821D2
:101658000A4801F02FFF204600F01AFFBFF34F8F12
:101668000C490D4BCA6802F4E0621343CB60BFF328
:101678004F8F00BFFDE700F0C5F94BE700000258A7
:10168800E804003078050030B40D0030AC0D0030AF
:101698003804003000ED00E00400FA057C05003055
:1016A800750500300449054B6FF0A0504FF0FF322C
:1016B80008601A60FEE700BF0000025800040258E4
:1016C800FEE700BFFEE700BFFEE700BF704700BFB0
:1016D800704700BF704700BF704700BF00F0C6BE2C
:1016E8002DE9F0411D4D1E4E2868326800F5813005
:1016F80000F5A070B2F5006F4FEAC02406D2194871
:10170800FF211044C2F50062FEF7A6FF20461549E6
:101718004FF40062FFF714FC044610B92046BDE8F8
:10172800F081114B2F68802200211846FEF794FFA4
:10173800002232600D4A034697FA87F80121C0F863
:1017480004801170013740F2034209482F605A8023
:1017580001F004FF2046BDE8F08100BF800500309D
:101768008405003088050030BC0D0030B80D00300D
:101778003804003010B5064C237833B1802205496F
:10178800FEF7BCFF002201232270184610BD00BFDF
:10179800B80D0030BC0D0030084B10B5802204464F
:1017A80000211846FEF758FF054A0346012140F27A
:1017B800051058801C71117010BD00BFBC0D0030A1
:1017C800B80D003000B50D4B83B08C468DF8040081
:1017D8008022002118468DF805C0FEF73DFF084A13
:1017E8000346BDF80400988040F2062C0121A3F8B6
:1017F80002C0117003B05DF804FB00BFBC0D0030DF
:10180800B80D0030F0B591B001A8FFF741FCD8B190
:10181800DDE903659DF81440C5F3072736BAEDB234
:101828000C4B802200211846FEF716FF0A49C0F823
:101838000560012202710A7040F60902477285723A
:10184800C472428011B0F0BD0446054607460646FC
:10185800E6E700BFBC0D0030B80D003000B50F4AF8
:101868000F4B116883B0086C8DF80400C0F3062C88
:101878008022002118468DF805C0FEF7EDFE094AC2
:101888000346BDF8040098804FF4037C0121A3F8B7
:1018980002C0117003B05DF804FB00BF48040030BB
:1018A800BC0D0030B80D003070B5A0B002A8FFF72D
:1018B800EFFB50B94B4C4C4A236803F17043A3F536
:1018C800806393421AD920B070BD484B049A9A425B
:1018D80012D1079C631EB3F5C02F0DD2039B022BB8
:1018E80035D0404922464FF0FF30FFF7DFFAFFF7C7
:1018F80021FB089B834264D00020E4E701463022A4
:1019080014A8FEF7A9FE3A49384A139201234FF466
:10191800C025CDE911132A4621464FF0FF30CDE905
:101928001535FFF7C3FAFFF705FB18AB064620216C
:10193800009322462B462F481796FFF73DF911A82A
:10194800FFF7D2FB003818BF012020B070BD2A4B2A
:10195800802200211846FEF77FFE034640F205115B
:1019680026485980012607211971067024491D4807
:101978002246FFF74FFB0028BED002AD0FCD11ACB9
:101988000FC40FCD0FC40FCD0FC495E8070084E82E
:10199800070011A81296FFF7A7FB0028ACD011ACDE
:1019A8000FCC0DF1080CACE80F000FCCACE80F0021
:1019B8000FCCACE80F0094E80700079C8CE8070000
:1019C8008FE711AC079B074A0A4800942021FFF7CC
:1019D800F3F8202209A92046FFF714FA003818BFA7
:1019E800012070E700001408007C040034433748E5
:1019F80034504155FC401008BC0D0030B80D003083
:101A080000001A082DE9F0411E4D1F4A2C686E6827
:101A180004F17043A3F58063934230D814F00307B0
:101A28002DD1F3072BD506F1774303F56C03B3F5F6
:101A3800C02F24D2132000F08BFD144801F0B2F817
:101A4800134802F085F801F001FE00F057FC4FF052
:101A5800E0231F615F619F61D3F8042D42F000729B
:101A680003F550635A6072B69D60BFF34F8FBFF3A2
:101A78006F8F84F308883346BDE8F0411847BDE806
:101A8800F08100BF00001408007C04004804003006
:101A9800E80400302DE9F8430468454A436845499D
:101AA80024BA1460621E18BAB2F5C02F08605DD25D
:101AB800414A934248D1414D414E80220021284657
:101AC800FEF7CAFD04F2FF7102233E482B7140F273
:101AD8000517C90A4FF001086F8086F80080FFF7E4
:101AE8002BFA0446002852D04FF40062FF213648F2
:101AF800DFF8F090FEF7B0FD344A354B82F80080ED
:101B0800344ADFF8E4E0DFF8E4C03349334800241E
:101B180014704FF0FF321A608EF80040CCF8004085
:101B28000C70C9F80040046000F0ACFC2C4B214656
:101B3800186080222846FEF78FFD03236F802B71E3
:101B480086F80080BDE8F8831C4B802200211846E7
:101B5800FEF782FD1A4A034640F2052440F205408A
:101B680001215C8098801170BDE8F883134B8022B6
:101B780000211846FEF770FD114A034640F205148D
:101B8800FF2001215C8018711170BDE8F883802264
:101B980001462846FEF760FDFF230F4A2B710B4BC9
:101BA8006F8086F8008082F800801C70BDE8F8839A
:101BB800B40D0030B00D003048374334BC0D003050
:101BC800B80D003000001A08880500307C05003088
:101BD8000C000030740500307505003080050030B9
:101BE80078050030AC0D0030880D003084050030D9
:101BF8000378D02B00D0704743789E2BFBD1837895
:101C0800122BF8D1C378AD2BF5D1024B01221A70F3
:101C1800F1E700BF740500302DE9F041344B1C7822
:101C280092B014B112B0BDE8F08103A8FFF730FA02
:101C380008B3DDF81080B8F1010F1FD02D4F2346EF
:101C480020462D4D8DF80500002180222846396058
:101C58008DF804108DF807308DF80640FEF7FCFC6F
:101C6800264B0199696040F20F40012268801A7082
:101C780012B0BDE8F0811F4F0346E2E7204B059AFA
:101C88009A42DBD1089D1B4F6B1EB3F5C02F26D29D
:101C98003E68B54226D9AD1B082D28BF082506F198
:101CA80001612A4601F5802101A8CDE90144FEF72A
:101CB80025FD114B214618468022FEF7CDFC0F2248
:101CC800C570827001A92A460430FEF717FD0B4B38
:101CD8002E4483F800803E6012B0BDE8F0812346B0
:101CE8002046AEE7C5F30740C5F30724EBB2A8E7E3
:101CF8007C05003070050030BC0D0030B80D003098
:101D08003443374838B50C4B1A789AB10B4A1278D5
:101D180082B90B4D2A78032A0CD80346094C596816
:101D2800006804EBC20303C301322A7000F0AAFB67
:101D3800054B186038BD00BF7C05003075050030C4
:101D4800880D00308C0D0030780500302DE9F04FFB
:101D5800DFF8ECB083B09BF800200190002A4DD04A
:101D6800304B1A78002A49D108290E4646D82E4DFC
:101D7800DFF8D0902868D9F8001088424CD3002E9C
:101D880040D0019BDFF8C08028495F1E002402E094
:101D98000134A64236D02A68D9F80000824202F1FE
:101DA80001032ED2D8F8002017F801AF01F802A0DD
:101DB800501CB0F5006FC8F800002B60E8D1FFF7A1
:101DC8008FFC1A4982460028E2D1621C184C0199FE
:101DD8002068FFF76BF82060164C80225146204699
:101DE800FEF73AFC144A8BF800A0012313700D4A41
:101DF80040F20511FF2020716180137003B0BDE827
:101E0800F08F26460A4C019920683246FFF74EF8B3
:101E1800206003B0BDE8F08F00F034FB074908608C
:101E2800ADE700BF75050030AC0D00308805003007
:101E38000C000030BC0D0030B80D003078050030C3
:101E48007C050030B40D0030840500302DE9F04FDA
:101E5800974C2378BDB013B1964D2B7813B13DB094
:101E6800BDE8F08F074600F00DFB934B1860934BCD
:101E78001B68002B40F0BE80914B924E1A68336865
:101E88009A4203D1904B1B78042B15D08F4B80229C
:101E980000211846FEF7E0FB8D49034601220A702F
:101EA80040F2052000212A7040F205125880217066
:101EB8009A803DB0BDE8F08F864BD7F8008018684F
:101EC8007B680593BB880493FB880393FFF732F87C
:101ED8007E4FDFF8FCA18146802200213846FEF7BC
:101EE800BBFB98FA88F840F205137B804FF0010B92
:101EF8000623C1453B718AF800B040F094800DF18B
:101F08001C08CDF800803368734A74482021FEF716
:101F180053FE734920224046FEF774FF014600280D
:101F280000F08F800FA8FFF7B3F8049B93FA93FC97
:101F3800039B5ABA1FFA8CFC92B218B1109B012B62
:101F480000F091806749684BCDF890901B6820930A
:101F5800664B1E93336823934FF000090223CDE9A3
:101F680021C281F800901F93B8E80F000DF1940C7E
:101F7800ACE80F0098E80F008CE80F001EA8FFF7E8
:101F8800B3F800283ED0802249465048FEF764FB4B
:101F980040F2051B07234FF0010832684E495448A8
:101FA800A7F802B03B718AF80080FFF733F848B30E
:101FB8001EAE0FCE0DF1B40CACE80F000FCEACE89E
:101FC8000F000FCEACE80F0096E807008CE807007A
:101FD8002DA8CDF8B880FFF787F898B13B48494657
:101FE8008022FEF739FB0423A7F802B03B718AF878
:101FF800008034E7FFF774FB00287FF43DAF334FD0
:10200800DFF8CCA0314880220021FEF725FB40F202
:1020180005137B80FF233B71002201238AF80030DF
:1020280022702B701BE7802200213846FEF714FB34
:1020380040F20523002285F800B07B80BB80227027
:102048000DE7802203903846FEF706FB03992170BE
:1020580040F2052240F205338AF800B085F800B056
:102068007A80BB80FBE6059991FA81FEDDE91201D1
:1020780041EA004171451B497FF665AF91F800B010
:10208800BBF1000F7FF45FAF8022594638460393B7
:10209800FEF7E2FA039B8AF800302B7040F2052223
:1020A80040F2055384F800B07A80BB80D7E600BFC1
:1020B8007C05003075050030780500308405003057
:1020C800AC0D0030B40D0030880D0030BC0D003070
:1020D800B80D00300C00003000001A08FC40100851
:1020E8008C0D003074050030B00D0030345041556F
:1020F800000014082DE9F041072898B00546144659
:1021080002D88B781F2B10D97B220021601DFEF787
:10211800A3FA0223052101222370FF236570A17011
:10212800E270237118B0BDE8F081CA7800F1300878
:1021380003EB4813082A05934FF00003CDE9063353
:10214800CDE90933CDE90B33CDE901330D9301F125
:1021580004014FEA024301A828BF08220893FEF7AA
:10216800CDFA26484FEA481800F040FE00283FD133
:102178007B220021601DFEF76FFA022305212370E0
:102188000122FF236570A170E270237100F07AF9D3
:102198001B4E1A4F054600F075F903465B1BC72B0B
:1021A8003046BFD801F0DAF94021384600F014FE75
:1021B8000028F0D0114803AB0EAA402100F040FDE2
:1021C8000028E8D1DDE90F231343E4D10E9A4245F4
:1021D800E1D308F120039A42DDD203AB03CBA2EB93
:1021E8000802BDF84630E3706060A270A16099E70C
:1021F80001AA05A9014800F0EBFCB9E74804003042
:10220800380400302DE9F04180460E4600F03AF9D6
:10221800354F054606E001F0A1F900F033F9401BFF
:10222800322840D8002001F057F904463846002CDF
:10223800F1D14FF0605398F802201A702B4898F8A3
:1022480003205A70C3F80240446098F80320082A13
:1022580008F1040128BF0822FEF750FABFF34F8F98
:10226800204601F02BF921467F22701CFEF7F4F975
:10227800012140F20512FF2331707280337100F0A2
:1022880001F9194D044605E001F068F9012001F053
:1022980023F9B0B900F0F6F803461B1BC72B2846F4
:1022A800F2D9BDE8F0817F220021701CFEF7D4F935
:1022B800012140F20512FF23317072803371BDE8AD
:1022C800F0814FF060530A4A197CB170597CF17063
:1022D800D3F812305268B2607360BDE8F041002153
:1022E800012001F001B900BF3804003002000038B5
:1022F80012000038704700BF704700BF38B5194B4F
:10230800194D1A4ADD670024DC671949C3F8802093
:1023180040F27120174AC3F880401825C3F884009A
:10232800C3F884404FF49B70C3F88810C3F8884002
:102338001149C3F88C50C3F88C40C3F890200F4A59
:10234800C3F89040C3F89400C3F89440C3F89810B9
:10235800C3F89840C3F89C20C3F89C40FFF7CCFF13
:10236800204638BD004402583150010023C0000AFD
:10237800FF072803FFC3FFE83330D731AADE200068
:1023880038B50F4B1B780BB9012038BD0D494FF4F8
:102398007A720546B2FBF3F30868B0FBF3F000F07D
:1023A800E9F804460028EFD10F2DEDD8024629465A
:1023B8004FF0FF3000F090F8034B20461D6038BD09
:1023C80010000030040000301400003010B5224C1A
:1023D800224AD4F8D83043F48043C4F8D830D4F82B
:1023E800D83082B003F480430193019BD2F80034C3
:1023F8006FF3132343F40143C2F80034D2F80034D6
:1024080043F00103C2F80034032000F053F801F050
:10241800EDF9A369A2691249124CC3F3032302F030
:102428000F02CB5C8A5C104903F01F0320FA03F308
:1024380002F01F02D3400F2023600B60FFF7A0FFBC
:1024480018B10124204602B010BD0446FFF752FF20
:10245800204602B010BD00BF0044025800400240B0
:10246800EC3F10080000003004000030034A044B21
:1024780011681B780B441360704700BF3C0E003096
:1024880010000030014B1868704700BF3C0E003048
:1024980038B50446FFF7F6FF631C054602D0044B27
:1024A8001B781C44FFF7EEFF401BA042FAD338BD4F
:1024B800100000300749CA6803024FF6FF0003F412
:1024C800E0630240134343F0BF6343F40033CB603F
:1024D800704700BF00ED00E01B4BDB68C3F302232D
:1024E80000B5C3F1070EBEF1040F03F1040C28BFB9
:1024F8004FF0040EBCF1060F1CD9A3F1030C4FF0EA
:10250800FF3303FA0CF322EA03024FF0FF3303FA16
:102518000EF321EA030303FA0CF313431B0100280B
:10252800DBB20ADB00F1604000F5614080F800335F
:102538005DF804FB00229446E7E7044A00F00F0028
:10254800024413765DF804FB00ED00E0FCEC00E0CB
:1025580000280CDB4309064900F01F002033012244
:10256800824041F82320BFF34F8FBFF36F8F70472E
:1025780000E100E00138B0F1807F01D3012070470D
:1025880010B44FF0E023074C58614FF0F00C84F87A
:1025980023C00022072110469A615DF8044B196197
:1025A800704700BF00ED00E0F0B5D1E900471D46D7
:1025B8000E698B68002F35D11E4346EA8446D1E95F
:1025C80006341C434B692343846E04FB05F5D0F89D
:1025D8008440086A43EA0063C86844F8256004EB4D
:1025E800850443EA00436360114DCB68EB5CC3B1DB
:1025F8004FF0000C907892F803E0167853780004B6
:1026080040EA0E60304304EB0C0E40EA0320CEF89B
:102618000800C868285C0CF1040C604502F104024B
:10262800E8D8F0BD26431E4346F08046C7E700BF02
:102638001C411008704700BF2DE9F04F99B00446BF
:1026480046494C2205A8FEF759F8002C7AD0444A8E
:102658002368934204BF02F58072626094F8982060
:1026680002F0FF01002A71D09A6922F010029A61E3
:10267800FFF708FF054604E0FFF704FF401B0A28A0
:1026880057D823689A691107F6D49A6942F001026B
:102698009A61FFF7F7FE054604E0FFF7F3FE401BDB
:1026A8000A2846D823689A69D207F6D59A6942F06B
:1026B80002029A61227C012A9A690CBF22F0400228
:1026C80042F040029A61627C012A9A690CBF42F486
:1026D800804222F480429A61A27C012A9A690CBF46
:1026E80022F4805242F480529A619A69A068E168A3
:1026F80022F4407202439A619A6922F0A4029A6114
:102708001A69012922F010021A612BD071B302292B
:102718009A6900F07D8142F080029A611A69032962
:1027280042F010021A6121D19A6942F020029A619E
:102738001CE0D4F89C30032243F00103C4F89C3019
:1027480084F89820012019B0BDE8F08F84F899101A
:102758002046FFF76FFF236886E700BFA03F1008F9
:1027680000A000409A6942F004029A61D4E9061276
:10277800013A0139120242EA4162216A01390A43E7
:102788006169013942EA0142B0F5407FDA610ED150
:10279800D4E90B02A16A013A01381201013942EA6F
:1027A80000220A43616A013942EA0142DA60D4F838
:1027B8006080B8F1000F05D0D3F8C020616E0A43DD
:1027C800C3F8C020E06DA26E039218EB000F0BD087
:1027D80018A901EB820252F84C1CD3F8C82022F049
:1027E80007020A43C3F8C820D4E910A5BAF1000FBC
:1027F8000BD018AA02EB850252F84C1CD3F8BC2067
:1028080022F007020A43C3F8BC20D4E91296B9F1B2
:10281800000F0CD018AA02EB860252F84C1CD3F811
:10282800BC2022F0700242EA0112C3F8BC20D4E9AD
:10283800142762B118A901EB870151F84CCCD3F8E1
:10284800BC1021F4E06141EA0C21C3F8BC107249C4
:102858008B4200F0D48007FB02F206FB09FC0192D0
:1028680000260122C4F89C6084F89820D3F88410CC
:102878006A4F626BC4F89460394041EA8201C3F838
:102888008410D3F88410D4F838E021F47F0141EAA9
:102898000E41C3F88410D3F8881001EA070B02EB45
:1028A8000E0102F180524BEA810B02F52C52C3F85B
:1028B80088B09200D3F888B0009202EB8E0E724670
:1028C800D4F83CE002922BF4FE0B4BEA0E4BC3F813
:1028D80088B0D3F8A0B001EB4E010BEA070B4BEA26
:1028E800810BC3F8A0B0D3F8A0B02BF4FE0B4BEAD1
:1028F8000A4BC3F8A0B005FB0AF5D3F8B0A02944E9
:102908000AEA070A4AEA810AC3F8B0A0D3F8B0A0D5
:102918002AF4FE0A4AEA094AC3F8B0A0D3F8AC90F0
:10292800614409EA070949EA8109C3F8AC90D3F878
:10293800F09002EBCE0E019A09EA0709114449EA20
:102948008109C3F8F090D3F8F0B0D4F858902BF47C
:102958007C1B4BEA094BC3F8F0B0D3F8C0B001EBCD
:1029680049010BEA070B4BEA8101C3F8C010D3F801
:10297800C01021F47C1141EA0041C3F8C010D3F81B
:10298800C07003990EEB850505EB8C0C0CEB820AE5
:1029980027F07C570AEBC90901FB00F047EA0867F2
:1029A800C3F8C070029A1E4B09EB800001FB08F1C6
:1029B80000EB8101C4E91C2E9942009AC4F88800F2
:1029C800C4E91E5CC4E920A9E266C4F890100CD8DA
:1029D8008A4206D2009A42F8046BD4F890309A42A0
:1029E800F9D3002019B0BDE8F08FD4F89C30032249
:1029F80043F02003C4F89C3084F89820A2E6D4F869
:102A080004C0DCF8081021F00301CCF8081022E714
:102A180042F020029A61A9E600A000400300FFFFEF
:102A2800FCD30040704700BF90F89820013A012A73
:102A3800034607D9D0F89C2042F002020120C3F8CF
:102A48009C20704710B40C68D1E9030294B9072898
:102A58004FEA024225D08C6842EA84724C692243CC
:102A680042EAC0624968DB6E5DF8044B43F82120F6
:102A780000207047072818BF8C681B6F42EA407215
:102A880014BF48698869496803EBC10C18BF40EA5C
:102A9800847043F831205DF8044BCCF80400002022
:102AA8007047D1E9060442EA0422024342F0605228
:102AB800D8E700BF844690F89800012807D0DCF8D2
:102AC8009C3043F004030120CCF89C3070470098F8
:102AD80040EA430343EA8202DCF8000042EA0111BB
:102AE800C0F880100020704790F89820012A03460B
:102AF80007D0D0F89C2042F004020120C3F89C20A3
:102B080070470068022283F898208269002122F029
:102B1800010282610846C3F89C10704790F898300B
:102B2800022B2BD10268936943F0010393619369E7
:102B3800DB0758BF33231DD5936923F01003936136
:102B480093691B0748BF332302D404E0013B1DD01F
:102B580091690907FAD49169002341F002014FF005
:102B6800010C9161C0F8943080F898C018467047FD
:102B7800013B0BD09169C907FAD5DDE7D0F89C3045
:102B880043F00803C0F89C3001207047D0F89C300F
:102B9800032243F00103C0F89C3080F898200120FC
:102BA800704700BF90B110B50446FFF7B7FF226821
:102BB800D36D23F003032046D365FFF733FF0023CB
:102BC800C4F89C3084F89830184610BD012070472E
:102BD800F8B590F89830022B044612D10668D6F85A
:102BE800C03013F07C5F14D0D6F8C45015F400152B
:102BF80016D0D0F89C3043F40073C0F89C30012004
:102C0800F8BDD0F89C3043F00803C0F89C30012090
:102C1800F8BDD0F89C3043F02003C0F89C30F6E7AC
:102C2800D6F8C470C7F304473B46FFF7BDFC012242
:102C3800BA40C6F8D0202846C4F89420F8BD00BF92
:102C4800F0B590F89840022C5FD1402964D0412912
:102C580000F08480046D8C424FD9446DC56F01FB30
:102C680004F405EB840500272C6804F080445460C4
:102C7800002C40F09C802C68C4F38A4414602C68B3
:102C880004F0005494602C6804F000441461AC888B
:102C9800D461EC8804F00F04D4606E6806F48016E2
:102CA80056616E6806F400169661EE7906F07F06A6
:102CB8001662484E16F804C06C68E40F5462BCF102
:102CC800000F0ED0013B05F1070EAEF1060C1EF801
:102CD800014F03F8014FD468345DACEB050C644533
:102CE800F3D84029036866D041296FD01F2966D8D8
:102CF80001228A40C3F898205FE0D0F89C3043F066
:102D08002003C0F89C300120F0BDD0F89C3043F07F
:102D18000803C0F89C30F6E70468D4F8A05015F40E
:102D2800FE0FEAD0D4F8A4506E0639D0D4F8A470B7
:102D3800D4F8A450ED01C7F3052708D5D4F8A0505E
:102D4800002D04DAD4F8A040013707EA1447446C90
:102D5800456F07FB04F405EB840585E70468D4F8A0
:102D6800B05015F4FE0FC8D0D4F8B4506E0617D082
:102D7800D4F8B470D4F8B450ED01C7F3052708D5DA
:102D8800D4F8B050002D04DAD4F8B040013707EA7F
:102D98001447C46C856F07FB04F405EB840563E7EF
:102DA800D0F89C3043F48073C0F89C30ABE72C68B3
:102DB80024F0604462E7C3F8A8700020F0BD01F079
:102DC8001F0101228A40C3F89C20F6E7C3F8B870B7
:102DD800F3E700BF1C411008036840290CBFD3F873
:102DE800A400D3F8B40000F07F0070470368D3F85C
:102DF800C40000F03F0070470F4BDA68D20706D5D1
:102E08000E490F4A59605A60DB68DB0711D40A4B38
:102E1800D3F80C0110F001000AD00849084AC3F899
:102E28000411C3F80421D3F80C0100F00100704725
:102E380070470120704700BF0020005223016745FA
:102E4800AB89EFCD0A4BDA6842F00102DA60DA6842
:102E5800D2070BD5D3F80C2142F00102C3F80C219C
:102E6800D3F80C01C04300F00100704701207047FF
:102E780000200052F8B50D460746A5F10204FFF7F9
:102E880001FBB4FA84F464090646E407264A44BB05
:102E980013695B0713D5781C29D0FFF7F3FA831B56
:102EA800BB4201D8002FF1D10320F8BDD3F810217F
:102EB800520704D5002CF9D11A695107FCD4012D09
:102EC800194A1A491FD0D2F810310B4011D1D2F843
:102ED8001031DB0303D54FF48033C2F814310020DE
:102EE800F8BDD2F810315807E9D5781CD5D10E4B6A
:102EF800E0E70F488169194341F000418161C2F858
:102F080014310120F8BD13690B4006D11369D903A8
:102F180044BF4FF480335361E1E7054881691943A1
:102F280081615361EDE700BF002000520000EE17F9
:102F3800400E0030F8B52F4E307D012850D001F1F9
:102F480078430127B3F5801F0D461446377536D3ED
:102F5800A1F10163B3F5801F40D2002302214CF296
:102F68005030B361FFF786FF30BB234AD2F80C31EB
:102F780043F00203C2F80C3102272246BFF36F8FD9
:102F8800BFF34F8F04F120012B1B1068D05004327F
:102F98008A42FAD1BFF36F8FBFF34F8F4CF2503094
:102FA8003946FFF767FF012F134A1BD0D2F80C31BF
:102FB80023F00203C2F80C3100233375F8BD002357
:102FC80039464CF25030B361FFF754FF0028F3D173
:102FD800094AD36843F00203D360CEE73846F8BD08
:102FE8000220F8BDD36823F00203D36000233375B1
:102FF800E4E700BF400E00300020005201F0030358
:10300800032B22D0CA070BD51C4BDA6822F03002FA
:10301800DA60DA680243DA60DA6842F08802DA6075
:103028008B0711D5154BD3F80C2122F03002C3F8C9
:103038000C21D3F80C211043C3F80C01D3F80C2150
:1030480042F08802C3F80C2170470C4BDA6822F072
:103058003002DA60D3F80C2122F03002C3F80C21D8
:10306800DA680243DA60D3F80C210243C3F80C2172
:103078009A6942F010029A61704700BF002000521E
:1030880010B4CC070BD5104CE36823F4E663E36077
:10309800E36843EA0023134343F08403E3608B07A8
:1030A8000FD50949D1F80C3123F4E663C1F80C3186
:1030B800D1F80C3143EA0020024342F08402C1F8FF
:1030C8000C215DF8044B7047002000522DE9F047B1
:1030D800554E337D012B82B000F0A1808846012136
:1030E80000233175B3614368DF0704464AD49D075E
:1030F80051D40268012A00F08C804FF0FF33C8F8E1
:103108000030D4E902532B449D4280F08680474F1B
:10311800DFF81C9108E01AF0020F26D1D4E9022347
:1031280001351344AB4278D9D4F804A0226951463A
:103138002846FFF7A5FF1AF0010FECD001214CF249
:103148005030FFF797FEFA6802EA0902FA606268EF
:103158009207034609D4002BE0D0C8F8005000229B
:103168001846327502B0BDE8F08702214CF25030A3
:10317800FFF780FED7F80C2102EA09020346C7F8D8
:103188000C21E8E74CF25030FFF774FE6368002822
:1031980037D1980707D502214CF25030FFF76AFE65
:1031A80008B10123DBE72568012DA6D161682069F4
:1031B800FFF724FF11F001030DD029464CF25030DF
:1031C800FFF758FE1949CA6822F00802CA60031EB0
:1031D800616818BF012301F002010029BFD0022154
:1031E8004CF250300193FFF745FE1049019BD1F88E
:1031F8000C21002822F0080218BF0123C1F80C2175
:10320800ADE79907CDD502214CF25030FFF732FED9
:10321800C7E720691946FFF7F1FE00239FE702235D
:10322800184602B0BDE8F087400E0030002000527A
:10323800FBF8FFFF2DE9F04F0C6885B0002C00F07B
:10324800B08000234FF0B0478946012202FA03F507
:1032580015EA040800F0A080D9F8041001F0030E64
:10326800032603FA02F20EF1FF3A06FA02FCBAF15B
:10327800010FD9F808606FEA0C0C40F29580BEF196
:10328800030F01D1012E05D0C568964005EA0C054B
:103298002E43C66005680EFA02F205EA0C052A43B9
:1032A80011F4403F026077D0784DD5F8F42042F011
:1032B8000202C5F8F420D5F8F42002F002020392C5
:1032C800039A23F0030202F1B04203F00306D2F896
:1032D8000854B6004FF00F0C0CFA06FC25EA0C0E49
:1032E8006B4DA84202F5806232D005F58065A84290
:1032F80000F09B80674DA84200F09E80DFF898C1DF
:10330800604500F08B80DFF894C1604500F0A28032
:10331800DFF88CC1604500F0A480DFF888C1604503
:1033280000F09180DFF880C1604500F0A180DFF8EF
:103338007CC1604500F0A380DFF874C160450CBF14
:103348004FF0090C4FF00A0C0CFA06F64EEA060E7E
:10335800C2F808E03A686FEA0805CE0254BF2A406E
:1033680048EA02023A607A688E0254BF2A4048EA64
:1033780002027A60D7F8C4208E0354BF2A4048EA74
:103388000202C7F8C420D7F8C020C90354BF2A4096
:1033980048EA0202C7F8C020013334FA03F27FF486
:1033A80054AF05B0BDE8F08F9640D0F808B001964C
:1033B800D9F80C600BEA0C0B06FA02FA4AEA0B0A77
:1033C800C0F808A0D0F804A0019E2AEA050AC1F3B3
:1033D80000159D4045EA0A054560C56805EA0C05E3
:1033E8002E43BEF1020FC6607FF454AFD9F81050D7
:1033F8004FEAD30A03F0070600EB8A0AB600B54085
:10340800DAF820B001950F2505FA06F6019D2BEA9A
:10341800060B45EA0B05CAF820503BE74FF0030CB2
:103428000CFA06F64EEA060E92E74FF0010C0CFA7B
:1034380006F64EEA060E8BE74FF0020C0CFA06F67B
:103448004EEA060E84E74FF0060C0CFA06F64EEA32
:10345800060E7DE74FF0040C0CFA06F64EEA060E4F
:1034680076E74FF0050C0CFA06F64EEA060E6FE703
:103478004FF0070C0CFA06F64EEA060E68E74FF016
:10348800080C0CFA06F64EEA060E61E700440258EC
:103498000000025800080258000C02580010025898
:1034A8000014025800180258001C02580020025844
:1034B8000024025802B90904816170470449054A89
:1034C80000F1200351F82300801A18BF012070472B
:1034D8000064025800010080024B53F82000C00F1E
:1034E800704700BF00640258024B41F4807143F8F2
:1034F800201070470064025840B3D0E9003170B51D
:10350800826804464CF6CC40186045F25550186065
:1035180059609A60FEF7B6FF2368DA6805465007D7
:103528000DD041F60106FEF7ADFF401BB0422368FF
:1035380002D9DA6851070BD1DA685207F3D1196951
:10354800E268914206D01A61002070BD01207047E0
:10355800032070BD4AF6AA221A60F5E703684AF606
:10356800AA2200201A607047334B30B4996A9C6ACB
:10357800DD6A5A6B14F47C7FC4F3051036D0C2F3AD
:10358800CC0205F0010505FB02F207EE900A06EEF3
:10359800902A01F003010129B8EEE77AFAEEE96A08
:1035A80002D0022942D019B3DFED247A1B6B87EED3
:1035B800876AC3F3080307EE903AF8EEE77AB7EEA6
:1035C800007A77EEA67A77EE877A67EE867A1A4BD4
:1035D8001B6BC3F34623013307EE103AF8EEC76AB4
:1035E80087EEA67AFCEEC77A17EE900A30BC7047D1
:1035F8001A6892061DD51968114A1B6BC1F3C101DF
:10360800CA4007EE902AB8EEE76AC3F30803C6EE8D
:10361800077A07EE103AB8EEC77AB7EE006A37EEC7
:10362800267A37EE067A67EE877AD0E7DFED057AF5
:10363800BCE7DFED057AB9E7004402580024744A74
:103648000090D00320BCBE4B0024744C5D4AF8B5F2
:10365800136803F00F03062B0AD8136823F00F032F
:1036680043F007031360136803F00F03072B21D1FE
:10367800554CFEF707FF236843F001030546236016
:1036880004E0FEF7FFFE401B022816D823685E07F9
:10369800F7D563684D484E4943F080430022636084
:1036A80022614C4A4C4B00680B601360FEF768FEC1
:1036B800044628B101242046F8BD03242046F8BD5D
:1036C800FEF7E0FE404E054641F2883704E0FEF77B
:1036D800D9FE431BBB42F0D8336913F0380FF6D13B
:1036E800FEF7D0FE32683D4B374F13400546336036
:1036F80004E0FEF7C7FE401B6428DED83B68980349
:10370800F7D4FEF7BFFE3B682F4E23F080730546C3
:103718003B6004E0FEF7B6FE401B0228CDD83368B4
:103728009901F7D4FEF7AEFE3368274F23F0806384
:103738000546336004E0FEF7A5FE401B0228BCD80E
:103748003B681A01F7D4FEF79DFE3B681E4D23F037
:10375800805306463B6004E0FEF794FE801B022877
:10376800ABD82B6813F00053F6D11D49AB611D4A45
:10377800EB612B62A9621C49E9622A636B63AA6345
:10378800EB632A646B642A684FF0FF3122F48022CD
:103798002A602B66A966D5F8D0300A4A43F48033EC
:1037A800C5F8D03013681B0785D5136823F00F03BD
:1037B80043F007031360146804F00F04073C18BFB4
:1037C800012478E700200052004402581400003019
:1037D80004000030000000300090D00345EDF6FFF3
:1037E80000020202800201010000FF010C4A136975
:1037F80003F03803102B0DD0182B09D063B91368C8
:103808009B060BD513680748C3F3C103D84070471C
:10381800FFF7AABE0448704704487047014870473C
:10382800004402580090D00340787D0100093D0013
:10383800036859699A6942F008029A619A6942F0E4
:1038480010029A611A6822F001021A601A6922F4B9
:103858005B7222F003021A619A6822F440429A606D
:1038680090F88120042A01D08A0631D490F881206A
:10387800032A0FD04A0609D5D0F8842042F0040262
:10388800C0F884209A6942F040029A61826AB2F5CF
:10389800800F28D08A0509D5D0F8842042F001028B
:1038A800C0F884209A6942F400729A61CA0509D561
:1038B800D0F8842042F00802C0F884209A6942F4C3
:1038C80080729A610023A0F86230A0F86A307047CD
:1038D800D0F8842042F08002C0F884209A6942F02F
:1038E80020029A61C2E70A06D4D5D0F8842042F0B3
:1038F8000202C0F884209A6942F080029A61C9E7FE
:10390800704700BF002800F0F9802DE9F8438D4981
:103918000368C2688B42044678D0A1F578418B428F
:1039280074D089498B4271D00F2A00F28280C16B12
:1039380002F108004D09C00805FB0000082878D8E6
:10394800A06AB0F5800F00F0D480150494F8816067
:1039580006F0FF07002E00F0D380022684F881606D
:103968001E68D4F818C0D4F8388026F001061E6006
:103978006668BCF1806F06F4800900F09F80B9F199
:10398800000F02D0062A00F2AA80D3F800E02EF435
:10399800807EC3F800E0676B4CEA060C4CEA080C22
:1039A8004CEA070C676A4CEA070C27694CEA070CD3
:1039B80067694CEA070C276A4CEA070CE7693A433F
:1039C80002430A432A439A60E26CA1684CEA020265
:1039D8000A43A16C0A43A16DB0F5800F42EA0102C7
:1039E800DA6029D0002E54D128B99A6822F4C0523E
:1039F80042F400629A609A6822F4C06242F48062DB
:103A08009A601A6D22F001021A654FE0E16B02F12B
:103A180008004D09C00805FB0000102809D8A06A55
:103A2800B0F5800F91D1256B05B91504B2EB154F90
:103A38008CD90120BDE8F883226C012A1A680CBFD2
:103A480042F4004222F400421A60626C012A1A68A9
:103A58000CBF42F4804222F480421A60394A9342F1
:103A680007D0A2F57842934203D002F580629342D0
:103A780050D1B5F5F81F50D01A68E16A22F4005207
:103A88002D0C1A6001350122AA400A431A64002E3F
:103A9800B1D01A6D22F001021A65B9F1000F05D0F4
:103AA800DA68616D22F000420A43DA6000200123DF
:103AB800C4F8840084F88130BDE8F883B6F5800F37
:103AC80034D0002E7FF45BAFB8F1805F7FF45DAF38
:103AD800D3F800E04EF4805EC3F800E055E7D3F871
:103AE80000E0276D2EF4807E4EEA070EC3F800E052
:103AF80051E7256BB5F5702F96D99AE701207047E5
:103B0800204684F88070FFF7FBFE2368E268E16BCB
:103B1800A06A22E7B5F5702FAED11A6842F40052B8
:103B28001A60E26A1A64002EB3D164E7B8F1000F94
:103B38007FF428AFD3F800E04EF4805EC3F800E0CD
:103B480020E700BF00300140003C0040704700BF44
:103B5800A0B10268022310B580F88130136823F001
:103B6800010304461360FFF7F1FF0023C4F8843013
:103B780084F8803084F88130184610BD01207047E1
:103B88002DE9F84F04461D460A9FD0F80090D0F85A
:103B98003CA088469346FEF775FC94F88130012BCB
:103BA8007AD10646D8B2B8F1000F76D0BBF1000F33
:103BB80073D0002D71D094F88030012B6CD023681D
:103BC80084F880000022052184F88110C4F884203C
:103BD800A4F86A50A4F86250C4E91C22DA68C4F850
:103BE80064B022F4C022C4F85C80A4F86850A4F839
:103BF8006050DA60964A934200F0A280A2F57842BB
:103C0800934200F09D8002F5806293420CBF4FF012
:103C1800100B4FF0080B5A686FF30F022A435A60D3
:103C28001A6842F001021A606268B2F5800F03D187
:103C38001A6842F400721A60E2684FEA5A1808F1EA
:103C480001080F2A1FFA88F87DD94FEA9B0BAA466C
:103C5800D5B9BAF1000F2BD05D695A6915F0020584
:103C680000D000255969C9075AD4D04501D9120492
:103C780056D4FEF707FC801BB84202D3781C40F0EC
:103C88006D812368002DE7D05A69920740D45A699C
:103C9800BAF1000FE6D132E00220BDE8F88FFEF756
:103CA800F1FB831B9F4202D87A1C40F0C98023682D
:103CB8005B691B07F3D52046FFF7BAFD012284F89C
:103CC8008120D4F884000023C01A84F8803018BFFB
:103CD8000120BDE8F88FE26D52F8041B1962E26515
:103CE800B4F86220013A92B2A4F86220B4F86250A3
:103CF8005A69ADB2BAF1000FB4D1002DD8D05A69C3
:103D080091074FF0000A03D45A695A699107FBD505
:103D180005EB0B029245DED35A695969C907A4D548
:103D2800186BB4F86A20616E013A92B241F8040B3C
:103D3800A4F86A20B4F86AA061661FFA8AFA87E7CD
:103D48004FF0100B67E7072A40F284804FEA5B0BBD
:103D5800AA4625BBBAF1000FAAD05D695A6915F0C9
:103D6800020500D000255969C80747D4D04556D95F
:103D7800110454D5626EB9F830101180B9F83010BA
:103D8800518004326266B4F86A20023A92B2A4F80A
:103D98006A20B4F86AA01FFA8AFA002DDAD05A69A4
:103DA800920723D45A69BAF1000FDCD115E0E26D0D
:103DB80032F8021BA9F82010E265B4F86220013A33
:103DC80092B2A4F86220B4F862505A69ADB2BAF15E
:103DD800000FC8D1002D3FF46BAF5A6991074FF01F
:103DE800000A03D45A695A699107FBD505EB0B02FF
:103DF8009245DCD35A695969C807B7D5626EB9F8D4
:103E0800301022F8021B6266B4F86A20013A92B2B6
:103E1800A4F86A20B4F86AA01FFA8AFA99E7BAF1F6
:103E2800010F01D19204E9D4FEF72CFB801BB842A4
:103E380002D3781C40F092802368002DAFD18CE724
:103E4800D4F8843043F02003C4F8843033E700BF4B
:103E580000300140AA46002D36D1BAF1000F3FF4D8
:103E680027AF5A695A6900255969C80744D4D0450B
:103E78004AD9110448D593F83020636E1A70636EDE
:103E88002268591C616692F830205A70636E226865
:103E9800591C616692F830205A70636E2268591C6A
:103EA800616692F830205A70B4F86A30043B9BB2CD
:103EB800A4F86A30636EB4F86AA0013363661FFA27
:103EC8008AFA2368002DC8D05A6991070CD45A6918
:103ED800BAF1000FC8D15A6990074FF0000A03D40D
:103EE8005A695A699007FBD505EB0B0292451CD31A
:103EF8005A695969C807BAD593F83020636E1A70A1
:103F0800B4F86A30013BD2E7BAF1030F02D812F4D1
:103F1800C04FF1D1FEF7B6FA801BB84201D37B1C23
:103F28001CD12368002DCFD19BE7E26D127883F86E
:103F38002020B4F86230013B9BB2A4F86230E36DF4
:103F4800B4F862500133E3652368ADB25A69BAF137
:103F5800000F89D1002D3FF4ABAEBCE72046FFF738
:103F680067FCD4F8843043F48073C4F884300122A9
:103F7800002384F8812084F8803003208DE600BF78
:103F8800F8B500BFF8BC08BC9E467047F8B500BF3E
:083F9800F8BC08BC9E4670470E
:103FA0000000000000000000000000000000000011
:103FB00000000000010000000200000003000000FB
:103FC00004000000000000000500000000000000E8
:103FD00000000000000000000600000000000000DB
:103FE00000000000000000000700000000000000CA
:103FF000010203040102030406070809982F8A42FC
:1040000091443771CFFBC0B5A5DBB5E95BC256392A
:10401000F111F159A4823F92D55E1CAB98AA07D842
:10402000015B8312BE853124C37D0C55745DBE7265
:10403000FEB1DE80A706DC9B74F19BC1C1699BE4E5
:104040008647BEEFC69DC10FCCA10C246F2CE92D75
:10405000AA84744ADCA9B05CDA88F97652513E9899
:104060006DC631A8C82703B0C77F59BFF30BE0C6A0
:104070004791A7D55163CA0667292914850AB7272E
:1040800038211B2EFC6D2C4D130D385354730A65CB
:10409000BB0A6A762EC9C281852C7292A1E8BFA2A2
:1040A0004B661AA8708B4BC2A3516CC719E892D10A
:1040B000240699D685350EF470A06A1016C1A4198D
:1040C000086C371E4C774827B5BCB034B30C1C398C
:1040D0004AAAD84E4FCA9C5BF36F2E68EE828F744B
:1040E0006F63A5781478C8840802C78CFAFFBE9065
:1040F000EB6C50A4F7A3F9BEF27871C6485944524C
:10410000412D554D432D4B422D434D342D323032F0
:10411000362D2121214741544557415900010203C1
:0C41200004050607080C1014182030409D
:08412C0024C2FF7F0100000026
:04413400010310086B
:04413800D902100890
:10413C000090D0030090D00318FCFFFFFFFFFFFF9F
:08414C0001000000100000005A
:040000050810089542
:00000001FF
